{
  "contractName": "BaseJumpRateModelV2",
  "abi": [
    {
      "inputs": [
        {
          "internalType": "uint256",
          "name": "baseRatePerYear",
          "type": "uint256"
        },
        {
          "internalType": "uint256",
          "name": "multiplierPerYear",
          "type": "uint256"
        },
        {
          "internalType": "uint256",
          "name": "jumpMultiplierPerYear",
          "type": "uint256"
        },
        {
          "internalType": "uint256",
          "name": "kink_",
          "type": "uint256"
        },
        {
          "internalType": "address",
          "name": "owner_",
          "type": "address"
        }
      ],
      "stateMutability": "nonpayable",
      "type": "constructor"
    },
    {
      "anonymous": false,
      "inputs": [
        {
          "indexed": false,
          "internalType": "uint256",
          "name": "baseRatePerBlock",
          "type": "uint256"
        },
        {
          "indexed": false,
          "internalType": "uint256",
          "name": "multiplierPerBlock",
          "type": "uint256"
        },
        {
          "indexed": false,
          "internalType": "uint256",
          "name": "jumpMultiplierPerBlock",
          "type": "uint256"
        },
        {
          "indexed": false,
          "internalType": "uint256",
          "name": "kink",
          "type": "uint256"
        }
      ],
      "name": "NewInterestParams",
      "type": "event"
    },
    {
      "inputs": [],
      "name": "baseRatePerBlock",
      "outputs": [
        {
          "internalType": "uint256",
          "name": "",
          "type": "uint256"
        }
      ],
      "stateMutability": "view",
      "type": "function"
    },
    {
      "inputs": [],
      "name": "blocksPerYear",
      "outputs": [
        {
          "internalType": "uint256",
          "name": "",
          "type": "uint256"
        }
      ],
      "stateMutability": "view",
      "type": "function"
    },
    {
      "inputs": [],
      "name": "jumpMultiplierPerBlock",
      "outputs": [
        {
          "internalType": "uint256",
          "name": "",
          "type": "uint256"
        }
      ],
      "stateMutability": "view",
      "type": "function"
    },
    {
      "inputs": [],
      "name": "kink",
      "outputs": [
        {
          "internalType": "uint256",
          "name": "",
          "type": "uint256"
        }
      ],
      "stateMutability": "view",
      "type": "function"
    },
    {
      "inputs": [],
      "name": "multiplierPerBlock",
      "outputs": [
        {
          "internalType": "uint256",
          "name": "",
          "type": "uint256"
        }
      ],
      "stateMutability": "view",
      "type": "function"
    },
    {
      "inputs": [],
      "name": "owner",
      "outputs": [
        {
          "internalType": "address",
          "name": "",
          "type": "address"
        }
      ],
      "stateMutability": "view",
      "type": "function"
    },
    {
      "inputs": [
        {
          "internalType": "uint256",
          "name": "baseRatePerYear",
          "type": "uint256"
        },
        {
          "internalType": "uint256",
          "name": "multiplierPerYear",
          "type": "uint256"
        },
        {
          "internalType": "uint256",
          "name": "jumpMultiplierPerYear",
          "type": "uint256"
        },
        {
          "internalType": "uint256",
          "name": "kink_",
          "type": "uint256"
        }
      ],
      "name": "updateJumpRateModel",
      "outputs": [],
      "stateMutability": "nonpayable",
      "type": "function"
    },
    {
      "inputs": [
        {
          "internalType": "uint256",
          "name": "cash",
          "type": "uint256"
        },
        {
          "internalType": "uint256",
          "name": "borrows",
          "type": "uint256"
        },
        {
          "internalType": "uint256",
          "name": "reserves",
          "type": "uint256"
        }
      ],
      "name": "utilizationRate",
      "outputs": [
        {
          "internalType": "uint256",
          "name": "",
          "type": "uint256"
        }
      ],
      "stateMutability": "pure",
      "type": "function"
    },
    {
      "inputs": [
        {
          "internalType": "uint256",
          "name": "cash",
          "type": "uint256"
        },
        {
          "internalType": "uint256",
          "name": "borrows",
          "type": "uint256"
        },
        {
          "internalType": "uint256",
          "name": "reserves",
          "type": "uint256"
        },
        {
          "internalType": "uint256",
          "name": "reserveFactorMantissa",
          "type": "uint256"
        }
      ],
      "name": "getSupplyRate",
      "outputs": [
        {
          "internalType": "uint256",
          "name": "",
          "type": "uint256"
        }
      ],
      "stateMutability": "view",
      "type": "function"
    }
  ],
  "bytecode": "0x608060405234801561001057600080fd5b5060405161072a38038061072a83398101604081905261002f91610162565b600080546001600160a01b0319166001600160a01b03831617905561005685858585610060565b505050505061020c565b61007a622014808561014360201b6102731790919060201c565b6002556100c96100986220148083610156602090811b61027f17901c565b6100b7670de0b6b3a76400008661015660201b61027f1790919060201c565b61014360201b6102731790919060201c565b6001556100e48262201480610143602090811b61027317901c565b60038190556004829055600254600154604080519283526020830191909152810191909152606081018290527f6960ab234c7ef4b0c9197100f5393cfcde7c453ac910a27bd2000aa1dd4c068d9060800160405180910390a150505050565b600061014f82846101bd565b9392505050565b600061014f82846101df565b600080600080600060a0868803121561017a57600080fd5b855160208701516040880151606089015160808a0151939850919650945092506001600160a01b03811681146101af57600080fd5b809150509295509295909350565b6000826101da57634e487b7160e01b600052601260045260246000fd5b500490565b600081600019048311821515161561020757634e487b7160e01b600052601160045260246000fd5b500290565b61050f8061021b6000396000f3fe608060405234801561001057600080fd5b50600436106100935760003560e01c8063a385fb9611610066578063a385fb9614610107578063b816881614610111578063b9f9850a14610124578063f14039de1461012d578063fd2da3391461013657600080fd5b80632037f3e7146100985780636e71e2d8146100ad5780638726bb89146100d35780638da5cb5b146100dc575b600080fd5b6100ab6100a63660046103f5565b61013f565b005b6100c06100bb366004610427565b6101be565b6040519081526020015b60405180910390f35b6100c060015481565b6000546100ef906001600160a01b031681565b6040516001600160a01b0390911681526020016100ca565b6100c06220148081565b6100c061011f3660046103f5565b610206565b6100c060035481565b6100c060025481565b6100c060045481565b6000546001600160a01b031633146101ac5760405162461bcd60e51b815260206004820152602660248201527f6f6e6c7920746865206f776e6572206d61792063616c6c20746869732066756e60448201526531ba34b7b71760d11b606482015260840160405180910390fd5b6101b88484848461028b565b50505050565b6000826101cd575060006101ff565b6101fc6101e4836101de878761031a565b90610326565b6101f685670de0b6b3a764000061027f565b90610273565b90505b9392505050565b60008061021b670de0b6b3a764000084610326565b9050600061022a878787610332565b90506000610244670de0b6b3a76400006101f6848661027f565b9050610267670de0b6b3a76400006101f6836102618c8c8c6101be565b9061027f565b98975050505050505050565b60006101ff8284610469565b60006101ff828461048b565b6102988462201480610273565b6002556102ab6101e4622014808361027f565b6001556102bb8262201480610273565b60038190556004829055600254600154604080519283526020830191909152810191909152606081018290527f6960ab234c7ef4b0c9197100f5393cfcde7c453ac910a27bd2000aa1dd4c068d9060800160405180910390a150505050565b60006101ff82846104aa565b60006101ff82846104c2565b6000806103408585856101be565b9050600454811161038057610378600254610372670de0b6b3a76400006101f66001548661027f90919063ffffffff16565b9061031a565b9150506101ff565b60006103ab600254610372670de0b6b3a76400006101f660015460045461027f90919063ffffffff16565b905060006103c46004548461032690919063ffffffff16565b90506103eb82610372670de0b6b3a76400006101f66003548661027f90919063ffffffff16565b93505050506101ff565b6000806000806080858703121561040b57600080fd5b5050823594602084013594506040840135936060013592509050565b60008060006060848603121561043c57600080fd5b505081359360208301359350604090920135919050565b634e487b7160e01b600052601160045260246000fd5b60008261048657634e487b7160e01b600052601260045260246000fd5b500490565b60008160001904831182151516156104a5576104a5610453565b500290565b600082198211156104bd576104bd610453565b500190565b6000828210156104d4576104d4610453565b50039056fea2646970667358221220f58c35ad3c1f8c5865b6caac414b42fe3a6231fe081963def17053f86cc5a14f64736f6c63430008090033",
  "immutableReferences": {},
  "source": "// SPDX-License-Identifier: MIT\npragma solidity >=0.8.0;\n\nimport \"../../openzeppelin/contracts/utils/math/SafeMath.sol\";\n\n/**\n  * @title Logic for Compound's JumpRateModel Contract V2.\n  * @author Compound (modified by Dharma Labs, refactored by Arr00)\n  * @notice Version 2 modifies Version 1 by enabling updateable parameters.\n  */\ncontract BaseJumpRateModelV2 {\n    using SafeMath for uint;\n\n    event NewInterestParams(uint baseRatePerBlock, uint multiplierPerBlock, uint jumpMultiplierPerBlock, uint kink);\n\n    /**\n     * @notice The address of the owner, i.e. the Timelock contract, which can update parameters directly\n     */\n    address public owner;\n\n    /**\n     * @notice The approximate number of blocks per year that is assumed by the interest rate model\n     */\n    uint public constant blocksPerYear = 2102400;\n\n    /**\n     * @notice The multiplier of utilization rate that gives the slope of the interest rate\n     */\n    uint public multiplierPerBlock;\n\n    /**\n     * @notice The base interest rate which is the y-intercept when utilization rate is 0\n     */\n    uint public baseRatePerBlock;\n\n    /**\n     * @notice The multiplierPerBlock after hitting a specified utilization point\n     */\n    uint public jumpMultiplierPerBlock;\n\n    /**\n     * @notice The utilization point at which the jump multiplier is applied\n     */\n    uint public kink;\n\n    /**\n     * @notice Construct an interest rate model\n     * @param baseRatePerYear The approximate target base APR, as a mantissa (scaled by 1e18)\n     * @param multiplierPerYear The rate of increase in interest rate wrt utilization (scaled by 1e18)\n     * @param jumpMultiplierPerYear The multiplierPerBlock after hitting a specified utilization point\n     * @param kink_ The utilization point at which the jump multiplier is applied\n     * @param owner_ The address of the owner, i.e. the Timelock contract (which has the ability to update parameters directly)\n     */\n    constructor(uint baseRatePerYear, uint multiplierPerYear, uint jumpMultiplierPerYear, uint kink_, address owner_) {\n        owner = owner_;\n\n        updateJumpRateModelInternal(baseRatePerYear,  multiplierPerYear, jumpMultiplierPerYear, kink_);\n    }\n\n    /**\n     * @notice Update the parameters of the interest rate model (only callable by owner, i.e. Timelock)\n     * @param baseRatePerYear The approximate target base APR, as a mantissa (scaled by 1e18)\n     * @param multiplierPerYear The rate of increase in interest rate wrt utilization (scaled by 1e18)\n     * @param jumpMultiplierPerYear The multiplierPerBlock after hitting a specified utilization point\n     * @param kink_ The utilization point at which the jump multiplier is applied\n     */\n    function updateJumpRateModel(uint baseRatePerYear, uint multiplierPerYear, uint jumpMultiplierPerYear, uint kink_) external {\n        require(msg.sender == owner, \"only the owner may call this function.\");\n\n        updateJumpRateModelInternal(baseRatePerYear, multiplierPerYear, jumpMultiplierPerYear, kink_);\n    }\n\n    /**\n     * @notice Calculates the utilization rate of the market: `borrows / (cash + borrows - reserves)`\n     * @param cash The amount of cash in the market\n     * @param borrows The amount of borrows in the market\n     * @param reserves The amount of reserves in the market (currently unused)\n     * @return The utilization rate as a mantissa between [0, 1e18]\n     */\n    function utilizationRate(uint cash, uint borrows, uint reserves) public pure returns (uint) {\n        // Utilization rate is 0 when there are no borrows\n        if (borrows == 0) {\n            return 0;\n        }\n\n        return borrows.mul(1e18).div(cash.add(borrows).sub(reserves));\n    }\n\n    /**\n     * @notice Calculates the current borrow rate per block, with the error code expected by the market\n     * @param cash The amount of cash in the market\n     * @param borrows The amount of borrows in the market\n     * @param reserves The amount of reserves in the market\n     * @return The borrow rate percentage per block as a mantissa (scaled by 1e18)\n     */\n    function getBorrowRateInternal(uint cash, uint borrows, uint reserves) internal view returns (uint) {\n        uint util = utilizationRate(cash, borrows, reserves);\n\n        if (util <= kink) {\n            return util.mul(multiplierPerBlock).div(1e18).add(baseRatePerBlock);\n        } else {\n            uint normalRate = kink.mul(multiplierPerBlock).div(1e18).add(baseRatePerBlock);\n            uint excessUtil = util.sub(kink);\n            return excessUtil.mul(jumpMultiplierPerBlock).div(1e18).add(normalRate);\n        }\n    }\n\n    /**\n     * @notice Calculates the current supply rate per block\n     * @param cash The amount of cash in the market\n     * @param borrows The amount of borrows in the market\n     * @param reserves The amount of reserves in the market\n     * @param reserveFactorMantissa The current reserve factor for the market\n     * @return The supply rate percentage per block as a mantissa (scaled by 1e18)\n     */\n    function getSupplyRate(uint cash, uint borrows, uint reserves, uint reserveFactorMantissa) public virtual view returns (uint) {\n        uint oneMinusReserveFactor = uint(1e18).sub(reserveFactorMantissa);\n        uint borrowRate = getBorrowRateInternal(cash, borrows, reserves);\n        uint rateToPool = borrowRate.mul(oneMinusReserveFactor).div(1e18);\n        return utilizationRate(cash, borrows, reserves).mul(rateToPool).div(1e18);\n    }\n\n    /**\n     * @notice Internal function to update the parameters of the interest rate model\n     * @param baseRatePerYear The approximate target base APR, as a mantissa (scaled by 1e18)\n     * @param multiplierPerYear The rate of increase in interest rate wrt utilization (scaled by 1e18)\n     * @param jumpMultiplierPerYear The multiplierPerBlock after hitting a specified utilization point\n     * @param kink_ The utilization point at which the jump multiplier is applied\n     */\n    function updateJumpRateModelInternal(uint baseRatePerYear, uint multiplierPerYear, uint jumpMultiplierPerYear, uint kink_) internal {\n        baseRatePerBlock = baseRatePerYear.div(blocksPerYear);\n        multiplierPerBlock = (multiplierPerYear.mul(1e18)).div(blocksPerYear.mul(kink_));\n        jumpMultiplierPerBlock = jumpMultiplierPerYear.div(blocksPerYear);\n        kink = kink_;\n\n        emit NewInterestParams(baseRatePerBlock, multiplierPerBlock, jumpMultiplierPerBlock, kink);\n    }\n}\n",
  "sourcePath": "/Users/sergeymurzin/PROJECTS/VAREGER/primary-smart-contracts/contracts/interestRateModel/BaseJumpRateModelV2.sol",
  "compiler": {
    "name": "solc",
    "version": "0.8.9+commit.e5eed63a.Emscripten.clang"
  },
  "schemaVersion": "3.4.1",
  "updatedAt": "2021-10-21T12:04:19.476Z",
  "devdoc": {
    "author": "Compound (modified by Dharma Labs, refactored by Arr00)",
    "kind": "dev",
    "methods": {
      "constructor": {
        "params": {
          "baseRatePerYear": "The approximate target base APR, as a mantissa (scaled by 1e18)",
          "jumpMultiplierPerYear": "The multiplierPerBlock after hitting a specified utilization point",
          "kink_": "The utilization point at which the jump multiplier is applied",
          "multiplierPerYear": "The rate of increase in interest rate wrt utilization (scaled by 1e18)",
          "owner_": "The address of the owner, i.e. the Timelock contract (which has the ability to update parameters directly)"
        }
      },
      "getSupplyRate(uint256,uint256,uint256,uint256)": {
        "params": {
          "borrows": "The amount of borrows in the market",
          "cash": "The amount of cash in the market",
          "reserveFactorMantissa": "The current reserve factor for the market",
          "reserves": "The amount of reserves in the market"
        },
        "returns": {
          "_0": "The supply rate percentage per block as a mantissa (scaled by 1e18)"
        }
      },
      "updateJumpRateModel(uint256,uint256,uint256,uint256)": {
        "params": {
          "baseRatePerYear": "The approximate target base APR, as a mantissa (scaled by 1e18)",
          "jumpMultiplierPerYear": "The multiplierPerBlock after hitting a specified utilization point",
          "kink_": "The utilization point at which the jump multiplier is applied",
          "multiplierPerYear": "The rate of increase in interest rate wrt utilization (scaled by 1e18)"
        }
      },
      "utilizationRate(uint256,uint256,uint256)": {
        "params": {
          "borrows": "The amount of borrows in the market",
          "cash": "The amount of cash in the market",
          "reserves": "The amount of reserves in the market (currently unused)"
        },
        "returns": {
          "_0": "The utilization rate as a mantissa between [0, 1e18]"
        }
      }
    },
    "title": "Logic for Compound's JumpRateModel Contract V2.",
    "version": 1
  },
  "userdoc": {
    "kind": "user",
    "methods": {
      "baseRatePerBlock()": {
        "notice": "The base interest rate which is the y-intercept when utilization rate is 0"
      },
      "blocksPerYear()": {
        "notice": "The approximate number of blocks per year that is assumed by the interest rate model"
      },
      "constructor": {
        "notice": "Construct an interest rate model"
      },
      "getSupplyRate(uint256,uint256,uint256,uint256)": {
        "notice": "Calculates the current supply rate per block"
      },
      "jumpMultiplierPerBlock()": {
        "notice": "The multiplierPerBlock after hitting a specified utilization point"
      },
      "kink()": {
        "notice": "The utilization point at which the jump multiplier is applied"
      },
      "multiplierPerBlock()": {
        "notice": "The multiplier of utilization rate that gives the slope of the interest rate"
      },
      "owner()": {
        "notice": "The address of the owner, i.e. the Timelock contract, which can update parameters directly"
      },
      "updateJumpRateModel(uint256,uint256,uint256,uint256)": {
        "notice": "Update the parameters of the interest rate model (only callable by owner, i.e. Timelock)"
      },
      "utilizationRate(uint256,uint256,uint256)": {
        "notice": "Calculates the utilization rate of the market: `borrows / (cash + borrows - reserves)`"
      }
    },
    "notice": "Version 2 modifies Version 1 by enabling updateable parameters.",
    "version": 1
  }
}