{
  "contractName": "CErc20Delegate",
  "abi": [
    {
      "inputs": [],
      "stateMutability": "nonpayable",
      "type": "constructor"
    },
    {
      "anonymous": false,
      "inputs": [
        {
          "indexed": false,
          "internalType": "uint256",
          "name": "cashPrior",
          "type": "uint256"
        },
        {
          "indexed": false,
          "internalType": "uint256",
          "name": "interestAccumulated",
          "type": "uint256"
        },
        {
          "indexed": false,
          "internalType": "uint256",
          "name": "borrowIndex",
          "type": "uint256"
        },
        {
          "indexed": false,
          "internalType": "uint256",
          "name": "totalBorrows",
          "type": "uint256"
        }
      ],
      "name": "AccrueInterest",
      "type": "event"
    },
    {
      "anonymous": false,
      "inputs": [
        {
          "indexed": true,
          "internalType": "address",
          "name": "owner",
          "type": "address"
        },
        {
          "indexed": true,
          "internalType": "address",
          "name": "spender",
          "type": "address"
        },
        {
          "indexed": false,
          "internalType": "uint256",
          "name": "amount",
          "type": "uint256"
        }
      ],
      "name": "Approval",
      "type": "event"
    },
    {
      "anonymous": false,
      "inputs": [
        {
          "indexed": false,
          "internalType": "address",
          "name": "borrower",
          "type": "address"
        },
        {
          "indexed": false,
          "internalType": "uint256",
          "name": "borrowAmount",
          "type": "uint256"
        },
        {
          "indexed": false,
          "internalType": "uint256",
          "name": "accountBorrows",
          "type": "uint256"
        },
        {
          "indexed": false,
          "internalType": "uint256",
          "name": "totalBorrows",
          "type": "uint256"
        }
      ],
      "name": "Borrow",
      "type": "event"
    },
    {
      "anonymous": false,
      "inputs": [
        {
          "indexed": false,
          "internalType": "uint256",
          "name": "error",
          "type": "uint256"
        },
        {
          "indexed": false,
          "internalType": "uint256",
          "name": "info",
          "type": "uint256"
        },
        {
          "indexed": false,
          "internalType": "uint256",
          "name": "detail",
          "type": "uint256"
        }
      ],
      "name": "Failure",
      "type": "event"
    },
    {
      "anonymous": false,
      "inputs": [
        {
          "indexed": false,
          "internalType": "address",
          "name": "liquidator",
          "type": "address"
        },
        {
          "indexed": false,
          "internalType": "address",
          "name": "borrower",
          "type": "address"
        },
        {
          "indexed": false,
          "internalType": "uint256",
          "name": "repayAmount",
          "type": "uint256"
        },
        {
          "indexed": false,
          "internalType": "address",
          "name": "cTokenCollateral",
          "type": "address"
        },
        {
          "indexed": false,
          "internalType": "uint256",
          "name": "seizeTokens",
          "type": "uint256"
        }
      ],
      "name": "LiquidateBorrow",
      "type": "event"
    },
    {
      "anonymous": false,
      "inputs": [
        {
          "indexed": false,
          "internalType": "address",
          "name": "minter",
          "type": "address"
        },
        {
          "indexed": false,
          "internalType": "uint256",
          "name": "mintAmount",
          "type": "uint256"
        },
        {
          "indexed": false,
          "internalType": "uint256",
          "name": "mintTokens",
          "type": "uint256"
        }
      ],
      "name": "Mint",
      "type": "event"
    },
    {
      "anonymous": false,
      "inputs": [
        {
          "indexed": false,
          "internalType": "address",
          "name": "oldAdmin",
          "type": "address"
        },
        {
          "indexed": false,
          "internalType": "address",
          "name": "newAdmin",
          "type": "address"
        }
      ],
      "name": "NewAdmin",
      "type": "event"
    },
    {
      "anonymous": false,
      "inputs": [
        {
          "indexed": false,
          "internalType": "contract ComptrollerInterface",
          "name": "oldComptroller",
          "type": "address"
        },
        {
          "indexed": false,
          "internalType": "contract ComptrollerInterface",
          "name": "newComptroller",
          "type": "address"
        }
      ],
      "name": "NewComptroller",
      "type": "event"
    },
    {
      "anonymous": false,
      "inputs": [
        {
          "indexed": false,
          "internalType": "contract InterestRateModel",
          "name": "oldInterestRateModel",
          "type": "address"
        },
        {
          "indexed": false,
          "internalType": "contract InterestRateModel",
          "name": "newInterestRateModel",
          "type": "address"
        }
      ],
      "name": "NewMarketInterestRateModel",
      "type": "event"
    },
    {
      "anonymous": false,
      "inputs": [
        {
          "indexed": false,
          "internalType": "address",
          "name": "oldPendingAdmin",
          "type": "address"
        },
        {
          "indexed": false,
          "internalType": "address",
          "name": "newPendingAdmin",
          "type": "address"
        }
      ],
      "name": "NewPendingAdmin",
      "type": "event"
    },
    {
      "anonymous": false,
      "inputs": [
        {
          "indexed": false,
          "internalType": "uint256",
          "name": "oldReserveFactorMantissa",
          "type": "uint256"
        },
        {
          "indexed": false,
          "internalType": "uint256",
          "name": "newReserveFactorMantissa",
          "type": "uint256"
        }
      ],
      "name": "NewReserveFactor",
      "type": "event"
    },
    {
      "anonymous": false,
      "inputs": [
        {
          "indexed": false,
          "internalType": "address",
          "name": "redeemer",
          "type": "address"
        },
        {
          "indexed": false,
          "internalType": "uint256",
          "name": "redeemAmount",
          "type": "uint256"
        },
        {
          "indexed": false,
          "internalType": "uint256",
          "name": "redeemTokens",
          "type": "uint256"
        }
      ],
      "name": "Redeem",
      "type": "event"
    },
    {
      "anonymous": false,
      "inputs": [
        {
          "indexed": false,
          "internalType": "address",
          "name": "payer",
          "type": "address"
        },
        {
          "indexed": false,
          "internalType": "address",
          "name": "borrower",
          "type": "address"
        },
        {
          "indexed": false,
          "internalType": "uint256",
          "name": "repayAmount",
          "type": "uint256"
        },
        {
          "indexed": false,
          "internalType": "uint256",
          "name": "accountBorrows",
          "type": "uint256"
        },
        {
          "indexed": false,
          "internalType": "uint256",
          "name": "totalBorrows",
          "type": "uint256"
        }
      ],
      "name": "RepayBorrow",
      "type": "event"
    },
    {
      "anonymous": false,
      "inputs": [
        {
          "indexed": false,
          "internalType": "address",
          "name": "benefactor",
          "type": "address"
        },
        {
          "indexed": false,
          "internalType": "uint256",
          "name": "addAmount",
          "type": "uint256"
        },
        {
          "indexed": false,
          "internalType": "uint256",
          "name": "newTotalReserves",
          "type": "uint256"
        }
      ],
      "name": "ReservesAdded",
      "type": "event"
    },
    {
      "anonymous": false,
      "inputs": [
        {
          "indexed": false,
          "internalType": "address",
          "name": "admin",
          "type": "address"
        },
        {
          "indexed": false,
          "internalType": "uint256",
          "name": "reduceAmount",
          "type": "uint256"
        },
        {
          "indexed": false,
          "internalType": "uint256",
          "name": "newTotalReserves",
          "type": "uint256"
        }
      ],
      "name": "ReservesReduced",
      "type": "event"
    },
    {
      "anonymous": false,
      "inputs": [
        {
          "indexed": true,
          "internalType": "address",
          "name": "from",
          "type": "address"
        },
        {
          "indexed": true,
          "internalType": "address",
          "name": "to",
          "type": "address"
        },
        {
          "indexed": false,
          "internalType": "uint256",
          "name": "amount",
          "type": "uint256"
        }
      ],
      "name": "Transfer",
      "type": "event"
    },
    {
      "inputs": [],
      "name": "_acceptAdmin",
      "outputs": [
        {
          "internalType": "uint256",
          "name": "",
          "type": "uint256"
        }
      ],
      "stateMutability": "nonpayable",
      "type": "function"
    },
    {
      "inputs": [
        {
          "internalType": "uint256",
          "name": "addAmount",
          "type": "uint256"
        }
      ],
      "name": "_addReserves",
      "outputs": [
        {
          "internalType": "uint256",
          "name": "",
          "type": "uint256"
        }
      ],
      "stateMutability": "nonpayable",
      "type": "function"
    },
    {
      "inputs": [
        {
          "internalType": "uint256",
          "name": "reduceAmount",
          "type": "uint256"
        }
      ],
      "name": "_reduceReserves",
      "outputs": [
        {
          "internalType": "uint256",
          "name": "",
          "type": "uint256"
        }
      ],
      "stateMutability": "nonpayable",
      "type": "function"
    },
    {
      "inputs": [
        {
          "internalType": "contract ComptrollerInterface",
          "name": "newComptroller",
          "type": "address"
        }
      ],
      "name": "_setComptroller",
      "outputs": [
        {
          "internalType": "uint256",
          "name": "",
          "type": "uint256"
        }
      ],
      "stateMutability": "nonpayable",
      "type": "function"
    },
    {
      "inputs": [
        {
          "internalType": "contract InterestRateModel",
          "name": "newInterestRateModel",
          "type": "address"
        }
      ],
      "name": "_setInterestRateModel",
      "outputs": [
        {
          "internalType": "uint256",
          "name": "",
          "type": "uint256"
        }
      ],
      "stateMutability": "nonpayable",
      "type": "function"
    },
    {
      "inputs": [
        {
          "internalType": "address payable",
          "name": "newPendingAdmin",
          "type": "address"
        }
      ],
      "name": "_setPendingAdmin",
      "outputs": [
        {
          "internalType": "uint256",
          "name": "",
          "type": "uint256"
        }
      ],
      "stateMutability": "nonpayable",
      "type": "function"
    },
    {
      "inputs": [
        {
          "internalType": "uint256",
          "name": "newReserveFactorMantissa",
          "type": "uint256"
        }
      ],
      "name": "_setReserveFactor",
      "outputs": [
        {
          "internalType": "uint256",
          "name": "",
          "type": "uint256"
        }
      ],
      "stateMutability": "nonpayable",
      "type": "function"
    },
    {
      "inputs": [
        {
          "internalType": "address",
          "name": "",
          "type": "address"
        }
      ],
      "name": "accountTokens",
      "outputs": [
        {
          "internalType": "uint256",
          "name": "",
          "type": "uint256"
        }
      ],
      "stateMutability": "view",
      "type": "function"
    },
    {
      "inputs": [],
      "name": "accrualBlockNumber",
      "outputs": [
        {
          "internalType": "uint256",
          "name": "",
          "type": "uint256"
        }
      ],
      "stateMutability": "view",
      "type": "function"
    },
    {
      "inputs": [],
      "name": "accrueInterest",
      "outputs": [
        {
          "internalType": "uint256",
          "name": "",
          "type": "uint256"
        }
      ],
      "stateMutability": "nonpayable",
      "type": "function"
    },
    {
      "inputs": [],
      "name": "admin",
      "outputs": [
        {
          "internalType": "address payable",
          "name": "",
          "type": "address"
        }
      ],
      "stateMutability": "view",
      "type": "function"
    },
    {
      "inputs": [
        {
          "internalType": "address",
          "name": "owner",
          "type": "address"
        },
        {
          "internalType": "address",
          "name": "spender",
          "type": "address"
        }
      ],
      "name": "allowance",
      "outputs": [
        {
          "internalType": "uint256",
          "name": "",
          "type": "uint256"
        }
      ],
      "stateMutability": "view",
      "type": "function"
    },
    {
      "inputs": [
        {
          "internalType": "address",
          "name": "spender",
          "type": "address"
        },
        {
          "internalType": "uint256",
          "name": "amount",
          "type": "uint256"
        }
      ],
      "name": "approve",
      "outputs": [
        {
          "internalType": "bool",
          "name": "",
          "type": "bool"
        }
      ],
      "stateMutability": "nonpayable",
      "type": "function"
    },
    {
      "inputs": [
        {
          "internalType": "address",
          "name": "owner",
          "type": "address"
        }
      ],
      "name": "balanceOf",
      "outputs": [
        {
          "internalType": "uint256",
          "name": "",
          "type": "uint256"
        }
      ],
      "stateMutability": "view",
      "type": "function"
    },
    {
      "inputs": [
        {
          "internalType": "address",
          "name": "owner",
          "type": "address"
        }
      ],
      "name": "balanceOfUnderlying",
      "outputs": [
        {
          "internalType": "uint256",
          "name": "",
          "type": "uint256"
        }
      ],
      "stateMutability": "nonpayable",
      "type": "function"
    },
    {
      "inputs": [
        {
          "internalType": "uint256",
          "name": "borrowAmount",
          "type": "uint256"
        }
      ],
      "name": "borrow",
      "outputs": [
        {
          "internalType": "uint256",
          "name": "",
          "type": "uint256"
        }
      ],
      "stateMutability": "nonpayable",
      "type": "function"
    },
    {
      "inputs": [
        {
          "internalType": "address",
          "name": "account",
          "type": "address"
        }
      ],
      "name": "borrowBalanceCurrent",
      "outputs": [
        {
          "internalType": "uint256",
          "name": "",
          "type": "uint256"
        }
      ],
      "stateMutability": "nonpayable",
      "type": "function"
    },
    {
      "inputs": [
        {
          "internalType": "address",
          "name": "account",
          "type": "address"
        }
      ],
      "name": "borrowBalanceStored",
      "outputs": [
        {
          "internalType": "uint256",
          "name": "",
          "type": "uint256"
        }
      ],
      "stateMutability": "view",
      "type": "function"
    },
    {
      "inputs": [],
      "name": "borrowIndex",
      "outputs": [
        {
          "internalType": "uint256",
          "name": "",
          "type": "uint256"
        }
      ],
      "stateMutability": "view",
      "type": "function"
    },
    {
      "inputs": [],
      "name": "borrowRatePerBlock",
      "outputs": [
        {
          "internalType": "uint256",
          "name": "",
          "type": "uint256"
        }
      ],
      "stateMutability": "view",
      "type": "function"
    },
    {
      "inputs": [],
      "name": "comptroller",
      "outputs": [
        {
          "internalType": "contract ComptrollerInterface",
          "name": "",
          "type": "address"
        }
      ],
      "stateMutability": "view",
      "type": "function"
    },
    {
      "inputs": [],
      "name": "decimals",
      "outputs": [
        {
          "internalType": "uint8",
          "name": "",
          "type": "uint8"
        }
      ],
      "stateMutability": "view",
      "type": "function"
    },
    {
      "inputs": [],
      "name": "exchangeRateCurrent",
      "outputs": [
        {
          "internalType": "uint256",
          "name": "",
          "type": "uint256"
        }
      ],
      "stateMutability": "nonpayable",
      "type": "function"
    },
    {
      "inputs": [],
      "name": "exchangeRateStored",
      "outputs": [
        {
          "internalType": "uint256",
          "name": "",
          "type": "uint256"
        }
      ],
      "stateMutability": "view",
      "type": "function"
    },
    {
      "inputs": [
        {
          "internalType": "address",
          "name": "account",
          "type": "address"
        }
      ],
      "name": "getAccountSnapshot",
      "outputs": [
        {
          "internalType": "uint256",
          "name": "",
          "type": "uint256"
        },
        {
          "internalType": "uint256",
          "name": "",
          "type": "uint256"
        },
        {
          "internalType": "uint256",
          "name": "",
          "type": "uint256"
        },
        {
          "internalType": "uint256",
          "name": "",
          "type": "uint256"
        }
      ],
      "stateMutability": "view",
      "type": "function"
    },
    {
      "inputs": [],
      "name": "getCash",
      "outputs": [
        {
          "internalType": "uint256",
          "name": "",
          "type": "uint256"
        }
      ],
      "stateMutability": "view",
      "type": "function"
    },
    {
      "inputs": [],
      "name": "implementation",
      "outputs": [
        {
          "internalType": "address",
          "name": "",
          "type": "address"
        }
      ],
      "stateMutability": "view",
      "type": "function"
    },
    {
      "inputs": [
        {
          "internalType": "address",
          "name": "underlying_",
          "type": "address"
        },
        {
          "internalType": "contract ComptrollerInterface",
          "name": "comptroller_",
          "type": "address"
        },
        {
          "internalType": "contract InterestRateModel",
          "name": "interestRateModel_",
          "type": "address"
        },
        {
          "internalType": "uint256",
          "name": "initialExchangeRateMantissa_",
          "type": "uint256"
        },
        {
          "internalType": "string",
          "name": "name_",
          "type": "string"
        },
        {
          "internalType": "string",
          "name": "symbol_",
          "type": "string"
        },
        {
          "internalType": "uint8",
          "name": "decimals_",
          "type": "uint8"
        }
      ],
      "name": "initialize",
      "outputs": [],
      "stateMutability": "nonpayable",
      "type": "function"
    },
    {
      "inputs": [
        {
          "internalType": "contract ComptrollerInterface",
          "name": "comptroller_",
          "type": "address"
        },
        {
          "internalType": "contract InterestRateModel",
          "name": "interestRateModel_",
          "type": "address"
        },
        {
          "internalType": "uint256",
          "name": "initialExchangeRateMantissa_",
          "type": "uint256"
        },
        {
          "internalType": "string",
          "name": "name_",
          "type": "string"
        },
        {
          "internalType": "string",
          "name": "symbol_",
          "type": "string"
        },
        {
          "internalType": "uint8",
          "name": "decimals_",
          "type": "uint8"
        }
      ],
      "name": "initialize",
      "outputs": [],
      "stateMutability": "nonpayable",
      "type": "function"
    },
    {
      "inputs": [],
      "name": "interestRateModel",
      "outputs": [
        {
          "internalType": "contract InterestRateModel",
          "name": "",
          "type": "address"
        }
      ],
      "stateMutability": "view",
      "type": "function"
    },
    {
      "inputs": [],
      "name": "isCToken",
      "outputs": [
        {
          "internalType": "bool",
          "name": "",
          "type": "bool"
        }
      ],
      "stateMutability": "view",
      "type": "function"
    },
    {
      "inputs": [
        {
          "internalType": "address",
          "name": "borrower",
          "type": "address"
        },
        {
          "internalType": "uint256",
          "name": "repayAmount",
          "type": "uint256"
        },
        {
          "internalType": "contract CTokenInterface",
          "name": "cTokenCollateral",
          "type": "address"
        }
      ],
      "name": "liquidateBorrow",
      "outputs": [
        {
          "internalType": "uint256",
          "name": "",
          "type": "uint256"
        }
      ],
      "stateMutability": "nonpayable",
      "type": "function"
    },
    {
      "inputs": [
        {
          "internalType": "uint256",
          "name": "mintAmount",
          "type": "uint256"
        }
      ],
      "name": "mint",
      "outputs": [
        {
          "internalType": "uint256",
          "name": "",
          "type": "uint256"
        }
      ],
      "stateMutability": "nonpayable",
      "type": "function"
    },
    {
      "inputs": [],
      "name": "name",
      "outputs": [
        {
          "internalType": "string",
          "name": "",
          "type": "string"
        }
      ],
      "stateMutability": "view",
      "type": "function"
    },
    {
      "inputs": [],
      "name": "pendingAdmin",
      "outputs": [
        {
          "internalType": "address payable",
          "name": "",
          "type": "address"
        }
      ],
      "stateMutability": "view",
      "type": "function"
    },
    {
      "inputs": [],
      "name": "protocolSeizeShareMantissa",
      "outputs": [
        {
          "internalType": "uint256",
          "name": "",
          "type": "uint256"
        }
      ],
      "stateMutability": "view",
      "type": "function"
    },
    {
      "inputs": [
        {
          "internalType": "uint256",
          "name": "redeemTokens",
          "type": "uint256"
        }
      ],
      "name": "redeem",
      "outputs": [
        {
          "internalType": "uint256",
          "name": "",
          "type": "uint256"
        }
      ],
      "stateMutability": "nonpayable",
      "type": "function"
    },
    {
      "inputs": [
        {
          "internalType": "uint256",
          "name": "redeemAmount",
          "type": "uint256"
        }
      ],
      "name": "redeemUnderlying",
      "outputs": [
        {
          "internalType": "uint256",
          "name": "",
          "type": "uint256"
        }
      ],
      "stateMutability": "nonpayable",
      "type": "function"
    },
    {
      "inputs": [
        {
          "internalType": "uint256",
          "name": "repayAmount",
          "type": "uint256"
        }
      ],
      "name": "repayBorrow",
      "outputs": [
        {
          "internalType": "uint256",
          "name": "",
          "type": "uint256"
        }
      ],
      "stateMutability": "nonpayable",
      "type": "function"
    },
    {
      "inputs": [
        {
          "internalType": "address",
          "name": "borrower",
          "type": "address"
        },
        {
          "internalType": "uint256",
          "name": "repayAmount",
          "type": "uint256"
        }
      ],
      "name": "repayBorrowBehalf",
      "outputs": [
        {
          "internalType": "uint256",
          "name": "",
          "type": "uint256"
        }
      ],
      "stateMutability": "nonpayable",
      "type": "function"
    },
    {
      "inputs": [],
      "name": "reserveFactorMantissa",
      "outputs": [
        {
          "internalType": "uint256",
          "name": "",
          "type": "uint256"
        }
      ],
      "stateMutability": "view",
      "type": "function"
    },
    {
      "inputs": [
        {
          "internalType": "address",
          "name": "liquidator",
          "type": "address"
        },
        {
          "internalType": "address",
          "name": "borrower",
          "type": "address"
        },
        {
          "internalType": "uint256",
          "name": "seizeTokens",
          "type": "uint256"
        }
      ],
      "name": "seize",
      "outputs": [
        {
          "internalType": "uint256",
          "name": "",
          "type": "uint256"
        }
      ],
      "stateMutability": "nonpayable",
      "type": "function"
    },
    {
      "inputs": [],
      "name": "supplyRatePerBlock",
      "outputs": [
        {
          "internalType": "uint256",
          "name": "",
          "type": "uint256"
        }
      ],
      "stateMutability": "view",
      "type": "function"
    },
    {
      "inputs": [
        {
          "internalType": "contract EIP20NonStandardInterface",
          "name": "token",
          "type": "address"
        }
      ],
      "name": "sweepToken",
      "outputs": [],
      "stateMutability": "nonpayable",
      "type": "function"
    },
    {
      "inputs": [],
      "name": "symbol",
      "outputs": [
        {
          "internalType": "string",
          "name": "",
          "type": "string"
        }
      ],
      "stateMutability": "view",
      "type": "function"
    },
    {
      "inputs": [],
      "name": "totalBorrows",
      "outputs": [
        {
          "internalType": "uint256",
          "name": "",
          "type": "uint256"
        }
      ],
      "stateMutability": "view",
      "type": "function"
    },
    {
      "inputs": [],
      "name": "totalBorrowsCurrent",
      "outputs": [
        {
          "internalType": "uint256",
          "name": "",
          "type": "uint256"
        }
      ],
      "stateMutability": "nonpayable",
      "type": "function"
    },
    {
      "inputs": [],
      "name": "totalReserves",
      "outputs": [
        {
          "internalType": "uint256",
          "name": "",
          "type": "uint256"
        }
      ],
      "stateMutability": "view",
      "type": "function"
    },
    {
      "inputs": [],
      "name": "totalSupply",
      "outputs": [
        {
          "internalType": "uint256",
          "name": "",
          "type": "uint256"
        }
      ],
      "stateMutability": "view",
      "type": "function"
    },
    {
      "inputs": [
        {
          "internalType": "address",
          "name": "dst",
          "type": "address"
        },
        {
          "internalType": "uint256",
          "name": "amount",
          "type": "uint256"
        }
      ],
      "name": "transfer",
      "outputs": [
        {
          "internalType": "bool",
          "name": "",
          "type": "bool"
        }
      ],
      "stateMutability": "nonpayable",
      "type": "function"
    },
    {
      "inputs": [
        {
          "internalType": "address",
          "name": "src",
          "type": "address"
        },
        {
          "internalType": "address",
          "name": "dst",
          "type": "address"
        },
        {
          "internalType": "uint256",
          "name": "amount",
          "type": "uint256"
        }
      ],
      "name": "transferFrom",
      "outputs": [
        {
          "internalType": "bool",
          "name": "",
          "type": "bool"
        }
      ],
      "stateMutability": "nonpayable",
      "type": "function"
    },
    {
      "inputs": [],
      "name": "underlying",
      "outputs": [
        {
          "internalType": "address",
          "name": "",
          "type": "address"
        }
      ],
      "stateMutability": "view",
      "type": "function"
    },
    {
      "inputs": [
        {
          "internalType": "bytes",
          "name": "data",
          "type": "bytes"
        }
      ],
      "name": "_becomeImplementation",
      "outputs": [],
      "stateMutability": "nonpayable",
      "type": "function"
    },
    {
      "inputs": [],
      "name": "_resignImplementation",
      "outputs": [],
      "stateMutability": "nonpayable",
      "type": "function"
    }
  ],
  "bytecode": "0x608060405234801561001057600080fd5b50615394806100206000396000f3fe608060405234801561001057600080fd5b50600436106103425760003560e01c806373acee98116101b8578063b71d1a0c11610104578063f2b3abbd116100a2578063f851a4401161007c578063f851a44014610711578063f8f9da2814610729578063fca7820b14610731578063fe9c44ae1461074457600080fd5b8063f2b3abbd146106d8578063f3fdb15a146106eb578063f5e3c462146106fe57600080fd5b8063c5ebeaec116100de578063c5ebeaec14610671578063db006a7514610684578063dd62ed3e14610697578063e9c714f2146106d057600080fd5b8063b71d1a0c14610623578063bd6d894d14610636578063c37f68e21461063e57600080fd5b8063a0712d6811610171578063a9059cbb1161014b578063a9059cbb146105ec578063aa5af0fd146105ff578063ae9d70b014610608578063b2a02ff11461061057600080fd5b8063a0712d68146105b1578063a19d1460146105c4578063a6afed95146105e457600080fd5b806373acee981461055f578063852a12e3146105675780638f840ddd1461057a57806395d89b411461058357806395dd91931461058b57806399d8c1b41461059e57600080fd5b8063313ce567116102925780635c60da1b116102305780636752e7021161020a5780636752e7021461050c5780636c540baf1461051a5780636f307dc31461052357806370a082311461053657600080fd5b80635c60da1b146104d35780635fe3b567146104e6578063601a0bf1146104f957600080fd5b80633e9410101161026c5780633e941010146104915780634576b5db146104a457806347bd3718146104b757806356e67728146104c057600080fd5b8063313ce567146104575780633af9e669146104765780633b1d21a21461048957600080fd5b806318160ddd116102ff5780631be19560116102d95780631be19560146103f357806323b872dd146104065780632608f81814610419578063267822471461042c57600080fd5b806318160ddd146103cf578063182df0f5146103d85780631a31d465146103e057600080fd5b806306fdde0314610347578063095ea7b3146103655780630e75270214610388578063153ab505146103a9578063173b9904146103b357806317bfdfbc146103bc575b600080fd5b61034f61074c565b60405161035c91906151c3565b60405180910390f35b610378610373366004614fce565b6107da565b604051901515815260200161035c565b61039b610396366004615149565b61084a565b60405190815260200161035c565b6103b161085e565b005b61039b60085481565b61039b6103ca366004614e81565b6108da565b61039b600d5481565b61039b610973565b6103b16103ee366004614f18565b610a04565b6103b1610401366004614e81565b610aa8565b610378610414366004614ed7565b610c0c565b61039b610427366004614fce565b610c5c565b60045461043f906001600160a01b031681565b6040516001600160a01b03909116815260200161035c565b6003546104649060ff1681565b60405160ff909116815260200161035c565b61039b610484366004614e81565b610c72565b61039b610d22565b61039b61049f366004615149565b610d31565b61039b6104b2366004614e81565b610d3c565b61039b600b5481565b6103b16104ce36600461505e565b610e91565b60125461043f906001600160a01b031681565b60055461043f906001600160a01b031681565b61039b610507366004615149565b610f09565b61039b666379da05b6000081565b61039b60095481565b60115461043f906001600160a01b031681565b61039b610544366004614e81565b6001600160a01b03166000908152600e602052604090205490565b61039b610f88565b61039b610575366004615149565b611017565b61039b600c5481565b61034f611022565b61039b610599366004614e81565b61102f565b6103b16105ac3660046150a7565b6110c9565b61039b6105bf366004615149565b611324565b61039b6105d2366004614e81565b600e6020526000908152604090205481565b61039b611330565b6103786105fa366004614fce565b6116b1565b61039b600a5481565b61039b611700565b61039b61061e366004614ed7565b6117a7565b61039b610631366004614e81565b6117f6565b61039b611876565b61065161064c366004614e81565b61190b565b60408051948552602085019390935291830152606082015260800161035c565b61039b61067f366004615149565b6119ac565b61039b610692366004615149565b6119b7565b61039b6106a5366004614e9e565b6001600160a01b039182166000908152600f6020908152604080832093909416825291909152205490565b61039b6119c2565b61039b6106e6366004614e81565b611ac7565b60065461043f906001600160a01b031681565b61039b61070c366004614ffa565b611aff565b60035461043f9061010090046001600160a01b031681565b61039b611b17565b61039b61073f366004615149565b611b6a565b610378600181565b60018054610759906152ac565b80601f0160208091040260200160405190810160405280929190818152602001828054610785906152ac565b80156107d25780601f106107a7576101008083540402835291602001916107d2565b820191906000526020600020905b8154815290600101906020018083116107b557829003601f168201915b505050505081565b336000818152600f602090815260408083206001600160a01b03871680855292528083208590555191929182907f8c5be1e5ebec7d5bd14f71427d1e84f3dd0314c0f7b2291e5b200ac8c7c3b925906108369087815260200190565b60405180910390a360019150505b92915050565b60008061085683611bcc565b509392505050565b60035461010090046001600160a01b031633146108d85760405162461bcd60e51b815260206004820152602d60248201527f6f6e6c79207468652061646d696e206d61792063616c6c205f72657369676e4960448201526c36b83632b6b2b73a30ba34b7b760991b60648201526084015b60405180910390fd5b565b6000805460ff166108fd5760405162461bcd60e51b81526004016108cf90615218565b6000805460ff1916815561090f611330565b146109555760405162461bcd60e51b81526020600482015260166024820152751858d8dc9d59481a5b9d195c995cdd0819985a5b195960521b60448201526064016108cf565b61095e8261102f565b90505b6000805460ff19166001179055919050565b6000806000610980611c58565b90925090506000826003811115610999576109996152fd565b146108445760405162461bcd60e51b815260206004820152603560248201527f65786368616e67655261746553746f7265643a2065786368616e67655261746560448201527414dd1bdc9959125b9d195c9b985b0819985a5b1959605a1b60648201526084016108cf565b610a128686868686866110c9565b601180546001600160a01b0319166001600160a01b038916908117909155604080516318160ddd60e01b815290516318160ddd91600480820192602092909190829003018186803b158015610a6657600080fd5b505afa158015610a7a573d6000803e3d6000fd5b505050506040513d601f19601f82011682018060405250810190610a9e9190615162565b5050505050505050565b6011546001600160a01b0382811691161415610b215760405162461bcd60e51b815260206004820152603260248201527f4345726332303a3a7377656570546f6b656e3a2063616e206e6f74207377656560448201527138103ab73232b9363cb4b733903a37b5b2b760711b60648201526084016108cf565b6040516370a0823160e01b81523060048201526000906001600160a01b038316906370a082319060240160206040518083038186803b158015610b6357600080fd5b505afa158015610b77573d6000803e3d6000fd5b505050506040513d601f19601f82011682018060405250810190610b9b9190615162565b60035460405163a9059cbb60e01b81526001600160a01b03610100909204821660048201526024810183905291925083169063a9059cbb90604401600060405180830381600087803b158015610bf057600080fd5b505af1158015610c04573d6000803e3d6000fd5b505050505050565b6000805460ff16610c2f5760405162461bcd60e51b81526004016108cf90615218565b6000805460ff19168155610c4533868686611d14565b1490506000805460ff191660011790559392505050565b600080610c698484611fc1565b50949350505050565b6000806040518060200160405280610c88611876565b90526001600160a01b0384166000908152600e6020526040812054919250908190610cb490849061204f565b90925090506000826003811115610ccd57610ccd6152fd565b14610d1a5760405162461bcd60e51b815260206004820152601f60248201527f62616c616e636520636f756c64206e6f742062652063616c63756c617465640060448201526064016108cf565b949350505050565b6000610d2c6120a2565b905090565b600061084482612126565b60035460009061010090046001600160a01b03163314610d62576108446001603f61219e565b60055460408051623f1ee960e11b815290516001600160a01b0392831692851691627e3dd2916004808301926020929190829003018186803b158015610da757600080fd5b505afa158015610dbb573d6000803e3d6000fd5b505050506040513d601f19601f82011682018060405250810190610ddf919061503c565b610e2b5760405162461bcd60e51b815260206004820152601c60248201527f6d61726b6572206d6574686f642072657475726e65642066616c73650000000060448201526064016108cf565b600580546001600160a01b0319166001600160a01b0385811691821790925560408051928416835260208301919091527f7ac369dbd14fa5ea3f473ed67cc9d598964a77501540ba6751eb0b3decf5870d91015b60405180910390a160005b9392505050565b60035461010090046001600160a01b03163314610f065760405162461bcd60e51b815260206004820152602d60248201527f6f6e6c79207468652061646d696e206d61792063616c6c205f6265636f6d654960448201526c36b83632b6b2b73a30ba34b7b760991b60648201526084016108cf565b50565b6000805460ff16610f2c5760405162461bcd60e51b81526004016108cf90615218565b6000805460ff19168155610f3e611330565b90508015610f6a57610f62816010811115610f5b57610f5b6152fd565b603061219e565b915050610961565b610f7383612217565b9150506000805460ff19166001179055919050565b6000805460ff16610fab5760405162461bcd60e51b81526004016108cf90615218565b6000805460ff19168155610fbd611330565b146110035760405162461bcd60e51b81526020600482015260166024820152751858d8dc9d59481a5b9d195c995cdd0819985a5b195960521b60448201526064016108cf565b50600b546000805460ff1916600117905590565b600061084482612361565b60028054610759906152ac565b600080600061103d846123c6565b90925090506000826003811115611056576110566152fd565b14610e8a5760405162461bcd60e51b815260206004820152603760248201527f626f72726f7742616c616e636553746f7265643a20626f72726f7742616c616e60448201527f636553746f726564496e7465726e616c206661696c656400000000000000000060648201526084016108cf565b60035461010090046001600160a01b031633146111345760405162461bcd60e51b8152602060048201526024808201527f6f6e6c792061646d696e206d617920696e697469616c697a6520746865206d616044820152631c9ad95d60e21b60648201526084016108cf565b6009541580156111445750600a54155b61119c5760405162461bcd60e51b815260206004820152602360248201527f6d61726b6574206d6179206f6e6c7920626520696e697469616c697a6564206f6044820152626e636560e81b60648201526084016108cf565b6007849055836112075760405162461bcd60e51b815260206004820152603060248201527f696e697469616c2065786368616e67652072617465206d75737420626520677260448201526f32b0ba32b9103a3430b7103d32b9379760811b60648201526084016108cf565b600061121287610d3c565b905080156112625760405162461bcd60e51b815260206004820152601a60248201527f73657474696e6720636f6d7074726f6c6c6572206661696c656400000000000060448201526064016108cf565b43600955670de0b6b3a7640000600a5561127b8661247f565b905080156112d65760405162461bcd60e51b815260206004820152602260248201527f73657474696e6720696e7465726573742072617465206d6f64656c206661696c604482015261195960f21b60648201526084016108cf565b83516112e9906001906020870190614d3c565b5082516112fd906002906020860190614d3c565b50506003805460ff90921660ff199283161790556000805490911660011790555050505050565b600080610856836125e9565b60095460009043908082141561134a5760005b9250505090565b60006113546120a2565b600b54600c54600a546006546040516315f2405360e01b81526004810186905260248101859052604481018490529495509293919290916000916001600160a01b0316906315f240539060640160206040518083038186803b1580156113b957600080fd5b505afa1580156113cd573d6000803e3d6000fd5b505050506040513d601f19601f820116820180604052508101906113f19190615162565b905065048c273950008111156114495760405162461bcd60e51b815260206004820152601c60248201527f626f72726f772072617465206973206162737572646c7920686967680000000060448201526064016108cf565b600080611456898961264e565b9092509050600082600381111561146f5761146f6152fd565b146114bc5760405162461bcd60e51b815260206004820152601f60248201527f636f756c64206e6f742063616c63756c61746520626c6f636b2064656c74610060448201526064016108cf565b6040805160208101909152600081526000806000806114e960405180602001604052808a81525087612679565b90975094506000876003811115611502576115026152fd565b146115385761152560096006896003811115611520576115206152fd565b6126f5565b9e50505050505050505050505050505090565b611542858c61204f565b9097509350600087600381111561155b5761155b6152fd565b146115795761152560096001896003811115611520576115206152fd565b611583848c61276d565b9097509250600087600381111561159c5761159c6152fd565b146115ba5761152560096004896003811115611520576115206152fd565b6115d56040518060200160405280600854815250858c61279d565b909750915060008760038111156115ee576115ee6152fd565b1461160c5761152560096005896003811115611520576115206152fd565b611617858a8b61279d565b90975090506000876003811115611630576116306152fd565b1461164e5761152560096003896003811115611520576115206152fd565b60098e9055600a819055600b839055600c829055604080518d815260208101869052908101829052606081018490527f4dec04e750ca11537cabcd8a9eab06494de08da3735bc8871cd41250e190bc049060800160405180910390a16000611525565b6000805460ff166116d45760405162461bcd60e51b81526004016108cf90615218565b6000805460ff191681556116ea33338686611d14565b1490506000805460ff1916600117905592915050565b6006546000906001600160a01b031663b816881661171c6120a2565b600b54600c546008546040516001600160e01b031960e087901b16815260048101949094526024840192909252604483015260648201526084015b60206040518083038186803b15801561176f57600080fd5b505afa158015611783573d6000803e3d6000fd5b505050506040513d601f19601f82011682018060405250810190610d2c9190615162565b6000805460ff166117ca5760405162461bcd60e51b81526004016108cf90615218565b6000805460ff191690556117e0338585856127f8565b90506000805460ff191660011790559392505050565b60035460009061010090046001600160a01b0316331461181c576108446001604561219e565b600480546001600160a01b038481166001600160a01b031983168117909355604080519190921680825260208201939093527fca4f2f25d0898edd99413412fb94012f9e54ec8142f9b093e7720646a95b16a99101610e7f565b6000805460ff166118995760405162461bcd60e51b81526004016108cf90615218565b6000805460ff191681556118ab611330565b146118f15760405162461bcd60e51b81526020600482015260166024820152751858d8dc9d59481a5b9d195c995cdd0819985a5b195960521b60448201526064016108cf565b6118f9610973565b90506000805460ff1916600117905590565b6001600160a01b0381166000908152600e6020526040812054819081908190818080611936896123c6565b93509050600081600381111561194e5761194e6152fd565b1461196c5760095b60008060009750975097509750505050506119a5565b611974611c58565b92509050600081600381111561198c5761198c6152fd565b14611998576009611956565b5060009650919450925090505b9193509193565b600061084482612c67565b600061084482612cca565b6004546000906001600160a01b0316331415806119dd575033155b156119ee57610d2c6001600061219e565b60038054600480546001600160a01b0380821661010081810274ffffffffffffffffffffffffffffffffffffffff0019871617968790556001600160a01b031990931690935560408051948390048216808652929095041660208401529290917ff9ffabca9c8276e99321725bcb43fb076a6c66a54b7f21c4e8146d8519b417dc910160405180910390a1600454604080516001600160a01b03808516825290921660208301527fca4f2f25d0898edd99413412fb94012f9e54ec8142f9b093e7720646a95b16a9910160405180910390a16000611343565b600080611ad2611330565b90508015611af657610e8a816010811115611aef57611aef6152fd565b604061219e565b610e8a8361247f565b600080611b0d858585612d28565b5095945050505050565b6006546000906001600160a01b03166315f24053611b336120a2565b600b54600c546040516001600160e01b031960e086901b168152600481019390935260248301919091526044820152606401611757565b6000805460ff16611b8d5760405162461bcd60e51b81526004016108cf90615218565b6000805460ff19168155611b9f611330565b90508015611bc357610f62816010811115611bbc57611bbc6152fd565b604661219e565b610f7383612e4f565b60008054819060ff16611bf15760405162461bcd60e51b81526004016108cf90615218565b6000805460ff19168155611c03611330565b90508015611c3357611c27816010811115611c2057611c206152fd565b603661219e565b60009250925050611c44565b611c3e333386612ee4565b92509250505b6000805460ff191660011790559092909150565b600d54600090819080611c72575050600754600092909150565b6000611c7c6120a2565b90506000611c966040518060200160405280600081525090565b6000611ca784600b54600c5461330b565b935090506000816003811115611cbf57611cbf6152fd565b14611cd1579660009650945050505050565b611cdb838661334f565b925090506000816003811115611cf357611cf36152fd565b14611d05579660009650945050505050565b50516000969095509350505050565b6005546040516317b9b84b60e31b81523060048201526001600160a01b038581166024830152848116604483015260648201849052600092839291169063bdcdc25890608401602060405180830381600087803b158015611d7457600080fd5b505af1158015611d88573d6000803e3d6000fd5b505050506040513d601f19601f82011682018060405250810190611dac9190615162565b90508015611dc957611dc16003604a836126f5565b915050610d1a565b836001600160a01b0316856001600160a01b03161415611def57611dc16002604b61219e565b6000856001600160a01b0316876001600160a01b03161415611e145750600019611e3c565b506001600160a01b038086166000908152600f60209081526040808320938a16835292905220545b600080600080611e4c858961264e565b90945092506000846003811115611e6557611e656152fd565b14611e8357611e766009604b61219e565b9650505050505050610d1a565b6001600160a01b038a166000908152600e6020526040902054611ea6908961264e565b90945091506000846003811115611ebf57611ebf6152fd565b14611ed057611e766009604c61219e565b6001600160a01b0389166000908152600e6020526040902054611ef3908961276d565b90945090506000846003811115611f0c57611f0c6152fd565b14611f1d57611e766009604d61219e565b6001600160a01b03808b166000908152600e6020526040808220859055918b168152208190556000198514611f75576001600160a01b03808b166000908152600f60209081526040808320938f168352929052208390555b886001600160a01b03168a6001600160a01b031660008051602061533f8339815191528a604051611fa891815260200190565b60405180910390a35060009a9950505050505050505050565b60008054819060ff16611fe65760405162461bcd60e51b81526004016108cf90615218565b6000805460ff19168155611ff8611330565b905080156120285761201c816010811115612015576120156152fd565b603561219e565b60009250925050612039565b612033338686612ee4565b92509250505b6000805460ff1916600117905590939092509050565b60008060008061205f8686612679565b90925090506000826003811115612078576120786152fd565b14612089575091506000905061209b565b60006120948261341a565b9350935050505b9250929050565b6011546040516370a0823160e01b81523060048201526000916001600160a01b03169081906370a082319060240160206040518083038186803b1580156120e857600080fd5b505afa1580156120fc573d6000803e3d6000fd5b505050506040513d601f19601f820116820180604052508101906121209190615162565b91505090565b6000805460ff166121495760405162461bcd60e51b81526004016108cf90615218565b6000805460ff1916815561215b611330565b9050801561217f57610f62816010811115612178576121786152fd565b604e61219e565b61218883613432565b509150506000805460ff19166001179055919050565b60007f45b96fe442630264581b197e84bbada861235052c5a1aadfff9ea4e40a969aa08360108111156121d3576121d36152fd565b8360508111156121e5576121e56152fd565b60408051928352602083019190915260009082015260600160405180910390a1826010811115610e8a57610e8a6152fd565b600354600090819061010090046001600160a01b0316331461223f57610e8a6001603161219e565b436009541461225457610e8a600a603361219e565b8261225d6120a2565b101561226f57610e8a600e603261219e565b600c5483111561228557610e8a6002603461219e565b82600c546122939190615295565b9050600c548111156122f35760405162461bcd60e51b8152602060048201526024808201527f72656475636520726573657276657320756e657870656374656420756e646572604482015263666c6f7760e01b60648201526084016108cf565b600c8190556003546123139061010090046001600160a01b031684613511565b600354604080516101009092046001600160a01b031682526020820185905281018290527f3bad0c59cf2f06e7314077049f48a93578cd16f5ef92329f1dab1420a99c177e90606001610e7f565b6000805460ff166123845760405162461bcd60e51b81526004016108cf90615218565b6000805460ff19168155612396611330565b905080156123ba57610f628160108111156123b3576123b36152fd565b602761219e565b610f73336000856135fb565b6001600160a01b0381166000908152601060205260408120805482918291829182916123fb5750600096879650945050505050565b61240b8160000154600a54613b90565b90945092506000846003811115612424576124246152fd565b1461243757509195600095509350505050565b612445838260010154613bda565b9094509150600084600381111561245e5761245e6152fd565b1461247157509195600095509350505050565b506000969095509350505050565b600354600090819061010090046001600160a01b031633146124a757610e8a6001604261219e565b43600954146124bc57610e8a600a604161219e565b600660009054906101000a90046001600160a01b03169050826001600160a01b0316632191f92a6040518163ffffffff1660e01b815260040160206040518083038186803b15801561250d57600080fd5b505afa158015612521573d6000803e3d6000fd5b505050506040513d601f19601f82011682018060405250810190612545919061503c565b6125915760405162461bcd60e51b815260206004820152601c60248201527f6d61726b6572206d6574686f642072657475726e65642066616c73650000000060448201526064016108cf565b600680546001600160a01b0319166001600160a01b0385811691821790925560408051928416835260208301919091527fedffc32e068c7c95dfd4bdfd5c4d939a084d6b11c4199eac8436ed234d72f9269101610e7f565b60008054819060ff1661260e5760405162461bcd60e51b81526004016108cf90615218565b6000805460ff19168155612620611330565b9050801561264457611c2781601081111561263d5761263d6152fd565b601e61219e565b611c3e3385613c05565b60008083831161266d5760006126648486615295565b9150915061209b565b5060039050600061209b565b60006126916040518060200160405280600081525090565b6000806126a2866000015186613b90565b909250905060008260038111156126bb576126bb6152fd565b146126da5750604080516020810190915260008152909250905061209b565b60408051602081019091529081526000969095509350505050565b60007f45b96fe442630264581b197e84bbada861235052c5a1aadfff9ea4e40a969aa084601081111561272a5761272a6152fd565b84605081111561273c5761273c6152fd565b604080519283526020830191909152810184905260600160405180910390a1836010811115610d1a57610d1a6152fd565b6000808061277b848661523c565b905084811061278f5760009250905061209b565b60026000925092505061209b565b6000806000806127ad8787612679565b909250905060008260038111156127c6576127c66152fd565b146127d757509150600090506127f0565b6127e96127e38261341a565b8661276d565b9350935050505b935093915050565b60055460405163d02f735160e01b81523060048201526001600160a01b0386811660248301528581166044830152848116606483015260848201849052600092839291169063d02f73519060a401602060405180830381600087803b15801561286057600080fd5b505af1158015612874573d6000803e3d6000fd5b505050506040513d601f19601f820116820180604052508101906128989190615162565b905080156128ad57611dc16003601b836126f5565b846001600160a01b0316846001600160a01b031614156128d357611dc16006601c61219e565b612923604080516101208101909152806000815260200160008152602001600081526020016000815260200160008152602001600081526020016000815260200160008152602001600081525090565b6001600160a01b0385166000908152600e6020526040902054612946908561264e565b6020830181905282826003811115612960576129606152fd565b6003811115612971576129716152fd565b905250600090508151600381111561298b5761298b6152fd565b146129b6576129ad6009601a83600001516003811115611520576115206152fd565b92505050610d1a565b6129d5846040518060200160405280666379da05b6000081525061409f565b608082018190526129e79085906140c2565b60608201526129f4611c58565b60c0830181905282826003811115612a0e57612a0e6152fd565b6003811115612a1f57612a1f6152fd565b9052506000905081516003811115612a3957612a396152fd565b14612a865760405162461bcd60e51b815260206004820152601860248201527f65786368616e67652072617465206d617468206572726f72000000000000000060448201526064016108cf565b612aa660405180602001604052808360c0015181525082608001516140fc565b60a08201819052600c54612ab991614114565b60e0820152600d546080820151612ad091906140c2565b6101008201526001600160a01b0386166000908152600e60205260409020546060820151612afe919061276d565b6040830181905282826003811115612b1857612b186152fd565b6003811115612b2957612b296152fd565b9052506000905081516003811115612b4357612b436152fd565b14612b65576129ad6009601983600001516003811115611520576115206152fd565b60e0810151600c55610100810151600d556020808201516001600160a01b038781166000818152600e855260408082209490945583860151928b168082529084902092909255606085015192519283529092909160008051602061533f833981519152910160405180910390a3306001600160a01b0316856001600160a01b031660008051602061533f8339815191528360800151604051612c0991815260200190565b60405180910390a360a081015160e08201516040805130815260208101939093528201527fa91e67c5ea634cd43a12c5a482724b03de01e85ca68702a53d0c2f45cb7c1dc59060600160405180910390a16000979650505050505050565b6000805460ff16612c8a5760405162461bcd60e51b81526004016108cf90615218565b6000805460ff19168155612c9c611330565b90508015612cc057610f62816010811115612cb957612cb96152fd565b600861219e565b610f73338461414a565b6000805460ff16612ced5760405162461bcd60e51b81526004016108cf90615218565b6000805460ff19168155612cff611330565b90508015612d1c57610f628160108111156123b3576123b36152fd565b610f73338460006135fb565b60008054819060ff16612d4d5760405162461bcd60e51b81526004016108cf90615218565b6000805460ff19168155612d5f611330565b90508015612d8f57612d83816010811115612d7c57612d7c6152fd565b600f61219e565b60009250925050612e38565b836001600160a01b031663a6afed956040518163ffffffff1660e01b8152600401602060405180830381600087803b158015612dca57600080fd5b505af1158015612dde573d6000803e3d6000fd5b505050506040513d601f19601f82011682018060405250810190612e029190615162565b90508015612e2657612d83816010811115612e1f57612e1f6152fd565b601061219e565b612e3233878787614443565b92509250505b6000805460ff191660011790559094909350915050565b60035460009061010090046001600160a01b03163314612e75576108446001604761219e565b4360095414612e8a57610844600a604861219e565b670de0b6b3a7640000821115612ea6576108446002604961219e565b600880549083905560408051828152602081018590527faaa68312e2ea9d50e16af5068410ab56e1a1fd06037b1a35664812c30f8214609101610e7f565b600554604051631200453160e11b81523060048201526001600160a01b03858116602483015284811660448301526064820184905260009283928392909116906324008a6290608401602060405180830381600087803b158015612f4757600080fd5b505af1158015612f5b573d6000803e3d6000fd5b505050506040513d601f19601f82011682018060405250810190612f7f9190615162565b90508015612fa057612f9460036038836126f5565b600092509250506127f0565b4360095414612fb557612f94600a603961219e565b612ffe6040805161010081019091528060008152602001600081526020016000815260200160008152602001600081526020016000815260200160008152602001600081525090565b6001600160a01b0386166000908152601060205260409020600101546060820152613028866123c6565b6080830181905260208301826003811115613045576130456152fd565b6003811115613056576130566152fd565b9052506000905081602001516003811115613073576130736152fd565b146130a2576130956009603783602001516003811115611520576115206152fd565b60009350935050506127f0565b8460001914156130bb57608081015160408201526130c3565b604081018590525b6130d187826040015161494f565b60e0820181905260808201516130e69161264e565b60a0830181905260208301826003811115613103576131036152fd565b6003811115613114576131146152fd565b9052506000905081602001516003811115613131576131316152fd565b146131a45760405162461bcd60e51b815260206004820152603a60248201527f52455041595f424f52524f575f4e45575f4143434f554e545f424f52524f575f60448201527f42414c414e43455f43414c43554c4154494f4e5f4641494c454400000000000060648201526084016108cf565b6131b4600b548260e0015161264e565b60c08301819052602083018260038111156131d1576131d16152fd565b60038111156131e2576131e26152fd565b90525060009050816020015160038111156131ff576131ff6152fd565b146132665760405162461bcd60e51b815260206004820152603160248201527f52455041595f424f52524f575f4e45575f544f54414c5f42414c414e43455f43604482015270105310d55310551253d397d19052531151607a1b60648201526084016108cf565b60a081810180516001600160a01b03898116600081815260106020908152604091829020948555600a5460019095019490945560c0870151600b81905560e088015195518251948f16855294840192909252820193909352606081019190915260808101919091527f1a2a22cb034d26d1854bdc6666a5b91fe25efbbb5dcad3b0355478d6f5c362a1910160405180910390a160e00151600097909650945050505050565b60008060008061331b878761276d565b90925090506000826003811115613334576133346152fd565b1461334557509150600090506127f0565b6127e9818661264e565b60006133676040518060200160405280600081525090565b60008061337c86670de0b6b3a7640000613b90565b90925090506000826003811115613395576133956152fd565b146133b45750604080516020810190915260008152909250905061209b565b6000806133c18388613bda565b909250905060008260038111156133da576133da6152fd565b146133fd578160405180602001604052806000815250955095505050505061209b565b604080516020810190915290815260009890975095505050505050565b805160009061084490670de0b6b3a764000090615254565b600080808043600954146134565761344c600a604f61219e565b9590945092505050565b613460338661494f565b905080600c54613470919061523c565b9150600c548210156134c45760405162461bcd60e51b815260206004820181905260248201527f61646420726573657276657320756e6578706563746564206f766572666c6f7760448201526064016108cf565b600c82905560408051338152602081018390529081018390527fa91e67c5ea634cd43a12c5a482724b03de01e85ca68702a53d0c2f45cb7c1dc59060600160405180910390a1600061344c565b60115460405163a9059cbb60e01b81526001600160a01b0384811660048301526024820184905290911690819063a9059cbb90604401600060405180830381600087803b15801561356157600080fd5b505af1158015613575573d6000803e3d6000fd5b5050505060003d60008114613591576020811461359b57600080fd5b60001991506135a7565b60206000803e60005191505b50806135f55760405162461bcd60e51b815260206004820152601960248201527f544f4b454e5f5452414e534645525f4f55545f4641494c45440000000000000060448201526064016108cf565b50505050565b6000821580613608575081155b6136715760405162461bcd60e51b815260206004820152603460248201527f6f6e65206f662072656465656d546f6b656e73496e206f722072656465656d416044820152736d6f756e74496e206d757374206265207a65726f60601b60648201526084016108cf565b6136b26040805160e0810190915280600081526020016000815260200160008152602001600081526020016000815260200160008152602001600081525090565b6136ba611c58565b60408301819052602083018260038111156136d7576136d76152fd565b60038111156136e8576136e86152fd565b9052506000905081602001516003811115613705576137056152fd565b1461372f576137276009602b83602001516003811115611520576115206152fd565b915050610e8a565b83156137c8576060810184905260408051602081018252908201518152613756908561204f565b6080830181905260208301826003811115613773576137736152fd565b6003811115613784576137846152fd565b90525060009050816020015160038111156137a1576137a16152fd565b146137c3576137276009602983602001516003811115611520576115206152fd565b613859565b6137e48360405180602001604052808460400151815250614b93565b6060830181905260208301826003811115613801576138016152fd565b6003811115613812576138126152fd565b905250600090508160200151600381111561382f5761382f6152fd565b14613851576137276009602a83602001516003811115611520576115206152fd565b608081018390525b600554606082015160405163eabe7d9160e01b81526000926001600160a01b03169163eabe7d91916138929130918b919060040161519f565b602060405180830381600087803b1580156138ac57600080fd5b505af11580156138c0573d6000803e3d6000fd5b505050506040513d601f19601f820116820180604052508101906138e49190615162565b90508015613902576138f960036028836126f5565b92505050610e8a565b4360095414613917576138f9600a602c61219e565b613927600d54836060015161264e565b60a0840181905260208401826003811115613944576139446152fd565b6003811115613955576139556152fd565b9052506000905082602001516003811115613972576139726152fd565b14613994576138f96009602e84602001516003811115611520576115206152fd565b6001600160a01b0386166000908152600e602052604090205460608301516139bc919061264e565b60c08401819052602084018260038111156139d9576139d96152fd565b60038111156139ea576139ea6152fd565b9052506000905082602001516003811115613a0757613a076152fd565b14613a29576138f96009602d84602001516003811115611520576115206152fd565b8160800151613a366120a2565b1015613a48576138f9600e602f61219e565b613a56868360800151613511565b60a0820151600d5560c08201516001600160a01b0387166000818152600e6020526040908190209290925560608401519151309260008051602061533f83398151915291613aa691815260200190565b60405180910390a36080820151606080840151604080516001600160a01b038b16815260208101949094528301527fe5b754fb1abb7f01b499791d0b820ae3b6af3424ac1c59768edb53f4ec31a929910160405180910390a1600554608083015160608401516040516351dff98960e01b81523060048201526001600160a01b038a81166024830152604482019390935260648101919091529116906351dff98990608401600060405180830381600087803b158015613b6557600080fd5b505af1158015613b79573d6000803e3d6000fd5b5060009250613b86915050565b9695505050505050565b60008083613ba35750600090508061209b565b6000613baf8486615276565b905083613bbc8683615254565b14613bcf5760026000925092505061209b565b60009250905061209b565b60008082613bee575060019050600061209b565b6000613bfa8486615254565b915091509250929050565b600554604051634ef4c3e160e01b8152600091829182916001600160a01b031690634ef4c3e190613c3e9030908990899060040161519f565b602060405180830381600087803b158015613c5857600080fd5b505af1158015613c6c573d6000803e3d6000fd5b505050506040513d601f19601f82011682018060405250810190613c909190615162565b90508015613cb157613ca56003601f836126f5565b6000925092505061209b565b4360095414613cc657613ca5600a602261219e565b613d076040805160e0810190915280600081526020016000815260200160008152602001600081526020016000815260200160008152602001600081525090565b613d0f611c58565b6040830181905260208301826003811115613d2c57613d2c6152fd565b6003811115613d3d57613d3d6152fd565b9052506000905081602001516003811115613d5a57613d5a6152fd565b14613d8957613d7c6009602183602001516003811115611520576115206152fd565b600093509350505061209b565b613d93868661494f565b60c0820181905260408051602081018252908301518152613db49190614b93565b6060830181905260208301826003811115613dd157613dd16152fd565b6003811115613de257613de26152fd565b9052506000905081602001516003811115613dff57613dff6152fd565b14613e4c5760405162461bcd60e51b815260206004820181905260248201527f4d494e545f45584348414e47455f43414c43554c4154494f4e5f4641494c454460448201526064016108cf565b613e5c600d54826060015161276d565b6080830181905260208301826003811115613e7957613e796152fd565b6003811115613e8a57613e8a6152fd565b9052506000905081602001516003811115613ea757613ea76152fd565b14613f055760405162461bcd60e51b815260206004820152602860248201527f4d494e545f4e45575f544f54414c5f535550504c595f43414c43554c4154494f6044820152671397d1905253115160c21b60648201526084016108cf565b6001600160a01b0386166000908152600e60205260409020546060820151613f2d919061276d565b60a0830181905260208301826003811115613f4a57613f4a6152fd565b6003811115613f5b57613f5b6152fd565b9052506000905081602001516003811115613f7857613f786152fd565b14613fd95760405162461bcd60e51b815260206004820152602b60248201527f4d494e545f4e45575f4143434f554e545f42414c414e43455f43414c43554c4160448201526a151253d397d1905253115160aa1b60648201526084016108cf565b6080810151600d5560a08101516001600160a01b0387166000818152600e60209081526040918290209390935560c0840151606080860151835194855294840191909152908201929092527f4c209b5fc8ad50758f13e2e1088ba56a560dff690a1c6fef26394f4c03821c4f910160405180910390a1856001600160a01b0316306001600160a01b031660008051602061533f833981519152836060015160405161408691815260200190565b60405180910390a360c001516000969095509350505050565b6000670de0b6b3a76400006140b8848460000151614ba3565b610e8a9190615254565b6000610e8a8383604051806040016040528060158152602001747375627472616374696f6e20756e646572666c6f7760581b815250614be5565b6000806141098484614c14565b9050610d1a8161341a565b6000610e8a8383604051806040016040528060118152602001706164646974696f6e206f766572666c6f7760781b815250614c45565b60055460405163368f515360e21b815260009182916001600160a01b039091169063da3d454c906141839030908890889060040161519f565b602060405180830381600087803b15801561419d57600080fd5b505af11580156141b1573d6000803e3d6000fd5b505050506040513d601f19601f820116820180604052508101906141d59190615162565b905080156141f2576141ea6003600e836126f5565b915050610844565b4360095414614206576141ea600a8061219e565b8261420f6120a2565b1015614221576141ea600e600961219e565b61424d604080516080810190915280600081526020016000815260200160008152602001600081525090565b614256856123c6565b6020830181905282826003811115614270576142706152fd565b6003811115614281576142816152fd565b905250600090508151600381111561429b5761429b6152fd565b146142c6576142bd6009600783600001516003811115611520576115206152fd565b92505050610844565b6142d481602001518561276d565b60408301819052828260038111156142ee576142ee6152fd565b60038111156142ff576142ff6152fd565b9052506000905081516003811115614319576143196152fd565b1461433b576142bd6009600c83600001516003811115611520576115206152fd565b614347600b548561276d565b6060830181905282826003811115614361576143616152fd565b6003811115614372576143726152fd565b905250600090508151600381111561438c5761438c6152fd565b146143ae576142bd6009600b83600001516003811115611520576115206152fd565b6143b88585613511565b604081810180516001600160a01b03881660008181526010602090815290859020928355600a54600190930192909255606080860151600b8190559351855192835292820189905293810191909152918201527f13ed6866d4e1ee6da46f845c46d7e54120883d75c5ea9a2dacc1c4ca8984ab809060800160405180910390a1600095945050505050565b600554604051632fe3f38f60e11b81523060048201526001600160a01b03838116602483015286811660448301528581166064830152608482018590526000928392839290911690635fc7e71e9060a401602060405180830381600087803b1580156144ae57600080fd5b505af11580156144c2573d6000803e3d6000fd5b505050506040513d601f19601f820116820180604052508101906144e69190615162565b90508015614507576144fb60036012836126f5565b60009250925050614946565b436009541461451c576144fb600a601661219e565b43846001600160a01b0316636c540baf6040518163ffffffff1660e01b815260040160206040518083038186803b15801561455657600080fd5b505afa15801561456a573d6000803e3d6000fd5b505050506040513d601f19601f8201168201806040525081019061458e9190615162565b1461459f576144fb600a601161219e565b866001600160a01b0316866001600160a01b031614156145c5576144fb6006601761219e565b846145d6576144fb6007601561219e565b8460001914156145ec576144fb6007601461219e565b6000806145fa898989612ee4565b9092509050811561462f5761462182601081111561461a5761461a6152fd565b601861219e565b600094509450505050614946565b60055460405163c488847b60e01b815260009182916001600160a01b039091169063c488847b906146689030908c90889060040161519f565b604080518083038186803b15801561467f57600080fd5b505afa158015614693573d6000803e3d6000fd5b505050506040513d601f19601f820116820180604052508101906146b7919061517b565b909250905081156147265760405162461bcd60e51b815260206004820152603360248201527f4c49515549444154455f434f4d5054524f4c4c45525f43414c43554c4154455f604482015272105353d5539517d4d152569157d19052531151606a1b60648201526084016108cf565b6040516370a0823160e01b81526001600160a01b038b811660048301528291908a16906370a082319060240160206040518083038186803b15801561476a57600080fd5b505afa15801561477e573d6000803e3d6000fd5b505050506040513d601f19601f820116820180604052508101906147a29190615162565b10156147f05760405162461bcd60e51b815260206004820152601860248201527f4c49515549444154455f5345495a455f544f4f5f4d554348000000000000000060448201526064016108cf565b60006001600160a01b0389163014156148165761480f308d8d856127f8565b905061489b565b60405163b2a02ff160e01b81526001600160a01b038a169063b2a02ff190614846908f908f90879060040161519f565b602060405180830381600087803b15801561486057600080fd5b505af1158015614874573d6000803e3d6000fd5b505050506040513d601f19601f820116820180604052508101906148989190615162565b90505b80156148e05760405162461bcd60e51b81526020600482015260146024820152731d1bdad95b881cd95a5e9d5c994819985a5b195960621b60448201526064016108cf565b604080516001600160a01b038e811682528d811660208301528183018790528b1660608201526080810184905290517f298637f684da70674f26509b10f07ec2fbc77a335ab1e7d6215a4b2484d8bb529181900360a00190a16000975092955050505050505b94509492505050565b6011546040516370a0823160e01b81523060048201526000916001600160a01b031690829082906370a082319060240160206040518083038186803b15801561499757600080fd5b505afa1580156149ab573d6000803e3d6000fd5b505050506040513d601f19601f820116820180604052508101906149cf9190615162565b6040516323b872dd60e01b81529091506001600160a01b038316906323b872dd90614a029088903090899060040161519f565b600060405180830381600087803b158015614a1c57600080fd5b505af1158015614a30573d6000803e3d6000fd5b5050505060003d60008114614a4c5760208114614a5657600080fd5b6000199150614a62565b60206000803e60005191505b5080614ab05760405162461bcd60e51b815260206004820152601860248201527f544f4b454e5f5452414e534645525f494e5f4641494c4544000000000000000060448201526064016108cf565b6011546040516370a0823160e01b81523060048201526000916001600160a01b0316906370a082319060240160206040518083038186803b158015614af457600080fd5b505afa158015614b08573d6000803e3d6000fd5b505050506040513d601f19601f82011682018060405250810190614b2c9190615162565b905082811015614b7e5760405162461bcd60e51b815260206004820152601a60248201527f544f4b454e5f5452414e534645525f494e5f4f564552464c4f5700000000000060448201526064016108cf565b614b888382615295565b979650505050505050565b60008060008061205f8686614c76565b6000610e8a83836040518060400160405280601781526020017f6d756c7469706c69636174696f6e206f766572666c6f77000000000000000000815250614ce9565b60008184841115614c095760405162461bcd60e51b81526004016108cf91906151c3565b50610d1a8385615295565b6040805160208101909152600081526040518060200160405280614c3c856000015185614ba3565b90529392505050565b600080614c52848661523c565b90508285821015610c695760405162461bcd60e51b81526004016108cf91906151c3565b6000614c8e6040518060200160405280600081525090565b600080614ca3670de0b6b3a764000087613b90565b90925090506000826003811115614cbc57614cbc6152fd565b14614cdb5750604080516020810190915260008152909250905061209b565b61209481866000015161334f565b6000831580614cf6575082155b15614d0357506000610e8a565b6000614d0f8486615276565b905083614d1c8683615254565b148390610c695760405162461bcd60e51b81526004016108cf91906151c3565b828054614d48906152ac565b90600052602060002090601f016020900481019282614d6a5760008555614db0565b82601f10614d8357805160ff1916838001178555614db0565b82800160010185558215614db0579182015b82811115614db0578251825591602001919060010190614d95565b50614dbc929150614dc0565b5090565b5b80821115614dbc5760008155600101614dc1565b600067ffffffffffffffff80841115614df057614df0615313565b604051601f8501601f19908116603f01168101908282118183101715614e1857614e18615313565b81604052809350858152868686011115614e3157600080fd5b858560208301376000602087830101525050509392505050565b600082601f830112614e5c57600080fd5b610e8a83833560208501614dd5565b803560ff81168114614e7c57600080fd5b919050565b600060208284031215614e9357600080fd5b8135610e8a81615329565b60008060408385031215614eb157600080fd5b8235614ebc81615329565b91506020830135614ecc81615329565b809150509250929050565b600080600060608486031215614eec57600080fd5b8335614ef781615329565b92506020840135614f0781615329565b929592945050506040919091013590565b600080600080600080600060e0888a031215614f3357600080fd5b8735614f3e81615329565b96506020880135614f4e81615329565b95506040880135614f5e81615329565b945060608801359350608088013567ffffffffffffffff80821115614f8257600080fd5b614f8e8b838c01614e4b565b945060a08a0135915080821115614fa457600080fd5b50614fb18a828b01614e4b565b925050614fc060c08901614e6b565b905092959891949750929550565b60008060408385031215614fe157600080fd5b8235614fec81615329565b946020939093013593505050565b60008060006060848603121561500f57600080fd5b833561501a81615329565b925060208401359150604084013561503181615329565b809150509250925092565b60006020828403121561504e57600080fd5b81518015158114610e8a57600080fd5b60006020828403121561507057600080fd5b813567ffffffffffffffff81111561508757600080fd5b8201601f8101841361509857600080fd5b610d1a84823560208401614dd5565b60008060008060008060c087890312156150c057600080fd5b86356150cb81615329565b955060208701356150db81615329565b945060408701359350606087013567ffffffffffffffff808211156150ff57600080fd5b61510b8a838b01614e4b565b9450608089013591508082111561512157600080fd5b5061512e89828a01614e4b565b92505061513d60a08801614e6b565b90509295509295509295565b60006020828403121561515b57600080fd5b5035919050565b60006020828403121561517457600080fd5b5051919050565b6000806040838503121561518e57600080fd5b505080516020909101519092909150565b6001600160a01b039384168152919092166020820152604081019190915260600190565b600060208083528351808285015260005b818110156151f0578581018301518582016040015282016151d4565b81811115615202576000604083870101525b50601f01601f1916929092016040019392505050565b6020808252600a90820152691c994b595b9d195c995960b21b604082015260600190565b6000821982111561524f5761524f6152e7565b500190565b60008261527157634e487b7160e01b600052601260045260246000fd5b500490565b6000816000190483118215151615615290576152906152e7565b500290565b6000828210156152a7576152a76152e7565b500390565b600181811c908216806152c057607f821691505b602082108114156152e157634e487b7160e01b600052602260045260246000fd5b50919050565b634e487b7160e01b600052601160045260246000fd5b634e487b7160e01b600052602160045260246000fd5b634e487b7160e01b600052604160045260246000fd5b6001600160a01b0381168114610f0657600080fdfeddf252ad1be2c89b69c2b068fc378daa952ba7f163c4a11628f55a4df523b3efa2646970667358221220bf4bbd5db9f4ca40616791fa98b9100ed29203e2b70a3df7c2b455417b28e80664736f6c63430008070033",
  "immutableReferences": {},
  "source": "// SPDX-License-Identifier: MIT\npragma solidity >=0.8.0;\n\nimport \"./CErc20.sol\";\n\n/**\n * @title Compound's CErc20Delegate Contract\n * @notice CTokens which wrap an EIP-20 underlying and are delegated to\n * @author Compound\n */\ncontract CErc20Delegate is CErc20, CDelegateInterface {\n    /**\n     * @notice Construct an empty delegate\n     */\n    constructor() {}\n\n    /**\n     * @notice Called by the delegator on a delegate to initialize it for duty\n     * @param data The encoded bytes data for any initialization\n     */\n    function _becomeImplementation(bytes memory data) public  override  {\n        // Shh -- currently unused\n        data;\n\n        // Shh -- we don't ever want this hook to be marked pure\n        if (false) {\n            implementation = address(0);\n        }\n\n        require(msg.sender == admin, \"only the admin may call _becomeImplementation\");\n    }\n\n    /**\n     * @notice Called by the delegator on a delegate to forfeit its responsibility\n     */\n    function _resignImplementation() public override  {\n        // Shh -- we don't ever want this hook to be marked pure\n        if (false) {\n            implementation = address(0);\n        }\n\n        require(msg.sender == admin, \"only the admin may call _resignImplementation\");\n    }\n}\n",
  "sourcePath": "/Users/vchikhladze/DApps/DeFi/primaryIndexToken/contracts/cToken/CErc20Delegate.sol",
  "compiler": {
    "name": "solc",
    "version": "0.8.7+commit.e28d00a7.Emscripten.clang"
  },
  "schemaVersion": "3.4.1",
  "updatedAt": "2021-09-13T06:45:31.086Z",
  "devdoc": {
    "author": "Compound",
    "kind": "dev",
    "methods": {
      "_acceptAdmin()": {
        "details": "Admin function for pending admin to accept role and update admin",
        "returns": {
          "_0": "uint 0=success, otherwise a failure (see ErrorReporter.sol for details)"
        }
      },
      "_addReserves(uint256)": {
        "params": {
          "addAmount": "The amount fo underlying token to add as reserves"
        },
        "returns": {
          "_0": "uint 0=success, otherwise a failure (see ErrorReporter.sol for details)"
        }
      },
      "_becomeImplementation(bytes)": {
        "params": {
          "data": "The encoded bytes data for any initialization"
        }
      },
      "_reduceReserves(uint256)": {
        "params": {
          "reduceAmount": "Amount of reduction to reserves"
        },
        "returns": {
          "_0": "uint 0=success, otherwise a failure (see ErrorReporter.sol for details)"
        }
      },
      "_setComptroller(address)": {
        "details": "Admin function to set a new comptroller",
        "returns": {
          "_0": "uint 0=success, otherwise a failure (see ErrorReporter.sol for details)"
        }
      },
      "_setInterestRateModel(address)": {
        "details": "Admin function to accrue interest and update the interest rate model",
        "params": {
          "newInterestRateModel": "the new interest rate model to use"
        },
        "returns": {
          "_0": "uint 0=success, otherwise a failure (see ErrorReporter.sol for details)"
        }
      },
      "_setPendingAdmin(address)": {
        "details": "Admin function to begin change of admin. The newPendingAdmin must call `_acceptAdmin` to finalize the transfer.",
        "params": {
          "newPendingAdmin": "New pending admin."
        },
        "returns": {
          "_0": "uint 0=success, otherwise a failure (see ErrorReporter.sol for details)"
        }
      },
      "_setReserveFactor(uint256)": {
        "details": "Admin function to accrue interest and set a new reserve factor",
        "returns": {
          "_0": "uint 0=success, otherwise a failure (see ErrorReporter.sol for details)"
        }
      },
      "accrueInterest()": {
        "details": "This calculates interest accrued from the last checkpointed block   up to the current block and writes new checkpoint to storage."
      },
      "allowance(address,address)": {
        "params": {
          "owner": "The address of the account which owns the tokens to be spent",
          "spender": "The address of the account which may transfer tokens"
        },
        "returns": {
          "_0": "The number of tokens allowed to be spent (-1 means infinite)"
        }
      },
      "approve(address,uint256)": {
        "details": "This will overwrite the approval amount for `spender`  and is subject to issues noted [here](https://eips.ethereum.org/EIPS/eip-20#approve)",
        "params": {
          "amount": "The number of tokens that are approved (-1 means infinite)",
          "spender": "The address of the account which may transfer tokens"
        },
        "returns": {
          "_0": "Whether or not the approval succeeded"
        }
      },
      "balanceOf(address)": {
        "params": {
          "owner": "The address of the account to query"
        },
        "returns": {
          "_0": "The number of tokens owned by `owner`"
        }
      },
      "balanceOfUnderlying(address)": {
        "details": "This also accrues interest in a transaction",
        "params": {
          "owner": "The address of the account to query"
        },
        "returns": {
          "_0": "The amount of underlying owned by `owner`"
        }
      },
      "borrow(uint256)": {
        "params": {
          "borrowAmount": "The amount of the underlying asset to borrow"
        },
        "returns": {
          "_0": "uint 0=success, otherwise a failure (see ErrorReporter.sol for details)"
        }
      },
      "borrowBalanceCurrent(address)": {
        "params": {
          "account": "The address whose balance should be calculated after updating borrowIndex"
        },
        "returns": {
          "_0": "The calculated balance"
        }
      },
      "borrowBalanceStored(address)": {
        "params": {
          "account": "The address whose balance should be calculated"
        },
        "returns": {
          "_0": "The calculated balance"
        }
      },
      "borrowRatePerBlock()": {
        "returns": {
          "_0": "The borrow interest rate per block, scaled by 1e18"
        }
      },
      "exchangeRateCurrent()": {
        "returns": {
          "_0": "Calculated exchange rate scaled by 1e18"
        }
      },
      "exchangeRateStored()": {
        "details": "This function does not accrue interest before calculating the exchange rate",
        "returns": {
          "_0": "Calculated exchange rate scaled by 1e18"
        }
      },
      "getAccountSnapshot(address)": {
        "details": "This is used by comptroller to more efficiently perform liquidity checks.",
        "params": {
          "account": "Address of the account to snapshot"
        },
        "returns": {
          "_0": "(possible error, token balance, borrow balance, exchange rate mantissa)"
        }
      },
      "getCash()": {
        "returns": {
          "_0": "The quantity of underlying asset owned by this contract"
        }
      },
      "initialize(address,address,address,uint256,string,string,uint8)": {
        "params": {
          "comptroller_": "The address of the Comptroller",
          "decimals_": "ERC-20 decimal precision of this token",
          "initialExchangeRateMantissa_": "The initial exchange rate, scaled by 1e18",
          "interestRateModel_": "The address of the interest rate model",
          "name_": "ERC-20 name of this token",
          "symbol_": "ERC-20 symbol of this token",
          "underlying_": "The address of the underlying asset"
        }
      },
      "initialize(address,address,uint256,string,string,uint8)": {
        "params": {
          "comptroller_": "The address of the Comptroller",
          "decimals_": "EIP-20 decimal precision of this token",
          "initialExchangeRateMantissa_": "The initial exchange rate, scaled by 1e18",
          "interestRateModel_": "The address of the interest rate model",
          "name_": "EIP-20 name of this token",
          "symbol_": "EIP-20 symbol of this token"
        }
      },
      "liquidateBorrow(address,uint256,address)": {
        "params": {
          "borrower": "The borrower of this cToken to be liquidated",
          "cTokenCollateral": "The market in which to seize collateral from the borrower",
          "repayAmount": "The amount of the underlying borrowed asset to repay"
        },
        "returns": {
          "_0": "uint 0=success, otherwise a failure (see ErrorReporter.sol for details)"
        }
      },
      "mint(uint256)": {
        "details": "Accrues interest whether or not the operation succeeds, unless reverted",
        "params": {
          "mintAmount": "The amount of the underlying asset to supply"
        },
        "returns": {
          "_0": "uint 0=success, otherwise a failure (see ErrorReporter.sol for details)"
        }
      },
      "redeem(uint256)": {
        "details": "Accrues interest whether or not the operation succeeds, unless reverted",
        "params": {
          "redeemTokens": "The number of cTokens to redeem into underlying"
        },
        "returns": {
          "_0": "uint 0=success, otherwise a failure (see ErrorReporter.sol for details)"
        }
      },
      "redeemUnderlying(uint256)": {
        "details": "Accrues interest whether or not the operation succeeds, unless reverted",
        "params": {
          "redeemAmount": "The amount of underlying to redeem"
        },
        "returns": {
          "_0": "uint 0=success, otherwise a failure (see ErrorReporter.sol for details)"
        }
      },
      "repayBorrow(uint256)": {
        "params": {
          "repayAmount": "The amount to repay"
        },
        "returns": {
          "_0": "uint 0=success, otherwise a failure (see ErrorReporter.sol for details)"
        }
      },
      "repayBorrowBehalf(address,uint256)": {
        "params": {
          "borrower": "the account with the debt being payed off",
          "repayAmount": "The amount to repay"
        },
        "returns": {
          "_0": "uint 0=success, otherwise a failure (see ErrorReporter.sol for details)"
        }
      },
      "seize(address,address,uint256)": {
        "details": "Will fail unless called by another cToken during the process of liquidation.  Its absolutely critical to use msg.sender as the borrowed cToken and not a parameter.",
        "params": {
          "borrower": "The account having collateral seized",
          "liquidator": "The account receiving seized collateral",
          "seizeTokens": "The number of cTokens to seize"
        },
        "returns": {
          "_0": "uint 0=success, otherwise a failure (see ErrorReporter.sol for details)"
        }
      },
      "supplyRatePerBlock()": {
        "returns": {
          "_0": "The supply interest rate per block, scaled by 1e18"
        }
      },
      "sweepToken(address)": {
        "params": {
          "token": "The address of the ERC-20 token to sweep"
        }
      },
      "totalBorrowsCurrent()": {
        "returns": {
          "_0": "The total borrows with interest"
        }
      },
      "transfer(address,uint256)": {
        "params": {
          "amount": "The number of tokens to transfer",
          "dst": "The address of the destination account"
        },
        "returns": {
          "_0": "Whether or not the transfer succeeded"
        }
      },
      "transferFrom(address,address,uint256)": {
        "params": {
          "amount": "The number of tokens to transfer",
          "dst": "The address of the destination account",
          "src": "The address of the source account"
        },
        "returns": {
          "_0": "Whether or not the transfer succeeded"
        }
      }
    },
    "title": "Compound's CErc20Delegate Contract",
    "version": 1
  },
  "userdoc": {
    "events": {
      "AccrueInterest(uint256,uint256,uint256,uint256)": {
        "notice": "Event emitted when interest is accrued"
      },
      "Approval(address,address,uint256)": {
        "notice": "EIP20 Approval event"
      },
      "Borrow(address,uint256,uint256,uint256)": {
        "notice": "Event emitted when underlying is borrowed"
      },
      "LiquidateBorrow(address,address,uint256,address,uint256)": {
        "notice": "Event emitted when a borrow is liquidated"
      },
      "Mint(address,uint256,uint256)": {
        "notice": "Event emitted when tokens are minted"
      },
      "NewAdmin(address,address)": {
        "notice": "Event emitted when pendingAdmin is accepted, which means admin is updated"
      },
      "NewComptroller(address,address)": {
        "notice": "Event emitted when comptroller is changed"
      },
      "NewMarketInterestRateModel(address,address)": {
        "notice": "Event emitted when interestRateModel is changed"
      },
      "NewPendingAdmin(address,address)": {
        "notice": "Event emitted when pendingAdmin is changed"
      },
      "NewReserveFactor(uint256,uint256)": {
        "notice": "Event emitted when the reserve factor is changed"
      },
      "Redeem(address,uint256,uint256)": {
        "notice": "Event emitted when tokens are redeemed"
      },
      "RepayBorrow(address,address,uint256,uint256,uint256)": {
        "notice": "Event emitted when a borrow is repaid"
      },
      "ReservesAdded(address,uint256,uint256)": {
        "notice": "Event emitted when the reserves are added"
      },
      "ReservesReduced(address,uint256,uint256)": {
        "notice": "Event emitted when the reserves are reduced"
      },
      "Transfer(address,address,uint256)": {
        "notice": "EIP20 Transfer event"
      }
    },
    "kind": "user",
    "methods": {
      "_acceptAdmin()": {
        "notice": "Accepts transfer of admin rights. msg.sender must be pendingAdmin"
      },
      "_addReserves(uint256)": {
        "notice": "The sender adds to reserves."
      },
      "_becomeImplementation(bytes)": {
        "notice": "Called by the delegator on a delegate to initialize it for duty"
      },
      "_reduceReserves(uint256)": {
        "notice": "Accrues interest and reduces reserves by transferring to admin"
      },
      "_resignImplementation()": {
        "notice": "Called by the delegator on a delegate to forfeit its responsibility"
      },
      "_setComptroller(address)": {
        "notice": "Sets a new comptroller for the market"
      },
      "_setInterestRateModel(address)": {
        "notice": "accrues interest and updates the interest rate model using _setInterestRateModelFresh"
      },
      "_setPendingAdmin(address)": {
        "notice": "Begins transfer of admin rights. The newPendingAdmin must call `_acceptAdmin` to finalize the transfer."
      },
      "_setReserveFactor(uint256)": {
        "notice": "accrues interest and sets a new reserve factor for the protocol using _setReserveFactorFresh"
      },
      "accountTokens(address)": {
        "notice": "Official record of token balances for each account"
      },
      "accrualBlockNumber()": {
        "notice": "Block number that interest was last accrued at"
      },
      "accrueInterest()": {
        "notice": "Applies accrued interest to total borrows and reserves"
      },
      "admin()": {
        "notice": "Administrator for this contract"
      },
      "allowance(address,address)": {
        "notice": "Get the current allowance from `owner` for `spender`"
      },
      "approve(address,uint256)": {
        "notice": "Approve `spender` to transfer up to `amount` from `src`"
      },
      "balanceOf(address)": {
        "notice": "Get the token balance of the `owner`"
      },
      "balanceOfUnderlying(address)": {
        "notice": "Get the underlying balance of the `owner`"
      },
      "borrow(uint256)": {
        "notice": "Sender borrows assets from the protocol to their own address"
      },
      "borrowBalanceCurrent(address)": {
        "notice": "Accrue interest to updated borrowIndex and then calculate account's borrow balance using the updated borrowIndex"
      },
      "borrowBalanceStored(address)": {
        "notice": "Return the borrow balance of account based on stored data"
      },
      "borrowIndex()": {
        "notice": "Accumulator of the total earned interest rate since the opening of the market"
      },
      "borrowRatePerBlock()": {
        "notice": "Returns the current per-block borrow interest rate for this cToken"
      },
      "comptroller()": {
        "notice": "Contract which oversees inter-cToken operations"
      },
      "constructor": {
        "notice": "Construct an empty delegate"
      },
      "decimals()": {
        "notice": "EIP-20 token decimals for this token"
      },
      "exchangeRateCurrent()": {
        "notice": "Accrue interest then return the up-to-date exchange rate"
      },
      "exchangeRateStored()": {
        "notice": "Calculates the exchange rate from the underlying to the CToken"
      },
      "getAccountSnapshot(address)": {
        "notice": "Get a snapshot of the account's balances, and the cached exchange rate"
      },
      "getCash()": {
        "notice": "Get cash balance of this cToken in the underlying asset"
      },
      "implementation()": {
        "notice": "Implementation address for this contract"
      },
      "initialize(address,address,address,uint256,string,string,uint8)": {
        "notice": "Initialize the new money market"
      },
      "initialize(address,address,uint256,string,string,uint8)": {
        "notice": "Initialize the money market"
      },
      "interestRateModel()": {
        "notice": "Model which tells what the current interest rate should be"
      },
      "isCToken()": {
        "notice": "Indicator that this is a CToken contract (for inspection)"
      },
      "liquidateBorrow(address,uint256,address)": {
        "notice": "The sender liquidates the borrowers collateral.  The collateral seized is transferred to the liquidator."
      },
      "mint(uint256)": {
        "notice": "Sender supplies assets into the market and receives cTokens in exchange"
      },
      "name()": {
        "notice": "EIP-20 token name for this token"
      },
      "pendingAdmin()": {
        "notice": "Pending administrator for this contract"
      },
      "protocolSeizeShareMantissa()": {
        "notice": "Share of seized collateral that is added to reserves"
      },
      "redeem(uint256)": {
        "notice": "Sender redeems cTokens in exchange for the underlying asset"
      },
      "redeemUnderlying(uint256)": {
        "notice": "Sender redeems cTokens in exchange for a specified amount of underlying asset"
      },
      "repayBorrow(uint256)": {
        "notice": "Sender repays their own borrow"
      },
      "repayBorrowBehalf(address,uint256)": {
        "notice": "Sender repays a borrow belonging to borrower"
      },
      "reserveFactorMantissa()": {
        "notice": "Fraction of interest currently set aside for reserves"
      },
      "seize(address,address,uint256)": {
        "notice": "Transfers collateral tokens (this market) to the liquidator."
      },
      "supplyRatePerBlock()": {
        "notice": "Returns the current per-block supply interest rate for this cToken"
      },
      "sweepToken(address)": {
        "notice": "A public function to sweep accidental ERC-20 transfers to this contract. Tokens are sent to admin (timelock)"
      },
      "symbol()": {
        "notice": "EIP-20 token symbol for this token"
      },
      "totalBorrows()": {
        "notice": "Total amount of outstanding borrows of the underlying in this market"
      },
      "totalBorrowsCurrent()": {
        "notice": "Returns the current total borrows plus accrued interest"
      },
      "totalReserves()": {
        "notice": "Total amount of reserves of the underlying held in this market"
      },
      "totalSupply()": {
        "notice": "Total number of tokens in circulation"
      },
      "transfer(address,uint256)": {
        "notice": "Transfer `amount` tokens from `msg.sender` to `dst`"
      },
      "transferFrom(address,address,uint256)": {
        "notice": "Transfer `amount` tokens from `src` to `dst`"
      },
      "underlying()": {
        "notice": "Underlying asset for this CToken"
      }
    },
    "notice": "CTokens which wrap an EIP-20 underlying and are delegated to",
    "version": 1
  }
}