{
  "contractName": "CErc20",
  "abi": [
    {
      "anonymous": false,
      "inputs": [
        {
          "indexed": false,
          "internalType": "uint256",
          "name": "cashPrior",
          "type": "uint256"
        },
        {
          "indexed": false,
          "internalType": "uint256",
          "name": "interestAccumulated",
          "type": "uint256"
        },
        {
          "indexed": false,
          "internalType": "uint256",
          "name": "borrowIndex",
          "type": "uint256"
        },
        {
          "indexed": false,
          "internalType": "uint256",
          "name": "totalBorrows",
          "type": "uint256"
        }
      ],
      "name": "AccrueInterest",
      "type": "event"
    },
    {
      "anonymous": false,
      "inputs": [
        {
          "indexed": true,
          "internalType": "address",
          "name": "owner",
          "type": "address"
        },
        {
          "indexed": true,
          "internalType": "address",
          "name": "spender",
          "type": "address"
        },
        {
          "indexed": false,
          "internalType": "uint256",
          "name": "amount",
          "type": "uint256"
        }
      ],
      "name": "Approval",
      "type": "event"
    },
    {
      "anonymous": false,
      "inputs": [
        {
          "indexed": false,
          "internalType": "address",
          "name": "borrower",
          "type": "address"
        },
        {
          "indexed": false,
          "internalType": "uint256",
          "name": "borrowAmount",
          "type": "uint256"
        },
        {
          "indexed": false,
          "internalType": "uint256",
          "name": "accountBorrows",
          "type": "uint256"
        },
        {
          "indexed": false,
          "internalType": "uint256",
          "name": "totalBorrows",
          "type": "uint256"
        }
      ],
      "name": "Borrow",
      "type": "event"
    },
    {
      "anonymous": false,
      "inputs": [
        {
          "indexed": false,
          "internalType": "uint256",
          "name": "error",
          "type": "uint256"
        },
        {
          "indexed": false,
          "internalType": "uint256",
          "name": "info",
          "type": "uint256"
        },
        {
          "indexed": false,
          "internalType": "uint256",
          "name": "detail",
          "type": "uint256"
        }
      ],
      "name": "Failure",
      "type": "event"
    },
    {
      "anonymous": false,
      "inputs": [
        {
          "indexed": false,
          "internalType": "address",
          "name": "liquidator",
          "type": "address"
        },
        {
          "indexed": false,
          "internalType": "address",
          "name": "borrower",
          "type": "address"
        },
        {
          "indexed": false,
          "internalType": "uint256",
          "name": "repayAmount",
          "type": "uint256"
        },
        {
          "indexed": false,
          "internalType": "address",
          "name": "cTokenCollateral",
          "type": "address"
        },
        {
          "indexed": false,
          "internalType": "uint256",
          "name": "seizeTokens",
          "type": "uint256"
        }
      ],
      "name": "LiquidateBorrow",
      "type": "event"
    },
    {
      "anonymous": false,
      "inputs": [
        {
          "indexed": false,
          "internalType": "address",
          "name": "minter",
          "type": "address"
        },
        {
          "indexed": false,
          "internalType": "uint256",
          "name": "mintAmount",
          "type": "uint256"
        },
        {
          "indexed": false,
          "internalType": "uint256",
          "name": "mintTokens",
          "type": "uint256"
        }
      ],
      "name": "Mint",
      "type": "event"
    },
    {
      "anonymous": false,
      "inputs": [
        {
          "indexed": false,
          "internalType": "address",
          "name": "oldAdmin",
          "type": "address"
        },
        {
          "indexed": false,
          "internalType": "address",
          "name": "newAdmin",
          "type": "address"
        }
      ],
      "name": "NewAdmin",
      "type": "event"
    },
    {
      "anonymous": false,
      "inputs": [
        {
          "indexed": false,
          "internalType": "contract ComptrollerInterface",
          "name": "oldComptroller",
          "type": "address"
        },
        {
          "indexed": false,
          "internalType": "contract ComptrollerInterface",
          "name": "newComptroller",
          "type": "address"
        }
      ],
      "name": "NewComptroller",
      "type": "event"
    },
    {
      "anonymous": false,
      "inputs": [
        {
          "indexed": false,
          "internalType": "contract InterestRateModel",
          "name": "oldInterestRateModel",
          "type": "address"
        },
        {
          "indexed": false,
          "internalType": "contract InterestRateModel",
          "name": "newInterestRateModel",
          "type": "address"
        }
      ],
      "name": "NewMarketInterestRateModel",
      "type": "event"
    },
    {
      "anonymous": false,
      "inputs": [
        {
          "indexed": false,
          "internalType": "address",
          "name": "oldPendingAdmin",
          "type": "address"
        },
        {
          "indexed": false,
          "internalType": "address",
          "name": "newPendingAdmin",
          "type": "address"
        }
      ],
      "name": "NewPendingAdmin",
      "type": "event"
    },
    {
      "anonymous": false,
      "inputs": [
        {
          "indexed": false,
          "internalType": "uint256",
          "name": "oldReserveFactorMantissa",
          "type": "uint256"
        },
        {
          "indexed": false,
          "internalType": "uint256",
          "name": "newReserveFactorMantissa",
          "type": "uint256"
        }
      ],
      "name": "NewReserveFactor",
      "type": "event"
    },
    {
      "anonymous": false,
      "inputs": [
        {
          "indexed": false,
          "internalType": "address",
          "name": "redeemer",
          "type": "address"
        },
        {
          "indexed": false,
          "internalType": "uint256",
          "name": "redeemAmount",
          "type": "uint256"
        },
        {
          "indexed": false,
          "internalType": "uint256",
          "name": "redeemTokens",
          "type": "uint256"
        }
      ],
      "name": "Redeem",
      "type": "event"
    },
    {
      "anonymous": false,
      "inputs": [
        {
          "indexed": false,
          "internalType": "address",
          "name": "payer",
          "type": "address"
        },
        {
          "indexed": false,
          "internalType": "address",
          "name": "borrower",
          "type": "address"
        },
        {
          "indexed": false,
          "internalType": "uint256",
          "name": "repayAmount",
          "type": "uint256"
        },
        {
          "indexed": false,
          "internalType": "uint256",
          "name": "accountBorrows",
          "type": "uint256"
        },
        {
          "indexed": false,
          "internalType": "uint256",
          "name": "totalBorrows",
          "type": "uint256"
        }
      ],
      "name": "RepayBorrow",
      "type": "event"
    },
    {
      "anonymous": false,
      "inputs": [
        {
          "indexed": false,
          "internalType": "address",
          "name": "benefactor",
          "type": "address"
        },
        {
          "indexed": false,
          "internalType": "uint256",
          "name": "addAmount",
          "type": "uint256"
        },
        {
          "indexed": false,
          "internalType": "uint256",
          "name": "newTotalReserves",
          "type": "uint256"
        }
      ],
      "name": "ReservesAdded",
      "type": "event"
    },
    {
      "anonymous": false,
      "inputs": [
        {
          "indexed": false,
          "internalType": "address",
          "name": "admin",
          "type": "address"
        },
        {
          "indexed": false,
          "internalType": "uint256",
          "name": "reduceAmount",
          "type": "uint256"
        },
        {
          "indexed": false,
          "internalType": "uint256",
          "name": "newTotalReserves",
          "type": "uint256"
        }
      ],
      "name": "ReservesReduced",
      "type": "event"
    },
    {
      "anonymous": false,
      "inputs": [
        {
          "indexed": true,
          "internalType": "address",
          "name": "from",
          "type": "address"
        },
        {
          "indexed": true,
          "internalType": "address",
          "name": "to",
          "type": "address"
        },
        {
          "indexed": false,
          "internalType": "uint256",
          "name": "amount",
          "type": "uint256"
        }
      ],
      "name": "Transfer",
      "type": "event"
    },
    {
      "inputs": [],
      "name": "_acceptAdmin",
      "outputs": [
        {
          "internalType": "uint256",
          "name": "",
          "type": "uint256"
        }
      ],
      "stateMutability": "nonpayable",
      "type": "function"
    },
    {
      "inputs": [
        {
          "internalType": "uint256",
          "name": "reduceAmount",
          "type": "uint256"
        }
      ],
      "name": "_reduceReserves",
      "outputs": [
        {
          "internalType": "uint256",
          "name": "",
          "type": "uint256"
        }
      ],
      "stateMutability": "nonpayable",
      "type": "function"
    },
    {
      "inputs": [
        {
          "internalType": "contract ComptrollerInterface",
          "name": "newComptroller",
          "type": "address"
        }
      ],
      "name": "_setComptroller",
      "outputs": [
        {
          "internalType": "uint256",
          "name": "",
          "type": "uint256"
        }
      ],
      "stateMutability": "nonpayable",
      "type": "function"
    },
    {
      "inputs": [
        {
          "internalType": "contract InterestRateModel",
          "name": "newInterestRateModel",
          "type": "address"
        }
      ],
      "name": "_setInterestRateModel",
      "outputs": [
        {
          "internalType": "uint256",
          "name": "",
          "type": "uint256"
        }
      ],
      "stateMutability": "nonpayable",
      "type": "function"
    },
    {
      "inputs": [
        {
          "internalType": "address payable",
          "name": "newPendingAdmin",
          "type": "address"
        }
      ],
      "name": "_setPendingAdmin",
      "outputs": [
        {
          "internalType": "uint256",
          "name": "",
          "type": "uint256"
        }
      ],
      "stateMutability": "nonpayable",
      "type": "function"
    },
    {
      "inputs": [
        {
          "internalType": "uint256",
          "name": "newReserveFactorMantissa",
          "type": "uint256"
        }
      ],
      "name": "_setReserveFactor",
      "outputs": [
        {
          "internalType": "uint256",
          "name": "",
          "type": "uint256"
        }
      ],
      "stateMutability": "nonpayable",
      "type": "function"
    },
    {
      "inputs": [
        {
          "internalType": "address",
          "name": "",
          "type": "address"
        }
      ],
      "name": "accountTokens",
      "outputs": [
        {
          "internalType": "uint256",
          "name": "",
          "type": "uint256"
        }
      ],
      "stateMutability": "view",
      "type": "function"
    },
    {
      "inputs": [],
      "name": "accrualBlockNumber",
      "outputs": [
        {
          "internalType": "uint256",
          "name": "",
          "type": "uint256"
        }
      ],
      "stateMutability": "view",
      "type": "function"
    },
    {
      "inputs": [],
      "name": "accrueInterest",
      "outputs": [
        {
          "internalType": "uint256",
          "name": "",
          "type": "uint256"
        }
      ],
      "stateMutability": "nonpayable",
      "type": "function"
    },
    {
      "inputs": [],
      "name": "admin",
      "outputs": [
        {
          "internalType": "address payable",
          "name": "",
          "type": "address"
        }
      ],
      "stateMutability": "view",
      "type": "function"
    },
    {
      "inputs": [
        {
          "internalType": "address",
          "name": "owner",
          "type": "address"
        },
        {
          "internalType": "address",
          "name": "spender",
          "type": "address"
        }
      ],
      "name": "allowance",
      "outputs": [
        {
          "internalType": "uint256",
          "name": "",
          "type": "uint256"
        }
      ],
      "stateMutability": "view",
      "type": "function"
    },
    {
      "inputs": [
        {
          "internalType": "address",
          "name": "spender",
          "type": "address"
        },
        {
          "internalType": "uint256",
          "name": "amount",
          "type": "uint256"
        }
      ],
      "name": "approve",
      "outputs": [
        {
          "internalType": "bool",
          "name": "",
          "type": "bool"
        }
      ],
      "stateMutability": "nonpayable",
      "type": "function"
    },
    {
      "inputs": [
        {
          "internalType": "address",
          "name": "owner",
          "type": "address"
        }
      ],
      "name": "balanceOf",
      "outputs": [
        {
          "internalType": "uint256",
          "name": "",
          "type": "uint256"
        }
      ],
      "stateMutability": "view",
      "type": "function"
    },
    {
      "inputs": [
        {
          "internalType": "address",
          "name": "owner",
          "type": "address"
        }
      ],
      "name": "balanceOfUnderlying",
      "outputs": [
        {
          "internalType": "uint256",
          "name": "",
          "type": "uint256"
        }
      ],
      "stateMutability": "nonpayable",
      "type": "function"
    },
    {
      "inputs": [
        {
          "internalType": "address",
          "name": "account",
          "type": "address"
        }
      ],
      "name": "borrowBalanceCurrent",
      "outputs": [
        {
          "internalType": "uint256",
          "name": "",
          "type": "uint256"
        }
      ],
      "stateMutability": "nonpayable",
      "type": "function"
    },
    {
      "inputs": [
        {
          "internalType": "address",
          "name": "account",
          "type": "address"
        }
      ],
      "name": "borrowBalanceStored",
      "outputs": [
        {
          "internalType": "uint256",
          "name": "",
          "type": "uint256"
        }
      ],
      "stateMutability": "view",
      "type": "function"
    },
    {
      "inputs": [],
      "name": "borrowIndex",
      "outputs": [
        {
          "internalType": "uint256",
          "name": "",
          "type": "uint256"
        }
      ],
      "stateMutability": "view",
      "type": "function"
    },
    {
      "inputs": [],
      "name": "borrowRatePerBlock",
      "outputs": [
        {
          "internalType": "uint256",
          "name": "",
          "type": "uint256"
        }
      ],
      "stateMutability": "view",
      "type": "function"
    },
    {
      "inputs": [],
      "name": "comptroller",
      "outputs": [
        {
          "internalType": "contract ComptrollerInterface",
          "name": "",
          "type": "address"
        }
      ],
      "stateMutability": "view",
      "type": "function"
    },
    {
      "inputs": [],
      "name": "decimals",
      "outputs": [
        {
          "internalType": "uint8",
          "name": "",
          "type": "uint8"
        }
      ],
      "stateMutability": "view",
      "type": "function"
    },
    {
      "inputs": [],
      "name": "exchangeRateCurrent",
      "outputs": [
        {
          "internalType": "uint256",
          "name": "",
          "type": "uint256"
        }
      ],
      "stateMutability": "nonpayable",
      "type": "function"
    },
    {
      "inputs": [],
      "name": "exchangeRateStored",
      "outputs": [
        {
          "internalType": "uint256",
          "name": "",
          "type": "uint256"
        }
      ],
      "stateMutability": "view",
      "type": "function"
    },
    {
      "inputs": [
        {
          "internalType": "address",
          "name": "account",
          "type": "address"
        }
      ],
      "name": "getAccountSnapshot",
      "outputs": [
        {
          "internalType": "uint256",
          "name": "",
          "type": "uint256"
        },
        {
          "internalType": "uint256",
          "name": "",
          "type": "uint256"
        },
        {
          "internalType": "uint256",
          "name": "",
          "type": "uint256"
        },
        {
          "internalType": "uint256",
          "name": "",
          "type": "uint256"
        }
      ],
      "stateMutability": "view",
      "type": "function"
    },
    {
      "inputs": [],
      "name": "getCash",
      "outputs": [
        {
          "internalType": "uint256",
          "name": "",
          "type": "uint256"
        }
      ],
      "stateMutability": "view",
      "type": "function"
    },
    {
      "inputs": [],
      "name": "interestRateModel",
      "outputs": [
        {
          "internalType": "contract InterestRateModel",
          "name": "",
          "type": "address"
        }
      ],
      "stateMutability": "view",
      "type": "function"
    },
    {
      "inputs": [],
      "name": "isCToken",
      "outputs": [
        {
          "internalType": "bool",
          "name": "",
          "type": "bool"
        }
      ],
      "stateMutability": "view",
      "type": "function"
    },
    {
      "inputs": [],
      "name": "name",
      "outputs": [
        {
          "internalType": "string",
          "name": "",
          "type": "string"
        }
      ],
      "stateMutability": "view",
      "type": "function"
    },
    {
      "inputs": [],
      "name": "pendingAdmin",
      "outputs": [
        {
          "internalType": "address payable",
          "name": "",
          "type": "address"
        }
      ],
      "stateMutability": "view",
      "type": "function"
    },
    {
      "inputs": [],
      "name": "protocolSeizeShareMantissa",
      "outputs": [
        {
          "internalType": "uint256",
          "name": "",
          "type": "uint256"
        }
      ],
      "stateMutability": "view",
      "type": "function"
    },
    {
      "inputs": [],
      "name": "reserveFactorMantissa",
      "outputs": [
        {
          "internalType": "uint256",
          "name": "",
          "type": "uint256"
        }
      ],
      "stateMutability": "view",
      "type": "function"
    },
    {
      "inputs": [
        {
          "internalType": "address",
          "name": "liquidator",
          "type": "address"
        },
        {
          "internalType": "address",
          "name": "borrower",
          "type": "address"
        },
        {
          "internalType": "uint256",
          "name": "seizeTokens",
          "type": "uint256"
        }
      ],
      "name": "seize",
      "outputs": [
        {
          "internalType": "uint256",
          "name": "",
          "type": "uint256"
        }
      ],
      "stateMutability": "nonpayable",
      "type": "function"
    },
    {
      "inputs": [],
      "name": "supplyRatePerBlock",
      "outputs": [
        {
          "internalType": "uint256",
          "name": "",
          "type": "uint256"
        }
      ],
      "stateMutability": "view",
      "type": "function"
    },
    {
      "inputs": [],
      "name": "symbol",
      "outputs": [
        {
          "internalType": "string",
          "name": "",
          "type": "string"
        }
      ],
      "stateMutability": "view",
      "type": "function"
    },
    {
      "inputs": [],
      "name": "totalBorrows",
      "outputs": [
        {
          "internalType": "uint256",
          "name": "",
          "type": "uint256"
        }
      ],
      "stateMutability": "view",
      "type": "function"
    },
    {
      "inputs": [],
      "name": "totalBorrowsCurrent",
      "outputs": [
        {
          "internalType": "uint256",
          "name": "",
          "type": "uint256"
        }
      ],
      "stateMutability": "nonpayable",
      "type": "function"
    },
    {
      "inputs": [],
      "name": "totalReserves",
      "outputs": [
        {
          "internalType": "uint256",
          "name": "",
          "type": "uint256"
        }
      ],
      "stateMutability": "view",
      "type": "function"
    },
    {
      "inputs": [],
      "name": "totalSupply",
      "outputs": [
        {
          "internalType": "uint256",
          "name": "",
          "type": "uint256"
        }
      ],
      "stateMutability": "view",
      "type": "function"
    },
    {
      "inputs": [
        {
          "internalType": "address",
          "name": "dst",
          "type": "address"
        },
        {
          "internalType": "uint256",
          "name": "amount",
          "type": "uint256"
        }
      ],
      "name": "transfer",
      "outputs": [
        {
          "internalType": "bool",
          "name": "",
          "type": "bool"
        }
      ],
      "stateMutability": "nonpayable",
      "type": "function"
    },
    {
      "inputs": [
        {
          "internalType": "address",
          "name": "src",
          "type": "address"
        },
        {
          "internalType": "address",
          "name": "dst",
          "type": "address"
        },
        {
          "internalType": "uint256",
          "name": "amount",
          "type": "uint256"
        }
      ],
      "name": "transferFrom",
      "outputs": [
        {
          "internalType": "bool",
          "name": "",
          "type": "bool"
        }
      ],
      "stateMutability": "nonpayable",
      "type": "function"
    },
    {
      "inputs": [],
      "name": "underlying",
      "outputs": [
        {
          "internalType": "address",
          "name": "",
          "type": "address"
        }
      ],
      "stateMutability": "view",
      "type": "function"
    },
    {
      "inputs": [
        {
          "internalType": "address",
          "name": "underlying_",
          "type": "address"
        },
        {
          "internalType": "contract ComptrollerInterface",
          "name": "comptroller_",
          "type": "address"
        },
        {
          "internalType": "contract InterestRateModel",
          "name": "interestRateModel_",
          "type": "address"
        },
        {
          "internalType": "uint256",
          "name": "initialExchangeRateMantissa_",
          "type": "uint256"
        },
        {
          "internalType": "string",
          "name": "name_",
          "type": "string"
        },
        {
          "internalType": "string",
          "name": "symbol_",
          "type": "string"
        },
        {
          "internalType": "uint8",
          "name": "decimals_",
          "type": "uint8"
        }
      ],
      "name": "initialize",
      "outputs": [],
      "stateMutability": "nonpayable",
      "type": "function"
    },
    {
      "inputs": [
        {
          "internalType": "contract ComptrollerInterface",
          "name": "comptroller_",
          "type": "address"
        },
        {
          "internalType": "contract InterestRateModel",
          "name": "interestRateModel_",
          "type": "address"
        },
        {
          "internalType": "uint256",
          "name": "initialExchangeRateMantissa_",
          "type": "uint256"
        },
        {
          "internalType": "string",
          "name": "name_",
          "type": "string"
        },
        {
          "internalType": "string",
          "name": "symbol_",
          "type": "string"
        },
        {
          "internalType": "uint8",
          "name": "decimals_",
          "type": "uint8"
        }
      ],
      "name": "initialize",
      "outputs": [],
      "stateMutability": "nonpayable",
      "type": "function"
    },
    {
      "inputs": [
        {
          "internalType": "uint256",
          "name": "mintAmount",
          "type": "uint256"
        }
      ],
      "name": "mint",
      "outputs": [
        {
          "internalType": "uint256",
          "name": "",
          "type": "uint256"
        }
      ],
      "stateMutability": "nonpayable",
      "type": "function"
    },
    {
      "inputs": [
        {
          "internalType": "uint256",
          "name": "redeemTokens",
          "type": "uint256"
        }
      ],
      "name": "redeem",
      "outputs": [
        {
          "internalType": "uint256",
          "name": "",
          "type": "uint256"
        }
      ],
      "stateMutability": "nonpayable",
      "type": "function"
    },
    {
      "inputs": [
        {
          "internalType": "uint256",
          "name": "redeemAmount",
          "type": "uint256"
        }
      ],
      "name": "redeemUnderlying",
      "outputs": [
        {
          "internalType": "uint256",
          "name": "",
          "type": "uint256"
        }
      ],
      "stateMutability": "nonpayable",
      "type": "function"
    },
    {
      "inputs": [
        {
          "internalType": "uint256",
          "name": "borrowAmount",
          "type": "uint256"
        }
      ],
      "name": "borrow",
      "outputs": [
        {
          "internalType": "uint256",
          "name": "",
          "type": "uint256"
        }
      ],
      "stateMutability": "nonpayable",
      "type": "function"
    },
    {
      "inputs": [
        {
          "internalType": "uint256",
          "name": "repayAmount",
          "type": "uint256"
        }
      ],
      "name": "repayBorrow",
      "outputs": [
        {
          "internalType": "uint256",
          "name": "",
          "type": "uint256"
        }
      ],
      "stateMutability": "nonpayable",
      "type": "function"
    },
    {
      "inputs": [
        {
          "internalType": "address",
          "name": "borrower",
          "type": "address"
        },
        {
          "internalType": "uint256",
          "name": "repayAmount",
          "type": "uint256"
        }
      ],
      "name": "repayBorrowBehalf",
      "outputs": [
        {
          "internalType": "uint256",
          "name": "",
          "type": "uint256"
        }
      ],
      "stateMutability": "nonpayable",
      "type": "function"
    },
    {
      "inputs": [
        {
          "internalType": "address",
          "name": "borrower",
          "type": "address"
        },
        {
          "internalType": "uint256",
          "name": "repayAmount",
          "type": "uint256"
        },
        {
          "internalType": "contract CTokenInterface",
          "name": "cTokenCollateral",
          "type": "address"
        }
      ],
      "name": "liquidateBorrow",
      "outputs": [
        {
          "internalType": "uint256",
          "name": "",
          "type": "uint256"
        }
      ],
      "stateMutability": "nonpayable",
      "type": "function"
    },
    {
      "inputs": [
        {
          "internalType": "contract EIP20NonStandardInterface",
          "name": "token",
          "type": "address"
        }
      ],
      "name": "sweepToken",
      "outputs": [],
      "stateMutability": "nonpayable",
      "type": "function"
    },
    {
      "inputs": [
        {
          "internalType": "uint256",
          "name": "addAmount",
          "type": "uint256"
        }
      ],
      "name": "_addReserves",
      "outputs": [
        {
          "internalType": "uint256",
          "name": "",
          "type": "uint256"
        }
      ],
      "stateMutability": "nonpayable",
      "type": "function"
    }
  ],
  "bytecode": "0x608060405234801561001057600080fd5b506151db806100206000396000f3fe608060405234801561001057600080fd5b50600436106102f15760003560e01c8063852a12e31161019d578063bd6d894d116100e9578063f2b3abbd116100a2578063f851a4401161007c578063f851a44014610692578063f8f9da28146106aa578063fca7820b146106b2578063fe9c44ae146106c557600080fd5b8063f2b3abbd14610659578063f3fdb15a1461066c578063f5e3c4621461067f57600080fd5b8063bd6d894d146105b7578063c37f68e2146105bf578063c5ebeaec146105f2578063db006a7514610605578063dd62ed3e14610618578063e9c714f21461065157600080fd5b8063a19d146011610156578063aa5af0fd11610130578063aa5af0fd14610580578063ae9d70b014610589578063b2a02ff114610591578063b71d1a0c146105a457600080fd5b8063a19d146014610545578063a6afed9514610565578063a9059cbb1461056d57600080fd5b8063852a12e3146104e85780638f840ddd146104fb57806395d89b411461050457806395dd91931461050c57806399d8c1b41461051f578063a0712d681461053257600080fd5b8063313ce5671161025c5780635fe3b567116102155780636c540baf116101ef5780636c540baf1461049b5780636f307dc3146104a457806370a08231146104b757806373acee98146104e057600080fd5b80635fe3b56714610467578063601a0bf11461047a5780636752e7021461048d57600080fd5b8063313ce567146103fe5780633af9e6691461041d5780633b1d21a2146104305780633e941010146104385780634576b5db1461044b57806347bd37181461045e57600080fd5b8063182df0f5116102ae578063182df0f51461037d5780631a31d465146103855780631be195601461039a57806323b872dd146103ad5780632608f818146103c057806326782247146103d357600080fd5b806306fdde03146102f6578063095ea7b3146103145780630e75270214610337578063173b99041461035857806317bfdfbc1461036157806318160ddd14610374575b600080fd5b6102fe6106cd565b60405161030b9190615007565b60405180910390f35b610327610322366004614e5b565b61075b565b604051901515815260200161030b565b61034a610345366004614f8d565b6107cb565b60405190815260200161030b565b61034a60085481565b61034a61036f366004614d0e565b6107df565b61034a600d5481565b61034a610881565b610398610393366004614da5565b610912565b005b6103986103a8366004614d0e565b6109b6565b6103276103bb366004614d64565b610b1a565b61034a6103ce366004614e5b565b610b6a565b6004546103e6906001600160a01b031681565b6040516001600160a01b03909116815260200161030b565b60035461040b9060ff1681565b60405160ff909116815260200161030b565b61034a61042b366004614d0e565b610b80565b61034a610c30565b61034a610446366004614f8d565b610c3f565b61034a610459366004614d0e565b610c4a565b61034a600b5481565b6005546103e6906001600160a01b031681565b61034a610488366004614f8d565b610d9f565b61034a666379da05b6000081565b61034a60095481565b6011546103e6906001600160a01b031681565b61034a6104c5366004614d0e565b6001600160a01b03166000908152600e602052604090205490565b61034a610e1e565b61034a6104f6366004614f8d565b610ead565b61034a600c5481565b6102fe610eb8565b61034a61051a366004614d0e565b610ec5565b61039861052d366004614eeb565b610f5f565b61034a610540366004614f8d565b6111ba565b61034a610553366004614d0e565b600e6020526000908152604090205481565b61034a6111c6565b61032761057b366004614e5b565b611547565b61034a600a5481565b61034a611596565b61034a61059f366004614d64565b61163d565b61034a6105b2366004614d0e565b61168c565b61034a61170c565b6105d26105cd366004614d0e565b6117a1565b60408051948552602085019390935291830152606082015260800161030b565b61034a610600366004614f8d565b611842565b61034a610613366004614f8d565b61184d565b61034a610626366004614d2b565b6001600160a01b039182166000908152600f6020908152604080832093909416825291909152205490565b61034a611858565b61034a610667366004614d0e565b61195d565b6006546103e6906001600160a01b031681565b61034a61068d366004614e87565b611995565b6003546103e69061010090046001600160a01b031681565b61034a6119ad565b61034a6106c0366004614f8d565b611a00565b610327600181565b600180546106da906150f0565b80601f0160208091040260200160405190810160405280929190818152602001828054610706906150f0565b80156107535780601f1061072857610100808354040283529160200191610753565b820191906000526020600020905b81548152906001019060200180831161073657829003601f168201915b505050505081565b336000818152600f602090815260408083206001600160a01b03871680855292528083208590555191929182907f8c5be1e5ebec7d5bd14f71427d1e84f3dd0314c0f7b2291e5b200ac8c7c3b925906107b79087815260200190565b60405180910390a360019150505b92915050565b6000806107d783611a62565b509392505050565b6000805460ff1661080b5760405162461bcd60e51b81526004016108029061505c565b60405180910390fd5b6000805460ff1916815561081d6111c6565b146108635760405162461bcd60e51b81526020600482015260166024820152751858d8dc9d59481a5b9d195c995cdd0819985a5b195960521b6044820152606401610802565b61086c82610ec5565b90505b6000805460ff19166001179055919050565b600080600061088e611aee565b909250905060008260038111156108a7576108a7615141565b146107c55760405162461bcd60e51b815260206004820152603560248201527f65786368616e67655261746553746f7265643a2065786368616e67655261746560448201527414dd1bdc9959125b9d195c9b985b0819985a5b1959605a1b6064820152608401610802565b610920868686868686610f5f565b601180546001600160a01b0319166001600160a01b038916908117909155604080516318160ddd60e01b815290516318160ddd91600480820192602092909190829003018186803b15801561097457600080fd5b505afa158015610988573d6000803e3d6000fd5b505050506040513d601f19601f820116820180604052508101906109ac9190614fa6565b5050505050505050565b6011546001600160a01b0382811691161415610a2f5760405162461bcd60e51b815260206004820152603260248201527f4345726332303a3a7377656570546f6b656e3a2063616e206e6f74207377656560448201527138103ab73232b9363cb4b733903a37b5b2b760711b6064820152608401610802565b6040516370a0823160e01b81523060048201526000906001600160a01b038316906370a082319060240160206040518083038186803b158015610a7157600080fd5b505afa158015610a85573d6000803e3d6000fd5b505050506040513d601f19601f82011682018060405250810190610aa99190614fa6565b60035460405163a9059cbb60e01b81526001600160a01b03610100909204821660048201526024810183905291925083169063a9059cbb90604401600060405180830381600087803b158015610afe57600080fd5b505af1158015610b12573d6000803e3d6000fd5b505050505050565b6000805460ff16610b3d5760405162461bcd60e51b81526004016108029061505c565b6000805460ff19168155610b5333868686611baa565b1490506000805460ff191660011790559392505050565b600080610b778484611e57565b50949350505050565b6000806040518060200160405280610b9661170c565b90526001600160a01b0384166000908152600e6020526040812054919250908190610bc2908490611ee5565b90925090506000826003811115610bdb57610bdb615141565b14610c285760405162461bcd60e51b815260206004820152601f60248201527f62616c616e636520636f756c64206e6f742062652063616c63756c61746564006044820152606401610802565b949350505050565b6000610c3a611f38565b905090565b60006107c582611fbc565b60035460009061010090046001600160a01b03163314610c70576107c56001603f612034565b60055460408051623f1ee960e11b815290516001600160a01b0392831692851691627e3dd2916004808301926020929190829003018186803b158015610cb557600080fd5b505afa158015610cc9573d6000803e3d6000fd5b505050506040513d601f19601f82011682018060405250810190610ced9190614ec9565b610d395760405162461bcd60e51b815260206004820152601c60248201527f6d61726b6572206d6574686f642072657475726e65642066616c7365000000006044820152606401610802565b600580546001600160a01b0319166001600160a01b0385811691821790925560408051928416835260208301919091527f7ac369dbd14fa5ea3f473ed67cc9d598964a77501540ba6751eb0b3decf5870d91015b60405180910390a160005b9392505050565b6000805460ff16610dc25760405162461bcd60e51b81526004016108029061505c565b6000805460ff19168155610dd46111c6565b90508015610e0057610df8816010811115610df157610df1615141565b6030612034565b91505061086f565b610e09836120ad565b9150506000805460ff19166001179055919050565b6000805460ff16610e415760405162461bcd60e51b81526004016108029061505c565b6000805460ff19168155610e536111c6565b14610e995760405162461bcd60e51b81526020600482015260166024820152751858d8dc9d59481a5b9d195c995cdd0819985a5b195960521b6044820152606401610802565b50600b546000805460ff1916600117905590565b60006107c5826121f7565b600280546106da906150f0565b6000806000610ed38461225c565b90925090506000826003811115610eec57610eec615141565b14610d985760405162461bcd60e51b815260206004820152603760248201527f626f72726f7742616c616e636553746f7265643a20626f72726f7742616c616e60448201527f636553746f726564496e7465726e616c206661696c65640000000000000000006064820152608401610802565b60035461010090046001600160a01b03163314610fca5760405162461bcd60e51b8152602060048201526024808201527f6f6e6c792061646d696e206d617920696e697469616c697a6520746865206d616044820152631c9ad95d60e21b6064820152608401610802565b600954158015610fda5750600a54155b6110325760405162461bcd60e51b815260206004820152602360248201527f6d61726b6574206d6179206f6e6c7920626520696e697469616c697a6564206f6044820152626e636560e81b6064820152608401610802565b60078490558361109d5760405162461bcd60e51b815260206004820152603060248201527f696e697469616c2065786368616e67652072617465206d75737420626520677260448201526f32b0ba32b9103a3430b7103d32b9379760811b6064820152608401610802565b60006110a887610c4a565b905080156110f85760405162461bcd60e51b815260206004820152601a60248201527f73657474696e6720636f6d7074726f6c6c6572206661696c65640000000000006044820152606401610802565b43600955670de0b6b3a7640000600a5561111186612315565b9050801561116c5760405162461bcd60e51b815260206004820152602260248201527f73657474696e6720696e7465726573742072617465206d6f64656c206661696c604482015261195960f21b6064820152608401610802565b835161117f906001906020870190614bd2565b508251611193906002906020860190614bd2565b50506003805460ff90921660ff199283161790556000805490911660011790555050505050565b6000806107d78361247f565b6009546000904390808214156111e05760005b9250505090565b60006111ea611f38565b600b54600c54600a546006546040516315f2405360e01b81526004810186905260248101859052604481018490529495509293919290916000916001600160a01b0316906315f240539060640160206040518083038186803b15801561124f57600080fd5b505afa158015611263573d6000803e3d6000fd5b505050506040513d601f19601f820116820180604052508101906112879190614fa6565b905065048c273950008111156112df5760405162461bcd60e51b815260206004820152601c60248201527f626f72726f772072617465206973206162737572646c792068696768000000006044820152606401610802565b6000806112ec89896124e4565b9092509050600082600381111561130557611305615141565b146113525760405162461bcd60e51b815260206004820152601f60248201527f636f756c64206e6f742063616c63756c61746520626c6f636b2064656c7461006044820152606401610802565b60408051602081019091526000815260008060008061137f60405180602001604052808a8152508761250f565b9097509450600087600381111561139857611398615141565b146113ce576113bb600960068960038111156113b6576113b6615141565b61258b565b9e50505050505050505050505050505090565b6113d8858c611ee5565b909750935060008760038111156113f1576113f1615141565b1461140f576113bb600960018960038111156113b6576113b6615141565b611419848c612603565b9097509250600087600381111561143257611432615141565b14611450576113bb600960048960038111156113b6576113b6615141565b61146b6040518060200160405280600854815250858c612633565b9097509150600087600381111561148457611484615141565b146114a2576113bb600960058960038111156113b6576113b6615141565b6114ad858a8b612633565b909750905060008760038111156114c6576114c6615141565b146114e4576113bb600960038960038111156113b6576113b6615141565b60098e9055600a819055600b839055600c829055604080518d815260208101869052908101829052606081018490527f4dec04e750ca11537cabcd8a9eab06494de08da3735bc8871cd41250e190bc049060800160405180910390a160006113bb565b6000805460ff1661156a5760405162461bcd60e51b81526004016108029061505c565b6000805460ff1916815561158033338686611baa565b1490506000805460ff1916600117905592915050565b6006546000906001600160a01b031663b81688166115b2611f38565b600b54600c546008546040516001600160e01b031960e087901b16815260048101949094526024840192909252604483015260648201526084015b60206040518083038186803b15801561160557600080fd5b505afa158015611619573d6000803e3d6000fd5b505050506040513d601f19601f82011682018060405250810190610c3a9190614fa6565b6000805460ff166116605760405162461bcd60e51b81526004016108029061505c565b6000805460ff191690556116763385858561268e565b90506000805460ff191660011790559392505050565b60035460009061010090046001600160a01b031633146116b2576107c560016045612034565b600480546001600160a01b038481166001600160a01b031983168117909355604080519190921680825260208201939093527fca4f2f25d0898edd99413412fb94012f9e54ec8142f9b093e7720646a95b16a99101610d8d565b6000805460ff1661172f5760405162461bcd60e51b81526004016108029061505c565b6000805460ff191681556117416111c6565b146117875760405162461bcd60e51b81526020600482015260166024820152751858d8dc9d59481a5b9d195c995cdd0819985a5b195960521b6044820152606401610802565b61178f610881565b90506000805460ff1916600117905590565b6001600160a01b0381166000908152600e60205260408120548190819081908180806117cc8961225c565b9350905060008160038111156117e4576117e4615141565b146118025760095b600080600097509750975097505050505061183b565b61180a611aee565b92509050600081600381111561182257611822615141565b1461182e5760096117ec565b5060009650919450925090505b9193509193565b60006107c582612afd565b60006107c582612b60565b6004546000906001600160a01b031633141580611873575033155b1561188457610c3a60016000612034565b60038054600480546001600160a01b0380821661010081810274ffffffffffffffffffffffffffffffffffffffff0019871617968790556001600160a01b031990931690935560408051948390048216808652929095041660208401529290917ff9ffabca9c8276e99321725bcb43fb076a6c66a54b7f21c4e8146d8519b417dc910160405180910390a1600454604080516001600160a01b03808516825290921660208301527fca4f2f25d0898edd99413412fb94012f9e54ec8142f9b093e7720646a95b16a9910160405180910390a160006111d9565b6000806119686111c6565b9050801561198c57610d9881601081111561198557611985615141565b6040612034565b610d9883612315565b6000806119a3858585612bbe565b5095945050505050565b6006546000906001600160a01b03166315f240536119c9611f38565b600b54600c546040516001600160e01b031960e086901b1681526004810193909352602483019190915260448201526064016115ed565b6000805460ff16611a235760405162461bcd60e51b81526004016108029061505c565b6000805460ff19168155611a356111c6565b90508015611a5957610df8816010811115611a5257611a52615141565b6046612034565b610e0983612ce5565b60008054819060ff16611a875760405162461bcd60e51b81526004016108029061505c565b6000805460ff19168155611a996111c6565b90508015611ac957611abd816010811115611ab657611ab6615141565b6036612034565b60009250925050611ada565b611ad4333386612d7a565b92509250505b6000805460ff191660011790559092909150565b600d54600090819080611b08575050600754600092909150565b6000611b12611f38565b90506000611b2c6040518060200160405280600081525090565b6000611b3d84600b54600c546131a1565b935090506000816003811115611b5557611b55615141565b14611b67579660009650945050505050565b611b7183866131e5565b925090506000816003811115611b8957611b89615141565b14611b9b579660009650945050505050565b50516000969095509350505050565b6005546040516317b9b84b60e31b81523060048201526001600160a01b038581166024830152848116604483015260648201849052600092839291169063bdcdc25890608401602060405180830381600087803b158015611c0a57600080fd5b505af1158015611c1e573d6000803e3d6000fd5b505050506040513d601f19601f82011682018060405250810190611c429190614fa6565b90508015611c5f57611c576003604a8361258b565b915050610c28565b836001600160a01b0316856001600160a01b03161415611c8557611c576002604b612034565b6000856001600160a01b0316876001600160a01b03161415611caa5750600019611cd2565b506001600160a01b038086166000908152600f60209081526040808320938a16835292905220545b600080600080611ce285896124e4565b90945092506000846003811115611cfb57611cfb615141565b14611d1957611d0c6009604b612034565b9650505050505050610c28565b6001600160a01b038a166000908152600e6020526040902054611d3c90896124e4565b90945091506000846003811115611d5557611d55615141565b14611d6657611d0c6009604c612034565b6001600160a01b0389166000908152600e6020526040902054611d899089612603565b90945090506000846003811115611da257611da2615141565b14611db357611d0c6009604d612034565b6001600160a01b03808b166000908152600e6020526040808220859055918b168152208190556000198514611e0b576001600160a01b03808b166000908152600f60209081526040808320938f168352929052208390555b886001600160a01b03168a6001600160a01b03166000805160206151868339815191528a604051611e3e91815260200190565b60405180910390a35060009a9950505050505050505050565b60008054819060ff16611e7c5760405162461bcd60e51b81526004016108029061505c565b6000805460ff19168155611e8e6111c6565b90508015611ebe57611eb2816010811115611eab57611eab615141565b6035612034565b60009250925050611ecf565b611ec9338686612d7a565b92509250505b6000805460ff1916600117905590939092509050565b600080600080611ef5868661250f565b90925090506000826003811115611f0e57611f0e615141565b14611f1f5750915060009050611f31565b6000611f2a826132b0565b9350935050505b9250929050565b6011546040516370a0823160e01b81523060048201526000916001600160a01b03169081906370a082319060240160206040518083038186803b158015611f7e57600080fd5b505afa158015611f92573d6000803e3d6000fd5b505050506040513d601f19601f82011682018060405250810190611fb69190614fa6565b91505090565b6000805460ff16611fdf5760405162461bcd60e51b81526004016108029061505c565b6000805460ff19168155611ff16111c6565b9050801561201557610df881601081111561200e5761200e615141565b604e612034565b61201e836132c8565b509150506000805460ff19166001179055919050565b60007f45b96fe442630264581b197e84bbada861235052c5a1aadfff9ea4e40a969aa083601081111561206957612069615141565b83605081111561207b5761207b615141565b60408051928352602083019190915260009082015260600160405180910390a1826010811115610d9857610d98615141565b600354600090819061010090046001600160a01b031633146120d557610d9860016031612034565b43600954146120ea57610d98600a6033612034565b826120f3611f38565b101561210557610d98600e6032612034565b600c5483111561211b57610d9860026034612034565b82600c5461212991906150d9565b9050600c548111156121895760405162461bcd60e51b8152602060048201526024808201527f72656475636520726573657276657320756e657870656374656420756e646572604482015263666c6f7760e01b6064820152608401610802565b600c8190556003546121a99061010090046001600160a01b0316846133a7565b600354604080516101009092046001600160a01b031682526020820185905281018290527f3bad0c59cf2f06e7314077049f48a93578cd16f5ef92329f1dab1420a99c177e90606001610d8d565b6000805460ff1661221a5760405162461bcd60e51b81526004016108029061505c565b6000805460ff1916815561222c6111c6565b9050801561225057610df881601081111561224957612249615141565b6027612034565b610e0933600085613491565b6001600160a01b0381166000908152601060205260408120805482918291829182916122915750600096879650945050505050565b6122a18160000154600a54613a26565b909450925060008460038111156122ba576122ba615141565b146122cd57509195600095509350505050565b6122db838260010154613a70565b909450915060008460038111156122f4576122f4615141565b1461230757509195600095509350505050565b506000969095509350505050565b600354600090819061010090046001600160a01b0316331461233d57610d9860016042612034565b436009541461235257610d98600a6041612034565b600660009054906101000a90046001600160a01b03169050826001600160a01b0316632191f92a6040518163ffffffff1660e01b815260040160206040518083038186803b1580156123a357600080fd5b505afa1580156123b7573d6000803e3d6000fd5b505050506040513d601f19601f820116820180604052508101906123db9190614ec9565b6124275760405162461bcd60e51b815260206004820152601c60248201527f6d61726b6572206d6574686f642072657475726e65642066616c7365000000006044820152606401610802565b600680546001600160a01b0319166001600160a01b0385811691821790925560408051928416835260208301919091527fedffc32e068c7c95dfd4bdfd5c4d939a084d6b11c4199eac8436ed234d72f9269101610d8d565b60008054819060ff166124a45760405162461bcd60e51b81526004016108029061505c565b6000805460ff191681556124b66111c6565b905080156124da57611abd8160108111156124d3576124d3615141565b601e612034565b611ad43385613a9b565b6000808383116125035760006124fa84866150d9565b91509150611f31565b50600390506000611f31565b60006125276040518060200160405280600081525090565b600080612538866000015186613a26565b9092509050600082600381111561255157612551615141565b1461257057506040805160208101909152600081529092509050611f31565b60408051602081019091529081526000969095509350505050565b60007f45b96fe442630264581b197e84bbada861235052c5a1aadfff9ea4e40a969aa08460108111156125c0576125c0615141565b8460508111156125d2576125d2615141565b604080519283526020830191909152810184905260600160405180910390a1836010811115610c2857610c28615141565b600080806126118486615080565b905084811061262557600092509050611f31565b600260009250925050611f31565b600080600080612643878761250f565b9092509050600082600381111561265c5761265c615141565b1461266d5750915060009050612686565b61267f612679826132b0565b86612603565b9350935050505b935093915050565b60055460405163d02f735160e01b81523060048201526001600160a01b0386811660248301528581166044830152848116606483015260848201849052600092839291169063d02f73519060a401602060405180830381600087803b1580156126f657600080fd5b505af115801561270a573d6000803e3d6000fd5b505050506040513d601f19601f8201168201806040525081019061272e9190614fa6565b9050801561274357611c576003601b8361258b565b846001600160a01b0316846001600160a01b0316141561276957611c576006601c612034565b6127b9604080516101208101909152806000815260200160008152602001600081526020016000815260200160008152602001600081526020016000815260200160008152602001600081525090565b6001600160a01b0385166000908152600e60205260409020546127dc90856124e4565b60208301819052828260038111156127f6576127f6615141565b600381111561280757612807615141565b905250600090508151600381111561282157612821615141565b1461284c576128436009601a836000015160038111156113b6576113b6615141565b92505050610c28565b61286b846040518060200160405280666379da05b60000815250613f35565b6080820181905261287d908590613f58565b606082015261288a611aee565b60c08301819052828260038111156128a4576128a4615141565b60038111156128b5576128b5615141565b90525060009050815160038111156128cf576128cf615141565b1461291c5760405162461bcd60e51b815260206004820152601860248201527f65786368616e67652072617465206d617468206572726f7200000000000000006044820152606401610802565b61293c60405180602001604052808360c001518152508260800151613f92565b60a08201819052600c5461294f91613faa565b60e0820152600d5460808201516129669190613f58565b6101008201526001600160a01b0386166000908152600e602052604090205460608201516129949190612603565b60408301819052828260038111156129ae576129ae615141565b60038111156129bf576129bf615141565b90525060009050815160038111156129d9576129d9615141565b146129fb5761284360096019836000015160038111156113b6576113b6615141565b60e0810151600c55610100810151600d556020808201516001600160a01b038781166000818152600e855260408082209490945583860151928b1680825290849020929092556060850151925192835290929091600080516020615186833981519152910160405180910390a3306001600160a01b0316856001600160a01b03166000805160206151868339815191528360800151604051612a9f91815260200190565b60405180910390a360a081015160e08201516040805130815260208101939093528201527fa91e67c5ea634cd43a12c5a482724b03de01e85ca68702a53d0c2f45cb7c1dc59060600160405180910390a16000979650505050505050565b6000805460ff16612b205760405162461bcd60e51b81526004016108029061505c565b6000805460ff19168155612b326111c6565b90508015612b5657610df8816010811115612b4f57612b4f615141565b6008612034565b610e093384613fe0565b6000805460ff16612b835760405162461bcd60e51b81526004016108029061505c565b6000805460ff19168155612b956111c6565b90508015612bb257610df881601081111561224957612249615141565b610e0933846000613491565b60008054819060ff16612be35760405162461bcd60e51b81526004016108029061505c565b6000805460ff19168155612bf56111c6565b90508015612c2557612c19816010811115612c1257612c12615141565b600f612034565b60009250925050612cce565b836001600160a01b031663a6afed956040518163ffffffff1660e01b8152600401602060405180830381600087803b158015612c6057600080fd5b505af1158015612c74573d6000803e3d6000fd5b505050506040513d601f19601f82011682018060405250810190612c989190614fa6565b90508015612cbc57612c19816010811115612cb557612cb5615141565b6010612034565b612cc8338787876142d9565b92509250505b6000805460ff191660011790559094909350915050565b60035460009061010090046001600160a01b03163314612d0b576107c560016047612034565b4360095414612d20576107c5600a6048612034565b670de0b6b3a7640000821115612d3c576107c560026049612034565b600880549083905560408051828152602081018590527faaa68312e2ea9d50e16af5068410ab56e1a1fd06037b1a35664812c30f8214609101610d8d565b600554604051631200453160e11b81523060048201526001600160a01b03858116602483015284811660448301526064820184905260009283928392909116906324008a6290608401602060405180830381600087803b158015612ddd57600080fd5b505af1158015612df1573d6000803e3d6000fd5b505050506040513d601f19601f82011682018060405250810190612e159190614fa6565b90508015612e3657612e2a600360388361258b565b60009250925050612686565b4360095414612e4b57612e2a600a6039612034565b612e946040805161010081019091528060008152602001600081526020016000815260200160008152602001600081526020016000815260200160008152602001600081525090565b6001600160a01b0386166000908152601060205260409020600101546060820152612ebe8661225c565b6080830181905260208301826003811115612edb57612edb615141565b6003811115612eec57612eec615141565b9052506000905081602001516003811115612f0957612f09615141565b14612f3857612f2b60096037836020015160038111156113b6576113b6615141565b6000935093505050612686565b846000191415612f515760808101516040820152612f59565b604081018590525b612f678782604001516147e5565b60e082018190526080820151612f7c916124e4565b60a0830181905260208301826003811115612f9957612f99615141565b6003811115612faa57612faa615141565b9052506000905081602001516003811115612fc757612fc7615141565b1461303a5760405162461bcd60e51b815260206004820152603a60248201527f52455041595f424f52524f575f4e45575f4143434f554e545f424f52524f575f60448201527f42414c414e43455f43414c43554c4154494f4e5f4641494c45440000000000006064820152608401610802565b61304a600b548260e001516124e4565b60c083018190526020830182600381111561306757613067615141565b600381111561307857613078615141565b905250600090508160200151600381111561309557613095615141565b146130fc5760405162461bcd60e51b815260206004820152603160248201527f52455041595f424f52524f575f4e45575f544f54414c5f42414c414e43455f43604482015270105310d55310551253d397d19052531151607a1b6064820152608401610802565b60a081810180516001600160a01b03898116600081815260106020908152604091829020948555600a5460019095019490945560c0870151600b81905560e088015195518251948f16855294840192909252820193909352606081019190915260808101919091527f1a2a22cb034d26d1854bdc6666a5b91fe25efbbb5dcad3b0355478d6f5c362a1910160405180910390a160e00151600097909650945050505050565b6000806000806131b18787612603565b909250905060008260038111156131ca576131ca615141565b146131db5750915060009050612686565b61267f81866124e4565b60006131fd6040518060200160405280600081525090565b60008061321286670de0b6b3a7640000613a26565b9092509050600082600381111561322b5761322b615141565b1461324a57506040805160208101909152600081529092509050611f31565b6000806132578388613a70565b9092509050600082600381111561327057613270615141565b146132935781604051806020016040528060008152509550955050505050611f31565b604080516020810190915290815260009890975095505050505050565b80516000906107c590670de0b6b3a764000090615098565b600080808043600954146132ec576132e2600a604f612034565b9590945092505050565b6132f633866147e5565b905080600c546133069190615080565b9150600c5482101561335a5760405162461bcd60e51b815260206004820181905260248201527f61646420726573657276657320756e6578706563746564206f766572666c6f776044820152606401610802565b600c82905560408051338152602081018390529081018390527fa91e67c5ea634cd43a12c5a482724b03de01e85ca68702a53d0c2f45cb7c1dc59060600160405180910390a160006132e2565b60115460405163a9059cbb60e01b81526001600160a01b0384811660048301526024820184905290911690819063a9059cbb90604401600060405180830381600087803b1580156133f757600080fd5b505af115801561340b573d6000803e3d6000fd5b5050505060003d60008114613427576020811461343157600080fd5b600019915061343d565b60206000803e60005191505b508061348b5760405162461bcd60e51b815260206004820152601960248201527f544f4b454e5f5452414e534645525f4f55545f4641494c4544000000000000006044820152606401610802565b50505050565b600082158061349e575081155b6135075760405162461bcd60e51b815260206004820152603460248201527f6f6e65206f662072656465656d546f6b656e73496e206f722072656465656d416044820152736d6f756e74496e206d757374206265207a65726f60601b6064820152608401610802565b6135486040805160e0810190915280600081526020016000815260200160008152602001600081526020016000815260200160008152602001600081525090565b613550611aee565b604083018190526020830182600381111561356d5761356d615141565b600381111561357e5761357e615141565b905250600090508160200151600381111561359b5761359b615141565b146135c5576135bd6009602b836020015160038111156113b6576113b6615141565b915050610d98565b831561365e5760608101849052604080516020810182529082015181526135ec9085611ee5565b608083018190526020830182600381111561360957613609615141565b600381111561361a5761361a615141565b905250600090508160200151600381111561363757613637615141565b14613659576135bd60096029836020015160038111156113b6576113b6615141565b6136ef565b61367a8360405180602001604052808460400151815250614a29565b606083018190526020830182600381111561369757613697615141565b60038111156136a8576136a8615141565b90525060009050816020015160038111156136c5576136c5615141565b146136e7576135bd6009602a836020015160038111156113b6576113b6615141565b608081018390525b600554606082015160405163eabe7d9160e01b81526000926001600160a01b03169163eabe7d91916137289130918b9190600401614fe3565b602060405180830381600087803b15801561374257600080fd5b505af1158015613756573d6000803e3d6000fd5b505050506040513d601f19601f8201168201806040525081019061377a9190614fa6565b905080156137985761378f600360288361258b565b92505050610d98565b43600954146137ad5761378f600a602c612034565b6137bd600d5483606001516124e4565b60a08401819052602084018260038111156137da576137da615141565b60038111156137eb576137eb615141565b905250600090508260200151600381111561380857613808615141565b1461382a5761378f6009602e846020015160038111156113b6576113b6615141565b6001600160a01b0386166000908152600e6020526040902054606083015161385291906124e4565b60c084018190526020840182600381111561386f5761386f615141565b600381111561388057613880615141565b905250600090508260200151600381111561389d5761389d615141565b146138bf5761378f6009602d846020015160038111156113b6576113b6615141565b81608001516138cc611f38565b10156138de5761378f600e602f612034565b6138ec8683608001516133a7565b60a0820151600d5560c08201516001600160a01b0387166000818152600e602052604090819020929092556060840151915130926000805160206151868339815191529161393c91815260200190565b60405180910390a36080820151606080840151604080516001600160a01b038b16815260208101949094528301527fe5b754fb1abb7f01b499791d0b820ae3b6af3424ac1c59768edb53f4ec31a929910160405180910390a1600554608083015160608401516040516351dff98960e01b81523060048201526001600160a01b038a81166024830152604482019390935260648101919091529116906351dff98990608401600060405180830381600087803b1580156139fb57600080fd5b505af1158015613a0f573d6000803e3d6000fd5b5060009250613a1c915050565b9695505050505050565b60008083613a3957506000905080611f31565b6000613a4584866150ba565b905083613a528683615098565b14613a6557600260009250925050611f31565b600092509050611f31565b60008082613a845750600190506000611f31565b6000613a908486615098565b915091509250929050565b600554604051634ef4c3e160e01b8152600091829182916001600160a01b031690634ef4c3e190613ad490309089908990600401614fe3565b602060405180830381600087803b158015613aee57600080fd5b505af1158015613b02573d6000803e3d6000fd5b505050506040513d601f19601f82011682018060405250810190613b269190614fa6565b90508015613b4757613b3b6003601f8361258b565b60009250925050611f31565b4360095414613b5c57613b3b600a6022612034565b613b9d6040805160e0810190915280600081526020016000815260200160008152602001600081526020016000815260200160008152602001600081525090565b613ba5611aee565b6040830181905260208301826003811115613bc257613bc2615141565b6003811115613bd357613bd3615141565b9052506000905081602001516003811115613bf057613bf0615141565b14613c1f57613c1260096021836020015160038111156113b6576113b6615141565b6000935093505050611f31565b613c2986866147e5565b60c0820181905260408051602081018252908301518152613c4a9190614a29565b6060830181905260208301826003811115613c6757613c67615141565b6003811115613c7857613c78615141565b9052506000905081602001516003811115613c9557613c95615141565b14613ce25760405162461bcd60e51b815260206004820181905260248201527f4d494e545f45584348414e47455f43414c43554c4154494f4e5f4641494c45446044820152606401610802565b613cf2600d548260600151612603565b6080830181905260208301826003811115613d0f57613d0f615141565b6003811115613d2057613d20615141565b9052506000905081602001516003811115613d3d57613d3d615141565b14613d9b5760405162461bcd60e51b815260206004820152602860248201527f4d494e545f4e45575f544f54414c5f535550504c595f43414c43554c4154494f6044820152671397d1905253115160c21b6064820152608401610802565b6001600160a01b0386166000908152600e60205260409020546060820151613dc39190612603565b60a0830181905260208301826003811115613de057613de0615141565b6003811115613df157613df1615141565b9052506000905081602001516003811115613e0e57613e0e615141565b14613e6f5760405162461bcd60e51b815260206004820152602b60248201527f4d494e545f4e45575f4143434f554e545f42414c414e43455f43414c43554c4160448201526a151253d397d1905253115160aa1b6064820152608401610802565b6080810151600d5560a08101516001600160a01b0387166000818152600e60209081526040918290209390935560c0840151606080860151835194855294840191909152908201929092527f4c209b5fc8ad50758f13e2e1088ba56a560dff690a1c6fef26394f4c03821c4f910160405180910390a1856001600160a01b0316306001600160a01b03166000805160206151868339815191528360600151604051613f1c91815260200190565b60405180910390a360c001516000969095509350505050565b6000670de0b6b3a7640000613f4e848460000151614a39565b610d989190615098565b6000610d988383604051806040016040528060158152602001747375627472616374696f6e20756e646572666c6f7760581b815250614a7b565b600080613f9f8484614aaa565b9050610c28816132b0565b6000610d988383604051806040016040528060118152602001706164646974696f6e206f766572666c6f7760781b815250614adb565b60055460405163368f515360e21b815260009182916001600160a01b039091169063da3d454c9061401990309088908890600401614fe3565b602060405180830381600087803b15801561403357600080fd5b505af1158015614047573d6000803e3d6000fd5b505050506040513d601f19601f8201168201806040525081019061406b9190614fa6565b90508015614088576140806003600e8361258b565b9150506107c5565b436009541461409c57614080600a80612034565b826140a5611f38565b10156140b757614080600e6009612034565b6140e3604080516080810190915280600081526020016000815260200160008152602001600081525090565b6140ec8561225c565b602083018190528282600381111561410657614106615141565b600381111561411757614117615141565b905250600090508151600381111561413157614131615141565b1461415c5761415360096007836000015160038111156113b6576113b6615141565b925050506107c5565b61416a816020015185612603565b604083018190528282600381111561418457614184615141565b600381111561419557614195615141565b90525060009050815160038111156141af576141af615141565b146141d1576141536009600c836000015160038111156113b6576113b6615141565b6141dd600b5485612603565b60608301819052828260038111156141f7576141f7615141565b600381111561420857614208615141565b905250600090508151600381111561422257614222615141565b14614244576141536009600b836000015160038111156113b6576113b6615141565b61424e85856133a7565b604081810180516001600160a01b03881660008181526010602090815290859020928355600a54600190930192909255606080860151600b8190559351855192835292820189905293810191909152918201527f13ed6866d4e1ee6da46f845c46d7e54120883d75c5ea9a2dacc1c4ca8984ab809060800160405180910390a1600095945050505050565b600554604051632fe3f38f60e11b81523060048201526001600160a01b03838116602483015286811660448301528581166064830152608482018590526000928392839290911690635fc7e71e9060a401602060405180830381600087803b15801561434457600080fd5b505af1158015614358573d6000803e3d6000fd5b505050506040513d601f19601f8201168201806040525081019061437c9190614fa6565b9050801561439d57614391600360128361258b565b600092509250506147dc565b43600954146143b257614391600a6016612034565b43846001600160a01b0316636c540baf6040518163ffffffff1660e01b815260040160206040518083038186803b1580156143ec57600080fd5b505afa158015614400573d6000803e3d6000fd5b505050506040513d601f19601f820116820180604052508101906144249190614fa6565b1461443557614391600a6011612034565b866001600160a01b0316866001600160a01b0316141561445b5761439160066017612034565b8461446c5761439160076015612034565b8460001914156144825761439160076014612034565b600080614490898989612d7a565b909250905081156144c5576144b78260108111156144b0576144b0615141565b6018612034565b6000945094505050506147dc565b60055460405163c488847b60e01b815260009182916001600160a01b039091169063c488847b906144fe9030908c908890600401614fe3565b604080518083038186803b15801561451557600080fd5b505afa158015614529573d6000803e3d6000fd5b505050506040513d601f19601f8201168201806040525081019061454d9190614fbf565b909250905081156145bc5760405162461bcd60e51b815260206004820152603360248201527f4c49515549444154455f434f4d5054524f4c4c45525f43414c43554c4154455f604482015272105353d5539517d4d152569157d19052531151606a1b6064820152608401610802565b6040516370a0823160e01b81526001600160a01b038b811660048301528291908a16906370a082319060240160206040518083038186803b15801561460057600080fd5b505afa158015614614573d6000803e3d6000fd5b505050506040513d601f19601f820116820180604052508101906146389190614fa6565b10156146865760405162461bcd60e51b815260206004820152601860248201527f4c49515549444154455f5345495a455f544f4f5f4d55434800000000000000006044820152606401610802565b60006001600160a01b0389163014156146ac576146a5308d8d8561268e565b9050614731565b60405163b2a02ff160e01b81526001600160a01b038a169063b2a02ff1906146dc908f908f908790600401614fe3565b602060405180830381600087803b1580156146f657600080fd5b505af115801561470a573d6000803e3d6000fd5b505050506040513d601f19601f8201168201806040525081019061472e9190614fa6565b90505b80156147765760405162461bcd60e51b81526020600482015260146024820152731d1bdad95b881cd95a5e9d5c994819985a5b195960621b6044820152606401610802565b604080516001600160a01b038e811682528d811660208301528183018790528b1660608201526080810184905290517f298637f684da70674f26509b10f07ec2fbc77a335ab1e7d6215a4b2484d8bb529181900360a00190a16000975092955050505050505b94509492505050565b6011546040516370a0823160e01b81523060048201526000916001600160a01b031690829082906370a082319060240160206040518083038186803b15801561482d57600080fd5b505afa158015614841573d6000803e3d6000fd5b505050506040513d601f19601f820116820180604052508101906148659190614fa6565b6040516323b872dd60e01b81529091506001600160a01b038316906323b872dd9061489890889030908990600401614fe3565b600060405180830381600087803b1580156148b257600080fd5b505af11580156148c6573d6000803e3d6000fd5b5050505060003d600081146148e257602081146148ec57600080fd5b60001991506148f8565b60206000803e60005191505b50806149465760405162461bcd60e51b815260206004820152601860248201527f544f4b454e5f5452414e534645525f494e5f4641494c454400000000000000006044820152606401610802565b6011546040516370a0823160e01b81523060048201526000916001600160a01b0316906370a082319060240160206040518083038186803b15801561498a57600080fd5b505afa15801561499e573d6000803e3d6000fd5b505050506040513d601f19601f820116820180604052508101906149c29190614fa6565b905082811015614a145760405162461bcd60e51b815260206004820152601a60248201527f544f4b454e5f5452414e534645525f494e5f4f564552464c4f570000000000006044820152606401610802565b614a1e83826150d9565b979650505050505050565b600080600080611ef58686614b0c565b6000610d9883836040518060400160405280601781526020017f6d756c7469706c69636174696f6e206f766572666c6f77000000000000000000815250614b7f565b60008184841115614a9f5760405162461bcd60e51b81526004016108029190615007565b50610c2883856150d9565b6040805160208101909152600081526040518060200160405280614ad2856000015185614a39565b90529392505050565b600080614ae88486615080565b90508285821015610b775760405162461bcd60e51b81526004016108029190615007565b6000614b246040518060200160405280600081525090565b600080614b39670de0b6b3a764000087613a26565b90925090506000826003811115614b5257614b52615141565b14614b7157506040805160208101909152600081529092509050611f31565b611f2a8186600001516131e5565b6000831580614b8c575082155b15614b9957506000610d98565b6000614ba584866150ba565b905083614bb28683615098565b148390610b775760405162461bcd60e51b81526004016108029190615007565b828054614bde906150f0565b90600052602060002090601f016020900481019282614c005760008555614c46565b82601f10614c1957805160ff1916838001178555614c46565b82800160010185558215614c46579182015b82811115614c46578251825591602001919060010190614c2b565b50614c52929150614c56565b5090565b5b80821115614c525760008155600101614c57565b600082601f830112614c7c57600080fd5b813567ffffffffffffffff80821115614c9757614c97615157565b604051601f8301601f19908116603f01168101908282118183101715614cbf57614cbf615157565b81604052838152866020858801011115614cd857600080fd5b836020870160208301376000602085830101528094505050505092915050565b803560ff81168114614d0957600080fd5b919050565b600060208284031215614d2057600080fd5b8135610d988161516d565b60008060408385031215614d3e57600080fd5b8235614d498161516d565b91506020830135614d598161516d565b809150509250929050565b600080600060608486031215614d7957600080fd5b8335614d848161516d565b92506020840135614d948161516d565b929592945050506040919091013590565b600080600080600080600060e0888a031215614dc057600080fd5b8735614dcb8161516d565b96506020880135614ddb8161516d565b95506040880135614deb8161516d565b945060608801359350608088013567ffffffffffffffff80821115614e0f57600080fd5b614e1b8b838c01614c6b565b945060a08a0135915080821115614e3157600080fd5b50614e3e8a828b01614c6b565b925050614e4d60c08901614cf8565b905092959891949750929550565b60008060408385031215614e6e57600080fd5b8235614e798161516d565b946020939093013593505050565b600080600060608486031215614e9c57600080fd5b8335614ea78161516d565b9250602084013591506040840135614ebe8161516d565b809150509250925092565b600060208284031215614edb57600080fd5b81518015158114610d9857600080fd5b60008060008060008060c08789031215614f0457600080fd5b8635614f0f8161516d565b95506020870135614f1f8161516d565b945060408701359350606087013567ffffffffffffffff80821115614f4357600080fd5b614f4f8a838b01614c6b565b94506080890135915080821115614f6557600080fd5b50614f7289828a01614c6b565b925050614f8160a08801614cf8565b90509295509295509295565b600060208284031215614f9f57600080fd5b5035919050565b600060208284031215614fb857600080fd5b5051919050565b60008060408385031215614fd257600080fd5b505080516020909101519092909150565b6001600160a01b039384168152919092166020820152604081019190915260600190565b600060208083528351808285015260005b8181101561503457858101830151858201604001528201615018565b81811115615046576000604083870101525b50601f01601f1916929092016040019392505050565b6020808252600a90820152691c994b595b9d195c995960b21b604082015260600190565b600082198211156150935761509361512b565b500190565b6000826150b557634e487b7160e01b600052601260045260246000fd5b500490565b60008160001904831182151516156150d4576150d461512b565b500290565b6000828210156150eb576150eb61512b565b500390565b600181811c9082168061510457607f821691505b6020821081141561512557634e487b7160e01b600052602260045260246000fd5b50919050565b634e487b7160e01b600052601160045260246000fd5b634e487b7160e01b600052602160045260246000fd5b634e487b7160e01b600052604160045260246000fd5b6001600160a01b038116811461518257600080fd5b5056feddf252ad1be2c89b69c2b068fc378daa952ba7f163c4a11628f55a4df523b3efa2646970667358221220c94f67dd69f7387f9e1c9ccc73764f956d44b8f4655a58b8ef564a7a9f08808f64736f6c63430008070033",
  "immutableReferences": {},
  "source": "// SPDX-License-Identifier: MIT\npragma solidity >=0.8.0;\n\nimport \"./CToken.sol\";\n\n/**\n * @title Compound's CErc20 Contract\n * @notice CTokens which wrap an EIP-20 underlying\n * @author Compound\n */\ncontract CErc20 is CToken, CErc20Interface {\n    /**\n     * @notice Initialize the new money market\n     * @param underlying_ The address of the underlying asset\n     * @param comptroller_ The address of the Comptroller\n     * @param interestRateModel_ The address of the interest rate model\n     * @param initialExchangeRateMantissa_ The initial exchange rate, scaled by 1e18\n     * @param name_ ERC-20 name of this token\n     * @param symbol_ ERC-20 symbol of this token\n     * @param decimals_ ERC-20 decimal precision of this token\n     */\n    function initialize(address underlying_,\n                        ComptrollerInterface comptroller_,\n                        InterestRateModel interestRateModel_,\n                        uint initialExchangeRateMantissa_,\n                        string memory name_,\n                        string memory symbol_,\n                        uint8 decimals_) public {\n        // CToken initialize does the bulk of the work\n        super.initialize(comptroller_, interestRateModel_, initialExchangeRateMantissa_, name_, symbol_, decimals_);\n\n        // Set underlying and sanity check it\n        underlying = underlying_;\n        EIP20Interface(underlying).totalSupply();\n    }\n\n    /*** User Interface ***/\n\n    /**\n     * @notice Sender supplies assets into the market and receives cTokens in exchange\n     * @dev Accrues interest whether or not the operation succeeds, unless reverted\n     * @param mintAmount The amount of the underlying asset to supply\n     * @return uint 0=success, otherwise a failure (see ErrorReporter.sol for details)\n     */\n    function mint(uint mintAmount) external  override returns (uint) {\n        (uint err,) = mintInternal(mintAmount);\n        return err;\n    }\n\n   \n\n    /**\n     * @notice Sender redeems cTokens in exchange for the underlying asset\n     * @dev Accrues interest whether or not the operation succeeds, unless reverted\n     * @param redeemTokens The number of cTokens to redeem into underlying\n     * @return uint 0=success, otherwise a failure (see ErrorReporter.sol for details)\n     */\n    function redeem(uint redeemTokens) external override  returns (uint) {\n        return redeemInternal(redeemTokens);\n    }\n\n   \n    /**\n     * @notice Sender redeems cTokens in exchange for a specified amount of underlying asset\n     * @dev Accrues interest whether or not the operation succeeds, unless reverted\n     * @param redeemAmount The amount of underlying to redeem\n     * @return uint 0=success, otherwise a failure (see ErrorReporter.sol for details)\n     */\n    function redeemUnderlying(uint redeemAmount) external  override returns (uint) {\n        return redeemUnderlyingInternal(redeemAmount);\n    }\n\n    /**\n      * @notice Sender borrows assets from the protocol to their own address\n      * @param borrowAmount The amount of the underlying asset to borrow\n      * @return uint 0=success, otherwise a failure (see ErrorReporter.sol for details)\n      */\n    function borrow(uint borrowAmount) external  override returns (uint) {\n        return borrowInternal(borrowAmount);\n    }\n\n    /**\n     * @notice Sender repays their own borrow\n     * @param repayAmount The amount to repay\n     * @return uint 0=success, otherwise a failure (see ErrorReporter.sol for details)\n     */\n    function repayBorrow(uint repayAmount) external override  returns (uint) {\n        (uint err,) = repayBorrowInternal(repayAmount);\n        return err;\n    }\n\n    /**\n     * @notice Sender repays a borrow belonging to borrower\n     * @param borrower the account with the debt being payed off\n     * @param repayAmount The amount to repay\n     * @return uint 0=success, otherwise a failure (see ErrorReporter.sol for details)\n     */\n    function repayBorrowBehalf(address borrower, uint repayAmount) external  override returns (uint) {\n        (uint err,) = repayBorrowBehalfInternal(borrower, repayAmount);\n        return err;\n    }\n\n    /**\n     * @notice The sender liquidates the borrowers collateral.\n     *  The collateral seized is transferred to the liquidator.\n     * @param borrower The borrower of this cToken to be liquidated\n     * @param repayAmount The amount of the underlying borrowed asset to repay\n     * @param cTokenCollateral The market in which to seize collateral from the borrower\n     * @return uint 0=success, otherwise a failure (see ErrorReporter.sol for details)\n     */\n    function liquidateBorrow(address borrower, uint repayAmount, CTokenInterface cTokenCollateral) external override  returns (uint) {\n        (uint err,) = liquidateBorrowInternal(borrower, repayAmount, cTokenCollateral);\n        return err;\n    }\n\n    /**\n     * @notice A public function to sweep accidental ERC-20 transfers to this contract. Tokens are sent to admin (timelock)\n     * @param token The address of the ERC-20 token to sweep\n     */\n    function sweepToken(EIP20NonStandardInterface token) external override  {\n    \trequire(address(token) != underlying, \"CErc20::sweepToken: can not sweep underlying token\");\n    \tuint256 balance = token.balanceOf(address(this));\n    \ttoken.transfer(admin, balance);\n    }\n\n    /**\n     * @notice The sender adds to reserves.\n     * @param addAmount The amount fo underlying token to add as reserves\n     * @return uint 0=success, otherwise a failure (see ErrorReporter.sol for details)\n     */\n    function _addReserves(uint addAmount) external  override returns (uint) {\n        return _addReservesInternal(addAmount);\n    }\n\n    /*** Safe Token ***/\n\n    /**\n     * @notice Gets balance of this contract in terms of the underlying\n     * @dev This excludes the value of the current message, if any\n     * @return The quantity of underlying tokens owned by this contract\n     */\n    function getCashPrior() internal override  view returns (uint) {\n        EIP20Interface token = EIP20Interface(underlying);\n        return token.balanceOf(address(this));\n    }\n\n    /**\n     * @dev Similar to EIP20 transfer, except it handles a False result from `transferFrom` and reverts in that case.\n     *      This will revert due to insufficient balance or insufficient allowance.\n     *      This function returns the actual amount received,\n     *      which may be less than `amount` if there is a fee attached to the transfer.\n     *\n     *      Note: This wrapper safely handles non-standard ERC-20 tokens that do not return a value.\n     *            See here: https://medium.com/coinmonks/missing-return-value-bug-at-least-130-tokens-affected-d67bf08521ca\n     */\n    function doTransferIn(address from, uint amount) internal override  returns (uint) {\n        EIP20NonStandardInterface token = EIP20NonStandardInterface(underlying);\n        uint balanceBefore = EIP20Interface(underlying).balanceOf(address(this));\n        token.transferFrom(from, address(this), amount);\n\n        bool success;\n        assembly {\n            switch returndatasize()\n                case 0 {                       // This is a non-standard ERC-20\n                    success := not(0)          // set success to true\n                }\n                case 32 {                      // This is a compliant ERC-20\n                    returndatacopy(0, 0, 32)\n                    success := mload(0)        // Set `success = returndata` of external call\n                }\n                default {                      // This is an excessively non-compliant ERC-20, revert.\n                    revert(0, 0)\n                }\n        }\n        require(success, \"TOKEN_TRANSFER_IN_FAILED\");\n\n        // Calculate the amount that was *actually* transferred\n        uint balanceAfter = EIP20Interface(underlying).balanceOf(address(this));\n        require(balanceAfter >= balanceBefore, \"TOKEN_TRANSFER_IN_OVERFLOW\");\n        return balanceAfter - balanceBefore;   // underflow already checked above, just subtract\n    }\n\n    /**\n     * @dev Similar to EIP20 transfer, except it handles a False success from `transfer` and returns an explanatory\n     *      error code rather than reverting. If caller has not called checked protocol's balance, this may revert due to\n     *      insufficient cash held in this contract. If caller has checked protocol's balance prior to this call, and verified\n     *      it is >= amount, this should not revert in normal conditions.\n     *\n     *      Note: This wrapper safely handles non-standard ERC-20 tokens that do not return a value.\n     *            See here: https://medium.com/coinmonks/missing-return-value-bug-at-least-130-tokens-affected-d67bf08521ca\n     */\n    function doTransferOut(address payable to, uint amount) internal override  {\n        EIP20NonStandardInterface token = EIP20NonStandardInterface(underlying);\n        token.transfer(to, amount);\n\n        bool success;\n        assembly {\n            switch returndatasize()\n                case 0 {                      // This is a non-standard ERC-20\n                    success := not(0)          // set success to true\n                }\n                case 32 {                     // This is a compliant ERC-20\n                    returndatacopy(0, 0, 32)\n                    success := mload(0)        // Set `success = returndata` of external call\n                }\n                default {                     // This is an excessively non-compliant ERC-20, revert.\n                    revert(0, 0)\n                }\n        }\n        require(success, \"TOKEN_TRANSFER_OUT_FAILED\");\n    }\n\n    \n    \n}\n",
  "sourcePath": "/Users/vchikhladze/DApps/DeFi/primaryIndexToken/contracts/cToken/CErc20.sol",
  "compiler": {
    "name": "solc",
    "version": "0.8.7+commit.e28d00a7.Emscripten.clang"
  },
  "schemaVersion": "3.4.1",
  "updatedAt": "2021-09-13T06:45:31.067Z",
  "devdoc": {
    "author": "Compound",
    "kind": "dev",
    "methods": {
      "_acceptAdmin()": {
        "details": "Admin function for pending admin to accept role and update admin",
        "returns": {
          "_0": "uint 0=success, otherwise a failure (see ErrorReporter.sol for details)"
        }
      },
      "_addReserves(uint256)": {
        "params": {
          "addAmount": "The amount fo underlying token to add as reserves"
        },
        "returns": {
          "_0": "uint 0=success, otherwise a failure (see ErrorReporter.sol for details)"
        }
      },
      "_reduceReserves(uint256)": {
        "params": {
          "reduceAmount": "Amount of reduction to reserves"
        },
        "returns": {
          "_0": "uint 0=success, otherwise a failure (see ErrorReporter.sol for details)"
        }
      },
      "_setComptroller(address)": {
        "details": "Admin function to set a new comptroller",
        "returns": {
          "_0": "uint 0=success, otherwise a failure (see ErrorReporter.sol for details)"
        }
      },
      "_setInterestRateModel(address)": {
        "details": "Admin function to accrue interest and update the interest rate model",
        "params": {
          "newInterestRateModel": "the new interest rate model to use"
        },
        "returns": {
          "_0": "uint 0=success, otherwise a failure (see ErrorReporter.sol for details)"
        }
      },
      "_setPendingAdmin(address)": {
        "details": "Admin function to begin change of admin. The newPendingAdmin must call `_acceptAdmin` to finalize the transfer.",
        "params": {
          "newPendingAdmin": "New pending admin."
        },
        "returns": {
          "_0": "uint 0=success, otherwise a failure (see ErrorReporter.sol for details)"
        }
      },
      "_setReserveFactor(uint256)": {
        "details": "Admin function to accrue interest and set a new reserve factor",
        "returns": {
          "_0": "uint 0=success, otherwise a failure (see ErrorReporter.sol for details)"
        }
      },
      "accrueInterest()": {
        "details": "This calculates interest accrued from the last checkpointed block   up to the current block and writes new checkpoint to storage."
      },
      "allowance(address,address)": {
        "params": {
          "owner": "The address of the account which owns the tokens to be spent",
          "spender": "The address of the account which may transfer tokens"
        },
        "returns": {
          "_0": "The number of tokens allowed to be spent (-1 means infinite)"
        }
      },
      "approve(address,uint256)": {
        "details": "This will overwrite the approval amount for `spender`  and is subject to issues noted [here](https://eips.ethereum.org/EIPS/eip-20#approve)",
        "params": {
          "amount": "The number of tokens that are approved (-1 means infinite)",
          "spender": "The address of the account which may transfer tokens"
        },
        "returns": {
          "_0": "Whether or not the approval succeeded"
        }
      },
      "balanceOf(address)": {
        "params": {
          "owner": "The address of the account to query"
        },
        "returns": {
          "_0": "The number of tokens owned by `owner`"
        }
      },
      "balanceOfUnderlying(address)": {
        "details": "This also accrues interest in a transaction",
        "params": {
          "owner": "The address of the account to query"
        },
        "returns": {
          "_0": "The amount of underlying owned by `owner`"
        }
      },
      "borrow(uint256)": {
        "params": {
          "borrowAmount": "The amount of the underlying asset to borrow"
        },
        "returns": {
          "_0": "uint 0=success, otherwise a failure (see ErrorReporter.sol for details)"
        }
      },
      "borrowBalanceCurrent(address)": {
        "params": {
          "account": "The address whose balance should be calculated after updating borrowIndex"
        },
        "returns": {
          "_0": "The calculated balance"
        }
      },
      "borrowBalanceStored(address)": {
        "params": {
          "account": "The address whose balance should be calculated"
        },
        "returns": {
          "_0": "The calculated balance"
        }
      },
      "borrowRatePerBlock()": {
        "returns": {
          "_0": "The borrow interest rate per block, scaled by 1e18"
        }
      },
      "exchangeRateCurrent()": {
        "returns": {
          "_0": "Calculated exchange rate scaled by 1e18"
        }
      },
      "exchangeRateStored()": {
        "details": "This function does not accrue interest before calculating the exchange rate",
        "returns": {
          "_0": "Calculated exchange rate scaled by 1e18"
        }
      },
      "getAccountSnapshot(address)": {
        "details": "This is used by comptroller to more efficiently perform liquidity checks.",
        "params": {
          "account": "Address of the account to snapshot"
        },
        "returns": {
          "_0": "(possible error, token balance, borrow balance, exchange rate mantissa)"
        }
      },
      "getCash()": {
        "returns": {
          "_0": "The quantity of underlying asset owned by this contract"
        }
      },
      "initialize(address,address,address,uint256,string,string,uint8)": {
        "params": {
          "comptroller_": "The address of the Comptroller",
          "decimals_": "ERC-20 decimal precision of this token",
          "initialExchangeRateMantissa_": "The initial exchange rate, scaled by 1e18",
          "interestRateModel_": "The address of the interest rate model",
          "name_": "ERC-20 name of this token",
          "symbol_": "ERC-20 symbol of this token",
          "underlying_": "The address of the underlying asset"
        }
      },
      "initialize(address,address,uint256,string,string,uint8)": {
        "params": {
          "comptroller_": "The address of the Comptroller",
          "decimals_": "EIP-20 decimal precision of this token",
          "initialExchangeRateMantissa_": "The initial exchange rate, scaled by 1e18",
          "interestRateModel_": "The address of the interest rate model",
          "name_": "EIP-20 name of this token",
          "symbol_": "EIP-20 symbol of this token"
        }
      },
      "liquidateBorrow(address,uint256,address)": {
        "params": {
          "borrower": "The borrower of this cToken to be liquidated",
          "cTokenCollateral": "The market in which to seize collateral from the borrower",
          "repayAmount": "The amount of the underlying borrowed asset to repay"
        },
        "returns": {
          "_0": "uint 0=success, otherwise a failure (see ErrorReporter.sol for details)"
        }
      },
      "mint(uint256)": {
        "details": "Accrues interest whether or not the operation succeeds, unless reverted",
        "params": {
          "mintAmount": "The amount of the underlying asset to supply"
        },
        "returns": {
          "_0": "uint 0=success, otherwise a failure (see ErrorReporter.sol for details)"
        }
      },
      "redeem(uint256)": {
        "details": "Accrues interest whether or not the operation succeeds, unless reverted",
        "params": {
          "redeemTokens": "The number of cTokens to redeem into underlying"
        },
        "returns": {
          "_0": "uint 0=success, otherwise a failure (see ErrorReporter.sol for details)"
        }
      },
      "redeemUnderlying(uint256)": {
        "details": "Accrues interest whether or not the operation succeeds, unless reverted",
        "params": {
          "redeemAmount": "The amount of underlying to redeem"
        },
        "returns": {
          "_0": "uint 0=success, otherwise a failure (see ErrorReporter.sol for details)"
        }
      },
      "repayBorrow(uint256)": {
        "params": {
          "repayAmount": "The amount to repay"
        },
        "returns": {
          "_0": "uint 0=success, otherwise a failure (see ErrorReporter.sol for details)"
        }
      },
      "repayBorrowBehalf(address,uint256)": {
        "params": {
          "borrower": "the account with the debt being payed off",
          "repayAmount": "The amount to repay"
        },
        "returns": {
          "_0": "uint 0=success, otherwise a failure (see ErrorReporter.sol for details)"
        }
      },
      "seize(address,address,uint256)": {
        "details": "Will fail unless called by another cToken during the process of liquidation.  Its absolutely critical to use msg.sender as the borrowed cToken and not a parameter.",
        "params": {
          "borrower": "The account having collateral seized",
          "liquidator": "The account receiving seized collateral",
          "seizeTokens": "The number of cTokens to seize"
        },
        "returns": {
          "_0": "uint 0=success, otherwise a failure (see ErrorReporter.sol for details)"
        }
      },
      "supplyRatePerBlock()": {
        "returns": {
          "_0": "The supply interest rate per block, scaled by 1e18"
        }
      },
      "sweepToken(address)": {
        "params": {
          "token": "The address of the ERC-20 token to sweep"
        }
      },
      "totalBorrowsCurrent()": {
        "returns": {
          "_0": "The total borrows with interest"
        }
      },
      "transfer(address,uint256)": {
        "params": {
          "amount": "The number of tokens to transfer",
          "dst": "The address of the destination account"
        },
        "returns": {
          "_0": "Whether or not the transfer succeeded"
        }
      },
      "transferFrom(address,address,uint256)": {
        "params": {
          "amount": "The number of tokens to transfer",
          "dst": "The address of the destination account",
          "src": "The address of the source account"
        },
        "returns": {
          "_0": "Whether or not the transfer succeeded"
        }
      }
    },
    "title": "Compound's CErc20 Contract",
    "version": 1
  },
  "userdoc": {
    "events": {
      "AccrueInterest(uint256,uint256,uint256,uint256)": {
        "notice": "Event emitted when interest is accrued"
      },
      "Approval(address,address,uint256)": {
        "notice": "EIP20 Approval event"
      },
      "Borrow(address,uint256,uint256,uint256)": {
        "notice": "Event emitted when underlying is borrowed"
      },
      "LiquidateBorrow(address,address,uint256,address,uint256)": {
        "notice": "Event emitted when a borrow is liquidated"
      },
      "Mint(address,uint256,uint256)": {
        "notice": "Event emitted when tokens are minted"
      },
      "NewAdmin(address,address)": {
        "notice": "Event emitted when pendingAdmin is accepted, which means admin is updated"
      },
      "NewComptroller(address,address)": {
        "notice": "Event emitted when comptroller is changed"
      },
      "NewMarketInterestRateModel(address,address)": {
        "notice": "Event emitted when interestRateModel is changed"
      },
      "NewPendingAdmin(address,address)": {
        "notice": "Event emitted when pendingAdmin is changed"
      },
      "NewReserveFactor(uint256,uint256)": {
        "notice": "Event emitted when the reserve factor is changed"
      },
      "Redeem(address,uint256,uint256)": {
        "notice": "Event emitted when tokens are redeemed"
      },
      "RepayBorrow(address,address,uint256,uint256,uint256)": {
        "notice": "Event emitted when a borrow is repaid"
      },
      "ReservesAdded(address,uint256,uint256)": {
        "notice": "Event emitted when the reserves are added"
      },
      "ReservesReduced(address,uint256,uint256)": {
        "notice": "Event emitted when the reserves are reduced"
      },
      "Transfer(address,address,uint256)": {
        "notice": "EIP20 Transfer event"
      }
    },
    "kind": "user",
    "methods": {
      "_acceptAdmin()": {
        "notice": "Accepts transfer of admin rights. msg.sender must be pendingAdmin"
      },
      "_addReserves(uint256)": {
        "notice": "The sender adds to reserves."
      },
      "_reduceReserves(uint256)": {
        "notice": "Accrues interest and reduces reserves by transferring to admin"
      },
      "_setComptroller(address)": {
        "notice": "Sets a new comptroller for the market"
      },
      "_setInterestRateModel(address)": {
        "notice": "accrues interest and updates the interest rate model using _setInterestRateModelFresh"
      },
      "_setPendingAdmin(address)": {
        "notice": "Begins transfer of admin rights. The newPendingAdmin must call `_acceptAdmin` to finalize the transfer."
      },
      "_setReserveFactor(uint256)": {
        "notice": "accrues interest and sets a new reserve factor for the protocol using _setReserveFactorFresh"
      },
      "accountTokens(address)": {
        "notice": "Official record of token balances for each account"
      },
      "accrualBlockNumber()": {
        "notice": "Block number that interest was last accrued at"
      },
      "accrueInterest()": {
        "notice": "Applies accrued interest to total borrows and reserves"
      },
      "admin()": {
        "notice": "Administrator for this contract"
      },
      "allowance(address,address)": {
        "notice": "Get the current allowance from `owner` for `spender`"
      },
      "approve(address,uint256)": {
        "notice": "Approve `spender` to transfer up to `amount` from `src`"
      },
      "balanceOf(address)": {
        "notice": "Get the token balance of the `owner`"
      },
      "balanceOfUnderlying(address)": {
        "notice": "Get the underlying balance of the `owner`"
      },
      "borrow(uint256)": {
        "notice": "Sender borrows assets from the protocol to their own address"
      },
      "borrowBalanceCurrent(address)": {
        "notice": "Accrue interest to updated borrowIndex and then calculate account's borrow balance using the updated borrowIndex"
      },
      "borrowBalanceStored(address)": {
        "notice": "Return the borrow balance of account based on stored data"
      },
      "borrowIndex()": {
        "notice": "Accumulator of the total earned interest rate since the opening of the market"
      },
      "borrowRatePerBlock()": {
        "notice": "Returns the current per-block borrow interest rate for this cToken"
      },
      "comptroller()": {
        "notice": "Contract which oversees inter-cToken operations"
      },
      "decimals()": {
        "notice": "EIP-20 token decimals for this token"
      },
      "exchangeRateCurrent()": {
        "notice": "Accrue interest then return the up-to-date exchange rate"
      },
      "exchangeRateStored()": {
        "notice": "Calculates the exchange rate from the underlying to the CToken"
      },
      "getAccountSnapshot(address)": {
        "notice": "Get a snapshot of the account's balances, and the cached exchange rate"
      },
      "getCash()": {
        "notice": "Get cash balance of this cToken in the underlying asset"
      },
      "initialize(address,address,address,uint256,string,string,uint8)": {
        "notice": "Initialize the new money market"
      },
      "initialize(address,address,uint256,string,string,uint8)": {
        "notice": "Initialize the money market"
      },
      "interestRateModel()": {
        "notice": "Model which tells what the current interest rate should be"
      },
      "isCToken()": {
        "notice": "Indicator that this is a CToken contract (for inspection)"
      },
      "liquidateBorrow(address,uint256,address)": {
        "notice": "The sender liquidates the borrowers collateral.  The collateral seized is transferred to the liquidator."
      },
      "mint(uint256)": {
        "notice": "Sender supplies assets into the market and receives cTokens in exchange"
      },
      "name()": {
        "notice": "EIP-20 token name for this token"
      },
      "pendingAdmin()": {
        "notice": "Pending administrator for this contract"
      },
      "protocolSeizeShareMantissa()": {
        "notice": "Share of seized collateral that is added to reserves"
      },
      "redeem(uint256)": {
        "notice": "Sender redeems cTokens in exchange for the underlying asset"
      },
      "redeemUnderlying(uint256)": {
        "notice": "Sender redeems cTokens in exchange for a specified amount of underlying asset"
      },
      "repayBorrow(uint256)": {
        "notice": "Sender repays their own borrow"
      },
      "repayBorrowBehalf(address,uint256)": {
        "notice": "Sender repays a borrow belonging to borrower"
      },
      "reserveFactorMantissa()": {
        "notice": "Fraction of interest currently set aside for reserves"
      },
      "seize(address,address,uint256)": {
        "notice": "Transfers collateral tokens (this market) to the liquidator."
      },
      "supplyRatePerBlock()": {
        "notice": "Returns the current per-block supply interest rate for this cToken"
      },
      "sweepToken(address)": {
        "notice": "A public function to sweep accidental ERC-20 transfers to this contract. Tokens are sent to admin (timelock)"
      },
      "symbol()": {
        "notice": "EIP-20 token symbol for this token"
      },
      "totalBorrows()": {
        "notice": "Total amount of outstanding borrows of the underlying in this market"
      },
      "totalBorrowsCurrent()": {
        "notice": "Returns the current total borrows plus accrued interest"
      },
      "totalReserves()": {
        "notice": "Total amount of reserves of the underlying held in this market"
      },
      "totalSupply()": {
        "notice": "Total number of tokens in circulation"
      },
      "transfer(address,uint256)": {
        "notice": "Transfer `amount` tokens from `msg.sender` to `dst`"
      },
      "transferFrom(address,address,uint256)": {
        "notice": "Transfer `amount` tokens from `src` to `dst`"
      },
      "underlying()": {
        "notice": "Underlying asset for this CToken"
      }
    },
    "notice": "CTokens which wrap an EIP-20 underlying",
    "version": 1
  }
}