{
  "contractName": "CErc20Storage",
  "abi": [
    {
      "inputs": [],
      "name": "underlying",
      "outputs": [
        {
          "internalType": "address",
          "name": "",
          "type": "address"
        }
      ],
      "stateMutability": "view",
      "type": "function"
    }
  ],
  "bytecode": "0x6080604052348015600f57600080fd5b5060918061001e6000396000f3fe6080604052348015600f57600080fd5b506004361060285760003560e01c80636f307dc314602d575b600080fd5b600054603f906001600160a01b031681565b6040516001600160a01b03909116815260200160405180910390f3fea26469706673582212208083495500c0d744af61f3280686c0be0d260bd4441f7eefed085a664de6fab564736f6c63430008070033",
  "immutableReferences": {},
  "source": "// SPDX-License-Identifier: MIT\npragma solidity >=0.8.0;\n\nimport \"../comptroller/ComptrollerInterface.sol\";\nimport \"../interestRateModel/InterestRateModel.sol\";\nimport \"../interfaces/EIP20NonStandardInterface.sol\";\n\ncontract CTokenStorage {\n    /**\n     * @dev Guard variable for re-entrancy checks\n     */\n    bool internal _notEntered;\n\n    /**\n     * @notice EIP-20 token name for this token\n     */\n    string public name;\n\n    /**\n     * @notice EIP-20 token symbol for this token\n     */\n    string public symbol;\n\n    /**\n     * @notice EIP-20 token decimals for this token\n     */\n    uint8 public decimals;\n\n    /**\n     * @notice Maximum borrow rate that can ever be applied (.0005% / block)\n     */\n\n    uint internal constant borrowRateMaxMantissa = 0.0005e16;\n\n    /**\n     * @notice Maximum fraction of interest that can be set aside for reserves\n     */\n    uint internal constant reserveFactorMaxMantissa = 1e18;\n\n    /**\n     * @notice Administrator for this contract\n     */\n    address payable public admin;\n\n    /**\n     * @notice Pending administrator for this contract\n     */\n    address payable public pendingAdmin;\n\n    /**\n     * @notice Contract which oversees inter-cToken operations\n     */\n    ComptrollerInterface public comptroller;\n\n    /**\n     * @notice Model which tells what the current interest rate should be\n     */\n    InterestRateModel public interestRateModel;\n\n    /**\n     * @notice Initial exchange rate used when minting the first CTokens (used when totalSupply = 0)\n     */\n    uint internal initialExchangeRateMantissa;\n\n    /**\n     * @notice Fraction of interest currently set aside for reserves\n     */\n    uint public reserveFactorMantissa;\n\n    /**\n     * @notice Block number that interest was last accrued at\n     */\n    uint public accrualBlockNumber;\n\n    /**\n     * @notice Accumulator of the total earned interest rate since the opening of the market\n     */\n    uint public borrowIndex;\n\n    /**\n     * @notice Total amount of outstanding borrows of the underlying in this market\n     */\n    uint public totalBorrows;\n\n    /**\n     * @notice Total amount of reserves of the underlying held in this market\n     */\n    uint public totalReserves;\n\n    /**\n     * @notice Total number of tokens in circulation\n     */\n    uint public totalSupply;\n\n    /**\n     * @notice Official record of token balances for each account\n     */\n    mapping (address => uint) public accountTokens;\n\n    /**\n     * @notice Approved token transfer amounts on behalf of others\n     */\n    mapping (address => mapping (address => uint)) internal transferAllowances;\n\n    /**\n     * @notice Container for borrow balance information\n     * @member principal Total balance (with accrued interest), after applying the most recent balance-changing action\n     * @member interestIndex Global borrowIndex as of the most recent balance-changing action\n     */\n    struct BorrowSnapshot {\n        uint principal;\n        uint interestIndex;\n    }\n\n    /**\n     * @notice Mapping of account addresses to outstanding borrow balances\n     */\n    mapping(address => BorrowSnapshot) internal accountBorrows;\n\n    /**\n     * @notice Share of seized collateral that is added to reserves\n     */\n    uint public constant protocolSeizeShareMantissa = 2.8e16; //2.8%\n\n}\n\nabstract contract CTokenInterface is CTokenStorage {\n    /**\n     * @notice Indicator that this is a CToken contract (for inspection)\n     */\n    bool public constant isCToken = true;\n\n\n    /*** Market Events ***/\n\n    /**\n     * @notice Event emitted when interest is accrued\n     */\n    event AccrueInterest(uint cashPrior, uint interestAccumulated, uint borrowIndex, uint totalBorrows);\n\n    /**\n     * @notice Event emitted when tokens are minted\n     */\n    event Mint(address minter, uint mintAmount, uint mintTokens);\n\n    /**\n     * @notice Event emitted when tokens are redeemed\n     */\n    event Redeem(address redeemer, uint redeemAmount, uint redeemTokens);\n\n    /**\n     * @notice Event emitted when underlying is borrowed\n     */\n    event Borrow(address borrower, uint borrowAmount, uint accountBorrows, uint totalBorrows);\n\n    /**\n     * @notice Event emitted when a borrow is repaid\n     */\n    event RepayBorrow(address payer, address borrower, uint repayAmount, uint accountBorrows, uint totalBorrows);\n\n    /**\n     * @notice Event emitted when a borrow is liquidated\n     */\n    event LiquidateBorrow(address liquidator, address borrower, uint repayAmount, address cTokenCollateral, uint seizeTokens);\n\n\n    /*** Admin Events ***/\n\n    /**\n     * @notice Event emitted when pendingAdmin is changed\n     */\n    event NewPendingAdmin(address oldPendingAdmin, address newPendingAdmin);\n\n    /**\n     * @notice Event emitted when pendingAdmin is accepted, which means admin is updated\n     */\n    event NewAdmin(address oldAdmin, address newAdmin);\n\n    /**\n     * @notice Event emitted when comptroller is changed\n     */\n    event NewComptroller(ComptrollerInterface oldComptroller, ComptrollerInterface newComptroller);\n\n    /**\n     * @notice Event emitted when interestRateModel is changed\n     */\n    event NewMarketInterestRateModel(InterestRateModel oldInterestRateModel, InterestRateModel newInterestRateModel);\n\n    /**\n     * @notice Event emitted when the reserve factor is changed\n     */\n    event NewReserveFactor(uint oldReserveFactorMantissa, uint newReserveFactorMantissa);\n\n    /**\n     * @notice Event emitted when the reserves are added\n     */\n    event ReservesAdded(address benefactor, uint addAmount, uint newTotalReserves);\n\n    /**\n     * @notice Event emitted when the reserves are reduced\n     */\n    event ReservesReduced(address admin, uint reduceAmount, uint newTotalReserves);\n\n    /**\n     * @notice EIP20 Transfer event\n     */\n    event Transfer(address indexed from, address indexed to, uint amount);\n\n    /**\n     * @notice EIP20 Approval event\n     */\n    event Approval(address indexed owner, address indexed spender, uint amount);\n\n    /**\n     * @notice Failure event\n     */\n    //event Failure(uint error, uint info, uint detail);\n\n\n    /*** User Interface ***/\n\n    function transfer(address dst, uint amount) external virtual returns (bool);\n    function transferFrom(address src, address dst, uint amount) external virtual returns (bool);\n    function approve(address spender, uint amount) external  virtual returns (bool);\n    function allowance(address owner, address spender) external  virtual view returns (uint);\n    function balanceOf(address owner) external  virtual view returns (uint);\n    function balanceOfUnderlying(address owner) external virtual  returns (uint);\n    function getAccountSnapshot(address account) external  virtual  view returns (uint, uint, uint, uint);\n    function borrowRatePerBlock() external virtual  view returns (uint);\n    function supplyRatePerBlock() external virtual  view returns (uint);\n    function totalBorrowsCurrent() external virtual  returns (uint);\n    function borrowBalanceCurrent(address account) external virtual  returns (uint);\n    function borrowBalanceStored(address account) public virtual  view returns (uint);\n    function exchangeRateCurrent() public virtual  returns (uint);\n    function exchangeRateStored() public virtual  view returns (uint);\n    function getCash() external virtual  view returns (uint);\n    function accrueInterest() public virtual  returns (uint);\n    function seize(address liquidator, address borrower, uint seizeTokens) external  virtual returns (uint);\n\n\n    /*** Admin Functions ***/\n\n    function _setPendingAdmin(address payable newPendingAdmin) external virtual  returns (uint);\n    function _acceptAdmin() external virtual  returns (uint);\n    function _setComptroller(ComptrollerInterface newComptroller) public virtual  returns (uint);\n    function _setReserveFactor(uint newReserveFactorMantissa) external virtual  returns (uint);\n    function _reduceReserves(uint reduceAmount) external virtual  returns (uint);\n    function _setInterestRateModel(InterestRateModel newInterestRateModel) public virtual  returns (uint);\n}\n\ncontract CErc20Storage {\n    /**\n     * @notice Underlying asset for this CToken\n     */\n    address public underlying;\n}\n\nabstract contract CErc20Interface is CErc20Storage {\n\n    /*** User Interface ***/\n\n    function mint(uint mintAmount) external virtual  returns (uint);\n    //function mintTo(address minter,uint mintAmount) external virtual  returns (uint);\n    function redeem(uint redeemTokens) external  virtual returns (uint);\n    //function redeemTo(address redeemer,uint mintAmount) external virtual  returns (uint);\n    function redeemUnderlying(uint redeemAmount) external virtual  returns (uint);\n    //function redeemUnderlyingTo(uint redeemAmount) external virtual  returns (uint);\n    function borrow(uint borrowAmount) external  virtual returns (uint);\n    //function borrowTo(address borrower, uint redeemAmount) external virtual  returns (uint);\n    function repayBorrow(uint repayAmount) external  virtual returns (uint);\n    //function repayBorrow(address borrower, uint repayAmount) external  virtual returns (uint);\n    function repayBorrowBehalf(address borrower, uint repayAmount) external virtual  returns (uint);\n    function liquidateBorrow(address borrower, uint repayAmount, CTokenInterface cTokenCollateral) external  virtual returns (uint);\n    function sweepToken(EIP20NonStandardInterface token) external virtual ;\n\n\n    /*** Admin Functions ***/\n\n    function _addReserves(uint addAmount) external virtual  returns (uint);\n}\n\ncontract CDelegationStorage {\n    /**\n     * @notice Implementation address for this contract\n     */\n    address public implementation;\n}\n\nabstract contract CDelegatorInterface is CDelegationStorage {\n    /**\n     * @notice Emitted when implementation is changed\n     */\n    event NewImplementation(address oldImplementation, address newImplementation);\n\n    /**\n     * @notice Called by the admin to update the implementation of the delegator\n     * @param implementation_ The address of the new implementation for delegation\n     * @param allowResign Flag to indicate whether to call _resignImplementation on the old implementation\n     * @param becomeImplementationData The encoded bytes data to be passed to _becomeImplementation\n     */\n    function _setImplementation(address implementation_, bool allowResign, bytes memory becomeImplementationData) public virtual ;\n}\n\nabstract contract CDelegateInterface is CDelegationStorage {\n    /**\n     * @notice Called by the delegator on a delegate to initialize it for duty\n     * @dev Should revert if any issues arise which make it unfit for delegation\n     * @param data The encoded bytes data for any initialization\n     */\n    function _becomeImplementation(bytes memory data) public virtual ;\n\n    /**\n     * @notice Called by the delegator on a delegate to forfeit its responsibility\n     */\n    function _resignImplementation() public virtual ;\n}\n",
  "sourcePath": "/Users/vchikhladze/DApps/DeFi/primaryIndexToken/contracts/cToken/CTokenInterfaces.sol",
  "compiler": {
    "name": "solc",
    "version": "0.8.7+commit.e28d00a7.Emscripten.clang"
  },
  "schemaVersion": "3.4.1",
  "updatedAt": "2021-09-13T06:45:31.270Z",
  "devdoc": {
    "kind": "dev",
    "methods": {},
    "version": 1
  },
  "userdoc": {
    "kind": "user",
    "methods": {
      "underlying()": {
        "notice": "Underlying asset for this CToken"
      }
    },
    "version": 1
  }
}