{
  "contractName": "CEther",
  "abi": [
    {
      "inputs": [
        {
          "internalType": "contract ComptrollerInterface",
          "name": "comptroller_",
          "type": "address"
        },
        {
          "internalType": "contract InterestRateModel",
          "name": "interestRateModel_",
          "type": "address"
        },
        {
          "internalType": "uint256",
          "name": "initialExchangeRateMantissa_",
          "type": "uint256"
        },
        {
          "internalType": "string",
          "name": "name_",
          "type": "string"
        },
        {
          "internalType": "string",
          "name": "symbol_",
          "type": "string"
        },
        {
          "internalType": "uint8",
          "name": "decimals_",
          "type": "uint8"
        },
        {
          "internalType": "address payable",
          "name": "admin_",
          "type": "address"
        }
      ],
      "stateMutability": "nonpayable",
      "type": "constructor"
    },
    {
      "anonymous": false,
      "inputs": [
        {
          "indexed": false,
          "internalType": "uint256",
          "name": "cashPrior",
          "type": "uint256"
        },
        {
          "indexed": false,
          "internalType": "uint256",
          "name": "interestAccumulated",
          "type": "uint256"
        },
        {
          "indexed": false,
          "internalType": "uint256",
          "name": "borrowIndex",
          "type": "uint256"
        },
        {
          "indexed": false,
          "internalType": "uint256",
          "name": "totalBorrows",
          "type": "uint256"
        }
      ],
      "name": "AccrueInterest",
      "type": "event"
    },
    {
      "anonymous": false,
      "inputs": [
        {
          "indexed": true,
          "internalType": "address",
          "name": "owner",
          "type": "address"
        },
        {
          "indexed": true,
          "internalType": "address",
          "name": "spender",
          "type": "address"
        },
        {
          "indexed": false,
          "internalType": "uint256",
          "name": "amount",
          "type": "uint256"
        }
      ],
      "name": "Approval",
      "type": "event"
    },
    {
      "anonymous": false,
      "inputs": [
        {
          "indexed": false,
          "internalType": "address",
          "name": "borrower",
          "type": "address"
        },
        {
          "indexed": false,
          "internalType": "uint256",
          "name": "borrowAmount",
          "type": "uint256"
        },
        {
          "indexed": false,
          "internalType": "uint256",
          "name": "accountBorrows",
          "type": "uint256"
        },
        {
          "indexed": false,
          "internalType": "uint256",
          "name": "totalBorrows",
          "type": "uint256"
        }
      ],
      "name": "Borrow",
      "type": "event"
    },
    {
      "anonymous": false,
      "inputs": [
        {
          "indexed": false,
          "internalType": "uint256",
          "name": "error",
          "type": "uint256"
        },
        {
          "indexed": false,
          "internalType": "uint256",
          "name": "info",
          "type": "uint256"
        },
        {
          "indexed": false,
          "internalType": "uint256",
          "name": "detail",
          "type": "uint256"
        }
      ],
      "name": "Failure",
      "type": "event"
    },
    {
      "anonymous": false,
      "inputs": [
        {
          "indexed": false,
          "internalType": "address",
          "name": "liquidator",
          "type": "address"
        },
        {
          "indexed": false,
          "internalType": "address",
          "name": "borrower",
          "type": "address"
        },
        {
          "indexed": false,
          "internalType": "uint256",
          "name": "repayAmount",
          "type": "uint256"
        },
        {
          "indexed": false,
          "internalType": "address",
          "name": "cTokenCollateral",
          "type": "address"
        },
        {
          "indexed": false,
          "internalType": "uint256",
          "name": "seizeTokens",
          "type": "uint256"
        }
      ],
      "name": "LiquidateBorrow",
      "type": "event"
    },
    {
      "anonymous": false,
      "inputs": [
        {
          "indexed": false,
          "internalType": "address",
          "name": "minter",
          "type": "address"
        },
        {
          "indexed": false,
          "internalType": "uint256",
          "name": "mintAmount",
          "type": "uint256"
        },
        {
          "indexed": false,
          "internalType": "uint256",
          "name": "mintTokens",
          "type": "uint256"
        }
      ],
      "name": "Mint",
      "type": "event"
    },
    {
      "anonymous": false,
      "inputs": [
        {
          "indexed": false,
          "internalType": "address",
          "name": "oldAdmin",
          "type": "address"
        },
        {
          "indexed": false,
          "internalType": "address",
          "name": "newAdmin",
          "type": "address"
        }
      ],
      "name": "NewAdmin",
      "type": "event"
    },
    {
      "anonymous": false,
      "inputs": [
        {
          "indexed": false,
          "internalType": "contract ComptrollerInterface",
          "name": "oldComptroller",
          "type": "address"
        },
        {
          "indexed": false,
          "internalType": "contract ComptrollerInterface",
          "name": "newComptroller",
          "type": "address"
        }
      ],
      "name": "NewComptroller",
      "type": "event"
    },
    {
      "anonymous": false,
      "inputs": [
        {
          "indexed": false,
          "internalType": "contract InterestRateModel",
          "name": "oldInterestRateModel",
          "type": "address"
        },
        {
          "indexed": false,
          "internalType": "contract InterestRateModel",
          "name": "newInterestRateModel",
          "type": "address"
        }
      ],
      "name": "NewMarketInterestRateModel",
      "type": "event"
    },
    {
      "anonymous": false,
      "inputs": [
        {
          "indexed": false,
          "internalType": "address",
          "name": "oldPendingAdmin",
          "type": "address"
        },
        {
          "indexed": false,
          "internalType": "address",
          "name": "newPendingAdmin",
          "type": "address"
        }
      ],
      "name": "NewPendingAdmin",
      "type": "event"
    },
    {
      "anonymous": false,
      "inputs": [
        {
          "indexed": false,
          "internalType": "uint256",
          "name": "oldReserveFactorMantissa",
          "type": "uint256"
        },
        {
          "indexed": false,
          "internalType": "uint256",
          "name": "newReserveFactorMantissa",
          "type": "uint256"
        }
      ],
      "name": "NewReserveFactor",
      "type": "event"
    },
    {
      "anonymous": false,
      "inputs": [
        {
          "indexed": false,
          "internalType": "address",
          "name": "redeemer",
          "type": "address"
        },
        {
          "indexed": false,
          "internalType": "uint256",
          "name": "redeemAmount",
          "type": "uint256"
        },
        {
          "indexed": false,
          "internalType": "uint256",
          "name": "redeemTokens",
          "type": "uint256"
        }
      ],
      "name": "Redeem",
      "type": "event"
    },
    {
      "anonymous": false,
      "inputs": [
        {
          "indexed": false,
          "internalType": "address",
          "name": "payer",
          "type": "address"
        },
        {
          "indexed": false,
          "internalType": "address",
          "name": "borrower",
          "type": "address"
        },
        {
          "indexed": false,
          "internalType": "uint256",
          "name": "repayAmount",
          "type": "uint256"
        },
        {
          "indexed": false,
          "internalType": "uint256",
          "name": "accountBorrows",
          "type": "uint256"
        },
        {
          "indexed": false,
          "internalType": "uint256",
          "name": "totalBorrows",
          "type": "uint256"
        }
      ],
      "name": "RepayBorrow",
      "type": "event"
    },
    {
      "anonymous": false,
      "inputs": [
        {
          "indexed": false,
          "internalType": "address",
          "name": "benefactor",
          "type": "address"
        },
        {
          "indexed": false,
          "internalType": "uint256",
          "name": "addAmount",
          "type": "uint256"
        },
        {
          "indexed": false,
          "internalType": "uint256",
          "name": "newTotalReserves",
          "type": "uint256"
        }
      ],
      "name": "ReservesAdded",
      "type": "event"
    },
    {
      "anonymous": false,
      "inputs": [
        {
          "indexed": false,
          "internalType": "address",
          "name": "admin",
          "type": "address"
        },
        {
          "indexed": false,
          "internalType": "uint256",
          "name": "reduceAmount",
          "type": "uint256"
        },
        {
          "indexed": false,
          "internalType": "uint256",
          "name": "newTotalReserves",
          "type": "uint256"
        }
      ],
      "name": "ReservesReduced",
      "type": "event"
    },
    {
      "anonymous": false,
      "inputs": [
        {
          "indexed": true,
          "internalType": "address",
          "name": "from",
          "type": "address"
        },
        {
          "indexed": true,
          "internalType": "address",
          "name": "to",
          "type": "address"
        },
        {
          "indexed": false,
          "internalType": "uint256",
          "name": "amount",
          "type": "uint256"
        }
      ],
      "name": "Transfer",
      "type": "event"
    },
    {
      "stateMutability": "payable",
      "type": "fallback"
    },
    {
      "inputs": [],
      "name": "_acceptAdmin",
      "outputs": [
        {
          "internalType": "uint256",
          "name": "",
          "type": "uint256"
        }
      ],
      "stateMutability": "nonpayable",
      "type": "function"
    },
    {
      "inputs": [
        {
          "internalType": "uint256",
          "name": "reduceAmount",
          "type": "uint256"
        }
      ],
      "name": "_reduceReserves",
      "outputs": [
        {
          "internalType": "uint256",
          "name": "",
          "type": "uint256"
        }
      ],
      "stateMutability": "nonpayable",
      "type": "function"
    },
    {
      "inputs": [
        {
          "internalType": "contract ComptrollerInterface",
          "name": "newComptroller",
          "type": "address"
        }
      ],
      "name": "_setComptroller",
      "outputs": [
        {
          "internalType": "uint256",
          "name": "",
          "type": "uint256"
        }
      ],
      "stateMutability": "nonpayable",
      "type": "function"
    },
    {
      "inputs": [
        {
          "internalType": "contract InterestRateModel",
          "name": "newInterestRateModel",
          "type": "address"
        }
      ],
      "name": "_setInterestRateModel",
      "outputs": [
        {
          "internalType": "uint256",
          "name": "",
          "type": "uint256"
        }
      ],
      "stateMutability": "nonpayable",
      "type": "function"
    },
    {
      "inputs": [
        {
          "internalType": "address payable",
          "name": "newPendingAdmin",
          "type": "address"
        }
      ],
      "name": "_setPendingAdmin",
      "outputs": [
        {
          "internalType": "uint256",
          "name": "",
          "type": "uint256"
        }
      ],
      "stateMutability": "nonpayable",
      "type": "function"
    },
    {
      "inputs": [
        {
          "internalType": "uint256",
          "name": "newReserveFactorMantissa",
          "type": "uint256"
        }
      ],
      "name": "_setReserveFactor",
      "outputs": [
        {
          "internalType": "uint256",
          "name": "",
          "type": "uint256"
        }
      ],
      "stateMutability": "nonpayable",
      "type": "function"
    },
    {
      "inputs": [
        {
          "internalType": "address",
          "name": "",
          "type": "address"
        }
      ],
      "name": "accountTokens",
      "outputs": [
        {
          "internalType": "uint256",
          "name": "",
          "type": "uint256"
        }
      ],
      "stateMutability": "view",
      "type": "function"
    },
    {
      "inputs": [],
      "name": "accrualBlockNumber",
      "outputs": [
        {
          "internalType": "uint256",
          "name": "",
          "type": "uint256"
        }
      ],
      "stateMutability": "view",
      "type": "function"
    },
    {
      "inputs": [],
      "name": "accrueInterest",
      "outputs": [
        {
          "internalType": "uint256",
          "name": "",
          "type": "uint256"
        }
      ],
      "stateMutability": "nonpayable",
      "type": "function"
    },
    {
      "inputs": [],
      "name": "admin",
      "outputs": [
        {
          "internalType": "address payable",
          "name": "",
          "type": "address"
        }
      ],
      "stateMutability": "view",
      "type": "function"
    },
    {
      "inputs": [
        {
          "internalType": "address",
          "name": "owner",
          "type": "address"
        },
        {
          "internalType": "address",
          "name": "spender",
          "type": "address"
        }
      ],
      "name": "allowance",
      "outputs": [
        {
          "internalType": "uint256",
          "name": "",
          "type": "uint256"
        }
      ],
      "stateMutability": "view",
      "type": "function"
    },
    {
      "inputs": [
        {
          "internalType": "address",
          "name": "spender",
          "type": "address"
        },
        {
          "internalType": "uint256",
          "name": "amount",
          "type": "uint256"
        }
      ],
      "name": "approve",
      "outputs": [
        {
          "internalType": "bool",
          "name": "",
          "type": "bool"
        }
      ],
      "stateMutability": "nonpayable",
      "type": "function"
    },
    {
      "inputs": [
        {
          "internalType": "address",
          "name": "owner",
          "type": "address"
        }
      ],
      "name": "balanceOf",
      "outputs": [
        {
          "internalType": "uint256",
          "name": "",
          "type": "uint256"
        }
      ],
      "stateMutability": "view",
      "type": "function"
    },
    {
      "inputs": [
        {
          "internalType": "address",
          "name": "owner",
          "type": "address"
        }
      ],
      "name": "balanceOfUnderlying",
      "outputs": [
        {
          "internalType": "uint256",
          "name": "",
          "type": "uint256"
        }
      ],
      "stateMutability": "nonpayable",
      "type": "function"
    },
    {
      "inputs": [
        {
          "internalType": "address",
          "name": "account",
          "type": "address"
        }
      ],
      "name": "borrowBalanceCurrent",
      "outputs": [
        {
          "internalType": "uint256",
          "name": "",
          "type": "uint256"
        }
      ],
      "stateMutability": "nonpayable",
      "type": "function"
    },
    {
      "inputs": [
        {
          "internalType": "address",
          "name": "account",
          "type": "address"
        }
      ],
      "name": "borrowBalanceStored",
      "outputs": [
        {
          "internalType": "uint256",
          "name": "",
          "type": "uint256"
        }
      ],
      "stateMutability": "view",
      "type": "function"
    },
    {
      "inputs": [],
      "name": "borrowIndex",
      "outputs": [
        {
          "internalType": "uint256",
          "name": "",
          "type": "uint256"
        }
      ],
      "stateMutability": "view",
      "type": "function"
    },
    {
      "inputs": [],
      "name": "borrowRatePerBlock",
      "outputs": [
        {
          "internalType": "uint256",
          "name": "",
          "type": "uint256"
        }
      ],
      "stateMutability": "view",
      "type": "function"
    },
    {
      "inputs": [],
      "name": "comptroller",
      "outputs": [
        {
          "internalType": "contract ComptrollerInterface",
          "name": "",
          "type": "address"
        }
      ],
      "stateMutability": "view",
      "type": "function"
    },
    {
      "inputs": [],
      "name": "decimals",
      "outputs": [
        {
          "internalType": "uint8",
          "name": "",
          "type": "uint8"
        }
      ],
      "stateMutability": "view",
      "type": "function"
    },
    {
      "inputs": [],
      "name": "exchangeRateCurrent",
      "outputs": [
        {
          "internalType": "uint256",
          "name": "",
          "type": "uint256"
        }
      ],
      "stateMutability": "nonpayable",
      "type": "function"
    },
    {
      "inputs": [],
      "name": "exchangeRateStored",
      "outputs": [
        {
          "internalType": "uint256",
          "name": "",
          "type": "uint256"
        }
      ],
      "stateMutability": "view",
      "type": "function"
    },
    {
      "inputs": [
        {
          "internalType": "address",
          "name": "account",
          "type": "address"
        }
      ],
      "name": "getAccountSnapshot",
      "outputs": [
        {
          "internalType": "uint256",
          "name": "",
          "type": "uint256"
        },
        {
          "internalType": "uint256",
          "name": "",
          "type": "uint256"
        },
        {
          "internalType": "uint256",
          "name": "",
          "type": "uint256"
        },
        {
          "internalType": "uint256",
          "name": "",
          "type": "uint256"
        }
      ],
      "stateMutability": "view",
      "type": "function"
    },
    {
      "inputs": [],
      "name": "getCash",
      "outputs": [
        {
          "internalType": "uint256",
          "name": "",
          "type": "uint256"
        }
      ],
      "stateMutability": "view",
      "type": "function"
    },
    {
      "inputs": [
        {
          "internalType": "contract ComptrollerInterface",
          "name": "comptroller_",
          "type": "address"
        },
        {
          "internalType": "contract InterestRateModel",
          "name": "interestRateModel_",
          "type": "address"
        },
        {
          "internalType": "uint256",
          "name": "initialExchangeRateMantissa_",
          "type": "uint256"
        },
        {
          "internalType": "string",
          "name": "name_",
          "type": "string"
        },
        {
          "internalType": "string",
          "name": "symbol_",
          "type": "string"
        },
        {
          "internalType": "uint8",
          "name": "decimals_",
          "type": "uint8"
        }
      ],
      "name": "initialize",
      "outputs": [],
      "stateMutability": "nonpayable",
      "type": "function"
    },
    {
      "inputs": [],
      "name": "interestRateModel",
      "outputs": [
        {
          "internalType": "contract InterestRateModel",
          "name": "",
          "type": "address"
        }
      ],
      "stateMutability": "view",
      "type": "function"
    },
    {
      "inputs": [],
      "name": "isCToken",
      "outputs": [
        {
          "internalType": "bool",
          "name": "",
          "type": "bool"
        }
      ],
      "stateMutability": "view",
      "type": "function"
    },
    {
      "inputs": [],
      "name": "name",
      "outputs": [
        {
          "internalType": "string",
          "name": "",
          "type": "string"
        }
      ],
      "stateMutability": "view",
      "type": "function"
    },
    {
      "inputs": [],
      "name": "pendingAdmin",
      "outputs": [
        {
          "internalType": "address payable",
          "name": "",
          "type": "address"
        }
      ],
      "stateMutability": "view",
      "type": "function"
    },
    {
      "inputs": [],
      "name": "protocolSeizeShareMantissa",
      "outputs": [
        {
          "internalType": "uint256",
          "name": "",
          "type": "uint256"
        }
      ],
      "stateMutability": "view",
      "type": "function"
    },
    {
      "inputs": [],
      "name": "reserveFactorMantissa",
      "outputs": [
        {
          "internalType": "uint256",
          "name": "",
          "type": "uint256"
        }
      ],
      "stateMutability": "view",
      "type": "function"
    },
    {
      "inputs": [
        {
          "internalType": "address",
          "name": "liquidator",
          "type": "address"
        },
        {
          "internalType": "address",
          "name": "borrower",
          "type": "address"
        },
        {
          "internalType": "uint256",
          "name": "seizeTokens",
          "type": "uint256"
        }
      ],
      "name": "seize",
      "outputs": [
        {
          "internalType": "uint256",
          "name": "",
          "type": "uint256"
        }
      ],
      "stateMutability": "nonpayable",
      "type": "function"
    },
    {
      "inputs": [],
      "name": "supplyRatePerBlock",
      "outputs": [
        {
          "internalType": "uint256",
          "name": "",
          "type": "uint256"
        }
      ],
      "stateMutability": "view",
      "type": "function"
    },
    {
      "inputs": [],
      "name": "symbol",
      "outputs": [
        {
          "internalType": "string",
          "name": "",
          "type": "string"
        }
      ],
      "stateMutability": "view",
      "type": "function"
    },
    {
      "inputs": [],
      "name": "totalBorrows",
      "outputs": [
        {
          "internalType": "uint256",
          "name": "",
          "type": "uint256"
        }
      ],
      "stateMutability": "view",
      "type": "function"
    },
    {
      "inputs": [],
      "name": "totalBorrowsCurrent",
      "outputs": [
        {
          "internalType": "uint256",
          "name": "",
          "type": "uint256"
        }
      ],
      "stateMutability": "nonpayable",
      "type": "function"
    },
    {
      "inputs": [],
      "name": "totalReserves",
      "outputs": [
        {
          "internalType": "uint256",
          "name": "",
          "type": "uint256"
        }
      ],
      "stateMutability": "view",
      "type": "function"
    },
    {
      "inputs": [],
      "name": "totalSupply",
      "outputs": [
        {
          "internalType": "uint256",
          "name": "",
          "type": "uint256"
        }
      ],
      "stateMutability": "view",
      "type": "function"
    },
    {
      "inputs": [
        {
          "internalType": "address",
          "name": "dst",
          "type": "address"
        },
        {
          "internalType": "uint256",
          "name": "amount",
          "type": "uint256"
        }
      ],
      "name": "transfer",
      "outputs": [
        {
          "internalType": "bool",
          "name": "",
          "type": "bool"
        }
      ],
      "stateMutability": "nonpayable",
      "type": "function"
    },
    {
      "inputs": [
        {
          "internalType": "address",
          "name": "src",
          "type": "address"
        },
        {
          "internalType": "address",
          "name": "dst",
          "type": "address"
        },
        {
          "internalType": "uint256",
          "name": "amount",
          "type": "uint256"
        }
      ],
      "name": "transferFrom",
      "outputs": [
        {
          "internalType": "bool",
          "name": "",
          "type": "bool"
        }
      ],
      "stateMutability": "nonpayable",
      "type": "function"
    },
    {
      "stateMutability": "payable",
      "type": "receive"
    },
    {
      "inputs": [],
      "name": "mint",
      "outputs": [],
      "stateMutability": "payable",
      "type": "function"
    },
    {
      "inputs": [
        {
          "internalType": "uint256",
          "name": "redeemTokens",
          "type": "uint256"
        }
      ],
      "name": "redeem",
      "outputs": [
        {
          "internalType": "uint256",
          "name": "",
          "type": "uint256"
        }
      ],
      "stateMutability": "nonpayable",
      "type": "function"
    },
    {
      "inputs": [
        {
          "internalType": "uint256",
          "name": "redeemAmount",
          "type": "uint256"
        }
      ],
      "name": "redeemUnderlying",
      "outputs": [
        {
          "internalType": "uint256",
          "name": "",
          "type": "uint256"
        }
      ],
      "stateMutability": "nonpayable",
      "type": "function"
    },
    {
      "inputs": [
        {
          "internalType": "uint256",
          "name": "borrowAmount",
          "type": "uint256"
        }
      ],
      "name": "borrow",
      "outputs": [
        {
          "internalType": "uint256",
          "name": "",
          "type": "uint256"
        }
      ],
      "stateMutability": "nonpayable",
      "type": "function"
    },
    {
      "inputs": [],
      "name": "repayBorrow",
      "outputs": [],
      "stateMutability": "payable",
      "type": "function"
    },
    {
      "inputs": [
        {
          "internalType": "address",
          "name": "borrower",
          "type": "address"
        }
      ],
      "name": "repayBorrowBehalf",
      "outputs": [],
      "stateMutability": "payable",
      "type": "function"
    },
    {
      "inputs": [
        {
          "internalType": "address",
          "name": "borrower",
          "type": "address"
        },
        {
          "internalType": "contract CToken",
          "name": "cTokenCollateral",
          "type": "address"
        }
      ],
      "name": "liquidateBorrow",
      "outputs": [],
      "stateMutability": "payable",
      "type": "function"
    },
    {
      "inputs": [],
      "name": "_addReserves",
      "outputs": [
        {
          "internalType": "uint256",
          "name": "",
          "type": "uint256"
        }
      ],
      "stateMutability": "payable",
      "type": "function"
    }
  ],
  "bytecode": "0x60806040523480156200001157600080fd5b5060405162005a6f38038062005a6f8339810160408190526200003491620007f0565b60038054610100600160a81b03191633610100021790556200005b8787878787876200008e565b600380546001600160a01b0390921661010002610100600160a81b0319909216919091179055506200093d945050505050565b60035461010090046001600160a01b03163314620000ff5760405162461bcd60e51b8152602060048201526024808201527f6f6e6c792061646d696e206d617920696e697469616c697a6520746865206d616044820152631c9ad95d60e21b60648201526084015b60405180910390fd5b600954158015620001105750600a54155b6200016a5760405162461bcd60e51b815260206004820152602360248201527f6d61726b6574206d6179206f6e6c7920626520696e697469616c697a6564206f6044820152626e636560e81b6064820152608401620000f6565b600784905583620001d75760405162461bcd60e51b815260206004820152603060248201527f696e697469616c2065786368616e67652072617465206d75737420626520677260448201526f32b0ba32b9103a3430b7103d32b9379760811b6064820152608401620000f6565b6000620001e48762000300565b90508015620002365760405162461bcd60e51b815260206004820152601a60248201527f73657474696e6720636f6d7074726f6c6c6572206661696c65640000000000006044820152606401620000f6565b43600955670de0b6b3a7640000600a55620002518662000464565b90508015620002ae5760405162461bcd60e51b815260206004820152602260248201527f73657474696e6720696e7465726573742072617465206d6f64656c206661696c604482015261195960f21b6064820152608401620000f6565b8351620002c39060019060208701906200065d565b508251620002d99060029060208601906200065d565b50506003805460ff90921660ff199283161790556000805490911660011790555050505050565b60035460009061010090046001600160a01b031633146200032f57620003296001603f620005db565b92915050565b60055460408051623f1ee960e11b815290516001600160a01b0392831692851691627e3dd2916004808301926020929190829003018186803b1580156200037557600080fd5b505afa1580156200038a573d6000803e3d6000fd5b505050506040513d601f19601f82011682018060405250810190620003b09190620007cc565b620003fe5760405162461bcd60e51b815260206004820152601c60248201527f6d61726b6572206d6574686f642072657475726e65642066616c7365000000006044820152606401620000f6565b600580546001600160a01b0319166001600160a01b0385811691821790925560408051928416835260208301919091527f7ac369dbd14fa5ea3f473ed67cc9d598964a77501540ba6751eb0b3decf5870d91015b60405180910390a160005b9392505050565b600354600090819061010090046001600160a01b031633146200048f576200045d60016042620005db565b4360095414620004a7576200045d600a6041620005db565b600660009054906101000a90046001600160a01b03169050826001600160a01b0316632191f92a6040518163ffffffff1660e01b815260040160206040518083038186803b158015620004f957600080fd5b505afa1580156200050e573d6000803e3d6000fd5b505050506040513d601f19601f82011682018060405250810190620005349190620007cc565b620005825760405162461bcd60e51b815260206004820152601c60248201527f6d61726b6572206d6574686f642072657475726e65642066616c7365000000006044820152606401620000f6565b600680546001600160a01b0319166001600160a01b0385811691821790925560408051928416835260208301919091527fedffc32e068c7c95dfd4bdfd5c4d939a084d6b11c4199eac8436ed234d72f926910162000452565b60007f45b96fe442630264581b197e84bbada861235052c5a1aadfff9ea4e40a969aa0836010811115620006135762000613620008f8565b836050811115620006285762000628620008f8565b60408051928352602083019190915260009082015260600160405180910390a18260108111156200045d576200045d620008f8565b8280546200066b90620008bb565b90600052602060002090601f0160209004810192826200068f5760008555620006da565b82601f10620006aa57805160ff1916838001178555620006da565b82800160010185558215620006da579182015b82811115620006da578251825591602001919060010190620006bd565b50620006e8929150620006ec565b5090565b5b80821115620006e85760008155600101620006ed565b8051620007108162000924565b919050565b600082601f8301126200072757600080fd5b81516001600160401b03808211156200074457620007446200090e565b604051601f8301601f19908116603f011681019082821181831017156200076f576200076f6200090e565b816040528381526020925086838588010111156200078c57600080fd5b600091505b83821015620007b0578582018301518183018401529082019062000791565b83821115620007c25760008385830101525b9695505050505050565b600060208284031215620007df57600080fd5b815180151581146200045d57600080fd5b600080600080600080600060e0888a0312156200080c57600080fd5b8751620008198162000924565b60208901519097506200082c8162000924565b604089015160608a015191975095506001600160401b03808211156200085157600080fd5b6200085f8b838c0162000715565b955060808a01519150808211156200087657600080fd5b50620008858a828b0162000715565b93505060a088015160ff811681146200089d57600080fd5b9150620008ad60c0890162000703565b905092959891949750929550565b600181811c90821680620008d057607f821691505b60208210811415620008f257634e487b7160e01b600052602260045260246000fd5b50919050565b634e487b7160e01b600052602160045260246000fd5b634e487b7160e01b600052604160045260246000fd5b6001600160a01b03811681146200093a57600080fd5b50565b615122806200094d6000396000f3fe6080604052600436106102975760003560e01c806395dd91931161015a578063c5ebeaec116100c1578063f3fdb15a1161007a578063f3fdb15a146107f1578063f851a44014610811578063f8f9da2814610836578063fca7820b1461084b578063fcb641471461086b578063fe9c44ae146108735761029e565b8063c5ebeaec14610723578063db006a7514610743578063dd62ed3e14610763578063e5974619146107a9578063e9c714f2146107bc578063f2b3abbd146107d15761029e565b8063aae40a2a11610113578063aae40a2a14610666578063ae9d70b014610679578063b2a02ff11461068e578063b71d1a0c146106ae578063bd6d894d146106ce578063c37f68e2146106e35761029e565b806395dd9193146105ae57806399d8c1b4146105ce578063a19d1460146105ee578063a6afed951461061b578063a9059cbb14610630578063aa5af0fd146106505761029e565b80634576b5db116101fe5780636c540baf116101b75780636c540baf1461050257806370a082311461051857806373acee981461054e578063852a12e3146105635780638f840ddd1461058357806395d89b41146105995761029e565b80634576b5db1461046957806347bd3718146104895780634e4d9fea1461049f5780635fe3b567146104a7578063601a0bf1146104c75780636752e702146104e75761029e565b8063182df0f511610250578063182df0f51461039b57806323b872dd146103b057806326782247146103d0578063313ce567146104085780633af9e669146104345780633b1d21a2146104545761029e565b806306fdde03146102dc578063095ea7b3146103075780631249c58b14610337578063173b99041461034157806317bfdfbc1461036557806318160ddd146103855761029e565b3661029e57005b60006102a934610888565b5090506102d9816040518060400160405280600b81526020016a1b5a5b9d0819985a5b195960aa1b81525061091c565b50005b3480156102e857600080fd5b506102f1610b45565b6040516102fe9190614f0a565b60405180910390f35b34801561031357600080fd5b50610327610322366004614dba565b610bd3565b60405190151581526020016102fe565b61033f610c43565b005b34801561034d57600080fd5b5061035760085481565b6040519081526020016102fe565b34801561037157600080fd5b50610357610380366004614d23565b610c81565b34801561039157600080fd5b50610357600d5481565b3480156103a757600080fd5b50610357610d1a565b3480156103bc57600080fd5b506103276103cb366004614d79565b610dab565b3480156103dc57600080fd5b506004546103f0906001600160a01b031681565b6040516001600160a01b0390911681526020016102fe565b34801561041457600080fd5b506003546104229060ff1681565b60405160ff90911681526020016102fe565b34801561044057600080fd5b5061035761044f366004614d23565b610dfb565b34801561046057600080fd5b50610357610eab565b34801561047557600080fd5b50610357610484366004614d23565b610eba565b34801561049557600080fd5b50610357600b5481565b61033f61100f565b3480156104b357600080fd5b506005546103f0906001600160a01b031681565b3480156104d357600080fd5b506103576104e2366004614eb4565b611051565b3480156104f357600080fd5b50610357666379da05b6000081565b34801561050e57600080fd5b5061035760095481565b34801561052457600080fd5b50610357610533366004614d23565b6001600160a01b03166000908152600e602052604090205490565b34801561055a57600080fd5b506103576110d0565b34801561056f57600080fd5b5061035761057e366004614eb4565b61115f565b34801561058f57600080fd5b50610357600c5481565b3480156105a557600080fd5b506102f161116a565b3480156105ba57600080fd5b506103576105c9366004614d23565b611177565b3480156105da57600080fd5b5061033f6105e9366004614e08565b611211565b3480156105fa57600080fd5b50610357610609366004614d23565b600e6020526000908152604090205481565b34801561062757600080fd5b5061035761146c565b34801561063c57600080fd5b5061032761064b366004614dba565b6117ed565b34801561065c57600080fd5b50610357600a5481565b61033f610674366004614d40565b61183c565b34801561068557600080fd5b50610357611890565b34801561069a57600080fd5b506103576106a9366004614d79565b611937565b3480156106ba57600080fd5b506103576106c9366004614d23565b611986565b3480156106da57600080fd5b50610357611a06565b3480156106ef57600080fd5b506107036106fe366004614d23565b611a9b565b6040805194855260208501939093529183015260608201526080016102fe565b34801561072f57600080fd5b5061035761073e366004614eb4565b611b3c565b34801561074f57600080fd5b5061035761075e366004614eb4565b611b47565b34801561076f57600080fd5b5061035761077e366004614d40565b6001600160a01b039182166000908152600f6020908152604080832093909416825291909152205490565b61033f6107b7366004614d23565b611b52565b3480156107c857600080fd5b50610357611ba4565b3480156107dd57600080fd5b506103576107ec366004614d23565b611ca9565b3480156107fd57600080fd5b506006546103f0906001600160a01b031681565b34801561081d57600080fd5b506003546103f09061010090046001600160a01b031681565b34801561084257600080fd5b50610357611ce1565b34801561085757600080fd5b50610357610866366004614eb4565b611d34565b610357611d96565b34801561087f57600080fd5b50610327600181565b60008054819060ff166108b65760405162461bcd60e51b81526004016108ad90614f5f565b60405180910390fd5b6000805460ff191681556108c861146c565b905080156108f8576108ec8160108111156108e5576108e5615075565b601e611da1565b60009250925050610908565b6109023385611e1a565b92509250505b6000805460ff191660011790559092909150565b81610925575050565b6000815160056109359190614f83565b67ffffffffffffffff81111561094d5761094d6150a1565b6040519080825280601f01601f191660200182016040528015610977576020820181803683370190505b50905060005b82518110156109de578281815181106109985761099861508b565b602001015160f81c60f81b8282815181106109b5576109b561508b565b60200101906001600160f81b031916908160001a905350806109d68161501a565b91505061097d565b600160fd1b826109ef836000614f83565b815181106109ff576109ff61508b565b60200101906001600160f81b031916908160001a905350600560fb1b82610a27836001614f83565b81518110610a3757610a3761508b565b60200101906001600160f81b031916908160001a905350610a59600a85614f9b565b610a64906030614f83565b60f81b82610a73836002614f83565b81518110610a8357610a8361508b565b60200101906001600160f81b031916908160001a905350610aa5600a85615035565b610ab0906030614f83565b60f81b82610abf836003614f83565b81518110610acf57610acf61508b565b60200101906001600160f81b031916908160001a905350602960f81b82610af7836004614f83565b81518110610b0757610b0761508b565b60200101906001600160f81b031916908160001a905350818415610b3e5760405162461bcd60e51b81526004016108ad9190614f0a565b5050505050565b60018054610b5290614fe5565b80601f0160208091040260200160405190810160405280929190818152602001828054610b7e90614fe5565b8015610bcb5780601f10610ba057610100808354040283529160200191610bcb565b820191906000526020600020905b815481529060010190602001808311610bae57829003601f168201915b505050505081565b336000818152600f602090815260408083206001600160a01b03871680855292528083208590555191929182907f8c5be1e5ebec7d5bd14f71427d1e84f3dd0314c0f7b2291e5b200ac8c7c3b92590610c2f9087815260200190565b60405180910390a360019150505b92915050565b6000610c4e34610888565b509050610c7e816040518060400160405280600b81526020016a1b5a5b9d0819985a5b195960aa1b81525061091c565b50565b6000805460ff16610ca45760405162461bcd60e51b81526004016108ad90614f5f565b6000805460ff19168155610cb661146c565b14610cfc5760405162461bcd60e51b81526020600482015260166024820152751858d8dc9d59481a5b9d195c995cdd0819985a5b195960521b60448201526064016108ad565b610d0582611177565b90505b6000805460ff19166001179055919050565b6000806000610d276122be565b90925090506000826003811115610d4057610d40615075565b14610c3d5760405162461bcd60e51b815260206004820152603560248201527f65786368616e67655261746553746f7265643a2065786368616e67655261746560448201527414dd1bdc9959125b9d195c9b985b0819985a5b1959605a1b60648201526084016108ad565b6000805460ff16610dce5760405162461bcd60e51b81526004016108ad90614f5f565b6000805460ff19168155610de43386868661237a565b1490506000805460ff191660011790559392505050565b6000806040518060200160405280610e11611a06565b90526001600160a01b0384166000908152600e6020526040812054919250908190610e3d908490612627565b90925090506000826003811115610e5657610e56615075565b14610ea35760405162461bcd60e51b815260206004820152601f60248201527f62616c616e636520636f756c64206e6f742062652063616c63756c617465640060448201526064016108ad565b949350505050565b6000610eb5612679565b905090565b60035460009061010090046001600160a01b03163314610ee057610c3d6001603f611da1565b60055460408051623f1ee960e11b815290516001600160a01b0392831692851691627e3dd2916004808301926020929190829003018186803b158015610f2557600080fd5b505afa158015610f39573d6000803e3d6000fd5b505050506040513d601f19601f82011682018060405250810190610f5d9190614de6565b610fa95760405162461bcd60e51b815260206004820152601c60248201527f6d61726b6572206d6574686f642072657475726e65642066616c73650000000060448201526064016108ad565b600580546001600160a01b0319166001600160a01b0385811691821790925560408051928416835260208301919091527f7ac369dbd14fa5ea3f473ed67cc9d598964a77501540ba6751eb0b3decf5870d91015b60405180910390a160005b9392505050565b600061101a346126ab565b509050610c7e81604051806040016040528060128152602001711c995c185e509bdc9c9bddc819985a5b195960721b81525061091c565b6000805460ff166110745760405162461bcd60e51b81526004016108ad90614f5f565b6000805460ff1916815561108661146c565b905080156110b2576110aa8160108111156110a3576110a3615075565b6030611da1565b915050610d08565b6110bb83612711565b9150506000805460ff19166001179055919050565b6000805460ff166110f35760405162461bcd60e51b81526004016108ad90614f5f565b6000805460ff1916815561110561146c565b1461114b5760405162461bcd60e51b81526020600482015260166024820152751858d8dc9d59481a5b9d195c995cdd0819985a5b195960521b60448201526064016108ad565b50600b546000805460ff1916600117905590565b6000610c3d8261285b565b60028054610b5290614fe5565b6000806000611185846128c0565b9092509050600082600381111561119e5761119e615075565b146110085760405162461bcd60e51b815260206004820152603760248201527f626f72726f7742616c616e636553746f7265643a20626f72726f7742616c616e60448201527f636553746f726564496e7465726e616c206661696c656400000000000000000060648201526084016108ad565b60035461010090046001600160a01b0316331461127c5760405162461bcd60e51b8152602060048201526024808201527f6f6e6c792061646d696e206d617920696e697469616c697a6520746865206d616044820152631c9ad95d60e21b60648201526084016108ad565b60095415801561128c5750600a54155b6112e45760405162461bcd60e51b815260206004820152602360248201527f6d61726b6574206d6179206f6e6c7920626520696e697469616c697a6564206f6044820152626e636560e81b60648201526084016108ad565b60078490558361134f5760405162461bcd60e51b815260206004820152603060248201527f696e697469616c2065786368616e67652072617465206d75737420626520677260448201526f32b0ba32b9103a3430b7103d32b9379760811b60648201526084016108ad565b600061135a87610eba565b905080156113aa5760405162461bcd60e51b815260206004820152601a60248201527f73657474696e6720636f6d7074726f6c6c6572206661696c656400000000000060448201526064016108ad565b43600955670de0b6b3a7640000600a556113c386612979565b9050801561141e5760405162461bcd60e51b815260206004820152602260248201527f73657474696e6720696e7465726573742072617465206d6f64656c206661696c604482015261195960f21b60648201526084016108ad565b8351611431906001906020870190614bfd565b508251611445906002906020860190614bfd565b50506003805460ff90921660ff199283161790556000805490911660011790555050505050565b6009546000904390808214156114865760005b9250505090565b6000611490612679565b600b54600c54600a546006546040516315f2405360e01b81526004810186905260248101859052604481018490529495509293919290916000916001600160a01b0316906315f240539060640160206040518083038186803b1580156114f557600080fd5b505afa158015611509573d6000803e3d6000fd5b505050506040513d601f19601f8201168201806040525081019061152d9190614ecd565b905065048c273950008111156115855760405162461bcd60e51b815260206004820152601c60248201527f626f72726f772072617465206973206162737572646c7920686967680000000060448201526064016108ad565b6000806115928989612ae3565b909250905060008260038111156115ab576115ab615075565b146115f85760405162461bcd60e51b815260206004820152601f60248201527f636f756c64206e6f742063616c63756c61746520626c6f636b2064656c74610060448201526064016108ad565b60408051602081019091526000815260008060008061162560405180602001604052808a81525087612b0e565b9097509450600087600381111561163e5761163e615075565b14611674576116616009600689600381111561165c5761165c615075565b612b8a565b9e50505050505050505050505050505090565b61167e858c612627565b9097509350600087600381111561169757611697615075565b146116b5576116616009600189600381111561165c5761165c615075565b6116bf848c612c02565b909750925060008760038111156116d8576116d8615075565b146116f6576116616009600489600381111561165c5761165c615075565b6117116040518060200160405280600854815250858c612c32565b9097509150600087600381111561172a5761172a615075565b14611748576116616009600589600381111561165c5761165c615075565b611753858a8b612c32565b9097509050600087600381111561176c5761176c615075565b1461178a576116616009600389600381111561165c5761165c615075565b60098e9055600a819055600b839055600c829055604080518d815260208101869052908101829052606081018490527f4dec04e750ca11537cabcd8a9eab06494de08da3735bc8871cd41250e190bc049060800160405180910390a16000611661565b6000805460ff166118105760405162461bcd60e51b81526004016108ad90614f5f565b6000805460ff191681556118263333868661237a565b1490506000805460ff1916600117905592915050565b6000611849833484612c8d565b50905061188b816040518060400160405280601681526020017f6c6971756964617465426f72726f77206661696c65640000000000000000000081525061091c565b505050565b6006546000906001600160a01b031663b81688166118ac612679565b600b54600c546008546040516001600160e01b031960e087901b16815260048101949094526024840192909252604483015260648201526084015b60206040518083038186803b1580156118ff57600080fd5b505afa158015611913573d6000803e3d6000fd5b505050506040513d601f19601f82011682018060405250810190610eb59190614ecd565b6000805460ff1661195a5760405162461bcd60e51b81526004016108ad90614f5f565b6000805460ff1916905561197033858585612db4565b90506000805460ff191660011790559392505050565b60035460009061010090046001600160a01b031633146119ac57610c3d60016045611da1565b600480546001600160a01b038481166001600160a01b031983168117909355604080519190921680825260208201939093527fca4f2f25d0898edd99413412fb94012f9e54ec8142f9b093e7720646a95b16a99101610ffd565b6000805460ff16611a295760405162461bcd60e51b81526004016108ad90614f5f565b6000805460ff19168155611a3b61146c565b14611a815760405162461bcd60e51b81526020600482015260166024820152751858d8dc9d59481a5b9d195c995cdd0819985a5b195960521b60448201526064016108ad565b611a89610d1a565b90506000805460ff1916600117905590565b6001600160a01b0381166000908152600e6020526040812054819081908190818080611ac6896128c0565b935090506000816003811115611ade57611ade615075565b14611afc5760095b6000806000975097509750975050505050611b35565b611b046122be565b925090506000816003811115611b1c57611b1c615075565b14611b28576009611ae6565b5060009650919450925090505b9193509193565b6000610c3d82613223565b6000610c3d82613286565b6000611b5e82346132e4565b509050611ba0816040518060400160405280601881526020017f7265706179426f72726f77426568616c66206661696c6564000000000000000081525061091c565b5050565b6004546000906001600160a01b031633141580611bbf575033155b15611bd057610eb560016000611da1565b60038054600480546001600160a01b0380821661010081810274ffffffffffffffffffffffffffffffffffffffff0019871617968790556001600160a01b031990931690935560408051948390048216808652929095041660208401529290917ff9ffabca9c8276e99321725bcb43fb076a6c66a54b7f21c4e8146d8519b417dc910160405180910390a1600454604080516001600160a01b03808516825290921660208301527fca4f2f25d0898edd99413412fb94012f9e54ec8142f9b093e7720646a95b16a9910160405180910390a1600061147f565b600080611cb461146c565b90508015611cd857611008816010811115611cd157611cd1615075565b6040611da1565b61100883612979565b6006546000906001600160a01b03166315f24053611cfd612679565b600b54600c546040516001600160e01b031960e086901b1681526004810193909352602483019190915260448201526064016118e7565b6000805460ff16611d575760405162461bcd60e51b81526004016108ad90614f5f565b6000805460ff19168155611d6961146c565b90508015611d8d576110aa816010811115611d8657611d86615075565b6046611da1565b6110bb83613372565b6000610eb534613407565b60007f45b96fe442630264581b197e84bbada861235052c5a1aadfff9ea4e40a969aa0836010811115611dd657611dd6615075565b836050811115611de857611de8615075565b60408051928352602083019190915260009082015260600160405180910390a182601081111561100857611008615075565b600554604051634ef4c3e160e01b81523060048201526001600160a01b038481166024830152604482018490526000928392839290911690634ef4c3e190606401602060405180830381600087803b158015611e7557600080fd5b505af1158015611e89573d6000803e3d6000fd5b505050506040513d601f19601f82011682018060405250810190611ead9190614ecd565b90508015611ece57611ec26003601f83612b8a565b600092509250506122b7565b4360095414611ee357611ec2600a6022611da1565b611f246040805160e0810190915280600081526020016000815260200160008152602001600081526020016000815260200160008152602001600081525090565b611f2c6122be565b6040830181905260208301826003811115611f4957611f49615075565b6003811115611f5a57611f5a615075565b9052506000905081602001516003811115611f7757611f77615075565b14611fa657611f99600960218360200151600381111561165c5761165c615075565b60009350935050506122b7565b611fb0868661347f565b60c0820181905260408051602081018252908301518152611fd19190613511565b6060830181905260208301826003811115611fee57611fee615075565b6003811115611fff57611fff615075565b905250600090508160200151600381111561201c5761201c615075565b146120695760405162461bcd60e51b815260206004820181905260248201527f4d494e545f45584348414e47455f43414c43554c4154494f4e5f4641494c454460448201526064016108ad565b612079600d548260600151612c02565b608083018190526020830182600381111561209657612096615075565b60038111156120a7576120a7615075565b90525060009050816020015160038111156120c4576120c4615075565b146121225760405162461bcd60e51b815260206004820152602860248201527f4d494e545f4e45575f544f54414c5f535550504c595f43414c43554c4154494f6044820152671397d1905253115160c21b60648201526084016108ad565b6001600160a01b0386166000908152600e6020526040902054606082015161214a9190612c02565b60a083018190526020830182600381111561216757612167615075565b600381111561217857612178615075565b905250600090508160200151600381111561219557612195615075565b146121f65760405162461bcd60e51b815260206004820152602b60248201527f4d494e545f4e45575f4143434f554e545f42414c414e43455f43414c43554c4160448201526a151253d397d1905253115160aa1b60648201526084016108ad565b6080810151600d5560a08101516001600160a01b0387166000818152600e60209081526040918290209390935560c0840151606080860151835194855294840191909152908201929092527f4c209b5fc8ad50758f13e2e1088ba56a560dff690a1c6fef26394f4c03821c4f910160405180910390a1856001600160a01b0316306001600160a01b03166000805160206150cd83398151915283606001516040516122a391815260200190565b60405180910390a360c00151600093509150505b9250929050565b600d546000908190806122d8575050600754600092909150565b60006122e2612679565b905060006122fc6040518060200160405280600081525090565b600061230d84600b54600c54613521565b93509050600081600381111561232557612325615075565b14612337579660009650945050505050565b6123418386613565565b92509050600081600381111561235957612359615075565b1461236b579660009650945050505050565b50516000969095509350505050565b6005546040516317b9b84b60e31b81523060048201526001600160a01b038581166024830152848116604483015260648201849052600092839291169063bdcdc25890608401602060405180830381600087803b1580156123da57600080fd5b505af11580156123ee573d6000803e3d6000fd5b505050506040513d601f19601f820116820180604052508101906124129190614ecd565b9050801561242f576124276003604a83612b8a565b915050610ea3565b836001600160a01b0316856001600160a01b03161415612455576124276002604b611da1565b6000856001600160a01b0316876001600160a01b0316141561247a57506000196124a2565b506001600160a01b038086166000908152600f60209081526040808320938a16835292905220545b6000806000806124b28589612ae3565b909450925060008460038111156124cb576124cb615075565b146124e9576124dc6009604b611da1565b9650505050505050610ea3565b6001600160a01b038a166000908152600e602052604090205461250c9089612ae3565b9094509150600084600381111561252557612525615075565b14612536576124dc6009604c611da1565b6001600160a01b0389166000908152600e60205260409020546125599089612c02565b9094509050600084600381111561257257612572615075565b14612583576124dc6009604d611da1565b6001600160a01b03808b166000908152600e6020526040808220859055918b1681522081905560001985146125db576001600160a01b03808b166000908152600f60209081526040808320938f168352929052208390555b886001600160a01b03168a6001600160a01b03166000805160206150cd8339815191528a60405161260e91815260200190565b60405180910390a35060009a9950505050505050505050565b6000806000806126378686612b0e565b9092509050600082600381111561265057612650615075565b1461266157509150600090506122b7565b600061266c82613630565b9350935050509250929050565b60008060006126884734612ae3565b909250905060008260038111156126a1576126a1615075565b14610c3d57600080fd5b60008054819060ff166126d05760405162461bcd60e51b81526004016108ad90614f5f565b6000805460ff191681556126e261146c565b90508015612706576108ec8160108111156126ff576126ff615075565b6036611da1565b610902333386613648565b600354600090819061010090046001600160a01b031633146127395761100860016031611da1565b436009541461274e57611008600a6033611da1565b82612757612679565b101561276957611008600e6032611da1565b600c5483111561277f5761100860026034611da1565b82600c5461278d9190614fce565b9050600c548111156127ed5760405162461bcd60e51b8152602060048201526024808201527f72656475636520726573657276657320756e657870656374656420756e646572604482015263666c6f7760e01b60648201526084016108ad565b600c81905560035461280d9061010090046001600160a01b031684613a6f565b600354604080516101009092046001600160a01b031682526020820185905281018290527f3bad0c59cf2f06e7314077049f48a93578cd16f5ef92329f1dab1420a99c177e90606001610ffd565b6000805460ff1661287e5760405162461bcd60e51b81526004016108ad90614f5f565b6000805460ff1916815561289061146c565b905080156128b4576110aa8160108111156128ad576128ad615075565b6027611da1565b6110bb33600085613aa5565b6001600160a01b0381166000908152601060205260408120805482918291829182916128f55750600096879650945050505050565b6129058160000154600a54614045565b9094509250600084600381111561291e5761291e615075565b1461293157509195600095509350505050565b61293f83826001015461408f565b9094509150600084600381111561295857612958615075565b1461296b57509195600095509350505050565b506000969095509350505050565b600354600090819061010090046001600160a01b031633146129a15761100860016042611da1565b43600954146129b657611008600a6041611da1565b600660009054906101000a90046001600160a01b03169050826001600160a01b0316632191f92a6040518163ffffffff1660e01b815260040160206040518083038186803b158015612a0757600080fd5b505afa158015612a1b573d6000803e3d6000fd5b505050506040513d601f19601f82011682018060405250810190612a3f9190614de6565b612a8b5760405162461bcd60e51b815260206004820152601c60248201527f6d61726b6572206d6574686f642072657475726e65642066616c73650000000060448201526064016108ad565b600680546001600160a01b0319166001600160a01b0385811691821790925560408051928416835260208301919091527fedffc32e068c7c95dfd4bdfd5c4d939a084d6b11c4199eac8436ed234d72f9269101610ffd565b600080838311612b02576000612af98486614fce565b915091506122b7565b506003905060006122b7565b6000612b266040518060200160405280600081525090565b600080612b37866000015186614045565b90925090506000826003811115612b5057612b50615075565b14612b6f575060408051602081019091526000815290925090506122b7565b60408051602081019091529081526000969095509350505050565b60007f45b96fe442630264581b197e84bbada861235052c5a1aadfff9ea4e40a969aa0846010811115612bbf57612bbf615075565b846050811115612bd157612bd1615075565b604080519283526020830191909152810184905260600160405180910390a1836010811115610ea357610ea3615075565b60008080612c108486614f83565b9050848110612c24576000925090506122b7565b6002600092509250506122b7565b600080600080612c428787612b0e565b90925090506000826003811115612c5b57612c5b615075565b14612c6c5750915060009050612c85565b612c7e612c7882613630565b86612c02565b9350935050505b935093915050565b60008054819060ff16612cb25760405162461bcd60e51b81526004016108ad90614f5f565b6000805460ff19168155612cc461146c565b90508015612cf457612ce8816010811115612ce157612ce1615075565b600f611da1565b60009250925050612d9d565b836001600160a01b031663a6afed956040518163ffffffff1660e01b8152600401602060405180830381600087803b158015612d2f57600080fd5b505af1158015612d43573d6000803e3d6000fd5b505050506040513d601f19601f82011682018060405250810190612d679190614ecd565b90508015612d8b57612ce8816010811115612d8457612d84615075565b6010611da1565b612d97338787876140ba565b92509250505b6000805460ff191660011790559094909350915050565b60055460405163d02f735160e01b81523060048201526001600160a01b0386811660248301528581166044830152848116606483015260848201849052600092839291169063d02f73519060a401602060405180830381600087803b158015612e1c57600080fd5b505af1158015612e30573d6000803e3d6000fd5b505050506040513d601f19601f82011682018060405250810190612e549190614ecd565b90508015612e69576124276003601b83612b8a565b846001600160a01b0316846001600160a01b03161415612e8f576124276006601c611da1565b612edf604080516101208101909152806000815260200160008152602001600081526020016000815260200160008152602001600081526020016000815260200160008152602001600081525090565b6001600160a01b0385166000908152600e6020526040902054612f029085612ae3565b6020830181905282826003811115612f1c57612f1c615075565b6003811115612f2d57612f2d615075565b9052506000905081516003811115612f4757612f47615075565b14612f7257612f696009601a8360000151600381111561165c5761165c615075565b92505050610ea3565b612f91846040518060200160405280666379da05b600008152506145d3565b60808201819052612fa39085906145f6565b6060820152612fb06122be565b60c0830181905282826003811115612fca57612fca615075565b6003811115612fdb57612fdb615075565b9052506000905081516003811115612ff557612ff5615075565b146130425760405162461bcd60e51b815260206004820152601860248201527f65786368616e67652072617465206d617468206572726f72000000000000000060448201526064016108ad565b61306260405180602001604052808360c001518152508260800151614630565b60a08201819052600c5461307591614648565b60e0820152600d54608082015161308c91906145f6565b6101008201526001600160a01b0386166000908152600e602052604090205460608201516130ba9190612c02565b60408301819052828260038111156130d4576130d4615075565b60038111156130e5576130e5615075565b90525060009050815160038111156130ff576130ff615075565b1461312157612f69600960198360000151600381111561165c5761165c615075565b60e0810151600c55610100810151600d556020808201516001600160a01b038781166000818152600e855260408082209490945583860151928b16808252908490209290925560608501519251928352909290916000805160206150cd833981519152910160405180910390a3306001600160a01b0316856001600160a01b03166000805160206150cd83398151915283608001516040516131c591815260200190565b60405180910390a360a081015160e08201516040805130815260208101939093528201527fa91e67c5ea634cd43a12c5a482724b03de01e85ca68702a53d0c2f45cb7c1dc59060600160405180910390a16000979650505050505050565b6000805460ff166132465760405162461bcd60e51b81526004016108ad90614f5f565b6000805460ff1916815561325861146c565b9050801561327c576110aa81601081111561327557613275615075565b6008611da1565b6110bb338461467e565b6000805460ff166132a95760405162461bcd60e51b81526004016108ad90614f5f565b6000805460ff191681556132bb61146c565b905080156132d8576110aa8160108111156128ad576128ad615075565b6110bb33846000613aa5565b60008054819060ff166133095760405162461bcd60e51b81526004016108ad90614f5f565b6000805460ff1916815561331b61146c565b9050801561334b5761333f81601081111561333857613338615075565b6035611da1565b6000925092505061335c565b613356338686613648565b92509250505b6000805460ff1916600117905590939092509050565b60035460009061010090046001600160a01b0316331461339857610c3d60016047611da1565b43600954146133ad57610c3d600a6048611da1565b670de0b6b3a76400008211156133c957610c3d60026049611da1565b600880549083905560408051828152602081018590527faaa68312e2ea9d50e16af5068410ab56e1a1fd06037b1a35664812c30f8214609101610ffd565b6000805460ff1661342a5760405162461bcd60e51b81526004016108ad90614f5f565b6000805460ff1916815561343c61146c565b90508015613460576110aa81601081111561345957613459615075565b604e611da1565b6134698361497c565b509150506000805460ff19166001179055919050565b6000336001600160a01b038416146134cb5760405162461bcd60e51b815260206004820152600f60248201526e0e6cadcc8cae440dad2e6dac2e8c6d608b1b60448201526064016108ad565b81341461350b5760405162461bcd60e51b815260206004820152600e60248201526d0ecc2d8eaca40dad2e6dac2e8c6d60931b60448201526064016108ad565b50919050565b6000806000806126378686614a5b565b6000806000806135318787612c02565b9092509050600082600381111561354a5761354a615075565b1461355b5750915060009050612c85565b612c7e8186612ae3565b600061357d6040518060200160405280600081525090565b60008061359286670de0b6b3a7640000614045565b909250905060008260038111156135ab576135ab615075565b146135ca575060408051602081019091526000815290925090506122b7565b6000806135d7838861408f565b909250905060008260038111156135f0576135f0615075565b1461361357816040518060200160405280600081525095509550505050506122b7565b604080516020810190915290815260009890975095505050505050565b8051600090610c3d90670de0b6b3a764000090614f9b565b600554604051631200453160e11b81523060048201526001600160a01b03858116602483015284811660448301526064820184905260009283928392909116906324008a6290608401602060405180830381600087803b1580156136ab57600080fd5b505af11580156136bf573d6000803e3d6000fd5b505050506040513d601f19601f820116820180604052508101906136e39190614ecd565b90508015613704576136f86003603883612b8a565b60009250925050612c85565b4360095414613719576136f8600a6039611da1565b6137626040805161010081019091528060008152602001600081526020016000815260200160008152602001600081526020016000815260200160008152602001600081525090565b6001600160a01b038616600090815260106020526040902060010154606082015261378c866128c0565b60808301819052602083018260038111156137a9576137a9615075565b60038111156137ba576137ba615075565b90525060009050816020015160038111156137d7576137d7615075565b14613806576137f9600960378360200151600381111561165c5761165c615075565b6000935093505050612c85565b84600019141561381f5760808101516040820152613827565b604081018590525b61383587826040015161347f565b60e08201819052608082015161384a91612ae3565b60a083018190526020830182600381111561386757613867615075565b600381111561387857613878615075565b905250600090508160200151600381111561389557613895615075565b146139085760405162461bcd60e51b815260206004820152603a60248201527f52455041595f424f52524f575f4e45575f4143434f554e545f424f52524f575f60448201527f42414c414e43455f43414c43554c4154494f4e5f4641494c454400000000000060648201526084016108ad565b613918600b548260e00151612ae3565b60c083018190526020830182600381111561393557613935615075565b600381111561394657613946615075565b905250600090508160200151600381111561396357613963615075565b146139ca5760405162461bcd60e51b815260206004820152603160248201527f52455041595f424f52524f575f4e45575f544f54414c5f42414c414e43455f43604482015270105310d55310551253d397d19052531151607a1b60648201526084016108ad565b60a081810180516001600160a01b03898116600081815260106020908152604091829020948555600a5460019095019490945560c0870151600b81905560e088015195518251948f16855294840192909252820193909352606081019190915260808101919091527f1a2a22cb034d26d1854bdc6666a5b91fe25efbbb5dcad3b0355478d6f5c362a1910160405180910390a160e00151600097909650945050505050565b6040516001600160a01b0383169082156108fc029083906000818181858888f1935050505015801561188b573d6000803e3d6000fd5b6000821580613ab2575081155b613b1b5760405162461bcd60e51b815260206004820152603460248201527f6f6e65206f662072656465656d546f6b656e73496e206f722072656465656d416044820152736d6f756e74496e206d757374206265207a65726f60601b60648201526084016108ad565b613b5c6040805160e0810190915280600081526020016000815260200160008152602001600081526020016000815260200160008152602001600081525090565b613b646122be565b6040830181905260208301826003811115613b8157613b81615075565b6003811115613b9257613b92615075565b9052506000905081602001516003811115613baf57613baf615075565b14613bd957613bd16009602b8360200151600381111561165c5761165c615075565b915050611008565b8315613c72576060810184905260408051602081018252908201518152613c009085612627565b6080830181905260208301826003811115613c1d57613c1d615075565b6003811115613c2e57613c2e615075565b9052506000905081602001516003811115613c4b57613c4b615075565b14613c6d57613bd1600960298360200151600381111561165c5761165c615075565b613d03565b613c8e8360405180602001604052808460400151815250613511565b6060830181905260208301826003811115613cab57613cab615075565b6003811115613cbc57613cbc615075565b9052506000905081602001516003811115613cd957613cd9615075565b14613cfb57613bd16009602a8360200151600381111561165c5761165c615075565b608081018390525b600554606082015160405163eabe7d9160e01b81523060048201526001600160a01b0388811660248301526044820192909252600092919091169063eabe7d9190606401602060405180830381600087803b158015613d6157600080fd5b505af1158015613d75573d6000803e3d6000fd5b505050506040513d601f19601f82011682018060405250810190613d999190614ecd565b90508015613db757613dae6003602883612b8a565b92505050611008565b4360095414613dcc57613dae600a602c611da1565b613ddc600d548360600151612ae3565b60a0840181905260208401826003811115613df957613df9615075565b6003811115613e0a57613e0a615075565b9052506000905082602001516003811115613e2757613e27615075565b14613e4957613dae6009602e8460200151600381111561165c5761165c615075565b6001600160a01b0386166000908152600e60205260409020546060830151613e719190612ae3565b60c0840181905260208401826003811115613e8e57613e8e615075565b6003811115613e9f57613e9f615075565b9052506000905082602001516003811115613ebc57613ebc615075565b14613ede57613dae6009602d8460200151600381111561165c5761165c615075565b8160800151613eeb612679565b1015613efd57613dae600e602f611da1565b613f0b868360800151613a6f565b60a0820151600d5560c08201516001600160a01b0387166000818152600e602052604090819020929092556060840151915130926000805160206150cd83398151915291613f5b91815260200190565b60405180910390a36080820151606080840151604080516001600160a01b038b16815260208101949094528301527fe5b754fb1abb7f01b499791d0b820ae3b6af3424ac1c59768edb53f4ec31a929910160405180910390a1600554608083015160608401516040516351dff98960e01b81523060048201526001600160a01b038a81166024830152604482019390935260648101919091529116906351dff98990608401600060405180830381600087803b15801561401a57600080fd5b505af115801561402e573d6000803e3d6000fd5b506000925061403b915050565b9695505050505050565b60008083614058575060009050806122b7565b60006140648486614faf565b9050836140718683614f9b565b14614084576002600092509250506122b7565b6000925090506122b7565b600080826140a357506001905060006122b7565b60006140af8486614f9b565b915091509250929050565b600554604051632fe3f38f60e11b81523060048201526001600160a01b03838116602483015286811660448301528581166064830152608482018590526000928392839290911690635fc7e71e9060a401602060405180830381600087803b15801561412557600080fd5b505af1158015614139573d6000803e3d6000fd5b505050506040513d601f19601f8201168201806040525081019061415d9190614ecd565b9050801561417e576141726003601283612b8a565b600092509250506145ca565b436009541461419357614172600a6016611da1565b43846001600160a01b0316636c540baf6040518163ffffffff1660e01b815260040160206040518083038186803b1580156141cd57600080fd5b505afa1580156141e1573d6000803e3d6000fd5b505050506040513d601f19601f820116820180604052508101906142059190614ecd565b1461421657614172600a6011611da1565b866001600160a01b0316866001600160a01b0316141561423c5761417260066017611da1565b8461424d5761417260076015611da1565b8460001914156142635761417260076014611da1565b600080614271898989613648565b909250905081156142a65761429882601081111561429157614291615075565b6018611da1565b6000945094505050506145ca565b60055460405163c488847b60e01b81523060048201526001600160a01b03888116602483015260448201849052600092839291169063c488847b90606401604080518083038186803b1580156142fb57600080fd5b505afa15801561430f573d6000803e3d6000fd5b505050506040513d601f19601f820116820180604052508101906143339190614ee6565b909250905081156143a25760405162461bcd60e51b815260206004820152603360248201527f4c49515549444154455f434f4d5054524f4c4c45525f43414c43554c4154455f604482015272105353d5539517d4d152569157d19052531151606a1b60648201526084016108ad565b6040516370a0823160e01b81526001600160a01b038b811660048301528291908a16906370a082319060240160206040518083038186803b1580156143e657600080fd5b505afa1580156143fa573d6000803e3d6000fd5b505050506040513d601f19601f8201168201806040525081019061441e9190614ecd565b101561446c5760405162461bcd60e51b815260206004820152601860248201527f4c49515549444154455f5345495a455f544f4f5f4d554348000000000000000060448201526064016108ad565b60006001600160a01b0389163014156144925761448b308d8d85612db4565b905061451f565b60405163b2a02ff160e01b81526001600160a01b038d811660048301528c81166024830152604482018490528a169063b2a02ff190606401602060405180830381600087803b1580156144e457600080fd5b505af11580156144f8573d6000803e3d6000fd5b505050506040513d601f19601f8201168201806040525081019061451c9190614ecd565b90505b80156145645760405162461bcd60e51b81526020600482015260146024820152731d1bdad95b881cd95a5e9d5c994819985a5b195960621b60448201526064016108ad565b604080516001600160a01b038e811682528d811660208301528183018790528b1660608201526080810184905290517f298637f684da70674f26509b10f07ec2fbc77a335ab1e7d6215a4b2484d8bb529181900360a00190a16000975092955050505050505b94509492505050565b6000670de0b6b3a76400006145ec848460000151614ace565b6110089190614f9b565b60006110088383604051806040016040528060158152602001747375627472616374696f6e20756e646572666c6f7760581b815250614b10565b60008061463d8484614b3f565b9050610ea381613630565b60006110088383604051806040016040528060118152602001706164646974696f6e206f766572666c6f7760781b815250614b70565b60055460405163368f515360e21b81523060048201526001600160a01b03848116602483015260448201849052600092839291169063da3d454c90606401602060405180830381600087803b1580156146d657600080fd5b505af11580156146ea573d6000803e3d6000fd5b505050506040513d601f19601f8201168201806040525081019061470e9190614ecd565b9050801561472b576147236003600e83612b8a565b915050610c3d565b436009541461473f57614723600a80611da1565b82614748612679565b101561475a57614723600e6009611da1565b614786604080516080810190915280600081526020016000815260200160008152602001600081525090565b61478f856128c0565b60208301819052828260038111156147a9576147a9615075565b60038111156147ba576147ba615075565b90525060009050815160038111156147d4576147d4615075565b146147ff576147f6600960078360000151600381111561165c5761165c615075565b92505050610c3d565b61480d816020015185612c02565b604083018190528282600381111561482757614827615075565b600381111561483857614838615075565b905250600090508151600381111561485257614852615075565b14614874576147f66009600c8360000151600381111561165c5761165c615075565b614880600b5485612c02565b606083018190528282600381111561489a5761489a615075565b60038111156148ab576148ab615075565b90525060009050815160038111156148c5576148c5615075565b146148e7576147f66009600b8360000151600381111561165c5761165c615075565b6148f18585613a6f565b604081810180516001600160a01b03881660008181526010602090815290859020928355600a54600190930192909255606080860151600b8190559351855192835292820189905293810191909152918201527f13ed6866d4e1ee6da46f845c46d7e54120883d75c5ea9a2dacc1c4ca8984ab809060800160405180910390a1600095945050505050565b600080808043600954146149a057614996600a604f611da1565b9590945092505050565b6149aa338661347f565b905080600c546149ba9190614f83565b9150600c54821015614a0e5760405162461bcd60e51b815260206004820181905260248201527f61646420726573657276657320756e6578706563746564206f766572666c6f7760448201526064016108ad565b600c82905560408051338152602081018390529081018390527fa91e67c5ea634cd43a12c5a482724b03de01e85ca68702a53d0c2f45cb7c1dc59060600160405180910390a16000614996565b6000614a736040518060200160405280600081525090565b600080614a88670de0b6b3a764000087614045565b90925090506000826003811115614aa157614aa1615075565b14614ac0575060408051602081019091526000815290925090506122b7565b61266c818660000151613565565b600061100883836040518060400160405280601781526020017f6d756c7469706c69636174696f6e206f766572666c6f77000000000000000000815250614baa565b60008184841115614b345760405162461bcd60e51b81526004016108ad9190614f0a565b50610ea38385614fce565b6040805160208101909152600081526040518060200160405280614b67856000015185614ace565b90529392505050565b600080614b7d8486614f83565b90508285821015614ba15760405162461bcd60e51b81526004016108ad9190614f0a565b50949350505050565b6000831580614bb7575082155b15614bc457506000611008565b6000614bd08486614faf565b905083614bdd8683614f9b565b148390614ba15760405162461bcd60e51b81526004016108ad9190614f0a565b828054614c0990614fe5565b90600052602060002090601f016020900481019282614c2b5760008555614c71565b82601f10614c4457805160ff1916838001178555614c71565b82800160010185558215614c71579182015b82811115614c71578251825591602001919060010190614c56565b50614c7d929150614c81565b5090565b5b80821115614c7d5760008155600101614c82565b600082601f830112614ca757600080fd5b813567ffffffffffffffff80821115614cc257614cc26150a1565b604051601f8301601f19908116603f01168101908282118183101715614cea57614cea6150a1565b81604052838152866020858801011115614d0357600080fd5b836020870160208301376000602085830101528094505050505092915050565b600060208284031215614d3557600080fd5b8135611008816150b7565b60008060408385031215614d5357600080fd5b8235614d5e816150b7565b91506020830135614d6e816150b7565b809150509250929050565b600080600060608486031215614d8e57600080fd5b8335614d99816150b7565b92506020840135614da9816150b7565b929592945050506040919091013590565b60008060408385031215614dcd57600080fd5b8235614dd8816150b7565b946020939093013593505050565b600060208284031215614df857600080fd5b8151801515811461100857600080fd5b60008060008060008060c08789031215614e2157600080fd5b8635614e2c816150b7565b95506020870135614e3c816150b7565b945060408701359350606087013567ffffffffffffffff80821115614e6057600080fd5b614e6c8a838b01614c96565b94506080890135915080821115614e8257600080fd5b50614e8f89828a01614c96565b92505060a087013560ff81168114614ea657600080fd5b809150509295509295509295565b600060208284031215614ec657600080fd5b5035919050565b600060208284031215614edf57600080fd5b5051919050565b60008060408385031215614ef957600080fd5b505080516020909101519092909150565b600060208083528351808285015260005b81811015614f3757858101830151858201604001528201614f1b565b81811115614f49576000604083870101525b50601f01601f1916929092016040019392505050565b6020808252600a90820152691c994b595b9d195c995960b21b604082015260600190565b60008219821115614f9657614f96615049565b500190565b600082614faa57614faa61505f565b500490565b6000816000190483118215151615614fc957614fc9615049565b500290565b600082821015614fe057614fe0615049565b500390565b600181811c90821680614ff957607f821691505b6020821081141561350b57634e487b7160e01b600052602260045260246000fd5b600060001982141561502e5761502e615049565b5060010190565b6000826150445761504461505f565b500690565b634e487b7160e01b600052601160045260246000fd5b634e487b7160e01b600052601260045260246000fd5b634e487b7160e01b600052602160045260246000fd5b634e487b7160e01b600052603260045260246000fd5b634e487b7160e01b600052604160045260246000fd5b6001600160a01b0381168114610c7e57600080fdfeddf252ad1be2c89b69c2b068fc378daa952ba7f163c4a11628f55a4df523b3efa2646970667358221220a3e5cec0ba7c37940e7d22daec71a56a546fb451e0f031bad106b5a3ed30334d64736f6c63430008070033",
  "immutableReferences": {},
  "source": "// SPDX-License-Identifier: MIT\npragma solidity >=0.8.0;\n\nimport \"./CToken.sol\";\n\n/**\n * @title Compound's CEther Contract\n * @notice CToken which wraps Ether\n * @author Compound\n */\ncontract CEther is CToken {\n    /**\n     * @notice Construct a new CEther money market\n     * @param comptroller_ The address of the Comptroller\n     * @param interestRateModel_ The address of the interest rate model\n     * @param initialExchangeRateMantissa_ The initial exchange rate, scaled by 1e18\n     * @param name_ ERC-20 name of this token\n     * @param symbol_ ERC-20 symbol of this token\n     * @param decimals_ ERC-20 decimal precision of this token\n     * @param admin_ Address of the administrator of this token\n     */\n    constructor(ComptrollerInterface comptroller_,\n                InterestRateModel interestRateModel_,\n                uint initialExchangeRateMantissa_,\n                string memory name_,\n                string memory symbol_,\n                uint8 decimals_,\n                address payable admin_) {\n        // Creator of the contract is admin during initialization\n        admin = payable(msg.sender);\n\n        initialize(comptroller_, interestRateModel_, initialExchangeRateMantissa_, name_, symbol_, decimals_);\n\n        // Set the proper admin now that initialization is done\n        admin = admin_;\n    }\n\n\n    /*** User Interface ***/\n\n    /**\n     * @notice Sender supplies assets into the market and receives cTokens in exchange\n     * @dev Reverts upon any failure\n     */\n    function mint() external payable {\n        (uint err,) = mintInternal(msg.value);\n        requireNoError(err, \"mint failed\");\n    }\n\n    /**\n     * @notice Sender redeems cTokens in exchange for the underlying asset\n     * @dev Accrues interest whether or not the operation succeeds, unless reverted\n     * @param redeemTokens The number of cTokens to redeem into underlying\n     * @return uint 0=success, otherwise a failure (see ErrorReporter.sol for details)\n     */\n    function redeem(uint redeemTokens) external returns (uint) {\n        return redeemInternal(redeemTokens);\n    }\n\n    /**\n     * @notice Sender redeems cTokens in exchange for a specified amount of underlying asset\n     * @dev Accrues interest whether or not the operation succeeds, unless reverted\n     * @param redeemAmount The amount of underlying to redeem\n     * @return uint 0=success, otherwise a failure (see ErrorReporter.sol for details)\n     */\n    function redeemUnderlying(uint redeemAmount) external returns (uint) {\n        return redeemUnderlyingInternal(redeemAmount);\n    }\n\n    /**\n      * @notice Sender borrows assets from the protocol to their own address\n      * @param borrowAmount The amount of the underlying asset to borrow\n      * @return uint 0=success, otherwise a failure (see ErrorReporter.sol for details)\n      */\n    function borrow(uint borrowAmount) external returns (uint) {\n        return borrowInternal(borrowAmount);\n    }\n\n    /**\n     * @notice Sender repays their own borrow\n     * @dev Reverts upon any failure\n     */\n    function repayBorrow() external payable {\n        (uint err,) = repayBorrowInternal(msg.value);\n        requireNoError(err, \"repayBorrow failed\");\n    }\n\n    /**\n     * @notice Sender repays a borrow belonging to borrower\n     * @dev Reverts upon any failure\n     * @param borrower the account with the debt being payed off\n     */\n    function repayBorrowBehalf(address borrower) external payable {\n        (uint err,) = repayBorrowBehalfInternal(borrower, msg.value);\n        requireNoError(err, \"repayBorrowBehalf failed\");\n    }\n\n    /**\n     * @notice The sender liquidates the borrowers collateral.\n     *  The collateral seized is transferred to the liquidator.\n     * @dev Reverts upon any failure\n     * @param borrower The borrower of this cToken to be liquidated\n     * @param cTokenCollateral The market in which to seize collateral from the borrower\n     */\n    function liquidateBorrow(address borrower, CToken cTokenCollateral) external payable {\n        (uint err,) = liquidateBorrowInternal(borrower, msg.value, cTokenCollateral);\n        requireNoError(err, \"liquidateBorrow failed\");\n    }\n\n    /**\n     * @notice The sender adds to reserves.\n     * @return uint 0=success, otherwise a failure (see ErrorReporter.sol for details)\n     */\n    function _addReserves() external payable returns (uint) {\n        return _addReservesInternal(msg.value);\n    }\n\n    /**\n     * @notice Send Ether to CEther to mint\n     */\n    fallback () external payable {\n        (uint err,) = mintInternal(msg.value);\n        requireNoError(err, \"mint failed\");\n    }\n\n    receive () payable external {\n    }\n\n    /*** Safe Token ***/\n\n    /**\n     * @notice Gets balance of this contract in terms of Ether, before this message\n     * @dev This excludes the value of the current message, if any\n     * @return The quantity of Ether owned by this contract\n     */\n    function getCashPrior() internal override view returns (uint) {\n        (MathError err, uint startingBalance) = subUInt(address(this).balance, msg.value);\n        require(err == MathError.NO_ERROR);\n        return startingBalance;\n    }\n\n    /**\n     * @notice Perform the actual transfer in, which is a no-op\n     * @param from Address sending the Ether\n     * @param amount Amount of Ether being sent\n     * @return The actual amount of Ether transferred\n     */\n    function doTransferIn(address from, uint amount) internal override returns (uint) {\n        // Sanity checks\n        require(msg.sender == from, \"sender mismatch\");\n        require(msg.value == amount, \"value mismatch\");\n        return amount;\n    }\n\n    function doTransferOut(address payable to, uint amount) internal override{\n        /* Send the Ether, with minimal gas and revert on failure */\n        to.transfer(amount);\n    }\n\n    function requireNoError(uint errCode, string memory message) internal pure {\n        if (errCode == uint(Error.NO_ERROR)) {\n            return;\n        }\n\n        bytes memory fullMessage = new bytes(bytes(message).length + 5);\n        uint i;\n\n        for (i = 0; i < bytes(message).length; i++) {\n            fullMessage[i] = bytes(message)[i];\n        }\n\n        fullMessage[i+0] = bytes1(uint8(32));\n        fullMessage[i+1] = bytes1(uint8(40));\n        fullMessage[i+2] = bytes1(uint8(48 + ( errCode / 10 )));\n        fullMessage[i+3] = bytes1(uint8(48 + ( errCode % 10 )));\n        fullMessage[i+4] = bytes1(uint8(41));\n\n        require(errCode == uint(Error.NO_ERROR), string(fullMessage));\n    }\n}\n",
  "sourcePath": "/Users/vchikhladze/DApps/DeFi/primaryIndexToken/contracts/cToken/CEther.sol",
  "compiler": {
    "name": "solc",
    "version": "0.8.7+commit.e28d00a7.Emscripten.clang"
  },
  "schemaVersion": "3.4.1",
  "updatedAt": "2021-09-13T06:45:31.135Z",
  "devdoc": {
    "author": "Compound",
    "kind": "dev",
    "methods": {
      "_acceptAdmin()": {
        "details": "Admin function for pending admin to accept role and update admin",
        "returns": {
          "_0": "uint 0=success, otherwise a failure (see ErrorReporter.sol for details)"
        }
      },
      "_addReserves()": {
        "returns": {
          "_0": "uint 0=success, otherwise a failure (see ErrorReporter.sol for details)"
        }
      },
      "_reduceReserves(uint256)": {
        "params": {
          "reduceAmount": "Amount of reduction to reserves"
        },
        "returns": {
          "_0": "uint 0=success, otherwise a failure (see ErrorReporter.sol for details)"
        }
      },
      "_setComptroller(address)": {
        "details": "Admin function to set a new comptroller",
        "returns": {
          "_0": "uint 0=success, otherwise a failure (see ErrorReporter.sol for details)"
        }
      },
      "_setInterestRateModel(address)": {
        "details": "Admin function to accrue interest and update the interest rate model",
        "params": {
          "newInterestRateModel": "the new interest rate model to use"
        },
        "returns": {
          "_0": "uint 0=success, otherwise a failure (see ErrorReporter.sol for details)"
        }
      },
      "_setPendingAdmin(address)": {
        "details": "Admin function to begin change of admin. The newPendingAdmin must call `_acceptAdmin` to finalize the transfer.",
        "params": {
          "newPendingAdmin": "New pending admin."
        },
        "returns": {
          "_0": "uint 0=success, otherwise a failure (see ErrorReporter.sol for details)"
        }
      },
      "_setReserveFactor(uint256)": {
        "details": "Admin function to accrue interest and set a new reserve factor",
        "returns": {
          "_0": "uint 0=success, otherwise a failure (see ErrorReporter.sol for details)"
        }
      },
      "accrueInterest()": {
        "details": "This calculates interest accrued from the last checkpointed block   up to the current block and writes new checkpoint to storage."
      },
      "allowance(address,address)": {
        "params": {
          "owner": "The address of the account which owns the tokens to be spent",
          "spender": "The address of the account which may transfer tokens"
        },
        "returns": {
          "_0": "The number of tokens allowed to be spent (-1 means infinite)"
        }
      },
      "approve(address,uint256)": {
        "details": "This will overwrite the approval amount for `spender`  and is subject to issues noted [here](https://eips.ethereum.org/EIPS/eip-20#approve)",
        "params": {
          "amount": "The number of tokens that are approved (-1 means infinite)",
          "spender": "The address of the account which may transfer tokens"
        },
        "returns": {
          "_0": "Whether or not the approval succeeded"
        }
      },
      "balanceOf(address)": {
        "params": {
          "owner": "The address of the account to query"
        },
        "returns": {
          "_0": "The number of tokens owned by `owner`"
        }
      },
      "balanceOfUnderlying(address)": {
        "details": "This also accrues interest in a transaction",
        "params": {
          "owner": "The address of the account to query"
        },
        "returns": {
          "_0": "The amount of underlying owned by `owner`"
        }
      },
      "borrow(uint256)": {
        "params": {
          "borrowAmount": "The amount of the underlying asset to borrow"
        },
        "returns": {
          "_0": "uint 0=success, otherwise a failure (see ErrorReporter.sol for details)"
        }
      },
      "borrowBalanceCurrent(address)": {
        "params": {
          "account": "The address whose balance should be calculated after updating borrowIndex"
        },
        "returns": {
          "_0": "The calculated balance"
        }
      },
      "borrowBalanceStored(address)": {
        "params": {
          "account": "The address whose balance should be calculated"
        },
        "returns": {
          "_0": "The calculated balance"
        }
      },
      "borrowRatePerBlock()": {
        "returns": {
          "_0": "The borrow interest rate per block, scaled by 1e18"
        }
      },
      "constructor": {
        "params": {
          "admin_": "Address of the administrator of this token",
          "comptroller_": "The address of the Comptroller",
          "decimals_": "ERC-20 decimal precision of this token",
          "initialExchangeRateMantissa_": "The initial exchange rate, scaled by 1e18",
          "interestRateModel_": "The address of the interest rate model",
          "name_": "ERC-20 name of this token",
          "symbol_": "ERC-20 symbol of this token"
        }
      },
      "exchangeRateCurrent()": {
        "returns": {
          "_0": "Calculated exchange rate scaled by 1e18"
        }
      },
      "exchangeRateStored()": {
        "details": "This function does not accrue interest before calculating the exchange rate",
        "returns": {
          "_0": "Calculated exchange rate scaled by 1e18"
        }
      },
      "getAccountSnapshot(address)": {
        "details": "This is used by comptroller to more efficiently perform liquidity checks.",
        "params": {
          "account": "Address of the account to snapshot"
        },
        "returns": {
          "_0": "(possible error, token balance, borrow balance, exchange rate mantissa)"
        }
      },
      "getCash()": {
        "returns": {
          "_0": "The quantity of underlying asset owned by this contract"
        }
      },
      "initialize(address,address,uint256,string,string,uint8)": {
        "params": {
          "comptroller_": "The address of the Comptroller",
          "decimals_": "EIP-20 decimal precision of this token",
          "initialExchangeRateMantissa_": "The initial exchange rate, scaled by 1e18",
          "interestRateModel_": "The address of the interest rate model",
          "name_": "EIP-20 name of this token",
          "symbol_": "EIP-20 symbol of this token"
        }
      },
      "liquidateBorrow(address,address)": {
        "details": "Reverts upon any failure",
        "params": {
          "borrower": "The borrower of this cToken to be liquidated",
          "cTokenCollateral": "The market in which to seize collateral from the borrower"
        }
      },
      "mint()": {
        "details": "Reverts upon any failure"
      },
      "redeem(uint256)": {
        "details": "Accrues interest whether or not the operation succeeds, unless reverted",
        "params": {
          "redeemTokens": "The number of cTokens to redeem into underlying"
        },
        "returns": {
          "_0": "uint 0=success, otherwise a failure (see ErrorReporter.sol for details)"
        }
      },
      "redeemUnderlying(uint256)": {
        "details": "Accrues interest whether or not the operation succeeds, unless reverted",
        "params": {
          "redeemAmount": "The amount of underlying to redeem"
        },
        "returns": {
          "_0": "uint 0=success, otherwise a failure (see ErrorReporter.sol for details)"
        }
      },
      "repayBorrow()": {
        "details": "Reverts upon any failure"
      },
      "repayBorrowBehalf(address)": {
        "details": "Reverts upon any failure",
        "params": {
          "borrower": "the account with the debt being payed off"
        }
      },
      "seize(address,address,uint256)": {
        "details": "Will fail unless called by another cToken during the process of liquidation.  Its absolutely critical to use msg.sender as the borrowed cToken and not a parameter.",
        "params": {
          "borrower": "The account having collateral seized",
          "liquidator": "The account receiving seized collateral",
          "seizeTokens": "The number of cTokens to seize"
        },
        "returns": {
          "_0": "uint 0=success, otherwise a failure (see ErrorReporter.sol for details)"
        }
      },
      "supplyRatePerBlock()": {
        "returns": {
          "_0": "The supply interest rate per block, scaled by 1e18"
        }
      },
      "totalBorrowsCurrent()": {
        "returns": {
          "_0": "The total borrows with interest"
        }
      },
      "transfer(address,uint256)": {
        "params": {
          "amount": "The number of tokens to transfer",
          "dst": "The address of the destination account"
        },
        "returns": {
          "_0": "Whether or not the transfer succeeded"
        }
      },
      "transferFrom(address,address,uint256)": {
        "params": {
          "amount": "The number of tokens to transfer",
          "dst": "The address of the destination account",
          "src": "The address of the source account"
        },
        "returns": {
          "_0": "Whether or not the transfer succeeded"
        }
      }
    },
    "title": "Compound's CEther Contract",
    "version": 1
  },
  "userdoc": {
    "events": {
      "AccrueInterest(uint256,uint256,uint256,uint256)": {
        "notice": "Event emitted when interest is accrued"
      },
      "Approval(address,address,uint256)": {
        "notice": "EIP20 Approval event"
      },
      "Borrow(address,uint256,uint256,uint256)": {
        "notice": "Event emitted when underlying is borrowed"
      },
      "LiquidateBorrow(address,address,uint256,address,uint256)": {
        "notice": "Event emitted when a borrow is liquidated"
      },
      "Mint(address,uint256,uint256)": {
        "notice": "Event emitted when tokens are minted"
      },
      "NewAdmin(address,address)": {
        "notice": "Event emitted when pendingAdmin is accepted, which means admin is updated"
      },
      "NewComptroller(address,address)": {
        "notice": "Event emitted when comptroller is changed"
      },
      "NewMarketInterestRateModel(address,address)": {
        "notice": "Event emitted when interestRateModel is changed"
      },
      "NewPendingAdmin(address,address)": {
        "notice": "Event emitted when pendingAdmin is changed"
      },
      "NewReserveFactor(uint256,uint256)": {
        "notice": "Event emitted when the reserve factor is changed"
      },
      "Redeem(address,uint256,uint256)": {
        "notice": "Event emitted when tokens are redeemed"
      },
      "RepayBorrow(address,address,uint256,uint256,uint256)": {
        "notice": "Event emitted when a borrow is repaid"
      },
      "ReservesAdded(address,uint256,uint256)": {
        "notice": "Event emitted when the reserves are added"
      },
      "ReservesReduced(address,uint256,uint256)": {
        "notice": "Event emitted when the reserves are reduced"
      },
      "Transfer(address,address,uint256)": {
        "notice": "EIP20 Transfer event"
      }
    },
    "kind": "user",
    "methods": {
      "_acceptAdmin()": {
        "notice": "Accepts transfer of admin rights. msg.sender must be pendingAdmin"
      },
      "_addReserves()": {
        "notice": "The sender adds to reserves."
      },
      "_reduceReserves(uint256)": {
        "notice": "Accrues interest and reduces reserves by transferring to admin"
      },
      "_setComptroller(address)": {
        "notice": "Sets a new comptroller for the market"
      },
      "_setInterestRateModel(address)": {
        "notice": "accrues interest and updates the interest rate model using _setInterestRateModelFresh"
      },
      "_setPendingAdmin(address)": {
        "notice": "Begins transfer of admin rights. The newPendingAdmin must call `_acceptAdmin` to finalize the transfer."
      },
      "_setReserveFactor(uint256)": {
        "notice": "accrues interest and sets a new reserve factor for the protocol using _setReserveFactorFresh"
      },
      "accountTokens(address)": {
        "notice": "Official record of token balances for each account"
      },
      "accrualBlockNumber()": {
        "notice": "Block number that interest was last accrued at"
      },
      "accrueInterest()": {
        "notice": "Applies accrued interest to total borrows and reserves"
      },
      "admin()": {
        "notice": "Administrator for this contract"
      },
      "allowance(address,address)": {
        "notice": "Get the current allowance from `owner` for `spender`"
      },
      "approve(address,uint256)": {
        "notice": "Approve `spender` to transfer up to `amount` from `src`"
      },
      "balanceOf(address)": {
        "notice": "Get the token balance of the `owner`"
      },
      "balanceOfUnderlying(address)": {
        "notice": "Get the underlying balance of the `owner`"
      },
      "borrow(uint256)": {
        "notice": "Sender borrows assets from the protocol to their own address"
      },
      "borrowBalanceCurrent(address)": {
        "notice": "Accrue interest to updated borrowIndex and then calculate account's borrow balance using the updated borrowIndex"
      },
      "borrowBalanceStored(address)": {
        "notice": "Return the borrow balance of account based on stored data"
      },
      "borrowIndex()": {
        "notice": "Accumulator of the total earned interest rate since the opening of the market"
      },
      "borrowRatePerBlock()": {
        "notice": "Returns the current per-block borrow interest rate for this cToken"
      },
      "comptroller()": {
        "notice": "Contract which oversees inter-cToken operations"
      },
      "constructor": {
        "notice": "Construct a new CEther money market"
      },
      "decimals()": {
        "notice": "EIP-20 token decimals for this token"
      },
      "exchangeRateCurrent()": {
        "notice": "Accrue interest then return the up-to-date exchange rate"
      },
      "exchangeRateStored()": {
        "notice": "Calculates the exchange rate from the underlying to the CToken"
      },
      "getAccountSnapshot(address)": {
        "notice": "Get a snapshot of the account's balances, and the cached exchange rate"
      },
      "getCash()": {
        "notice": "Get cash balance of this cToken in the underlying asset"
      },
      "initialize(address,address,uint256,string,string,uint8)": {
        "notice": "Initialize the money market"
      },
      "interestRateModel()": {
        "notice": "Model which tells what the current interest rate should be"
      },
      "isCToken()": {
        "notice": "Indicator that this is a CToken contract (for inspection)"
      },
      "liquidateBorrow(address,address)": {
        "notice": "The sender liquidates the borrowers collateral.  The collateral seized is transferred to the liquidator."
      },
      "mint()": {
        "notice": "Sender supplies assets into the market and receives cTokens in exchange"
      },
      "name()": {
        "notice": "EIP-20 token name for this token"
      },
      "pendingAdmin()": {
        "notice": "Pending administrator for this contract"
      },
      "protocolSeizeShareMantissa()": {
        "notice": "Share of seized collateral that is added to reserves"
      },
      "redeem(uint256)": {
        "notice": "Sender redeems cTokens in exchange for the underlying asset"
      },
      "redeemUnderlying(uint256)": {
        "notice": "Sender redeems cTokens in exchange for a specified amount of underlying asset"
      },
      "repayBorrow()": {
        "notice": "Sender repays their own borrow"
      },
      "repayBorrowBehalf(address)": {
        "notice": "Sender repays a borrow belonging to borrower"
      },
      "reserveFactorMantissa()": {
        "notice": "Fraction of interest currently set aside for reserves"
      },
      "seize(address,address,uint256)": {
        "notice": "Transfers collateral tokens (this market) to the liquidator."
      },
      "supplyRatePerBlock()": {
        "notice": "Returns the current per-block supply interest rate for this cToken"
      },
      "symbol()": {
        "notice": "EIP-20 token symbol for this token"
      },
      "totalBorrows()": {
        "notice": "Total amount of outstanding borrows of the underlying in this market"
      },
      "totalBorrowsCurrent()": {
        "notice": "Returns the current total borrows plus accrued interest"
      },
      "totalReserves()": {
        "notice": "Total amount of reserves of the underlying held in this market"
      },
      "totalSupply()": {
        "notice": "Total number of tokens in circulation"
      },
      "transfer(address,uint256)": {
        "notice": "Transfer `amount` tokens from `msg.sender` to `dst`"
      },
      "transferFrom(address,address,uint256)": {
        "notice": "Transfer `amount` tokens from `src` to `dst`"
      }
    },
    "notice": "CToken which wraps Ether",
    "version": 1
  }
}