{
  "contractName": "ComptrollerV1Storage",
  "abi": [
    {
      "inputs": [
        {
          "internalType": "address",
          "name": "",
          "type": "address"
        },
        {
          "internalType": "uint256",
          "name": "",
          "type": "uint256"
        }
      ],
      "name": "accountAssets",
      "outputs": [
        {
          "internalType": "contract CToken",
          "name": "",
          "type": "address"
        }
      ],
      "stateMutability": "view",
      "type": "function"
    },
    {
      "inputs": [],
      "name": "admin",
      "outputs": [
        {
          "internalType": "address",
          "name": "",
          "type": "address"
        }
      ],
      "stateMutability": "view",
      "type": "function"
    },
    {
      "inputs": [],
      "name": "closeFactorMantissa",
      "outputs": [
        {
          "internalType": "uint256",
          "name": "",
          "type": "uint256"
        }
      ],
      "stateMutability": "view",
      "type": "function"
    },
    {
      "inputs": [],
      "name": "liquidationIncentiveMantissa",
      "outputs": [
        {
          "internalType": "uint256",
          "name": "",
          "type": "uint256"
        }
      ],
      "stateMutability": "view",
      "type": "function"
    },
    {
      "inputs": [],
      "name": "maxAssets",
      "outputs": [
        {
          "internalType": "uint256",
          "name": "",
          "type": "uint256"
        }
      ],
      "stateMutability": "view",
      "type": "function"
    },
    {
      "inputs": [],
      "name": "oracle",
      "outputs": [
        {
          "internalType": "contract PriceOracle",
          "name": "",
          "type": "address"
        }
      ],
      "stateMutability": "view",
      "type": "function"
    }
  ],
  "bytecode": "0x608060405234801561001057600080fd5b5061018c806100206000396000f3fe608060405234801561001057600080fd5b50600436106100625760003560e01c80634ada90af146100675780637dc0d1d01461008357806394b2294b146100ae578063dce15449146100b7578063e8755446146100ca578063f851a440146100d3575b600080fd5b61007060035481565b6040519081526020015b60405180910390f35b600154610096906001600160a01b031681565b6040516001600160a01b03909116815260200161007a565b61007060045481565b6100966100c536600461011e565b6100e6565b61007060025481565b600054610096906001600160a01b031681565b6005602052816000526040600020818154811061010257600080fd5b6000918252602090912001546001600160a01b03169150829050565b6000806040838503121561013157600080fd5b82356001600160a01b038116811461014857600080fd5b94602093909301359350505056fea264697066735822122028de147bca2b8d916320cf760081f4b7dab38f147fbe43bee5b2e80ca7731d8464736f6c63430008070033",
  "immutableReferences": {},
  "source": "// SPDX-License-Identifier: MIT\npragma solidity >=0.8.0;\n\nimport \"../cToken/CToken.sol\";\nimport \"../priceOracle/PriceOracle.sol\";\n\n\ncontract ComptrollerV1Storage {\n    /**\n    * @notice Administrator for this contract\n    */\n    address public admin;\n\n    /**\n     * @notice Oracle which gives the price of any given asset\n     */\n    PriceOracle public oracle;\n\n    /**\n     * @notice Multiplier used to calculate the maximum repayAmount when liquidating a borrow\n     */\n    uint public closeFactorMantissa;\n\n    /**\n     * @notice Multiplier representing the discount on collateral that a liquidator receives\n     */\n    uint public liquidationIncentiveMantissa;\n\n    /**\n     * @notice Max number of assets a single account can participate in (borrow or use as collateral)\n     */\n    uint public maxAssets;\n\n    /**\n     * @notice Per-account mapping of \"assets you are in\", capped by maxAssets\n     */\n    mapping(address => CToken[]) public accountAssets;\n\n}\n\ncontract ComptrollerV2Storage is ComptrollerV1Storage {\n    struct Market {\n        /// @notice Whether or not this market is listed\n        bool isListed;\n\n        /**\n         * @notice Multiplier representing the most one can borrow against their collateral in this market.\n         *  For instance, 0.9 to allow borrowing 90% of collateral value.\n         *  Must be between 0 and 1, and stored as a mantissa.\n         */\n        uint collateralFactorMantissa;\n\n       \n        /// @notice Whether or not this market receives COMP\n        bool isComped;\n    }\n\n     /// @notice Per-market mapping of \"accounts in this asset\"\n    mapping(address => mapping( address => bool)) public accountMembership;//user address => ctoken address => isListed\n\n    /**\n     * @notice Official mapping of cTokens -> Market metadata\n     * @dev Used e.g. to determine if a market is supported\n     */\n    mapping(address => Market) public markets;\n\n   \n\n    /**\n     * @notice The Pause Guardian can pause certain actions as a safety mechanism.\n     *  Actions which allow users to remove their own assets cannot be paused.\n     *  Liquidation / seizing / transfer can only be paused globally, not by market.\n     */\n    address public pauseGuardian;\n    bool public _mintGuardianPaused;\n    bool public _borrowGuardianPaused;\n    bool public transferGuardianPaused;\n    bool public seizeGuardianPaused;\n    mapping(address => bool) public mintGuardianPaused;\n    mapping(address => bool) public borrowGuardianPaused;\n}\n\ncontract ComptrollerV3Storage is ComptrollerV2Storage {\n    struct CompMarketState {\n        /// @notice The market's last updated compBorrowIndex or compSupplyIndex\n        uint224 index;\n\n        /// @notice The block number the index was last updated at\n        uint32 block;\n    }\n\n    /// @notice A list of all markets\n    CToken[] public allMarkets;\n\n    /// @notice The rate at which the flywheel distributes COMP, per block\n    uint public compRate;\n\n    /// @notice The portion of compRate that each market currently receives\n    mapping(address => uint) public compSpeeds;\n\n    /// @notice The COMP market supply state for each market\n    mapping(address => CompMarketState) public compSupplyState;\n\n    /// @notice The COMP market borrow state for each market\n    mapping(address => CompMarketState) public compBorrowState;\n\n    /// @notice The COMP borrow index for each market for each supplier as of the last time they accrued COMP\n    mapping(address => mapping(address => uint)) public compSupplierIndex;\n\n    /// @notice The COMP borrow index for each market for each borrower as of the last time they accrued COMP\n    mapping(address => mapping(address => uint)) public compBorrowerIndex;\n\n    /// @notice The COMP accrued but not yet transferred to each user\n    mapping(address => uint) public compAccrued;\n}\n\ncontract ComptrollerV4Storage is ComptrollerV3Storage {\n    // @notice The borrowCapGuardian can set borrowCaps to any number for any market. Lowering the borrow cap could disable borrowing on the given market.\n    address public borrowCapGuardian;\n\n    // @notice Borrow caps enforced by borrowAllowed for each cToken address. Defaults to zero which corresponds to unlimited borrowing.\n    mapping(address => uint) public borrowCaps;\n}\n\ncontract ComptrollerV5Storage is ComptrollerV4Storage {\n    /// @notice The portion of COMP that each contributor receives per block\n    mapping(address => uint) public compContributorSpeeds;\n\n    /// @notice Last block at which a contributor's COMP rewards have been allocated\n    mapping(address => uint) public lastContributorBlock;\n\n}\n",
  "sourcePath": "/Users/vchikhladze/DApps/DeFi/primaryIndexToken/contracts/comptroller/ComptrollerStorage.sol",
  "compiler": {
    "name": "solc",
    "version": "0.8.7+commit.e28d00a7.Emscripten.clang"
  },
  "schemaVersion": "3.4.1",
  "updatedAt": "2021-09-13T09:29:53.746Z",
  "devdoc": {
    "kind": "dev",
    "methods": {},
    "version": 1
  },
  "userdoc": {
    "kind": "user",
    "methods": {
      "accountAssets(address,uint256)": {
        "notice": "Per-account mapping of \"assets you are in\", capped by maxAssets"
      },
      "admin()": {
        "notice": "Administrator for this contract"
      },
      "closeFactorMantissa()": {
        "notice": "Multiplier used to calculate the maximum repayAmount when liquidating a borrow"
      },
      "liquidationIncentiveMantissa()": {
        "notice": "Multiplier representing the discount on collateral that a liquidator receives"
      },
      "maxAssets()": {
        "notice": "Max number of assets a single account can participate in (borrow or use as collateral)"
      },
      "oracle()": {
        "notice": "Oracle which gives the price of any given asset"
      }
    },
    "version": 1
  }
}