{
  "contractName": "CPrimaryIndexToken",
  "abi": [
    {
      "anonymous": false,
      "inputs": [
        {
          "indexed": false,
          "internalType": "uint256",
          "name": "cashPrior",
          "type": "uint256"
        },
        {
          "indexed": false,
          "internalType": "uint256",
          "name": "interestAccumulated",
          "type": "uint256"
        },
        {
          "indexed": false,
          "internalType": "uint256",
          "name": "borrowIndex",
          "type": "uint256"
        },
        {
          "indexed": false,
          "internalType": "uint256",
          "name": "totalBorrows",
          "type": "uint256"
        }
      ],
      "name": "AccrueInterest",
      "type": "event"
    },
    {
      "anonymous": false,
      "inputs": [
        {
          "indexed": true,
          "internalType": "address",
          "name": "owner",
          "type": "address"
        },
        {
          "indexed": true,
          "internalType": "address",
          "name": "spender",
          "type": "address"
        },
        {
          "indexed": false,
          "internalType": "uint256",
          "name": "amount",
          "type": "uint256"
        }
      ],
      "name": "Approval",
      "type": "event"
    },
    {
      "anonymous": false,
      "inputs": [
        {
          "indexed": false,
          "internalType": "address",
          "name": "borrower",
          "type": "address"
        },
        {
          "indexed": false,
          "internalType": "uint256",
          "name": "borrowAmount",
          "type": "uint256"
        },
        {
          "indexed": false,
          "internalType": "uint256",
          "name": "accountBorrows",
          "type": "uint256"
        },
        {
          "indexed": false,
          "internalType": "uint256",
          "name": "totalBorrows",
          "type": "uint256"
        }
      ],
      "name": "Borrow",
      "type": "event"
    },
    {
      "anonymous": false,
      "inputs": [
        {
          "indexed": false,
          "internalType": "uint256",
          "name": "error",
          "type": "uint256"
        },
        {
          "indexed": false,
          "internalType": "uint256",
          "name": "info",
          "type": "uint256"
        },
        {
          "indexed": false,
          "internalType": "uint256",
          "name": "detail",
          "type": "uint256"
        }
      ],
      "name": "Failure",
      "type": "event"
    },
    {
      "anonymous": false,
      "inputs": [
        {
          "indexed": false,
          "internalType": "address",
          "name": "liquidator",
          "type": "address"
        },
        {
          "indexed": false,
          "internalType": "address",
          "name": "borrower",
          "type": "address"
        },
        {
          "indexed": false,
          "internalType": "uint256",
          "name": "repayAmount",
          "type": "uint256"
        },
        {
          "indexed": false,
          "internalType": "address",
          "name": "cTokenCollateral",
          "type": "address"
        },
        {
          "indexed": false,
          "internalType": "uint256",
          "name": "seizeTokens",
          "type": "uint256"
        }
      ],
      "name": "LiquidateBorrow",
      "type": "event"
    },
    {
      "anonymous": false,
      "inputs": [
        {
          "indexed": false,
          "internalType": "address",
          "name": "minter",
          "type": "address"
        },
        {
          "indexed": false,
          "internalType": "uint256",
          "name": "mintAmount",
          "type": "uint256"
        },
        {
          "indexed": false,
          "internalType": "uint256",
          "name": "mintTokens",
          "type": "uint256"
        }
      ],
      "name": "Mint",
      "type": "event"
    },
    {
      "anonymous": false,
      "inputs": [
        {
          "indexed": false,
          "internalType": "address",
          "name": "oldAdmin",
          "type": "address"
        },
        {
          "indexed": false,
          "internalType": "address",
          "name": "newAdmin",
          "type": "address"
        }
      ],
      "name": "NewAdmin",
      "type": "event"
    },
    {
      "anonymous": false,
      "inputs": [
        {
          "indexed": false,
          "internalType": "contract ComptrollerInterface",
          "name": "oldComptroller",
          "type": "address"
        },
        {
          "indexed": false,
          "internalType": "contract ComptrollerInterface",
          "name": "newComptroller",
          "type": "address"
        }
      ],
      "name": "NewComptroller",
      "type": "event"
    },
    {
      "anonymous": false,
      "inputs": [
        {
          "indexed": false,
          "internalType": "contract InterestRateModel",
          "name": "oldInterestRateModel",
          "type": "address"
        },
        {
          "indexed": false,
          "internalType": "contract InterestRateModel",
          "name": "newInterestRateModel",
          "type": "address"
        }
      ],
      "name": "NewMarketInterestRateModel",
      "type": "event"
    },
    {
      "anonymous": false,
      "inputs": [
        {
          "indexed": false,
          "internalType": "address",
          "name": "oldPendingAdmin",
          "type": "address"
        },
        {
          "indexed": false,
          "internalType": "address",
          "name": "newPendingAdmin",
          "type": "address"
        }
      ],
      "name": "NewPendingAdmin",
      "type": "event"
    },
    {
      "anonymous": false,
      "inputs": [
        {
          "indexed": false,
          "internalType": "uint256",
          "name": "oldReserveFactorMantissa",
          "type": "uint256"
        },
        {
          "indexed": false,
          "internalType": "uint256",
          "name": "newReserveFactorMantissa",
          "type": "uint256"
        }
      ],
      "name": "NewReserveFactor",
      "type": "event"
    },
    {
      "anonymous": false,
      "inputs": [
        {
          "indexed": false,
          "internalType": "address",
          "name": "redeemer",
          "type": "address"
        },
        {
          "indexed": false,
          "internalType": "uint256",
          "name": "redeemAmount",
          "type": "uint256"
        },
        {
          "indexed": false,
          "internalType": "uint256",
          "name": "redeemTokens",
          "type": "uint256"
        }
      ],
      "name": "Redeem",
      "type": "event"
    },
    {
      "anonymous": false,
      "inputs": [
        {
          "indexed": false,
          "internalType": "address",
          "name": "payer",
          "type": "address"
        },
        {
          "indexed": false,
          "internalType": "address",
          "name": "borrower",
          "type": "address"
        },
        {
          "indexed": false,
          "internalType": "uint256",
          "name": "repayAmount",
          "type": "uint256"
        },
        {
          "indexed": false,
          "internalType": "uint256",
          "name": "accountBorrows",
          "type": "uint256"
        },
        {
          "indexed": false,
          "internalType": "uint256",
          "name": "totalBorrows",
          "type": "uint256"
        }
      ],
      "name": "RepayBorrow",
      "type": "event"
    },
    {
      "anonymous": false,
      "inputs": [
        {
          "indexed": false,
          "internalType": "address",
          "name": "benefactor",
          "type": "address"
        },
        {
          "indexed": false,
          "internalType": "uint256",
          "name": "addAmount",
          "type": "uint256"
        },
        {
          "indexed": false,
          "internalType": "uint256",
          "name": "newTotalReserves",
          "type": "uint256"
        }
      ],
      "name": "ReservesAdded",
      "type": "event"
    },
    {
      "anonymous": false,
      "inputs": [
        {
          "indexed": false,
          "internalType": "address",
          "name": "admin",
          "type": "address"
        },
        {
          "indexed": false,
          "internalType": "uint256",
          "name": "reduceAmount",
          "type": "uint256"
        },
        {
          "indexed": false,
          "internalType": "uint256",
          "name": "newTotalReserves",
          "type": "uint256"
        }
      ],
      "name": "ReservesReduced",
      "type": "event"
    },
    {
      "anonymous": false,
      "inputs": [
        {
          "indexed": true,
          "internalType": "address",
          "name": "from",
          "type": "address"
        },
        {
          "indexed": true,
          "internalType": "address",
          "name": "to",
          "type": "address"
        },
        {
          "indexed": false,
          "internalType": "uint256",
          "name": "amount",
          "type": "uint256"
        }
      ],
      "name": "Transfer",
      "type": "event"
    },
    {
      "inputs": [],
      "name": "_acceptAdmin",
      "outputs": [
        {
          "internalType": "uint256",
          "name": "",
          "type": "uint256"
        }
      ],
      "stateMutability": "nonpayable",
      "type": "function"
    },
    {
      "inputs": [
        {
          "internalType": "uint256",
          "name": "addAmount",
          "type": "uint256"
        }
      ],
      "name": "_addReserves",
      "outputs": [
        {
          "internalType": "uint256",
          "name": "",
          "type": "uint256"
        }
      ],
      "stateMutability": "nonpayable",
      "type": "function"
    },
    {
      "inputs": [
        {
          "internalType": "uint256",
          "name": "reduceAmount",
          "type": "uint256"
        }
      ],
      "name": "_reduceReserves",
      "outputs": [
        {
          "internalType": "uint256",
          "name": "",
          "type": "uint256"
        }
      ],
      "stateMutability": "nonpayable",
      "type": "function"
    },
    {
      "inputs": [
        {
          "internalType": "contract ComptrollerInterface",
          "name": "newComptroller",
          "type": "address"
        }
      ],
      "name": "_setComptroller",
      "outputs": [
        {
          "internalType": "uint256",
          "name": "",
          "type": "uint256"
        }
      ],
      "stateMutability": "nonpayable",
      "type": "function"
    },
    {
      "inputs": [
        {
          "internalType": "contract InterestRateModel",
          "name": "newInterestRateModel",
          "type": "address"
        }
      ],
      "name": "_setInterestRateModel",
      "outputs": [
        {
          "internalType": "uint256",
          "name": "",
          "type": "uint256"
        }
      ],
      "stateMutability": "nonpayable",
      "type": "function"
    },
    {
      "inputs": [
        {
          "internalType": "address payable",
          "name": "newPendingAdmin",
          "type": "address"
        }
      ],
      "name": "_setPendingAdmin",
      "outputs": [
        {
          "internalType": "uint256",
          "name": "",
          "type": "uint256"
        }
      ],
      "stateMutability": "nonpayable",
      "type": "function"
    },
    {
      "inputs": [
        {
          "internalType": "uint256",
          "name": "newReserveFactorMantissa",
          "type": "uint256"
        }
      ],
      "name": "_setReserveFactor",
      "outputs": [
        {
          "internalType": "uint256",
          "name": "",
          "type": "uint256"
        }
      ],
      "stateMutability": "nonpayable",
      "type": "function"
    },
    {
      "inputs": [
        {
          "internalType": "address",
          "name": "",
          "type": "address"
        }
      ],
      "name": "accountTokens",
      "outputs": [
        {
          "internalType": "uint256",
          "name": "",
          "type": "uint256"
        }
      ],
      "stateMutability": "view",
      "type": "function"
    },
    {
      "inputs": [],
      "name": "accrualBlockNumber",
      "outputs": [
        {
          "internalType": "uint256",
          "name": "",
          "type": "uint256"
        }
      ],
      "stateMutability": "view",
      "type": "function"
    },
    {
      "inputs": [],
      "name": "accrueInterest",
      "outputs": [
        {
          "internalType": "uint256",
          "name": "",
          "type": "uint256"
        }
      ],
      "stateMutability": "nonpayable",
      "type": "function"
    },
    {
      "inputs": [],
      "name": "admin",
      "outputs": [
        {
          "internalType": "address payable",
          "name": "",
          "type": "address"
        }
      ],
      "stateMutability": "view",
      "type": "function"
    },
    {
      "inputs": [
        {
          "internalType": "address",
          "name": "owner",
          "type": "address"
        },
        {
          "internalType": "address",
          "name": "spender",
          "type": "address"
        }
      ],
      "name": "allowance",
      "outputs": [
        {
          "internalType": "uint256",
          "name": "",
          "type": "uint256"
        }
      ],
      "stateMutability": "view",
      "type": "function"
    },
    {
      "inputs": [
        {
          "internalType": "address",
          "name": "spender",
          "type": "address"
        },
        {
          "internalType": "uint256",
          "name": "amount",
          "type": "uint256"
        }
      ],
      "name": "approve",
      "outputs": [
        {
          "internalType": "bool",
          "name": "",
          "type": "bool"
        }
      ],
      "stateMutability": "nonpayable",
      "type": "function"
    },
    {
      "inputs": [
        {
          "internalType": "address",
          "name": "owner",
          "type": "address"
        }
      ],
      "name": "balanceOf",
      "outputs": [
        {
          "internalType": "uint256",
          "name": "",
          "type": "uint256"
        }
      ],
      "stateMutability": "view",
      "type": "function"
    },
    {
      "inputs": [
        {
          "internalType": "address",
          "name": "owner",
          "type": "address"
        }
      ],
      "name": "balanceOfUnderlying",
      "outputs": [
        {
          "internalType": "uint256",
          "name": "",
          "type": "uint256"
        }
      ],
      "stateMutability": "nonpayable",
      "type": "function"
    },
    {
      "inputs": [
        {
          "internalType": "uint256",
          "name": "borrowAmount",
          "type": "uint256"
        }
      ],
      "name": "borrow",
      "outputs": [
        {
          "internalType": "uint256",
          "name": "",
          "type": "uint256"
        }
      ],
      "stateMutability": "nonpayable",
      "type": "function"
    },
    {
      "inputs": [
        {
          "internalType": "address",
          "name": "account",
          "type": "address"
        }
      ],
      "name": "borrowBalanceCurrent",
      "outputs": [
        {
          "internalType": "uint256",
          "name": "",
          "type": "uint256"
        }
      ],
      "stateMutability": "nonpayable",
      "type": "function"
    },
    {
      "inputs": [
        {
          "internalType": "address",
          "name": "account",
          "type": "address"
        }
      ],
      "name": "borrowBalanceStored",
      "outputs": [
        {
          "internalType": "uint256",
          "name": "",
          "type": "uint256"
        }
      ],
      "stateMutability": "view",
      "type": "function"
    },
    {
      "inputs": [],
      "name": "borrowIndex",
      "outputs": [
        {
          "internalType": "uint256",
          "name": "",
          "type": "uint256"
        }
      ],
      "stateMutability": "view",
      "type": "function"
    },
    {
      "inputs": [],
      "name": "borrowRatePerBlock",
      "outputs": [
        {
          "internalType": "uint256",
          "name": "",
          "type": "uint256"
        }
      ],
      "stateMutability": "view",
      "type": "function"
    },
    {
      "inputs": [],
      "name": "comptroller",
      "outputs": [
        {
          "internalType": "contract ComptrollerInterface",
          "name": "",
          "type": "address"
        }
      ],
      "stateMutability": "view",
      "type": "function"
    },
    {
      "inputs": [],
      "name": "decimals",
      "outputs": [
        {
          "internalType": "uint8",
          "name": "",
          "type": "uint8"
        }
      ],
      "stateMutability": "view",
      "type": "function"
    },
    {
      "inputs": [],
      "name": "exchangeRateCurrent",
      "outputs": [
        {
          "internalType": "uint256",
          "name": "",
          "type": "uint256"
        }
      ],
      "stateMutability": "nonpayable",
      "type": "function"
    },
    {
      "inputs": [],
      "name": "exchangeRateStored",
      "outputs": [
        {
          "internalType": "uint256",
          "name": "",
          "type": "uint256"
        }
      ],
      "stateMutability": "view",
      "type": "function"
    },
    {
      "inputs": [
        {
          "internalType": "address",
          "name": "account",
          "type": "address"
        }
      ],
      "name": "getAccountSnapshot",
      "outputs": [
        {
          "internalType": "uint256",
          "name": "",
          "type": "uint256"
        },
        {
          "internalType": "uint256",
          "name": "",
          "type": "uint256"
        },
        {
          "internalType": "uint256",
          "name": "",
          "type": "uint256"
        },
        {
          "internalType": "uint256",
          "name": "",
          "type": "uint256"
        }
      ],
      "stateMutability": "view",
      "type": "function"
    },
    {
      "inputs": [],
      "name": "getCash",
      "outputs": [
        {
          "internalType": "uint256",
          "name": "",
          "type": "uint256"
        }
      ],
      "stateMutability": "view",
      "type": "function"
    },
    {
      "inputs": [
        {
          "internalType": "address",
          "name": "underlying_",
          "type": "address"
        },
        {
          "internalType": "contract ComptrollerInterface",
          "name": "comptroller_",
          "type": "address"
        },
        {
          "internalType": "contract InterestRateModel",
          "name": "interestRateModel_",
          "type": "address"
        },
        {
          "internalType": "uint256",
          "name": "initialExchangeRateMantissa_",
          "type": "uint256"
        },
        {
          "internalType": "string",
          "name": "name_",
          "type": "string"
        },
        {
          "internalType": "string",
          "name": "symbol_",
          "type": "string"
        },
        {
          "internalType": "uint8",
          "name": "decimals_",
          "type": "uint8"
        }
      ],
      "name": "initialize",
      "outputs": [],
      "stateMutability": "nonpayable",
      "type": "function"
    },
    {
      "inputs": [
        {
          "internalType": "contract ComptrollerInterface",
          "name": "comptroller_",
          "type": "address"
        },
        {
          "internalType": "contract InterestRateModel",
          "name": "interestRateModel_",
          "type": "address"
        },
        {
          "internalType": "uint256",
          "name": "initialExchangeRateMantissa_",
          "type": "uint256"
        },
        {
          "internalType": "string",
          "name": "name_",
          "type": "string"
        },
        {
          "internalType": "string",
          "name": "symbol_",
          "type": "string"
        },
        {
          "internalType": "uint8",
          "name": "decimals_",
          "type": "uint8"
        }
      ],
      "name": "initialize",
      "outputs": [],
      "stateMutability": "nonpayable",
      "type": "function"
    },
    {
      "inputs": [],
      "name": "interestRateModel",
      "outputs": [
        {
          "internalType": "contract InterestRateModel",
          "name": "",
          "type": "address"
        }
      ],
      "stateMutability": "view",
      "type": "function"
    },
    {
      "inputs": [],
      "name": "isCToken",
      "outputs": [
        {
          "internalType": "bool",
          "name": "",
          "type": "bool"
        }
      ],
      "stateMutability": "view",
      "type": "function"
    },
    {
      "inputs": [
        {
          "internalType": "address",
          "name": "borrower",
          "type": "address"
        },
        {
          "internalType": "uint256",
          "name": "repayAmount",
          "type": "uint256"
        },
        {
          "internalType": "contract CTokenInterface",
          "name": "cTokenCollateral",
          "type": "address"
        }
      ],
      "name": "liquidateBorrow",
      "outputs": [
        {
          "internalType": "uint256",
          "name": "",
          "type": "uint256"
        }
      ],
      "stateMutability": "nonpayable",
      "type": "function"
    },
    {
      "inputs": [
        {
          "internalType": "uint256",
          "name": "mintAmount",
          "type": "uint256"
        }
      ],
      "name": "mint",
      "outputs": [
        {
          "internalType": "uint256",
          "name": "",
          "type": "uint256"
        }
      ],
      "stateMutability": "nonpayable",
      "type": "function"
    },
    {
      "inputs": [],
      "name": "name",
      "outputs": [
        {
          "internalType": "string",
          "name": "",
          "type": "string"
        }
      ],
      "stateMutability": "view",
      "type": "function"
    },
    {
      "inputs": [],
      "name": "pendingAdmin",
      "outputs": [
        {
          "internalType": "address payable",
          "name": "",
          "type": "address"
        }
      ],
      "stateMutability": "view",
      "type": "function"
    },
    {
      "inputs": [],
      "name": "protocolSeizeShareMantissa",
      "outputs": [
        {
          "internalType": "uint256",
          "name": "",
          "type": "uint256"
        }
      ],
      "stateMutability": "view",
      "type": "function"
    },
    {
      "inputs": [
        {
          "internalType": "uint256",
          "name": "redeemTokens",
          "type": "uint256"
        }
      ],
      "name": "redeem",
      "outputs": [
        {
          "internalType": "uint256",
          "name": "",
          "type": "uint256"
        }
      ],
      "stateMutability": "nonpayable",
      "type": "function"
    },
    {
      "inputs": [
        {
          "internalType": "uint256",
          "name": "redeemAmount",
          "type": "uint256"
        }
      ],
      "name": "redeemUnderlying",
      "outputs": [
        {
          "internalType": "uint256",
          "name": "",
          "type": "uint256"
        }
      ],
      "stateMutability": "nonpayable",
      "type": "function"
    },
    {
      "inputs": [
        {
          "internalType": "uint256",
          "name": "repayAmount",
          "type": "uint256"
        }
      ],
      "name": "repayBorrow",
      "outputs": [
        {
          "internalType": "uint256",
          "name": "",
          "type": "uint256"
        }
      ],
      "stateMutability": "nonpayable",
      "type": "function"
    },
    {
      "inputs": [
        {
          "internalType": "address",
          "name": "borrower",
          "type": "address"
        },
        {
          "internalType": "uint256",
          "name": "repayAmount",
          "type": "uint256"
        }
      ],
      "name": "repayBorrowBehalf",
      "outputs": [
        {
          "internalType": "uint256",
          "name": "",
          "type": "uint256"
        }
      ],
      "stateMutability": "nonpayable",
      "type": "function"
    },
    {
      "inputs": [],
      "name": "reserveFactorMantissa",
      "outputs": [
        {
          "internalType": "uint256",
          "name": "",
          "type": "uint256"
        }
      ],
      "stateMutability": "view",
      "type": "function"
    },
    {
      "inputs": [
        {
          "internalType": "address",
          "name": "liquidator",
          "type": "address"
        },
        {
          "internalType": "address",
          "name": "borrower",
          "type": "address"
        },
        {
          "internalType": "uint256",
          "name": "seizeTokens",
          "type": "uint256"
        }
      ],
      "name": "seize",
      "outputs": [
        {
          "internalType": "uint256",
          "name": "",
          "type": "uint256"
        }
      ],
      "stateMutability": "nonpayable",
      "type": "function"
    },
    {
      "inputs": [],
      "name": "supplyRatePerBlock",
      "outputs": [
        {
          "internalType": "uint256",
          "name": "",
          "type": "uint256"
        }
      ],
      "stateMutability": "view",
      "type": "function"
    },
    {
      "inputs": [
        {
          "internalType": "contract EIP20NonStandardInterface",
          "name": "token",
          "type": "address"
        }
      ],
      "name": "sweepToken",
      "outputs": [],
      "stateMutability": "nonpayable",
      "type": "function"
    },
    {
      "inputs": [],
      "name": "symbol",
      "outputs": [
        {
          "internalType": "string",
          "name": "",
          "type": "string"
        }
      ],
      "stateMutability": "view",
      "type": "function"
    },
    {
      "inputs": [],
      "name": "totalBorrows",
      "outputs": [
        {
          "internalType": "uint256",
          "name": "",
          "type": "uint256"
        }
      ],
      "stateMutability": "view",
      "type": "function"
    },
    {
      "inputs": [],
      "name": "totalBorrowsCurrent",
      "outputs": [
        {
          "internalType": "uint256",
          "name": "",
          "type": "uint256"
        }
      ],
      "stateMutability": "nonpayable",
      "type": "function"
    },
    {
      "inputs": [],
      "name": "totalReserves",
      "outputs": [
        {
          "internalType": "uint256",
          "name": "",
          "type": "uint256"
        }
      ],
      "stateMutability": "view",
      "type": "function"
    },
    {
      "inputs": [],
      "name": "totalSupply",
      "outputs": [
        {
          "internalType": "uint256",
          "name": "",
          "type": "uint256"
        }
      ],
      "stateMutability": "view",
      "type": "function"
    },
    {
      "inputs": [
        {
          "internalType": "address",
          "name": "dst",
          "type": "address"
        },
        {
          "internalType": "uint256",
          "name": "amount",
          "type": "uint256"
        }
      ],
      "name": "transfer",
      "outputs": [
        {
          "internalType": "bool",
          "name": "",
          "type": "bool"
        }
      ],
      "stateMutability": "nonpayable",
      "type": "function"
    },
    {
      "inputs": [
        {
          "internalType": "address",
          "name": "src",
          "type": "address"
        },
        {
          "internalType": "address",
          "name": "dst",
          "type": "address"
        },
        {
          "internalType": "uint256",
          "name": "amount",
          "type": "uint256"
        }
      ],
      "name": "transferFrom",
      "outputs": [
        {
          "internalType": "bool",
          "name": "",
          "type": "bool"
        }
      ],
      "stateMutability": "nonpayable",
      "type": "function"
    },
    {
      "inputs": [],
      "name": "underlying",
      "outputs": [
        {
          "internalType": "address",
          "name": "",
          "type": "address"
        }
      ],
      "stateMutability": "view",
      "type": "function"
    },
    {
      "inputs": [
        {
          "internalType": "address",
          "name": "underlying_",
          "type": "address"
        },
        {
          "internalType": "contract ComptrollerInterface",
          "name": "comptroller_",
          "type": "address"
        },
        {
          "internalType": "contract InterestRateModel",
          "name": "interestRateModel_",
          "type": "address"
        },
        {
          "internalType": "uint256",
          "name": "initialExchangeRateMantissa_",
          "type": "uint256"
        },
        {
          "internalType": "string",
          "name": "name_",
          "type": "string"
        },
        {
          "internalType": "string",
          "name": "symbol_",
          "type": "string"
        },
        {
          "internalType": "uint8",
          "name": "decimals_",
          "type": "uint8"
        },
        {
          "internalType": "address",
          "name": "admin_",
          "type": "address"
        }
      ],
      "name": "init",
      "outputs": [],
      "stateMutability": "nonpayable",
      "type": "function"
    },
    {
      "inputs": [
        {
          "internalType": "address",
          "name": "minter",
          "type": "address"
        },
        {
          "internalType": "uint256",
          "name": "mintAmount",
          "type": "uint256"
        }
      ],
      "name": "mintTo",
      "outputs": [
        {
          "internalType": "uint256",
          "name": "err",
          "type": "uint256"
        },
        {
          "internalType": "uint256",
          "name": "mintedAmount",
          "type": "uint256"
        }
      ],
      "stateMutability": "nonpayable",
      "type": "function"
    },
    {
      "inputs": [
        {
          "internalType": "address",
          "name": "redeemer",
          "type": "address"
        },
        {
          "internalType": "uint256",
          "name": "redeemTokens",
          "type": "uint256"
        }
      ],
      "name": "redeemTo",
      "outputs": [
        {
          "internalType": "uint256",
          "name": "redeemErr",
          "type": "uint256"
        }
      ],
      "stateMutability": "nonpayable",
      "type": "function"
    },
    {
      "inputs": [
        {
          "internalType": "address",
          "name": "redeemer",
          "type": "address"
        },
        {
          "internalType": "uint256",
          "name": "redeemAmount",
          "type": "uint256"
        }
      ],
      "name": "redeemUnderlyingTo",
      "outputs": [
        {
          "internalType": "uint256",
          "name": "redeemUnderlyingError",
          "type": "uint256"
        }
      ],
      "stateMutability": "nonpayable",
      "type": "function"
    }
  ],
  "bytecode": "0x608060405234801561001057600080fd5b506156c880620000216000396000f3fe608060405234801561001057600080fd5b506004361061035d5760003560e01c806370a08231116101d3578063b71d1a0c11610104578063f2b3abbd116100a2578063f851a4401161007c578063f851a4401461075f578063f8f9da2814610777578063fca7820b1461077f578063fe9c44ae1461079257600080fd5b8063f2b3abbd14610726578063f3fdb15a14610739578063f5e3c4621461074c57600080fd5b8063c5ebeaec116100de578063c5ebeaec146106bf578063db006a75146106d2578063dd62ed3e146106e5578063e9c714f21461071e57600080fd5b8063b71d1a0c14610671578063bd6d894d14610684578063c37f68e21461068c57600080fd5b8063a0712d6811610171578063a9059cbb1161014b578063a9059cbb1461063a578063aa5af0fd1461064d578063ae9d70b014610656578063b2a02ff11461065e57600080fd5b8063a0712d68146105ff578063a19d146014610612578063a6afed951461063257600080fd5b80638f840ddd116101ad5780638f840ddd146105c857806395d89b41146105d157806395dd9193146105d957806399d8c1b4146105ec57600080fd5b806370a082311461058457806373acee98146105ad578063852a12e3146105b557600080fd5b8063313ce567116102ad57806347bd37181161024b5780636664aa78116102255780636664aa78146105475780636752e7021461055a5780636c540baf146105685780636f307dc31461057157600080fd5b806347bd3718146105185780635fe3b56714610521578063601a0bf11461053457600080fd5b80633e941010116102875780633e941010146104b7578063449a52f8146104ca5780634576b5db146104f25780634703d19c1461050557600080fd5b8063313ce5671461047d5780633af9e6691461049c5780633b1d21a2146104af57600080fd5b8063182df0f51161031a57806323b872dd116102f457806323b872dd146104195780632608f8181461042c578063267822471461043f5780632f7605fb1461046a57600080fd5b8063182df0f5146103e95780631a31d465146103f15780631be195601461040657600080fd5b806306fdde0314610362578063095ea7b3146103805780630e752702146103a3578063173b9904146103c457806317bfdfbc146103cd57806318160ddd146103e0575b600080fd5b61036a61079a565b60405161037791906154f4565b60405180910390f35b61039361038e366004615348565b610828565b6040519015158152602001610377565b6103b66103b136600461547a565b610898565b604051908152602001610377565b6103b660085481565b6103b66103db366004615130565b6108ac565b6103b6600d5481565b6103b661095a565b6104046103ff3660046151c7565b6109eb565b005b610404610414366004615130565b610a8f565b610393610427366004615186565b610bf3565b6103b661043a366004615348565b610c4f565b600454610452906001600160a01b031681565b6040516001600160a01b039091168152602001610377565b6103b6610478366004615348565b610c65565b60035461048a9060ff1681565b60405160ff9091168152602001610377565b6103b66104aa366004615130565b610d32565b6103b6610dda565b6103b66104c536600461547a565b610de9565b6104dd6104d8366004615348565b610df4565b60408051928352602083019190915201610377565b6103b6610500366004615130565b610ecb565b61040461051336600461527d565b611020565b6103b6600b5481565b600554610452906001600160a01b031681565b6103b661054236600461547a565b611121565b6103b6610555366004615348565b6111ac565b6103b6666379da05b6000081565b6103b660095481565b601154610452906001600160a01b031681565b6103b6610592366004615130565b6001600160a01b03166000908152600e602052604090205490565b6103b66111e0565b6103b66105c336600461547a565b61127b565b6103b6600c5481565b61036a611286565b6103b66105e7366004615130565b611293565b6104046105fa3660046153d8565b61132d565b6103b661060d36600461547a565b611590565b6103b6610620366004615130565b600e6020526000908152604090205481565b6103b661159c565b610393610648366004615348565b61191d565b6103b6600a5481565b6103b6611978565b6103b661066c366004615186565b611a1f565b6103b661067f366004615130565b611a7a565b6103b6611afa565b61069f61069a366004615130565b611b9b565b604080519485526020850193909352918301526060820152608001610377565b6103b66106cd36600461547a565b611c3c565b6103b66106e036600461547a565b611c47565b6103b66106f336600461514d565b6001600160a01b039182166000908152600f6020908152604080832093909416825291909152205490565b6103b6611c52565b6103b6610734366004615130565b611d4a565b600654610452906001600160a01b031681565b6103b661075a366004615374565b611d82565b6003546104529061010090046001600160a01b031681565b6103b6611d9a565b6103b661078d36600461547a565b611ded565b610393600181565b600180546107a7906155dd565b80601f01602080910402602001604051908101604052809291908181526020018280546107d3906155dd565b80156108205780601f106107f557610100808354040283529160200191610820565b820191906000526020600020905b81548152906001019060200180831161080357829003601f168201915b505050505081565b336000818152600f602090815260408083206001600160a01b03871680855292528083208590555191929182907f8c5be1e5ebec7d5bd14f71427d1e84f3dd0314c0f7b2291e5b200ac8c7c3b925906108849087815260200190565b60405180910390a360019150505b92915050565b6000806108a483611e57565b509392505050565b6000805462010000900460ff166108de5760405162461bcd60e51b81526004016108d590615549565b60405180910390fd5b6000805462ff0000191681556108f261159c565b146109385760405162461bcd60e51b81526020600482015260166024820152751858d8dc9d59481a5b9d195c995cdd0819985a5b195960521b60448201526064016108d5565b61094182611293565b90505b6000805462ff0000191662010000179055919050565b6000806000610967611eef565b909250905060008260038111156109805761098061562e565b146108925760405162461bcd60e51b815260206004820152603560248201527f65786368616e67655261746553746f7265643a2065786368616e67655261746560448201527414dd1bdc9959125b9d195c9b985b0819985a5b1959605a1b60648201526084016108d5565b6109f986868686868661132d565b601180546001600160a01b0319166001600160a01b038916908117909155604080516318160ddd60e01b815290516318160ddd91600480820192602092909190829003018186803b158015610a4d57600080fd5b505afa158015610a61573d6000803e3d6000fd5b505050506040513d601f19601f82011682018060405250810190610a859190615493565b5050505050505050565b6011546001600160a01b0382811691161415610b085760405162461bcd60e51b815260206004820152603260248201527f4345726332303a3a7377656570546f6b656e3a2063616e206e6f74207377656560448201527138103ab73232b9363cb4b733903a37b5b2b760711b60648201526084016108d5565b6040516370a0823160e01b81523060048201526000906001600160a01b038316906370a082319060240160206040518083038186803b158015610b4a57600080fd5b505afa158015610b5e573d6000803e3d6000fd5b505050506040513d601f19601f82011682018060405250810190610b829190615493565b60035460405163a9059cbb60e01b81526001600160a01b03610100909204821660048201526024810183905291925083169063a9059cbb90604401600060405180830381600087803b158015610bd757600080fd5b505af1158015610beb573d6000803e3d6000fd5b505050505050565b6000805462010000900460ff16610c1c5760405162461bcd60e51b81526004016108d590615549565b6000805462ff000019168155610c3433868686611fab565b1490506000805462ff00001916620100001790559392505050565b600080610c5c8484612258565b50949350505050565b6011546000906001600160a01b03163314610ce85760405162461bcd60e51b815260206004820152603f60248201527f635072696d617279496e646578546f6b656e3a206f6e6c79205072696d61727960448201527f20496e64657820546f6b656e2063616e2063616c6c2072656465656d546f210060648201526084016108d5565b6000610cf261159c565b90508015610d1e57610d16816010811115610d0f57610d0f61562e565b60276122f2565b915050610892565b610d2a8484600061236b565b949350505050565b6000806040518060200160405280610d48611afa565b90526001600160a01b0384166000908152600e6020526040812054919250908190610d74908490612900565b90925090506000826003811115610d8d57610d8d61562e565b14610d2a5760405162461bcd60e51b815260206004820152601f60248201527f62616c616e636520636f756c64206e6f742062652063616c63756c617465640060448201526064016108d5565b6000610de4612952565b905090565b6000610892826129d6565b60115460009081906001600160a01b03163314610e795760405162461bcd60e51b815260206004820152603d60248201527f635072696d617279496e646578546f6b656e3a206f6e6c79205072696d61727960448201527f20496e64657820546f6b656e2063616e2063616c6c206d696e74546f2100000060648201526084016108d5565b6000610e8361159c565b90508015610eb357610ea7816010811115610ea057610ea061562e565b601e6122f2565b60009250925050610ec4565b610ebd8585612a5a565b9093509150505b9250929050565b60035460009061010090046001600160a01b03163314610ef1576108926001603f6122f2565b60055460408051623f1ee960e11b815290516001600160a01b0392831692851691627e3dd2916004808301926020929190829003018186803b158015610f3657600080fd5b505afa158015610f4a573d6000803e3d6000fd5b505050506040513d601f19601f82011682018060405250810190610f6e91906153b6565b610fba5760405162461bcd60e51b815260206004820152601c60248201527f6d61726b6572206d6574686f642072657475726e65642066616c73650000000060448201526064016108d5565b600580546001600160a01b0319166001600160a01b0385811691821790925560408051928416835260208301919091527f7ac369dbd14fa5ea3f473ed67cc9d598964a77501540ba6751eb0b3decf5870d91015b60405180910390a160005b9392505050565b600054610100900460ff1680611039575060005460ff16155b61109c5760405162461bcd60e51b815260206004820152602e60248201527f496e697469616c697a61626c653a20636f6e747261637420697320616c72656160448201526d191e481a5b9a5d1a585b1a5e995960921b60648201526084016108d5565b600054610100900460ff161580156110be576000805461ffff19166101011790555b60038054610100600160a81b03191633610100021790556110e4898989898989896109eb565b60038054610100600160a81b0319166101006001600160a01b038516021790558015611116576000805461ff00191690555b505050505050505050565b6000805462010000900460ff1661114a5760405162461bcd60e51b81526004016108d590615549565b6000805462ff00001916815561115e61159c565b9050801561118a5761118281601081111561117b5761117b61562e565b60306122f2565b915050610944565b61119383612ee8565b9150506000805462ff0000191662010000179055919050565b6000806111b761159c565b905080156111d457610d16816010811115610d0f57610d0f61562e565b610d2a8460008561236b565b6000805462010000900460ff166112095760405162461bcd60e51b81526004016108d590615549565b6000805462ff00001916815561121d61159c565b146112635760405162461bcd60e51b81526020600482015260166024820152751858d8dc9d59481a5b9d195c995cdd0819985a5b195960521b60448201526064016108d5565b50600b546000805462ff000019166201000017905590565b600061089282613032565b600280546107a7906155dd565b60008060006112a184613098565b909250905060008260038111156112ba576112ba61562e565b146110195760405162461bcd60e51b815260206004820152603760248201527f626f72726f7742616c616e636553746f7265643a20626f72726f7742616c616e60448201527f636553746f726564496e7465726e616c206661696c656400000000000000000060648201526084016108d5565b60035461010090046001600160a01b031633146113985760405162461bcd60e51b8152602060048201526024808201527f6f6e6c792061646d696e206d617920696e697469616c697a6520746865206d616044820152631c9ad95d60e21b60648201526084016108d5565b6009541580156113a85750600a54155b6114005760405162461bcd60e51b815260206004820152602360248201527f6d61726b6574206d6179206f6e6c7920626520696e697469616c697a6564206f6044820152626e636560e81b60648201526084016108d5565b60078490558361146b5760405162461bcd60e51b815260206004820152603060248201527f696e697469616c2065786368616e67652072617465206d75737420626520677260448201526f32b0ba32b9103a3430b7103d32b9379760811b60648201526084016108d5565b600061147687610ecb565b905080156114c65760405162461bcd60e51b815260206004820152601a60248201527f73657474696e6720636f6d7074726f6c6c6572206661696c656400000000000060448201526064016108d5565b43600955670de0b6b3a7640000600a556114df86613151565b9050801561153a5760405162461bcd60e51b815260206004820152602260248201527f73657474696e6720696e7465726573742072617465206d6f64656c206661696c604482015261195960f21b60648201526084016108d5565b835161154d906001906020870190614ff4565b508251611561906002906020860190614ff4565b50506003805460ff90921660ff1990921691909117905550506000805462ff0000191662010000179055505050565b6000806108a4836132bb565b6009546000904390808214156115b65760005b9250505090565b60006115c0612952565b600b54600c54600a546006546040516315f2405360e01b81526004810186905260248101859052604481018490529495509293919290916000916001600160a01b0316906315f240539060640160206040518083038186803b15801561162557600080fd5b505afa158015611639573d6000803e3d6000fd5b505050506040513d601f19601f8201168201806040525081019061165d9190615493565b905065048c273950008111156116b55760405162461bcd60e51b815260206004820152601c60248201527f626f72726f772072617465206973206162737572646c7920686967680000000060448201526064016108d5565b6000806116c28989613321565b909250905060008260038111156116db576116db61562e565b146117285760405162461bcd60e51b815260206004820152601f60248201527f636f756c64206e6f742063616c63756c61746520626c6f636b2064656c74610060448201526064016108d5565b60408051602081019091526000815260008060008061175560405180602001604052808a8152508761334c565b9097509450600087600381111561176e5761176e61562e565b146117a4576117916009600689600381111561178c5761178c61562e565b6133c8565b9e50505050505050505050505050505090565b6117ae858c612900565b909750935060008760038111156117c7576117c761562e565b146117e5576117916009600189600381111561178c5761178c61562e565b6117ef848c613440565b909750925060008760038111156118085761180861562e565b14611826576117916009600489600381111561178c5761178c61562e565b6118416040518060200160405280600854815250858c613470565b9097509150600087600381111561185a5761185a61562e565b14611878576117916009600589600381111561178c5761178c61562e565b611883858a8b613470565b9097509050600087600381111561189c5761189c61562e565b146118ba576117916009600389600381111561178c5761178c61562e565b60098e9055600a819055600b839055600c829055604080518d815260208101869052908101829052606081018490527f4dec04e750ca11537cabcd8a9eab06494de08da3735bc8871cd41250e190bc049060800160405180910390a16000611791565b6000805462010000900460ff166119465760405162461bcd60e51b81526004016108d590615549565b6000805462ff00001916815561195e33338686611fab565b1490506000805462ff000019166201000017905592915050565b6006546000906001600160a01b031663b8168816611994612952565b600b54600c546008546040516001600160e01b031960e087901b16815260048101949094526024840192909252604483015260648201526084015b60206040518083038186803b1580156119e757600080fd5b505afa1580156119fb573d6000803e3d6000fd5b505050506040513d601f19601f82011682018060405250810190610de49190615493565b6000805462010000900460ff16611a485760405162461bcd60e51b81526004016108d590615549565b6000805462ff000019169055611a60338585856134cb565b90506000805462ff00001916620100001790559392505050565b60035460009061010090046001600160a01b03163314611aa057610892600160456122f2565b600480546001600160a01b038481166001600160a01b031983168117909355604080519190921680825260208201939093527fca4f2f25d0898edd99413412fb94012f9e54ec8142f9b093e7720646a95b16a9910161100e565b6000805462010000900460ff16611b235760405162461bcd60e51b81526004016108d590615549565b6000805462ff000019168155611b3761159c565b14611b7d5760405162461bcd60e51b81526020600482015260166024820152751858d8dc9d59481a5b9d195c995cdd0819985a5b195960521b60448201526064016108d5565b611b8561095a565b90506000805462ff000019166201000017905590565b6001600160a01b0381166000908152600e6020526040812054819081908190818080611bc689613098565b935090506000816003811115611bde57611bde61562e565b14611bfc5760095b6000806000975097509750975050505050611c35565b611c04611eef565b925090506000816003811115611c1c57611c1c61562e565b14611c28576009611be6565b5060009650919450925090505b9193509193565b60006108928261393a565b6000610892826139a5565b6004546000906001600160a01b031633141580611c6d575033155b15611c7e57610de4600160006122f2565b60038054600480546001600160a01b03808216610100818102610100600160a81b0319871617968790556001600160a01b031990931690935560408051948390048216808652929095041660208401529290917ff9ffabca9c8276e99321725bcb43fb076a6c66a54b7f21c4e8146d8519b417dc910160405180910390a1600454604080516001600160a01b03808516825290921660208301527fca4f2f25d0898edd99413412fb94012f9e54ec8142f9b093e7720646a95b16a9910160405180910390a160006115af565b600080611d5561159c565b90508015611d7957611019816010811115611d7257611d7261562e565b60406122f2565b61101983613151565b600080611d90858585613a0b565b5095945050505050565b6006546000906001600160a01b03166315f24053611db6612952565b600b54600c546040516001600160e01b031960e086901b1681526004810193909352602483019190915260448201526064016119cf565b6000805462010000900460ff16611e165760405162461bcd60e51b81526004016108d590615549565b6000805462ff000019168155611e2a61159c565b90508015611e4e57611182816010811115611e4757611e4761562e565b60466122f2565b61119383613b3e565b60008054819062010000900460ff16611e825760405162461bcd60e51b81526004016108d590615549565b6000805462ff000019168155611e9661159c565b90508015611ec657611eba816010811115611eb357611eb361562e565b60366122f2565b60009250925050611ed7565b611ed1333386613bd3565b92509250505b6000805462ff00001916620100001790559092909150565b600d54600090819080611f09575050600754600092909150565b6000611f13612952565b90506000611f2d6040518060200160405280600081525090565b6000611f3e84600b54600c54613ffa565b935090506000816003811115611f5657611f5661562e565b14611f68579660009650945050505050565b611f72838661403e565b925090506000816003811115611f8a57611f8a61562e565b14611f9c579660009650945050505050565b50516000969095509350505050565b6005546040516317b9b84b60e31b81523060048201526001600160a01b038581166024830152848116604483015260648201849052600092839291169063bdcdc25890608401602060405180830381600087803b15801561200b57600080fd5b505af115801561201f573d6000803e3d6000fd5b505050506040513d601f19601f820116820180604052508101906120439190615493565b90508015612060576120586003604a836133c8565b915050610d2a565b836001600160a01b0316856001600160a01b03161415612086576120586002604b6122f2565b6000856001600160a01b0316876001600160a01b031614156120ab57506000196120d3565b506001600160a01b038086166000908152600f60209081526040808320938a16835292905220545b6000806000806120e38589613321565b909450925060008460038111156120fc576120fc61562e565b1461211a5761210d6009604b6122f2565b9650505050505050610d2a565b6001600160a01b038a166000908152600e602052604090205461213d9089613321565b909450915060008460038111156121565761215661562e565b146121675761210d6009604c6122f2565b6001600160a01b0389166000908152600e602052604090205461218a9089613440565b909450905060008460038111156121a3576121a361562e565b146121b45761210d6009604d6122f2565b6001600160a01b03808b166000908152600e6020526040808220859055918b16815220819055600019851461220c576001600160a01b03808b166000908152600f60209081526040808320938f168352929052208390555b886001600160a01b03168a6001600160a01b03166000805160206156738339815191528a60405161223f91815260200190565b60405180910390a35060009a9950505050505050505050565b60008054819062010000900460ff166122835760405162461bcd60e51b81526004016108d590615549565b6000805462ff00001916815561229761159c565b905080156122c7576122bb8160108111156122b4576122b461562e565b60356122f2565b600092509250506122d8565b6122d2338686613bd3565b92509250505b6000805462ff000019166201000017905590939092509050565b60007f45b96fe442630264581b197e84bbada861235052c5a1aadfff9ea4e40a969aa08360108111156123275761232761562e565b8360508111156123395761233961562e565b60408051928352602083019190915260009082015260600160405180910390a18260108111156110195761101961562e565b6000821580612378575081155b6123e15760405162461bcd60e51b815260206004820152603460248201527f6f6e65206f662072656465656d546f6b656e73496e206f722072656465656d416044820152736d6f756e74496e206d757374206265207a65726f60601b60648201526084016108d5565b6124226040805160e0810190915280600081526020016000815260200160008152602001600081526020016000815260200160008152602001600081525090565b61242a611eef565b60408301819052602083018260038111156124475761244761562e565b60038111156124585761245861562e565b90525060009050816020015160038111156124755761247561562e565b1461249f576124976009602b8360200151600381111561178c5761178c61562e565b915050611019565b83156125385760608101849052604080516020810182529082015181526124c69085612900565b60808301819052602083018260038111156124e3576124e361562e565b60038111156124f4576124f461562e565b90525060009050816020015160038111156125115761251161562e565b1461253357612497600960298360200151600381111561178c5761178c61562e565b6125c9565b6125548360405180602001604052808460400151815250614109565b60608301819052602083018260038111156125715761257161562e565b60038111156125825761258261562e565b905250600090508160200151600381111561259f5761259f61562e565b146125c1576124976009602a8360200151600381111561178c5761178c61562e565b608081018390525b600554606082015160405163eabe7d9160e01b81526000926001600160a01b03169163eabe7d91916126029130918b91906004016154d0565b602060405180830381600087803b15801561261c57600080fd5b505af1158015612630573d6000803e3d6000fd5b505050506040513d601f19601f820116820180604052508101906126549190615493565b905080156126725761266960036028836133c8565b92505050611019565b436009541461268757612669600a602c6122f2565b612697600d548360600151613321565b60a08401819052602084018260038111156126b4576126b461562e565b60038111156126c5576126c561562e565b90525060009050826020015160038111156126e2576126e261562e565b14612704576126696009602e8460200151600381111561178c5761178c61562e565b6001600160a01b0386166000908152600e6020526040902054606083015161272c9190613321565b60c08401819052602084018260038111156127495761274961562e565b600381111561275a5761275a61562e565b90525060009050826020015160038111156127775761277761562e565b14612799576126696009602d8460200151600381111561178c5761178c61562e565b81608001516127a6612952565b10156127b857612669600e602f6122f2565b6127c6868360800151614119565b60a0820151600d5560c08201516001600160a01b0387166000818152600e602052604090819020929092556060840151915130926000805160206156738339815191529161281691815260200190565b60405180910390a36080820151606080840151604080516001600160a01b038b16815260208101949094528301527fe5b754fb1abb7f01b499791d0b820ae3b6af3424ac1c59768edb53f4ec31a929910160405180910390a1600554608083015160608401516040516351dff98960e01b81523060048201526001600160a01b038a81166024830152604482019390935260648101919091529116906351dff98990608401600060405180830381600087803b1580156128d557600080fd5b505af11580156128e9573d6000803e3d6000fd5b50600092506128f6915050565b9695505050505050565b600080600080612910868661334c565b909250905060008260038111156129295761292961562e565b1461293a5750915060009050610ec4565b600061294582614203565b9350935050509250929050565b6011546040516370a0823160e01b81523060048201526000916001600160a01b03169081906370a082319060240160206040518083038186803b15801561299857600080fd5b505afa1580156129ac573d6000803e3d6000fd5b505050506040513d601f19601f820116820180604052508101906129d09190615493565b91505090565b6000805462010000900460ff166129ff5760405162461bcd60e51b81526004016108d590615549565b6000805462ff000019168155612a1361159c565b90508015612a3757611182816010811115612a3057612a3061562e565b604e6122f2565b612a408361421b565b509150506000805462ff0000191662010000179055919050565b600554604051634ef4c3e160e01b8152600091829182916001600160a01b031690634ef4c3e190612a93903090899089906004016154d0565b602060405180830381600087803b158015612aad57600080fd5b505af1158015612ac1573d6000803e3d6000fd5b505050506040513d601f19601f82011682018060405250810190612ae59190615493565b90508015612afa57610ea76003601f836133c8565b4360095414612b0f57610ea7600a60226122f2565b612b506040805160e0810190915280600081526020016000815260200160008152602001600081526020016000815260200160008152602001600081525090565b612b58611eef565b6040830181905260208301826003811115612b7557612b7561562e565b6003811115612b8657612b8661562e565b9052506000905081602001516003811115612ba357612ba361562e565b14612bd257612bc5600960218360200151600381111561178c5761178c61562e565b6000935093505050610ec4565b612bdc86866142fa565b60c0820181905260408051602081018252908301518152612bfd9190614109565b6060830181905260208301826003811115612c1a57612c1a61562e565b6003811115612c2b57612c2b61562e565b9052506000905081602001516003811115612c4857612c4861562e565b14612c955760405162461bcd60e51b815260206004820181905260248201527f4d494e545f45584348414e47455f43414c43554c4154494f4e5f4641494c454460448201526064016108d5565b612ca5600d548260600151613440565b6080830181905260208301826003811115612cc257612cc261562e565b6003811115612cd357612cd361562e565b9052506000905081602001516003811115612cf057612cf061562e565b14612d4e5760405162461bcd60e51b815260206004820152602860248201527f4d494e545f4e45575f544f54414c5f535550504c595f43414c43554c4154494f6044820152671397d1905253115160c21b60648201526084016108d5565b6001600160a01b0386166000908152600e60205260409020546060820151612d769190613440565b60a0830181905260208301826003811115612d9357612d9361562e565b6003811115612da457612da461562e565b9052506000905081602001516003811115612dc157612dc161562e565b14612e225760405162461bcd60e51b815260206004820152602b60248201527f4d494e545f4e45575f4143434f554e545f42414c414e43455f43414c43554c4160448201526a151253d397d1905253115160aa1b60648201526084016108d5565b6080810151600d5560a08101516001600160a01b0387166000818152600e60209081526040918290209390935560c0840151606080860151835194855294840191909152908201929092527f4c209b5fc8ad50758f13e2e1088ba56a560dff690a1c6fef26394f4c03821c4f910160405180910390a1856001600160a01b0316306001600160a01b03166000805160206156738339815191528360600151604051612ecf91815260200190565b60405180910390a360c001516000969095509350505050565b600354600090819061010090046001600160a01b03163314612f1057611019600160316122f2565b4360095414612f2557611019600a60336122f2565b82612f2e612952565b1015612f4057611019600e60326122f2565b600c54831115612f5657611019600260346122f2565b82600c54612f6491906155c6565b9050600c54811115612fc45760405162461bcd60e51b8152602060048201526024808201527f72656475636520726573657276657320756e657870656374656420756e646572604482015263666c6f7760e01b60648201526084016108d5565b600c819055600354612fe49061010090046001600160a01b031684614119565b600354604080516101009092046001600160a01b031682526020820185905281018290527f3bad0c59cf2f06e7314077049f48a93578cd16f5ef92329f1dab1420a99c177e9060600161100e565b6000805462010000900460ff1661305b5760405162461bcd60e51b81526004016108d590615549565b6000805462ff00001916815561306f61159c565b9050801561308c57611182816010811115610d0f57610d0f61562e565b6111933360008561236b565b6001600160a01b0381166000908152601060205260408120805482918291829182916130cd5750600096879650945050505050565b6130dd8160000154600a5461453e565b909450925060008460038111156130f6576130f661562e565b1461310957509195600095509350505050565b613117838260010154614588565b909450915060008460038111156131305761313061562e565b1461314357509195600095509350505050565b506000969095509350505050565b600354600090819061010090046001600160a01b0316331461317957611019600160426122f2565b436009541461318e57611019600a60416122f2565b600660009054906101000a90046001600160a01b03169050826001600160a01b0316632191f92a6040518163ffffffff1660e01b815260040160206040518083038186803b1580156131df57600080fd5b505afa1580156131f3573d6000803e3d6000fd5b505050506040513d601f19601f8201168201806040525081019061321791906153b6565b6132635760405162461bcd60e51b815260206004820152601c60248201527f6d61726b6572206d6574686f642072657475726e65642066616c73650000000060448201526064016108d5565b600680546001600160a01b0319166001600160a01b0385811691821790925560408051928416835260208301919091527fedffc32e068c7c95dfd4bdfd5c4d939a084d6b11c4199eac8436ed234d72f926910161100e565b60008054819062010000900460ff166132e65760405162461bcd60e51b81526004016108d590615549565b6000805462ff0000191681556132fa61159c565b9050801561331757611eba816010811115610ea057610ea061562e565b611ed13385612a5a565b60008083831161334057600061333784866155c6565b91509150610ec4565b50600390506000610ec4565b60006133646040518060200160405280600081525090565b60008061337586600001518661453e565b9092509050600082600381111561338e5761338e61562e565b146133ad57506040805160208101909152600081529092509050610ec4565b60408051602081019091529081526000969095509350505050565b60007f45b96fe442630264581b197e84bbada861235052c5a1aadfff9ea4e40a969aa08460108111156133fd576133fd61562e565b84605081111561340f5761340f61562e565b604080519283526020830191909152810184905260600160405180910390a1836010811115610d2a57610d2a61562e565b6000808061344e848661556d565b905084811061346257600092509050610ec4565b600260009250925050610ec4565b600080600080613480878761334c565b909250905060008260038111156134995761349961562e565b146134aa57509150600090506134c3565b6134bc6134b682614203565b86613440565b9350935050505b935093915050565b60055460405163d02f735160e01b81523060048201526001600160a01b0386811660248301528581166044830152848116606483015260848201849052600092839291169063d02f73519060a401602060405180830381600087803b15801561353357600080fd5b505af1158015613547573d6000803e3d6000fd5b505050506040513d601f19601f8201168201806040525081019061356b9190615493565b90508015613580576120586003601b836133c8565b846001600160a01b0316846001600160a01b031614156135a6576120586006601c6122f2565b6135f6604080516101208101909152806000815260200160008152602001600081526020016000815260200160008152602001600081526020016000815260200160008152602001600081525090565b6001600160a01b0385166000908152600e60205260409020546136199085613321565b60208301819052828260038111156136335761363361562e565b60038111156136445761364461562e565b905250600090508151600381111561365e5761365e61562e565b14613689576136806009601a8360000151600381111561178c5761178c61562e565b92505050610d2a565b6136a8846040518060200160405280666379da05b600008152506145b3565b608082018190526136ba9085906145d6565b60608201526136c7611eef565b60c08301819052828260038111156136e1576136e161562e565b60038111156136f2576136f261562e565b905250600090508151600381111561370c5761370c61562e565b146137595760405162461bcd60e51b815260206004820152601860248201527f65786368616e67652072617465206d617468206572726f72000000000000000060448201526064016108d5565b61377960405180602001604052808360c001518152508260800151614610565b60a08201819052600c5461378c91614628565b60e0820152600d5460808201516137a391906145d6565b6101008201526001600160a01b0386166000908152600e602052604090205460608201516137d19190613440565b60408301819052828260038111156137eb576137eb61562e565b60038111156137fc576137fc61562e565b90525060009050815160038111156138165761381661562e565b1461383857613680600960198360000151600381111561178c5761178c61562e565b60e0810151600c55610100810151600d556020808201516001600160a01b038781166000818152600e855260408082209490945583860151928b1680825290849020929092556060850151925192835290929091600080516020615673833981519152910160405180910390a3306001600160a01b0316856001600160a01b031660008051602061567383398151915283608001516040516138dc91815260200190565b60405180910390a360a081015160e08201516040805130815260208101939093528201527fa91e67c5ea634cd43a12c5a482724b03de01e85ca68702a53d0c2f45cb7c1dc59060600160405180910390a16000979650505050505050565b6000805462010000900460ff166139635760405162461bcd60e51b81526004016108d590615549565b6000805462ff00001916815561397761159c565b9050801561399b576111828160108111156139945761399461562e565b60086122f2565b611193338461465e565b6000805462010000900460ff166139ce5760405162461bcd60e51b81526004016108d590615549565b6000805462ff0000191681556139e261159c565b905080156139ff57611182816010811115610d0f57610d0f61562e565b6111933384600061236b565b60008054819062010000900460ff16613a365760405162461bcd60e51b81526004016108d590615549565b6000805462ff000019168155613a4a61159c565b90508015613a7a57613a6e816010811115613a6757613a6761562e565b600f6122f2565b60009250925050613b23565b836001600160a01b031663a6afed956040518163ffffffff1660e01b8152600401602060405180830381600087803b158015613ab557600080fd5b505af1158015613ac9573d6000803e3d6000fd5b505050506040513d601f19601f82011682018060405250810190613aed9190615493565b90508015613b1157613a6e816010811115613b0a57613b0a61562e565b60106122f2565b613b1d3387878761494f565b92509250505b6000805462ff00001916620100001790559094909350915050565b60035460009061010090046001600160a01b03163314613b6457610892600160476122f2565b4360095414613b7957610892600a60486122f2565b670de0b6b3a7640000821115613b9557610892600260496122f2565b600880549083905560408051828152602081018590527faaa68312e2ea9d50e16af5068410ab56e1a1fd06037b1a35664812c30f821460910161100e565b600554604051631200453160e11b81523060048201526001600160a01b03858116602483015284811660448301526064820184905260009283928392909116906324008a6290608401602060405180830381600087803b158015613c3657600080fd5b505af1158015613c4a573d6000803e3d6000fd5b505050506040513d601f19601f82011682018060405250810190613c6e9190615493565b90508015613c8f57613c8360036038836133c8565b600092509250506134c3565b4360095414613ca457613c83600a60396122f2565b613ced6040805161010081019091528060008152602001600081526020016000815260200160008152602001600081526020016000815260200160008152602001600081525090565b6001600160a01b0386166000908152601060205260409020600101546060820152613d1786613098565b6080830181905260208301826003811115613d3457613d3461562e565b6003811115613d4557613d4561562e565b9052506000905081602001516003811115613d6257613d6261562e565b14613d9157613d84600960378360200151600381111561178c5761178c61562e565b60009350935050506134c3565b846000191415613daa5760808101516040820152613db2565b604081018590525b613dc08782604001516142fa565b60e082018190526080820151613dd591613321565b60a0830181905260208301826003811115613df257613df261562e565b6003811115613e0357613e0361562e565b9052506000905081602001516003811115613e2057613e2061562e565b14613e935760405162461bcd60e51b815260206004820152603a60248201527f52455041595f424f52524f575f4e45575f4143434f554e545f424f52524f575f60448201527f42414c414e43455f43414c43554c4154494f4e5f4641494c454400000000000060648201526084016108d5565b613ea3600b548260e00151613321565b60c0830181905260208301826003811115613ec057613ec061562e565b6003811115613ed157613ed161562e565b9052506000905081602001516003811115613eee57613eee61562e565b14613f555760405162461bcd60e51b815260206004820152603160248201527f52455041595f424f52524f575f4e45575f544f54414c5f42414c414e43455f43604482015270105310d55310551253d397d19052531151607a1b60648201526084016108d5565b60a081810180516001600160a01b03898116600081815260106020908152604091829020948555600a5460019095019490945560c0870151600b81905560e088015195518251948f16855294840192909252820193909352606081019190915260808101919091527f1a2a22cb034d26d1854bdc6666a5b91fe25efbbb5dcad3b0355478d6f5c362a1910160405180910390a160e00151600097909650945050505050565b60008060008061400a8787613440565b909250905060008260038111156140235761402361562e565b1461403457509150600090506134c3565b6134bc8186613321565b60006140566040518060200160405280600081525090565b60008061406b86670de0b6b3a764000061453e565b909250905060008260038111156140845761408461562e565b146140a357506040805160208101909152600081529092509050610ec4565b6000806140b08388614588565b909250905060008260038111156140c9576140c961562e565b146140ec5781604051806020016040528060008152509550955050505050610ec4565b604080516020810190915290815260009890975095505050505050565b6000806000806129108686614e5b565b60115460405163a9059cbb60e01b81526001600160a01b0384811660048301526024820184905290911690819063a9059cbb90604401600060405180830381600087803b15801561416957600080fd5b505af115801561417d573d6000803e3d6000fd5b5050505060003d6000811461419957602081146141a357600080fd5b60001991506141af565b60206000803e60005191505b50806141fd5760405162461bcd60e51b815260206004820152601960248201527f544f4b454e5f5452414e534645525f4f55545f4641494c45440000000000000060448201526064016108d5565b50505050565b805160009061089290670de0b6b3a764000090615585565b6000808080436009541461423f57614235600a604f6122f2565b9590945092505050565b61424933866142fa565b905080600c54614259919061556d565b9150600c548210156142ad5760405162461bcd60e51b815260206004820181905260248201527f61646420726573657276657320756e6578706563746564206f766572666c6f7760448201526064016108d5565b600c82905560408051338152602081018390529081018390527fa91e67c5ea634cd43a12c5a482724b03de01e85ca68702a53d0c2f45cb7c1dc59060600160405180910390a16000614235565b6011546040516370a0823160e01b81523060048201526000916001600160a01b031690829082906370a082319060240160206040518083038186803b15801561434257600080fd5b505afa158015614356573d6000803e3d6000fd5b505050506040513d601f19601f8201168201806040525081019061437a9190615493565b6040516323b872dd60e01b81529091506001600160a01b038316906323b872dd906143ad908890309089906004016154d0565b600060405180830381600087803b1580156143c757600080fd5b505af11580156143db573d6000803e3d6000fd5b5050505060003d600081146143f7576020811461440157600080fd5b600019915061440d565b60206000803e60005191505b508061445b5760405162461bcd60e51b815260206004820152601860248201527f544f4b454e5f5452414e534645525f494e5f4641494c4544000000000000000060448201526064016108d5565b6011546040516370a0823160e01b81523060048201526000916001600160a01b0316906370a082319060240160206040518083038186803b15801561449f57600080fd5b505afa1580156144b3573d6000803e3d6000fd5b505050506040513d601f19601f820116820180604052508101906144d79190615493565b9050828110156145295760405162461bcd60e51b815260206004820152601a60248201527f544f4b454e5f5452414e534645525f494e5f4f564552464c4f5700000000000060448201526064016108d5565b61453383826155c6565b979650505050505050565b6000808361455157506000905080610ec4565b600061455d84866155a7565b90508361456a8683615585565b1461457d57600260009250925050610ec4565b600092509050610ec4565b6000808261459c5750600190506000610ec4565b60006145a88486615585565b915091509250929050565b6000670de0b6b3a76400006145cc848460000151614ece565b6110199190615585565b60006110198383604051806040016040528060158152602001747375627472616374696f6e20756e646572666c6f7760581b815250614f10565b60008061461d8484614f3f565b9050610d2a81614203565b60006110198383604051806040016040528060118152602001706164646974696f6e206f766572666c6f7760781b815250614f70565b60055460405163368f515360e21b815260009182916001600160a01b039091169063da3d454c90614697903090889088906004016154d0565b602060405180830381600087803b1580156146b157600080fd5b505af11580156146c5573d6000803e3d6000fd5b505050506040513d601f19601f820116820180604052508101906146e99190615493565b905080156146fe57610d166003600e836133c8565b436009541461471257610d16600a806122f2565b8261471b612952565b101561472d57610d16600e60096122f2565b614759604080516080810190915280600081526020016000815260200160008152602001600081525090565b61476285613098565b602083018190528282600381111561477c5761477c61562e565b600381111561478d5761478d61562e565b90525060009050815160038111156147a7576147a761562e565b146147d2576147c9600960078360000151600381111561178c5761178c61562e565b92505050610892565b6147e0816020015185613440565b60408301819052828260038111156147fa576147fa61562e565b600381111561480b5761480b61562e565b90525060009050815160038111156148255761482561562e565b14614847576147c96009600c8360000151600381111561178c5761178c61562e565b614853600b5485613440565b606083018190528282600381111561486d5761486d61562e565b600381111561487e5761487e61562e565b90525060009050815160038111156148985761489861562e565b146148ba576147c96009600b8360000151600381111561178c5761178c61562e565b6148c48585614119565b604081810180516001600160a01b03881660008181526010602090815290859020928355600a54600190930192909255606080860151600b8190559351855192835292820189905293810191909152918201527f13ed6866d4e1ee6da46f845c46d7e54120883d75c5ea9a2dacc1c4ca8984ab809060800160405180910390a1600095945050505050565b600554604051632fe3f38f60e11b81523060048201526001600160a01b03838116602483015286811660448301528581166064830152608482018590526000928392839290911690635fc7e71e9060a401602060405180830381600087803b1580156149ba57600080fd5b505af11580156149ce573d6000803e3d6000fd5b505050506040513d601f19601f820116820180604052508101906149f29190615493565b90508015614a1357614a0760036012836133c8565b60009250925050614e52565b4360095414614a2857614a07600a60166122f2565b43846001600160a01b0316636c540baf6040518163ffffffff1660e01b815260040160206040518083038186803b158015614a6257600080fd5b505afa158015614a76573d6000803e3d6000fd5b505050506040513d601f19601f82011682018060405250810190614a9a9190615493565b14614aab57614a07600a60116122f2565b866001600160a01b0316866001600160a01b03161415614ad157614a07600660176122f2565b84614ae257614a07600760156122f2565b846000191415614af857614a07600760146122f2565b600080614b06898989613bd3565b90925090508115614b3b57614b2d826010811115614b2657614b2661562e565b60186122f2565b600094509450505050614e52565b60055460405163c488847b60e01b815260009182916001600160a01b039091169063c488847b90614b749030908c9088906004016154d0565b604080518083038186803b158015614b8b57600080fd5b505afa158015614b9f573d6000803e3d6000fd5b505050506040513d601f19601f82011682018060405250810190614bc391906154ac565b90925090508115614c325760405162461bcd60e51b815260206004820152603360248201527f4c49515549444154455f434f4d5054524f4c4c45525f43414c43554c4154455f604482015272105353d5539517d4d152569157d19052531151606a1b60648201526084016108d5565b6040516370a0823160e01b81526001600160a01b038b811660048301528291908a16906370a082319060240160206040518083038186803b158015614c7657600080fd5b505afa158015614c8a573d6000803e3d6000fd5b505050506040513d601f19601f82011682018060405250810190614cae9190615493565b1015614cfc5760405162461bcd60e51b815260206004820152601860248201527f4c49515549444154455f5345495a455f544f4f5f4d554348000000000000000060448201526064016108d5565b60006001600160a01b038916301415614d2257614d1b308d8d856134cb565b9050614da7565b60405163b2a02ff160e01b81526001600160a01b038a169063b2a02ff190614d52908f908f9087906004016154d0565b602060405180830381600087803b158015614d6c57600080fd5b505af1158015614d80573d6000803e3d6000fd5b505050506040513d601f19601f82011682018060405250810190614da49190615493565b90505b8015614dec5760405162461bcd60e51b81526020600482015260146024820152731d1bdad95b881cd95a5e9d5c994819985a5b195960621b60448201526064016108d5565b604080516001600160a01b038e811682528d811660208301528183018790528b1660608201526080810184905290517f298637f684da70674f26509b10f07ec2fbc77a335ab1e7d6215a4b2484d8bb529181900360a00190a16000975092955050505050505b94509492505050565b6000614e736040518060200160405280600081525090565b600080614e88670de0b6b3a76400008761453e565b90925090506000826003811115614ea157614ea161562e565b14614ec057506040805160208101909152600081529092509050610ec4565b61294581866000015161403e565b600061101983836040518060400160405280601781526020017f6d756c7469706c69636174696f6e206f766572666c6f77000000000000000000815250614fa1565b60008184841115614f345760405162461bcd60e51b81526004016108d591906154f4565b50610d2a83856155c6565b6040805160208101909152600081526040518060200160405280614f67856000015185614ece565b90529392505050565b600080614f7d848661556d565b90508285821015610c5c5760405162461bcd60e51b81526004016108d591906154f4565b6000831580614fae575082155b15614fbb57506000611019565b6000614fc784866155a7565b905083614fd48683615585565b148390610c5c5760405162461bcd60e51b81526004016108d591906154f4565b828054615000906155dd565b90600052602060002090601f0160209004810192826150225760008555615068565b82601f1061503b57805160ff1916838001178555615068565b82800160010185558215615068579182015b8281111561506857825182559160200191906001019061504d565b50615074929150615078565b5090565b5b808211156150745760008155600101615079565b600082601f83011261509e57600080fd5b813567ffffffffffffffff808211156150b9576150b9615644565b604051601f8301601f19908116603f011681019082821181831017156150e1576150e1615644565b816040528381528660208588010111156150fa57600080fd5b836020870160208301376000602085830101528094505050505092915050565b803560ff8116811461512b57600080fd5b919050565b60006020828403121561514257600080fd5b81356110198161565a565b6000806040838503121561516057600080fd5b823561516b8161565a565b9150602083013561517b8161565a565b809150509250929050565b60008060006060848603121561519b57600080fd5b83356151a68161565a565b925060208401356151b68161565a565b929592945050506040919091013590565b600080600080600080600060e0888a0312156151e257600080fd5b87356151ed8161565a565b965060208801356151fd8161565a565b9550604088013561520d8161565a565b945060608801359350608088013567ffffffffffffffff8082111561523157600080fd5b61523d8b838c0161508d565b945060a08a013591508082111561525357600080fd5b506152608a828b0161508d565b92505061526f60c0890161511a565b905092959891949750929550565b600080600080600080600080610100898b03121561529a57600080fd5b88356152a58161565a565b975060208901356152b58161565a565b965060408901356152c58161565a565b955060608901359450608089013567ffffffffffffffff808211156152e957600080fd5b6152f58c838d0161508d565b955060a08b013591508082111561530b57600080fd5b506153188b828c0161508d565b93505061532760c08a0161511a565b915060e08901356153378161565a565b809150509295985092959890939650565b6000806040838503121561535b57600080fd5b82356153668161565a565b946020939093013593505050565b60008060006060848603121561538957600080fd5b83356153948161565a565b92506020840135915060408401356153ab8161565a565b809150509250925092565b6000602082840312156153c857600080fd5b8151801515811461101957600080fd5b60008060008060008060c087890312156153f157600080fd5b86356153fc8161565a565b9550602087013561540c8161565a565b945060408701359350606087013567ffffffffffffffff8082111561543057600080fd5b61543c8a838b0161508d565b9450608089013591508082111561545257600080fd5b5061545f89828a0161508d565b92505061546e60a0880161511a565b90509295509295509295565b60006020828403121561548c57600080fd5b5035919050565b6000602082840312156154a557600080fd5b5051919050565b600080604083850312156154bf57600080fd5b505080516020909101519092909150565b6001600160a01b039384168152919092166020820152604081019190915260600190565b600060208083528351808285015260005b8181101561552157858101830151858201604001528201615505565b81811115615533576000604083870101525b50601f01601f1916929092016040019392505050565b6020808252600a90820152691c994b595b9d195c995960b21b604082015260600190565b6000821982111561558057615580615618565b500190565b6000826155a257634e487b7160e01b600052601260045260246000fd5b500490565b60008160001904831182151516156155c1576155c1615618565b500290565b6000828210156155d8576155d8615618565b500390565b600181811c908216806155f157607f821691505b6020821081141561561257634e487b7160e01b600052602260045260246000fd5b50919050565b634e487b7160e01b600052601160045260246000fd5b634e487b7160e01b600052602160045260246000fd5b634e487b7160e01b600052604160045260246000fd5b6001600160a01b038116811461566f57600080fd5b5056feddf252ad1be2c89b69c2b068fc378daa952ba7f163c4a11628f55a4df523b3efa2646970667358221220b3aaec2202e796a4ae1aa2bbfc4a81d677b2b2b6d115853ec300fff606877d4564736f6c63430008070033",
  "immutableReferences": {},
  "source": "// SPDX-License-Identifier: MIT\npragma solidity >=0.8.0;\n\nimport \"../CErc20.sol\";\nimport \"../../../openzeppelin/contracts-upgradeable/proxy/utils/Initializable.sol\";\nimport \"../../comptroller/ComptrollerInterface.sol\";\nimport \"../../interestRateModel/InterestRateModel.sol\";\n\ncontract CPrimaryIndexToken is Initializable, CErc20{\n\n    function init(  address underlying_,\n                    ComptrollerInterface comptroller_,\n                    InterestRateModel interestRateModel_,\n                    uint initialExchangeRateMantissa_,\n                    string memory name_, \n                    string memory symbol_,\n                    uint8 decimals_,\n                    address admin_) public initializer{\n        admin = payable(msg.sender);\n        super.initialize(underlying_, comptroller_, interestRateModel_, initialExchangeRateMantissa_, name_, symbol_, decimals_);\n        admin = payable(admin_);\n    }\n\n    function mintTo(address minter, uint mintAmount) external returns(uint err, uint mintedAmount){\n        require(msg.sender == underlying,\"cPrimaryIndexToken: only Primary Index Token can call mintTo!\");\n        uint error = accrueInterest();\n        if (error != uint(Error.NO_ERROR)) {\n            // accrueInterest emits logs on errors, but we still want to log the fact that an attempted borrow failed\n            return (fail(Error(error), FailureInfo.MINT_ACCRUE_INTEREST_FAILED), 0);\n        }\n        (err, mintedAmount) = mintFresh(minter, mintAmount);\n    }\n\n    function redeemTo(address redeemer,uint redeemTokens) external returns(uint redeemErr){\n        require(msg.sender == underlying,\"cPrimaryIndexToken: only Primary Index Token can call redeemTo!\");\n        uint error = accrueInterest();\n        if (error != uint(Error.NO_ERROR)) {\n            // accrueInterest emits logs on errors, but we still want to log the fact that an attempted redeem failed\n            return fail(Error(error), FailureInfo.REDEEM_ACCRUE_INTEREST_FAILED);\n        }\n        // redeemFresh emits redeem-specific logs on errors, so we don't need to\n        //return redeemFresh(payable(msg.sender), redeemTokens, 0);\n        redeemErr = redeemFresh(payable(redeemer), redeemTokens, 0);\n    }\n\n    function redeemUnderlyingTo(address redeemer, uint redeemAmount) external returns(uint redeemUnderlyingError){\n        uint error = accrueInterest();\n        if (error != uint(Error.NO_ERROR)) {\n            // accrueInterest emits logs on errors, but we still want to log the fact that an attempted redeem failed\n            return fail(Error(error), FailureInfo.REDEEM_ACCRUE_INTEREST_FAILED);\n        }\n        // redeemFresh emits redeem-specific logs on errors, so we don't need to\n        redeemUnderlyingError = redeemFresh(payable(redeemer), 0, redeemAmount);\n    }\n\n}",
  "sourcePath": "/Users/vchikhladze/DApps/DeFi/primaryIndexToken/contracts/cToken/cPrimaryIndexToken/CPrimaryIndexToken.sol",
  "compiler": {
    "name": "solc",
    "version": "0.8.7+commit.e28d00a7.Emscripten.clang"
  },
  "schemaVersion": "3.4.1",
  "updatedAt": "2021-09-13T09:29:53.561Z",
  "devdoc": {
    "kind": "dev",
    "methods": {
      "_acceptAdmin()": {
        "details": "Admin function for pending admin to accept role and update admin",
        "returns": {
          "_0": "uint 0=success, otherwise a failure (see ErrorReporter.sol for details)"
        }
      },
      "_addReserves(uint256)": {
        "params": {
          "addAmount": "The amount fo underlying token to add as reserves"
        },
        "returns": {
          "_0": "uint 0=success, otherwise a failure (see ErrorReporter.sol for details)"
        }
      },
      "_reduceReserves(uint256)": {
        "params": {
          "reduceAmount": "Amount of reduction to reserves"
        },
        "returns": {
          "_0": "uint 0=success, otherwise a failure (see ErrorReporter.sol for details)"
        }
      },
      "_setComptroller(address)": {
        "details": "Admin function to set a new comptroller",
        "returns": {
          "_0": "uint 0=success, otherwise a failure (see ErrorReporter.sol for details)"
        }
      },
      "_setInterestRateModel(address)": {
        "details": "Admin function to accrue interest and update the interest rate model",
        "params": {
          "newInterestRateModel": "the new interest rate model to use"
        },
        "returns": {
          "_0": "uint 0=success, otherwise a failure (see ErrorReporter.sol for details)"
        }
      },
      "_setPendingAdmin(address)": {
        "details": "Admin function to begin change of admin. The newPendingAdmin must call `_acceptAdmin` to finalize the transfer.",
        "params": {
          "newPendingAdmin": "New pending admin."
        },
        "returns": {
          "_0": "uint 0=success, otherwise a failure (see ErrorReporter.sol for details)"
        }
      },
      "_setReserveFactor(uint256)": {
        "details": "Admin function to accrue interest and set a new reserve factor",
        "returns": {
          "_0": "uint 0=success, otherwise a failure (see ErrorReporter.sol for details)"
        }
      },
      "accrueInterest()": {
        "details": "This calculates interest accrued from the last checkpointed block   up to the current block and writes new checkpoint to storage."
      },
      "allowance(address,address)": {
        "params": {
          "owner": "The address of the account which owns the tokens to be spent",
          "spender": "The address of the account which may transfer tokens"
        },
        "returns": {
          "_0": "The number of tokens allowed to be spent (-1 means infinite)"
        }
      },
      "approve(address,uint256)": {
        "details": "This will overwrite the approval amount for `spender`  and is subject to issues noted [here](https://eips.ethereum.org/EIPS/eip-20#approve)",
        "params": {
          "amount": "The number of tokens that are approved (-1 means infinite)",
          "spender": "The address of the account which may transfer tokens"
        },
        "returns": {
          "_0": "Whether or not the approval succeeded"
        }
      },
      "balanceOf(address)": {
        "params": {
          "owner": "The address of the account to query"
        },
        "returns": {
          "_0": "The number of tokens owned by `owner`"
        }
      },
      "balanceOfUnderlying(address)": {
        "details": "This also accrues interest in a transaction",
        "params": {
          "owner": "The address of the account to query"
        },
        "returns": {
          "_0": "The amount of underlying owned by `owner`"
        }
      },
      "borrow(uint256)": {
        "params": {
          "borrowAmount": "The amount of the underlying asset to borrow"
        },
        "returns": {
          "_0": "uint 0=success, otherwise a failure (see ErrorReporter.sol for details)"
        }
      },
      "borrowBalanceCurrent(address)": {
        "params": {
          "account": "The address whose balance should be calculated after updating borrowIndex"
        },
        "returns": {
          "_0": "The calculated balance"
        }
      },
      "borrowBalanceStored(address)": {
        "params": {
          "account": "The address whose balance should be calculated"
        },
        "returns": {
          "_0": "The calculated balance"
        }
      },
      "borrowRatePerBlock()": {
        "returns": {
          "_0": "The borrow interest rate per block, scaled by 1e18"
        }
      },
      "exchangeRateCurrent()": {
        "returns": {
          "_0": "Calculated exchange rate scaled by 1e18"
        }
      },
      "exchangeRateStored()": {
        "details": "This function does not accrue interest before calculating the exchange rate",
        "returns": {
          "_0": "Calculated exchange rate scaled by 1e18"
        }
      },
      "getAccountSnapshot(address)": {
        "details": "This is used by comptroller to more efficiently perform liquidity checks.",
        "params": {
          "account": "Address of the account to snapshot"
        },
        "returns": {
          "_0": "(possible error, token balance, borrow balance, exchange rate mantissa)"
        }
      },
      "getCash()": {
        "returns": {
          "_0": "The quantity of underlying asset owned by this contract"
        }
      },
      "initialize(address,address,address,uint256,string,string,uint8)": {
        "params": {
          "comptroller_": "The address of the Comptroller",
          "decimals_": "ERC-20 decimal precision of this token",
          "initialExchangeRateMantissa_": "The initial exchange rate, scaled by 1e18",
          "interestRateModel_": "The address of the interest rate model",
          "name_": "ERC-20 name of this token",
          "symbol_": "ERC-20 symbol of this token",
          "underlying_": "The address of the underlying asset"
        }
      },
      "initialize(address,address,uint256,string,string,uint8)": {
        "params": {
          "comptroller_": "The address of the Comptroller",
          "decimals_": "EIP-20 decimal precision of this token",
          "initialExchangeRateMantissa_": "The initial exchange rate, scaled by 1e18",
          "interestRateModel_": "The address of the interest rate model",
          "name_": "EIP-20 name of this token",
          "symbol_": "EIP-20 symbol of this token"
        }
      },
      "liquidateBorrow(address,uint256,address)": {
        "params": {
          "borrower": "The borrower of this cToken to be liquidated",
          "cTokenCollateral": "The market in which to seize collateral from the borrower",
          "repayAmount": "The amount of the underlying borrowed asset to repay"
        },
        "returns": {
          "_0": "uint 0=success, otherwise a failure (see ErrorReporter.sol for details)"
        }
      },
      "mint(uint256)": {
        "details": "Accrues interest whether or not the operation succeeds, unless reverted",
        "params": {
          "mintAmount": "The amount of the underlying asset to supply"
        },
        "returns": {
          "_0": "uint 0=success, otherwise a failure (see ErrorReporter.sol for details)"
        }
      },
      "redeem(uint256)": {
        "details": "Accrues interest whether or not the operation succeeds, unless reverted",
        "params": {
          "redeemTokens": "The number of cTokens to redeem into underlying"
        },
        "returns": {
          "_0": "uint 0=success, otherwise a failure (see ErrorReporter.sol for details)"
        }
      },
      "redeemUnderlying(uint256)": {
        "details": "Accrues interest whether or not the operation succeeds, unless reverted",
        "params": {
          "redeemAmount": "The amount of underlying to redeem"
        },
        "returns": {
          "_0": "uint 0=success, otherwise a failure (see ErrorReporter.sol for details)"
        }
      },
      "repayBorrow(uint256)": {
        "params": {
          "repayAmount": "The amount to repay"
        },
        "returns": {
          "_0": "uint 0=success, otherwise a failure (see ErrorReporter.sol for details)"
        }
      },
      "repayBorrowBehalf(address,uint256)": {
        "params": {
          "borrower": "the account with the debt being payed off",
          "repayAmount": "The amount to repay"
        },
        "returns": {
          "_0": "uint 0=success, otherwise a failure (see ErrorReporter.sol for details)"
        }
      },
      "seize(address,address,uint256)": {
        "details": "Will fail unless called by another cToken during the process of liquidation.  Its absolutely critical to use msg.sender as the borrowed cToken and not a parameter.",
        "params": {
          "borrower": "The account having collateral seized",
          "liquidator": "The account receiving seized collateral",
          "seizeTokens": "The number of cTokens to seize"
        },
        "returns": {
          "_0": "uint 0=success, otherwise a failure (see ErrorReporter.sol for details)"
        }
      },
      "supplyRatePerBlock()": {
        "returns": {
          "_0": "The supply interest rate per block, scaled by 1e18"
        }
      },
      "sweepToken(address)": {
        "params": {
          "token": "The address of the ERC-20 token to sweep"
        }
      },
      "totalBorrowsCurrent()": {
        "returns": {
          "_0": "The total borrows with interest"
        }
      },
      "transfer(address,uint256)": {
        "params": {
          "amount": "The number of tokens to transfer",
          "dst": "The address of the destination account"
        },
        "returns": {
          "_0": "Whether or not the transfer succeeded"
        }
      },
      "transferFrom(address,address,uint256)": {
        "params": {
          "amount": "The number of tokens to transfer",
          "dst": "The address of the destination account",
          "src": "The address of the source account"
        },
        "returns": {
          "_0": "Whether or not the transfer succeeded"
        }
      }
    },
    "version": 1
  },
  "userdoc": {
    "events": {
      "AccrueInterest(uint256,uint256,uint256,uint256)": {
        "notice": "Event emitted when interest is accrued"
      },
      "Approval(address,address,uint256)": {
        "notice": "EIP20 Approval event"
      },
      "Borrow(address,uint256,uint256,uint256)": {
        "notice": "Event emitted when underlying is borrowed"
      },
      "LiquidateBorrow(address,address,uint256,address,uint256)": {
        "notice": "Event emitted when a borrow is liquidated"
      },
      "Mint(address,uint256,uint256)": {
        "notice": "Event emitted when tokens are minted"
      },
      "NewAdmin(address,address)": {
        "notice": "Event emitted when pendingAdmin is accepted, which means admin is updated"
      },
      "NewComptroller(address,address)": {
        "notice": "Event emitted when comptroller is changed"
      },
      "NewMarketInterestRateModel(address,address)": {
        "notice": "Event emitted when interestRateModel is changed"
      },
      "NewPendingAdmin(address,address)": {
        "notice": "Event emitted when pendingAdmin is changed"
      },
      "NewReserveFactor(uint256,uint256)": {
        "notice": "Event emitted when the reserve factor is changed"
      },
      "Redeem(address,uint256,uint256)": {
        "notice": "Event emitted when tokens are redeemed"
      },
      "RepayBorrow(address,address,uint256,uint256,uint256)": {
        "notice": "Event emitted when a borrow is repaid"
      },
      "ReservesAdded(address,uint256,uint256)": {
        "notice": "Event emitted when the reserves are added"
      },
      "ReservesReduced(address,uint256,uint256)": {
        "notice": "Event emitted when the reserves are reduced"
      },
      "Transfer(address,address,uint256)": {
        "notice": "EIP20 Transfer event"
      }
    },
    "kind": "user",
    "methods": {
      "_acceptAdmin()": {
        "notice": "Accepts transfer of admin rights. msg.sender must be pendingAdmin"
      },
      "_addReserves(uint256)": {
        "notice": "The sender adds to reserves."
      },
      "_reduceReserves(uint256)": {
        "notice": "Accrues interest and reduces reserves by transferring to admin"
      },
      "_setComptroller(address)": {
        "notice": "Sets a new comptroller for the market"
      },
      "_setInterestRateModel(address)": {
        "notice": "accrues interest and updates the interest rate model using _setInterestRateModelFresh"
      },
      "_setPendingAdmin(address)": {
        "notice": "Begins transfer of admin rights. The newPendingAdmin must call `_acceptAdmin` to finalize the transfer."
      },
      "_setReserveFactor(uint256)": {
        "notice": "accrues interest and sets a new reserve factor for the protocol using _setReserveFactorFresh"
      },
      "accountTokens(address)": {
        "notice": "Official record of token balances for each account"
      },
      "accrualBlockNumber()": {
        "notice": "Block number that interest was last accrued at"
      },
      "accrueInterest()": {
        "notice": "Applies accrued interest to total borrows and reserves"
      },
      "admin()": {
        "notice": "Administrator for this contract"
      },
      "allowance(address,address)": {
        "notice": "Get the current allowance from `owner` for `spender`"
      },
      "approve(address,uint256)": {
        "notice": "Approve `spender` to transfer up to `amount` from `src`"
      },
      "balanceOf(address)": {
        "notice": "Get the token balance of the `owner`"
      },
      "balanceOfUnderlying(address)": {
        "notice": "Get the underlying balance of the `owner`"
      },
      "borrow(uint256)": {
        "notice": "Sender borrows assets from the protocol to their own address"
      },
      "borrowBalanceCurrent(address)": {
        "notice": "Accrue interest to updated borrowIndex and then calculate account's borrow balance using the updated borrowIndex"
      },
      "borrowBalanceStored(address)": {
        "notice": "Return the borrow balance of account based on stored data"
      },
      "borrowIndex()": {
        "notice": "Accumulator of the total earned interest rate since the opening of the market"
      },
      "borrowRatePerBlock()": {
        "notice": "Returns the current per-block borrow interest rate for this cToken"
      },
      "comptroller()": {
        "notice": "Contract which oversees inter-cToken operations"
      },
      "decimals()": {
        "notice": "EIP-20 token decimals for this token"
      },
      "exchangeRateCurrent()": {
        "notice": "Accrue interest then return the up-to-date exchange rate"
      },
      "exchangeRateStored()": {
        "notice": "Calculates the exchange rate from the underlying to the CToken"
      },
      "getAccountSnapshot(address)": {
        "notice": "Get a snapshot of the account's balances, and the cached exchange rate"
      },
      "getCash()": {
        "notice": "Get cash balance of this cToken in the underlying asset"
      },
      "initialize(address,address,address,uint256,string,string,uint8)": {
        "notice": "Initialize the new money market"
      },
      "initialize(address,address,uint256,string,string,uint8)": {
        "notice": "Initialize the money market"
      },
      "interestRateModel()": {
        "notice": "Model which tells what the current interest rate should be"
      },
      "isCToken()": {
        "notice": "Indicator that this is a CToken contract (for inspection)"
      },
      "liquidateBorrow(address,uint256,address)": {
        "notice": "The sender liquidates the borrowers collateral.  The collateral seized is transferred to the liquidator."
      },
      "mint(uint256)": {
        "notice": "Sender supplies assets into the market and receives cTokens in exchange"
      },
      "name()": {
        "notice": "EIP-20 token name for this token"
      },
      "pendingAdmin()": {
        "notice": "Pending administrator for this contract"
      },
      "protocolSeizeShareMantissa()": {
        "notice": "Share of seized collateral that is added to reserves"
      },
      "redeem(uint256)": {
        "notice": "Sender redeems cTokens in exchange for the underlying asset"
      },
      "redeemUnderlying(uint256)": {
        "notice": "Sender redeems cTokens in exchange for a specified amount of underlying asset"
      },
      "repayBorrow(uint256)": {
        "notice": "Sender repays their own borrow"
      },
      "repayBorrowBehalf(address,uint256)": {
        "notice": "Sender repays a borrow belonging to borrower"
      },
      "reserveFactorMantissa()": {
        "notice": "Fraction of interest currently set aside for reserves"
      },
      "seize(address,address,uint256)": {
        "notice": "Transfers collateral tokens (this market) to the liquidator."
      },
      "supplyRatePerBlock()": {
        "notice": "Returns the current per-block supply interest rate for this cToken"
      },
      "sweepToken(address)": {
        "notice": "A public function to sweep accidental ERC-20 transfers to this contract. Tokens are sent to admin (timelock)"
      },
      "symbol()": {
        "notice": "EIP-20 token symbol for this token"
      },
      "totalBorrows()": {
        "notice": "Total amount of outstanding borrows of the underlying in this market"
      },
      "totalBorrowsCurrent()": {
        "notice": "Returns the current total borrows plus accrued interest"
      },
      "totalReserves()": {
        "notice": "Total amount of reserves of the underlying held in this market"
      },
      "totalSupply()": {
        "notice": "Total number of tokens in circulation"
      },
      "transfer(address,uint256)": {
        "notice": "Transfer `amount` tokens from `msg.sender` to `dst`"
      },
      "transferFrom(address,address,uint256)": {
        "notice": "Transfer `amount` tokens from `src` to `dst`"
      },
      "underlying()": {
        "notice": "Underlying asset for this CToken"
      }
    },
    "version": 1
  }
}