{
  "contractName": "CUSDC",
  "abi": [
    {
      "anonymous": false,
      "inputs": [
        {
          "indexed": false,
          "internalType": "uint256",
          "name": "cashPrior",
          "type": "uint256"
        },
        {
          "indexed": false,
          "internalType": "uint256",
          "name": "interestAccumulated",
          "type": "uint256"
        },
        {
          "indexed": false,
          "internalType": "uint256",
          "name": "borrowIndex",
          "type": "uint256"
        },
        {
          "indexed": false,
          "internalType": "uint256",
          "name": "totalBorrows",
          "type": "uint256"
        }
      ],
      "name": "AccrueInterest",
      "type": "event"
    },
    {
      "anonymous": false,
      "inputs": [
        {
          "indexed": true,
          "internalType": "address",
          "name": "owner",
          "type": "address"
        },
        {
          "indexed": true,
          "internalType": "address",
          "name": "spender",
          "type": "address"
        },
        {
          "indexed": false,
          "internalType": "uint256",
          "name": "amount",
          "type": "uint256"
        }
      ],
      "name": "Approval",
      "type": "event"
    },
    {
      "anonymous": false,
      "inputs": [
        {
          "indexed": false,
          "internalType": "address",
          "name": "borrower",
          "type": "address"
        },
        {
          "indexed": false,
          "internalType": "uint256",
          "name": "borrowAmount",
          "type": "uint256"
        },
        {
          "indexed": false,
          "internalType": "uint256",
          "name": "accountBorrows",
          "type": "uint256"
        },
        {
          "indexed": false,
          "internalType": "uint256",
          "name": "totalBorrows",
          "type": "uint256"
        }
      ],
      "name": "Borrow",
      "type": "event"
    },
    {
      "anonymous": false,
      "inputs": [
        {
          "indexed": false,
          "internalType": "uint256",
          "name": "error",
          "type": "uint256"
        },
        {
          "indexed": false,
          "internalType": "uint256",
          "name": "info",
          "type": "uint256"
        },
        {
          "indexed": false,
          "internalType": "uint256",
          "name": "detail",
          "type": "uint256"
        }
      ],
      "name": "Failure",
      "type": "event"
    },
    {
      "anonymous": false,
      "inputs": [
        {
          "indexed": false,
          "internalType": "address",
          "name": "liquidator",
          "type": "address"
        },
        {
          "indexed": false,
          "internalType": "address",
          "name": "borrower",
          "type": "address"
        },
        {
          "indexed": false,
          "internalType": "uint256",
          "name": "repayAmount",
          "type": "uint256"
        },
        {
          "indexed": false,
          "internalType": "address",
          "name": "cTokenCollateral",
          "type": "address"
        },
        {
          "indexed": false,
          "internalType": "uint256",
          "name": "seizeTokens",
          "type": "uint256"
        }
      ],
      "name": "LiquidateBorrow",
      "type": "event"
    },
    {
      "anonymous": false,
      "inputs": [
        {
          "indexed": false,
          "internalType": "address",
          "name": "minter",
          "type": "address"
        },
        {
          "indexed": false,
          "internalType": "uint256",
          "name": "mintAmount",
          "type": "uint256"
        },
        {
          "indexed": false,
          "internalType": "uint256",
          "name": "mintTokens",
          "type": "uint256"
        }
      ],
      "name": "Mint",
      "type": "event"
    },
    {
      "anonymous": false,
      "inputs": [
        {
          "indexed": false,
          "internalType": "address",
          "name": "oldAdmin",
          "type": "address"
        },
        {
          "indexed": false,
          "internalType": "address",
          "name": "newAdmin",
          "type": "address"
        }
      ],
      "name": "NewAdmin",
      "type": "event"
    },
    {
      "anonymous": false,
      "inputs": [
        {
          "indexed": false,
          "internalType": "contract ComptrollerInterface",
          "name": "oldComptroller",
          "type": "address"
        },
        {
          "indexed": false,
          "internalType": "contract ComptrollerInterface",
          "name": "newComptroller",
          "type": "address"
        }
      ],
      "name": "NewComptroller",
      "type": "event"
    },
    {
      "anonymous": false,
      "inputs": [
        {
          "indexed": false,
          "internalType": "contract InterestRateModel",
          "name": "oldInterestRateModel",
          "type": "address"
        },
        {
          "indexed": false,
          "internalType": "contract InterestRateModel",
          "name": "newInterestRateModel",
          "type": "address"
        }
      ],
      "name": "NewMarketInterestRateModel",
      "type": "event"
    },
    {
      "anonymous": false,
      "inputs": [
        {
          "indexed": false,
          "internalType": "address",
          "name": "oldPendingAdmin",
          "type": "address"
        },
        {
          "indexed": false,
          "internalType": "address",
          "name": "newPendingAdmin",
          "type": "address"
        }
      ],
      "name": "NewPendingAdmin",
      "type": "event"
    },
    {
      "anonymous": false,
      "inputs": [
        {
          "indexed": false,
          "internalType": "uint256",
          "name": "oldReserveFactorMantissa",
          "type": "uint256"
        },
        {
          "indexed": false,
          "internalType": "uint256",
          "name": "newReserveFactorMantissa",
          "type": "uint256"
        }
      ],
      "name": "NewReserveFactor",
      "type": "event"
    },
    {
      "anonymous": false,
      "inputs": [
        {
          "indexed": false,
          "internalType": "address",
          "name": "redeemer",
          "type": "address"
        },
        {
          "indexed": false,
          "internalType": "uint256",
          "name": "redeemAmount",
          "type": "uint256"
        },
        {
          "indexed": false,
          "internalType": "uint256",
          "name": "redeemTokens",
          "type": "uint256"
        }
      ],
      "name": "Redeem",
      "type": "event"
    },
    {
      "anonymous": false,
      "inputs": [
        {
          "indexed": false,
          "internalType": "address",
          "name": "payer",
          "type": "address"
        },
        {
          "indexed": false,
          "internalType": "address",
          "name": "borrower",
          "type": "address"
        },
        {
          "indexed": false,
          "internalType": "uint256",
          "name": "repayAmount",
          "type": "uint256"
        },
        {
          "indexed": false,
          "internalType": "uint256",
          "name": "accountBorrows",
          "type": "uint256"
        },
        {
          "indexed": false,
          "internalType": "uint256",
          "name": "totalBorrows",
          "type": "uint256"
        }
      ],
      "name": "RepayBorrow",
      "type": "event"
    },
    {
      "anonymous": false,
      "inputs": [
        {
          "indexed": false,
          "internalType": "address",
          "name": "benefactor",
          "type": "address"
        },
        {
          "indexed": false,
          "internalType": "uint256",
          "name": "addAmount",
          "type": "uint256"
        },
        {
          "indexed": false,
          "internalType": "uint256",
          "name": "newTotalReserves",
          "type": "uint256"
        }
      ],
      "name": "ReservesAdded",
      "type": "event"
    },
    {
      "anonymous": false,
      "inputs": [
        {
          "indexed": false,
          "internalType": "address",
          "name": "admin",
          "type": "address"
        },
        {
          "indexed": false,
          "internalType": "uint256",
          "name": "reduceAmount",
          "type": "uint256"
        },
        {
          "indexed": false,
          "internalType": "uint256",
          "name": "newTotalReserves",
          "type": "uint256"
        }
      ],
      "name": "ReservesReduced",
      "type": "event"
    },
    {
      "anonymous": false,
      "inputs": [
        {
          "indexed": true,
          "internalType": "address",
          "name": "from",
          "type": "address"
        },
        {
          "indexed": true,
          "internalType": "address",
          "name": "to",
          "type": "address"
        },
        {
          "indexed": false,
          "internalType": "uint256",
          "name": "amount",
          "type": "uint256"
        }
      ],
      "name": "Transfer",
      "type": "event"
    },
    {
      "inputs": [],
      "name": "_acceptAdmin",
      "outputs": [
        {
          "internalType": "uint256",
          "name": "",
          "type": "uint256"
        }
      ],
      "stateMutability": "nonpayable",
      "type": "function"
    },
    {
      "inputs": [
        {
          "internalType": "uint256",
          "name": "addAmount",
          "type": "uint256"
        }
      ],
      "name": "_addReserves",
      "outputs": [
        {
          "internalType": "uint256",
          "name": "",
          "type": "uint256"
        }
      ],
      "stateMutability": "nonpayable",
      "type": "function"
    },
    {
      "inputs": [
        {
          "internalType": "uint256",
          "name": "reduceAmount",
          "type": "uint256"
        }
      ],
      "name": "_reduceReserves",
      "outputs": [
        {
          "internalType": "uint256",
          "name": "",
          "type": "uint256"
        }
      ],
      "stateMutability": "nonpayable",
      "type": "function"
    },
    {
      "inputs": [
        {
          "internalType": "contract ComptrollerInterface",
          "name": "newComptroller",
          "type": "address"
        }
      ],
      "name": "_setComptroller",
      "outputs": [
        {
          "internalType": "uint256",
          "name": "",
          "type": "uint256"
        }
      ],
      "stateMutability": "nonpayable",
      "type": "function"
    },
    {
      "inputs": [
        {
          "internalType": "contract InterestRateModel",
          "name": "newInterestRateModel",
          "type": "address"
        }
      ],
      "name": "_setInterestRateModel",
      "outputs": [
        {
          "internalType": "uint256",
          "name": "",
          "type": "uint256"
        }
      ],
      "stateMutability": "nonpayable",
      "type": "function"
    },
    {
      "inputs": [
        {
          "internalType": "address payable",
          "name": "newPendingAdmin",
          "type": "address"
        }
      ],
      "name": "_setPendingAdmin",
      "outputs": [
        {
          "internalType": "uint256",
          "name": "",
          "type": "uint256"
        }
      ],
      "stateMutability": "nonpayable",
      "type": "function"
    },
    {
      "inputs": [
        {
          "internalType": "uint256",
          "name": "newReserveFactorMantissa",
          "type": "uint256"
        }
      ],
      "name": "_setReserveFactor",
      "outputs": [
        {
          "internalType": "uint256",
          "name": "",
          "type": "uint256"
        }
      ],
      "stateMutability": "nonpayable",
      "type": "function"
    },
    {
      "inputs": [
        {
          "internalType": "address",
          "name": "",
          "type": "address"
        }
      ],
      "name": "accountTokens",
      "outputs": [
        {
          "internalType": "uint256",
          "name": "",
          "type": "uint256"
        }
      ],
      "stateMutability": "view",
      "type": "function"
    },
    {
      "inputs": [],
      "name": "accrualBlockNumber",
      "outputs": [
        {
          "internalType": "uint256",
          "name": "",
          "type": "uint256"
        }
      ],
      "stateMutability": "view",
      "type": "function"
    },
    {
      "inputs": [],
      "name": "accrueInterest",
      "outputs": [
        {
          "internalType": "uint256",
          "name": "",
          "type": "uint256"
        }
      ],
      "stateMutability": "nonpayable",
      "type": "function"
    },
    {
      "inputs": [],
      "name": "admin",
      "outputs": [
        {
          "internalType": "address payable",
          "name": "",
          "type": "address"
        }
      ],
      "stateMutability": "view",
      "type": "function"
    },
    {
      "inputs": [
        {
          "internalType": "address",
          "name": "owner",
          "type": "address"
        },
        {
          "internalType": "address",
          "name": "spender",
          "type": "address"
        }
      ],
      "name": "allowance",
      "outputs": [
        {
          "internalType": "uint256",
          "name": "",
          "type": "uint256"
        }
      ],
      "stateMutability": "view",
      "type": "function"
    },
    {
      "inputs": [
        {
          "internalType": "address",
          "name": "spender",
          "type": "address"
        },
        {
          "internalType": "uint256",
          "name": "amount",
          "type": "uint256"
        }
      ],
      "name": "approve",
      "outputs": [
        {
          "internalType": "bool",
          "name": "",
          "type": "bool"
        }
      ],
      "stateMutability": "nonpayable",
      "type": "function"
    },
    {
      "inputs": [
        {
          "internalType": "address",
          "name": "owner",
          "type": "address"
        }
      ],
      "name": "balanceOf",
      "outputs": [
        {
          "internalType": "uint256",
          "name": "",
          "type": "uint256"
        }
      ],
      "stateMutability": "view",
      "type": "function"
    },
    {
      "inputs": [
        {
          "internalType": "address",
          "name": "owner",
          "type": "address"
        }
      ],
      "name": "balanceOfUnderlying",
      "outputs": [
        {
          "internalType": "uint256",
          "name": "",
          "type": "uint256"
        }
      ],
      "stateMutability": "nonpayable",
      "type": "function"
    },
    {
      "inputs": [
        {
          "internalType": "uint256",
          "name": "borrowAmount",
          "type": "uint256"
        }
      ],
      "name": "borrow",
      "outputs": [
        {
          "internalType": "uint256",
          "name": "",
          "type": "uint256"
        }
      ],
      "stateMutability": "nonpayable",
      "type": "function"
    },
    {
      "inputs": [
        {
          "internalType": "address",
          "name": "account",
          "type": "address"
        }
      ],
      "name": "borrowBalanceCurrent",
      "outputs": [
        {
          "internalType": "uint256",
          "name": "",
          "type": "uint256"
        }
      ],
      "stateMutability": "nonpayable",
      "type": "function"
    },
    {
      "inputs": [
        {
          "internalType": "address",
          "name": "account",
          "type": "address"
        }
      ],
      "name": "borrowBalanceStored",
      "outputs": [
        {
          "internalType": "uint256",
          "name": "",
          "type": "uint256"
        }
      ],
      "stateMutability": "view",
      "type": "function"
    },
    {
      "inputs": [],
      "name": "borrowIndex",
      "outputs": [
        {
          "internalType": "uint256",
          "name": "",
          "type": "uint256"
        }
      ],
      "stateMutability": "view",
      "type": "function"
    },
    {
      "inputs": [],
      "name": "borrowRatePerBlock",
      "outputs": [
        {
          "internalType": "uint256",
          "name": "",
          "type": "uint256"
        }
      ],
      "stateMutability": "view",
      "type": "function"
    },
    {
      "inputs": [],
      "name": "comptroller",
      "outputs": [
        {
          "internalType": "contract ComptrollerInterface",
          "name": "",
          "type": "address"
        }
      ],
      "stateMutability": "view",
      "type": "function"
    },
    {
      "inputs": [],
      "name": "decimals",
      "outputs": [
        {
          "internalType": "uint8",
          "name": "",
          "type": "uint8"
        }
      ],
      "stateMutability": "view",
      "type": "function"
    },
    {
      "inputs": [],
      "name": "exchangeRateCurrent",
      "outputs": [
        {
          "internalType": "uint256",
          "name": "",
          "type": "uint256"
        }
      ],
      "stateMutability": "nonpayable",
      "type": "function"
    },
    {
      "inputs": [],
      "name": "exchangeRateStored",
      "outputs": [
        {
          "internalType": "uint256",
          "name": "",
          "type": "uint256"
        }
      ],
      "stateMutability": "view",
      "type": "function"
    },
    {
      "inputs": [
        {
          "internalType": "address",
          "name": "account",
          "type": "address"
        }
      ],
      "name": "getAccountSnapshot",
      "outputs": [
        {
          "internalType": "uint256",
          "name": "",
          "type": "uint256"
        },
        {
          "internalType": "uint256",
          "name": "",
          "type": "uint256"
        },
        {
          "internalType": "uint256",
          "name": "",
          "type": "uint256"
        },
        {
          "internalType": "uint256",
          "name": "",
          "type": "uint256"
        }
      ],
      "stateMutability": "view",
      "type": "function"
    },
    {
      "inputs": [],
      "name": "getCash",
      "outputs": [
        {
          "internalType": "uint256",
          "name": "",
          "type": "uint256"
        }
      ],
      "stateMutability": "view",
      "type": "function"
    },
    {
      "inputs": [
        {
          "internalType": "address",
          "name": "underlying_",
          "type": "address"
        },
        {
          "internalType": "contract ComptrollerInterface",
          "name": "comptroller_",
          "type": "address"
        },
        {
          "internalType": "contract InterestRateModel",
          "name": "interestRateModel_",
          "type": "address"
        },
        {
          "internalType": "uint256",
          "name": "initialExchangeRateMantissa_",
          "type": "uint256"
        },
        {
          "internalType": "string",
          "name": "name_",
          "type": "string"
        },
        {
          "internalType": "string",
          "name": "symbol_",
          "type": "string"
        },
        {
          "internalType": "uint8",
          "name": "decimals_",
          "type": "uint8"
        }
      ],
      "name": "initialize",
      "outputs": [],
      "stateMutability": "nonpayable",
      "type": "function"
    },
    {
      "inputs": [
        {
          "internalType": "contract ComptrollerInterface",
          "name": "comptroller_",
          "type": "address"
        },
        {
          "internalType": "contract InterestRateModel",
          "name": "interestRateModel_",
          "type": "address"
        },
        {
          "internalType": "uint256",
          "name": "initialExchangeRateMantissa_",
          "type": "uint256"
        },
        {
          "internalType": "string",
          "name": "name_",
          "type": "string"
        },
        {
          "internalType": "string",
          "name": "symbol_",
          "type": "string"
        },
        {
          "internalType": "uint8",
          "name": "decimals_",
          "type": "uint8"
        }
      ],
      "name": "initialize",
      "outputs": [],
      "stateMutability": "nonpayable",
      "type": "function"
    },
    {
      "inputs": [],
      "name": "interestRateModel",
      "outputs": [
        {
          "internalType": "contract InterestRateModel",
          "name": "",
          "type": "address"
        }
      ],
      "stateMutability": "view",
      "type": "function"
    },
    {
      "inputs": [],
      "name": "isCToken",
      "outputs": [
        {
          "internalType": "bool",
          "name": "",
          "type": "bool"
        }
      ],
      "stateMutability": "view",
      "type": "function"
    },
    {
      "inputs": [
        {
          "internalType": "address",
          "name": "borrower",
          "type": "address"
        },
        {
          "internalType": "uint256",
          "name": "repayAmount",
          "type": "uint256"
        },
        {
          "internalType": "contract CTokenInterface",
          "name": "cTokenCollateral",
          "type": "address"
        }
      ],
      "name": "liquidateBorrow",
      "outputs": [
        {
          "internalType": "uint256",
          "name": "",
          "type": "uint256"
        }
      ],
      "stateMutability": "nonpayable",
      "type": "function"
    },
    {
      "inputs": [
        {
          "internalType": "uint256",
          "name": "mintAmount",
          "type": "uint256"
        }
      ],
      "name": "mint",
      "outputs": [
        {
          "internalType": "uint256",
          "name": "",
          "type": "uint256"
        }
      ],
      "stateMutability": "nonpayable",
      "type": "function"
    },
    {
      "inputs": [],
      "name": "name",
      "outputs": [
        {
          "internalType": "string",
          "name": "",
          "type": "string"
        }
      ],
      "stateMutability": "view",
      "type": "function"
    },
    {
      "inputs": [],
      "name": "pendingAdmin",
      "outputs": [
        {
          "internalType": "address payable",
          "name": "",
          "type": "address"
        }
      ],
      "stateMutability": "view",
      "type": "function"
    },
    {
      "inputs": [],
      "name": "primaryIndexToken",
      "outputs": [
        {
          "internalType": "address",
          "name": "",
          "type": "address"
        }
      ],
      "stateMutability": "view",
      "type": "function"
    },
    {
      "inputs": [],
      "name": "protocolSeizeShareMantissa",
      "outputs": [
        {
          "internalType": "uint256",
          "name": "",
          "type": "uint256"
        }
      ],
      "stateMutability": "view",
      "type": "function"
    },
    {
      "inputs": [
        {
          "internalType": "uint256",
          "name": "redeemTokens",
          "type": "uint256"
        }
      ],
      "name": "redeem",
      "outputs": [
        {
          "internalType": "uint256",
          "name": "",
          "type": "uint256"
        }
      ],
      "stateMutability": "nonpayable",
      "type": "function"
    },
    {
      "inputs": [
        {
          "internalType": "uint256",
          "name": "redeemAmount",
          "type": "uint256"
        }
      ],
      "name": "redeemUnderlying",
      "outputs": [
        {
          "internalType": "uint256",
          "name": "",
          "type": "uint256"
        }
      ],
      "stateMutability": "nonpayable",
      "type": "function"
    },
    {
      "inputs": [
        {
          "internalType": "uint256",
          "name": "repayAmount",
          "type": "uint256"
        }
      ],
      "name": "repayBorrow",
      "outputs": [
        {
          "internalType": "uint256",
          "name": "",
          "type": "uint256"
        }
      ],
      "stateMutability": "nonpayable",
      "type": "function"
    },
    {
      "inputs": [
        {
          "internalType": "address",
          "name": "borrower",
          "type": "address"
        },
        {
          "internalType": "uint256",
          "name": "repayAmount",
          "type": "uint256"
        }
      ],
      "name": "repayBorrowBehalf",
      "outputs": [
        {
          "internalType": "uint256",
          "name": "",
          "type": "uint256"
        }
      ],
      "stateMutability": "nonpayable",
      "type": "function"
    },
    {
      "inputs": [],
      "name": "reserveFactorMantissa",
      "outputs": [
        {
          "internalType": "uint256",
          "name": "",
          "type": "uint256"
        }
      ],
      "stateMutability": "view",
      "type": "function"
    },
    {
      "inputs": [
        {
          "internalType": "address",
          "name": "liquidator",
          "type": "address"
        },
        {
          "internalType": "address",
          "name": "borrower",
          "type": "address"
        },
        {
          "internalType": "uint256",
          "name": "seizeTokens",
          "type": "uint256"
        }
      ],
      "name": "seize",
      "outputs": [
        {
          "internalType": "uint256",
          "name": "",
          "type": "uint256"
        }
      ],
      "stateMutability": "nonpayable",
      "type": "function"
    },
    {
      "inputs": [],
      "name": "supplyRatePerBlock",
      "outputs": [
        {
          "internalType": "uint256",
          "name": "",
          "type": "uint256"
        }
      ],
      "stateMutability": "view",
      "type": "function"
    },
    {
      "inputs": [
        {
          "internalType": "contract EIP20NonStandardInterface",
          "name": "token",
          "type": "address"
        }
      ],
      "name": "sweepToken",
      "outputs": [],
      "stateMutability": "nonpayable",
      "type": "function"
    },
    {
      "inputs": [],
      "name": "symbol",
      "outputs": [
        {
          "internalType": "string",
          "name": "",
          "type": "string"
        }
      ],
      "stateMutability": "view",
      "type": "function"
    },
    {
      "inputs": [],
      "name": "totalBorrows",
      "outputs": [
        {
          "internalType": "uint256",
          "name": "",
          "type": "uint256"
        }
      ],
      "stateMutability": "view",
      "type": "function"
    },
    {
      "inputs": [],
      "name": "totalBorrowsCurrent",
      "outputs": [
        {
          "internalType": "uint256",
          "name": "",
          "type": "uint256"
        }
      ],
      "stateMutability": "nonpayable",
      "type": "function"
    },
    {
      "inputs": [],
      "name": "totalReserves",
      "outputs": [
        {
          "internalType": "uint256",
          "name": "",
          "type": "uint256"
        }
      ],
      "stateMutability": "view",
      "type": "function"
    },
    {
      "inputs": [],
      "name": "totalSupply",
      "outputs": [
        {
          "internalType": "uint256",
          "name": "",
          "type": "uint256"
        }
      ],
      "stateMutability": "view",
      "type": "function"
    },
    {
      "inputs": [
        {
          "internalType": "address",
          "name": "dst",
          "type": "address"
        },
        {
          "internalType": "uint256",
          "name": "amount",
          "type": "uint256"
        }
      ],
      "name": "transfer",
      "outputs": [
        {
          "internalType": "bool",
          "name": "",
          "type": "bool"
        }
      ],
      "stateMutability": "nonpayable",
      "type": "function"
    },
    {
      "inputs": [
        {
          "internalType": "address",
          "name": "src",
          "type": "address"
        },
        {
          "internalType": "address",
          "name": "dst",
          "type": "address"
        },
        {
          "internalType": "uint256",
          "name": "amount",
          "type": "uint256"
        }
      ],
      "name": "transferFrom",
      "outputs": [
        {
          "internalType": "bool",
          "name": "",
          "type": "bool"
        }
      ],
      "stateMutability": "nonpayable",
      "type": "function"
    },
    {
      "inputs": [],
      "name": "underlying",
      "outputs": [
        {
          "internalType": "address",
          "name": "",
          "type": "address"
        }
      ],
      "stateMutability": "view",
      "type": "function"
    },
    {
      "inputs": [
        {
          "internalType": "address",
          "name": "underlying_",
          "type": "address"
        },
        {
          "internalType": "contract ComptrollerInterface",
          "name": "comptroller_",
          "type": "address"
        },
        {
          "internalType": "contract InterestRateModel",
          "name": "interestRateModel_",
          "type": "address"
        },
        {
          "internalType": "uint256",
          "name": "initialExchangeRateMantissa_",
          "type": "uint256"
        },
        {
          "internalType": "string",
          "name": "name_",
          "type": "string"
        },
        {
          "internalType": "string",
          "name": "symbol_",
          "type": "string"
        },
        {
          "internalType": "uint8",
          "name": "decimals_",
          "type": "uint8"
        },
        {
          "internalType": "address",
          "name": "admin_",
          "type": "address"
        }
      ],
      "name": "init",
      "outputs": [],
      "stateMutability": "nonpayable",
      "type": "function"
    },
    {
      "inputs": [
        {
          "internalType": "address",
          "name": "_primaryIndexToken",
          "type": "address"
        }
      ],
      "name": "setPrimaryIndexToken",
      "outputs": [],
      "stateMutability": "nonpayable",
      "type": "function"
    },
    {
      "inputs": [
        {
          "internalType": "address",
          "name": "minter",
          "type": "address"
        },
        {
          "internalType": "uint256",
          "name": "mintAmount",
          "type": "uint256"
        }
      ],
      "name": "mintTo",
      "outputs": [
        {
          "internalType": "uint256",
          "name": "err",
          "type": "uint256"
        },
        {
          "internalType": "uint256",
          "name": "mintedAmount",
          "type": "uint256"
        }
      ],
      "stateMutability": "nonpayable",
      "type": "function"
    },
    {
      "inputs": [
        {
          "internalType": "address",
          "name": "redeemer",
          "type": "address"
        },
        {
          "internalType": "uint256",
          "name": "redeemTokens",
          "type": "uint256"
        }
      ],
      "name": "redeemTo",
      "outputs": [
        {
          "internalType": "uint256",
          "name": "redeemErr",
          "type": "uint256"
        }
      ],
      "stateMutability": "nonpayable",
      "type": "function"
    },
    {
      "inputs": [
        {
          "internalType": "address",
          "name": "redeemer",
          "type": "address"
        },
        {
          "internalType": "uint256",
          "name": "redeemAmount",
          "type": "uint256"
        }
      ],
      "name": "redeemUnderlyingTo",
      "outputs": [
        {
          "internalType": "uint256",
          "name": "redeemUnderlyingError",
          "type": "uint256"
        }
      ],
      "stateMutability": "nonpayable",
      "type": "function"
    },
    {
      "inputs": [
        {
          "internalType": "address",
          "name": "borrower",
          "type": "address"
        },
        {
          "internalType": "uint256",
          "name": "borrowAmount",
          "type": "uint256"
        }
      ],
      "name": "borrowTo",
      "outputs": [
        {
          "internalType": "uint256",
          "name": "borrowError",
          "type": "uint256"
        }
      ],
      "stateMutability": "nonpayable",
      "type": "function"
    },
    {
      "inputs": [
        {
          "internalType": "address",
          "name": "payer",
          "type": "address"
        },
        {
          "internalType": "uint256",
          "name": "repayAmount",
          "type": "uint256"
        }
      ],
      "name": "repayBorrowTo",
      "outputs": [
        {
          "internalType": "uint256",
          "name": "repayBorrowError",
          "type": "uint256"
        },
        {
          "internalType": "uint256",
          "name": "amountRepayed",
          "type": "uint256"
        }
      ],
      "stateMutability": "nonpayable",
      "type": "function"
    }
  ],
  "bytecode": "0x608060405234801561001057600080fd5b5061587280620000216000396000f3fe608060405234801561001057600080fd5b50600436106103995760003560e01c806373acee98116101e9578063bd6d894d1161010f578063f2b3abbd116100ad578063f8f9da281161007c578063f8f9da28146107ec578063fca7820b146107f4578063fda0241d14610807578063fe9c44ae1461081a57600080fd5b8063f2b3abbd1461079b578063f3fdb15a146107ae578063f5e3c462146107c1578063f851a440146107d457600080fd5b8063d8a26be5116100e9578063d8a26be514610734578063db006a7514610747578063dd62ed3e1461075a578063e9c714f21461079357600080fd5b8063bd6d894d146106e6578063c37f68e2146106ee578063c5ebeaec1461072157600080fd5b8063a19d146011610187578063ab792e7311610156578063ab792e73146106a5578063ae9d70b0146106b8578063b2a02ff1146106c0578063b71d1a0c146106d357600080fd5b8063a19d146014610661578063a6afed9514610681578063a9059cbb14610689578063aa5af0fd1461069c57600080fd5b806395d89b41116101c357806395d89b411461062057806395dd91931461062857806399d8c1b41461063b578063a0712d681461064e57600080fd5b806373acee98146105fc578063852a12e3146106045780638f840ddd1461061757600080fd5b80633af9e669116102ce5780635fe3b5671161026c5780636c540baf1161023b5780636c540baf146105a45780636ec51098146105ad5780636f307dc3146105c057806370a08231146105d357600080fd5b80635fe3b5671461055d578063601a0bf1146105705780636664aa78146105835780636752e7021461059657600080fd5b8063449a52f8116102a8578063449a52f8146105065780634576b5db1461052e5780634703d19c1461054157806347bd37181461055457600080fd5b80633af9e669146104d85780633b1d21a2146104eb5780633e941010146104f357600080fd5b80631a31d4651161033b5780632608f818116103155780632608f81814610468578063267822471461047b5780632f7605fb146104a6578063313ce567146104b957600080fd5b80631a31d4651461042d5780631be195601461044257806323b872dd1461045557600080fd5b8063173b990411610377578063173b99041461040057806317bfdfbc1461040957806318160ddd1461041c578063182df0f51461042557600080fd5b806306fdde031461039e578063095ea7b3146103bc5780630e752702146103df575b600080fd5b6103a6610822565b6040516103b3919061569e565b60405180910390f35b6103cf6103ca3660046154f2565b6108b0565b60405190151581526020016103b3565b6103f26103ed366004615624565b610920565b6040519081526020016103b3565b6103f260085481565b6103f26104173660046152da565b610934565b6103f2600d5481565b6103f26109e2565b61044061043b366004615371565b610a73565b005b6104406104503660046152da565b610b17565b6103cf610463366004615330565b610c7b565b6103f26104763660046154f2565b610cd7565b60045461048e906001600160a01b031681565b6040516001600160a01b0390911681526020016103b3565b6103f26104b43660046154f2565b610ced565b6003546104c69060ff1681565b60405160ff90911681526020016103b3565b6103f26104e63660046152da565b610d51565b6103f2610df9565b6103f2610501366004615624565b610e08565b6105196105143660046154f2565b610e13565b604080519283526020830191909152016103b3565b6103f261053c3660046152da565b610f3e565b61044061054f366004615427565b611093565b6103f2600b5481565b60055461048e906001600160a01b031681565b6103f261057e366004615624565b611194565b6103f26105913660046154f2565b61121f565b6103f2666379da05b6000081565b6103f260095481565b6104406105bb3660046152da565b61126c565b60115461048e906001600160a01b031681565b6103f26105e13660046152da565b6001600160a01b03166000908152600e602052604090205490565b6103f26112e5565b6103f2610612366004615624565b611380565b6103f2600c5481565b6103a661138b565b6103f26106363660046152da565b611398565b610440610649366004615582565b611432565b6103f261065c366004615624565b611695565b6103f261066f3660046152da565b600e6020526000908152604090205481565b6103f26116a1565b6103cf6106973660046154f2565b611a22565b6103f2600a5481565b6105196106b33660046154f2565b611a7d565b6103f2611ade565b6103f26106ce366004615330565b611b85565b6103f26106e13660046152da565b611be0565b6103f2611c60565b6107016106fc3660046152da565b611d01565b6040805194855260208501939093529183015260608201526080016103b3565b6103f261072f366004615624565b611da2565b60125461048e906001600160a01b031681565b6103f2610755366004615624565b611dad565b6103f26107683660046152f7565b6001600160a01b039182166000908152600f6020908152604080832093909416825291909152205490565b6103f2611db8565b6103f26107a93660046152da565b611eb0565b60065461048e906001600160a01b031681565b6103f26107cf36600461551e565b611ee8565b60035461048e9061010090046001600160a01b031681565b6103f2611f00565b6103f2610802366004615624565b611f53565b6103f26108153660046154f2565b611fbd565b6103cf600181565b6001805461082f90615787565b80601f016020809104026020016040519081016040528092919081815260200182805461085b90615787565b80156108a85780601f1061087d576101008083540402835291602001916108a8565b820191906000526020600020905b81548152906001019060200180831161088b57829003601f168201915b505050505081565b336000818152600f602090815260408083206001600160a01b03871680855292528083208590555191929182907f8c5be1e5ebec7d5bd14f71427d1e84f3dd0314c0f7b2291e5b200ac8c7c3b9259061090c9087815260200190565b60405180910390a360019150505b92915050565b60008061092c8361200f565b509392505050565b6000805462010000900460ff166109665760405162461bcd60e51b815260040161095d906156f3565b60405180910390fd5b6000805462ff00001916815561097a6116a1565b146109c05760405162461bcd60e51b81526020600482015260166024820152751858d8dc9d59481a5b9d195c995cdd0819985a5b195960521b604482015260640161095d565b6109c982611398565b90505b6000805462ff0000191662010000179055919050565b60008060006109ef6120a0565b90925090506000826003811115610a0857610a086157d8565b1461091a5760405162461bcd60e51b815260206004820152603560248201527f65786368616e67655261746553746f7265643a2065786368616e67655261746560448201527414dd1bdc9959125b9d195c9b985b0819985a5b1959605a1b606482015260840161095d565b610a81868686868686611432565b601180546001600160a01b0319166001600160a01b038916908117909155604080516318160ddd60e01b815290516318160ddd91600480820192602092909190829003018186803b158015610ad557600080fd5b505afa158015610ae9573d6000803e3d6000fd5b505050506040513d601f19601f82011682018060405250810190610b0d919061563d565b5050505050505050565b6011546001600160a01b0382811691161415610b905760405162461bcd60e51b815260206004820152603260248201527f4345726332303a3a7377656570546f6b656e3a2063616e206e6f74207377656560448201527138103ab73232b9363cb4b733903a37b5b2b760711b606482015260840161095d565b6040516370a0823160e01b81523060048201526000906001600160a01b038316906370a082319060240160206040518083038186803b158015610bd257600080fd5b505afa158015610be6573d6000803e3d6000fd5b505050506040513d601f19601f82011682018060405250810190610c0a919061563d565b60035460405163a9059cbb60e01b81526001600160a01b03610100909204821660048201526024810183905291925083169063a9059cbb90604401600060405180830381600087803b158015610c5f57600080fd5b505af1158015610c73573d6000803e3d6000fd5b505050505050565b6000805462010000900460ff16610ca45760405162461bcd60e51b815260040161095d906156f3565b6000805462ff000019168155610cbc3386868661215c565b1490506000805462ff00001916620100001790559392505050565b600080610ce48484612409565b50949350505050565b6012546000906001600160a01b03163314610d0757600080fd5b6000610d116116a1565b90508015610d3d57610d35816010811115610d2e57610d2e6157d8565b60276124a3565b91505061091a565b610d498484600061251c565b949350505050565b6000806040518060200160405280610d67611c60565b90526001600160a01b0384166000908152600e6020526040812054919250908190610d93908490612ab1565b90925090506000826003811115610dac57610dac6157d8565b14610d495760405162461bcd60e51b815260206004820152601f60248201527f62616c616e636520636f756c64206e6f742062652063616c63756c6174656400604482015260640161095d565b6000610e03612b03565b905090565b600061091a82612b87565b60125460009081906001600160a01b03163314610e2f57600080fd5b6000610e396116a1565b90508015610e6957610e5d816010811115610e5657610e566157d8565b601e6124a3565b60009250925050610f37565b610e738585612c0b565b90935091508215610ed25760405162461bcd60e51b8152602060048201526024808201527f635072696d617279496e646578546f6b656e3a20657272206973206e6f74207a60448201526365726f2160e01b606482015260840161095d565b60008211610f355760405162461bcd60e51b815260206004820152602a60248201527f635072696d617279496e646578546f6b656e3a206d696e74656420616d6f756e60448201526974206973207a65726f2160b01b606482015260840161095d565b505b9250929050565b60035460009061010090046001600160a01b03163314610f645761091a6001603f6124a3565b60055460408051623f1ee960e11b815290516001600160a01b0392831692851691627e3dd2916004808301926020929190829003018186803b158015610fa957600080fd5b505afa158015610fbd573d6000803e3d6000fd5b505050506040513d601f19601f82011682018060405250810190610fe19190615560565b61102d5760405162461bcd60e51b815260206004820152601c60248201527f6d61726b6572206d6574686f642072657475726e65642066616c736500000000604482015260640161095d565b600580546001600160a01b0319166001600160a01b0385811691821790925560408051928416835260208301919091527f7ac369dbd14fa5ea3f473ed67cc9d598964a77501540ba6751eb0b3decf5870d91015b60405180910390a160005b9392505050565b600054610100900460ff16806110ac575060005460ff16155b61110f5760405162461bcd60e51b815260206004820152602e60248201527f496e697469616c697a61626c653a20636f6e747261637420697320616c72656160448201526d191e481a5b9a5d1a585b1a5e995960921b606482015260840161095d565b600054610100900460ff16158015611131576000805461ffff19166101011790555b60038054610100600160a81b031916336101000217905561115789898989898989610a73565b60038054610100600160a81b0319166101006001600160a01b038516021790558015611189576000805461ff00191690555b505050505050505050565b6000805462010000900460ff166111bd5760405162461bcd60e51b815260040161095d906156f3565b6000805462ff0000191681556111d16116a1565b905080156111fd576111f58160108111156111ee576111ee6157d8565b60306124a3565b9150506109cc565b61120683613099565b9150506000805462ff0000191662010000179055919050565b6012546000906001600160a01b0316331461123957600080fd5b60006112436116a1565b9050801561126057610d35816010811115610d2e57610d2e6157d8565b610d498460008561251c565b60035461010090046001600160a01b031633146112c35760405162461bcd60e51b81526020600482015260156024820152746d73672e73656e646572206e6f742061646d696e2160581b604482015260640161095d565b601280546001600160a01b0319166001600160a01b0392909216919091179055565b6000805462010000900460ff1661130e5760405162461bcd60e51b815260040161095d906156f3565b6000805462ff0000191681556113226116a1565b146113685760405162461bcd60e51b81526020600482015260166024820152751858d8dc9d59481a5b9d195c995cdd0819985a5b195960521b604482015260640161095d565b50600b546000805462ff000019166201000017905590565b600061091a826131e3565b6002805461082f90615787565b60008060006113a684613249565b909250905060008260038111156113bf576113bf6157d8565b1461108c5760405162461bcd60e51b815260206004820152603760248201527f626f72726f7742616c616e636553746f7265643a20626f72726f7742616c616e60448201527f636553746f726564496e7465726e616c206661696c6564000000000000000000606482015260840161095d565b60035461010090046001600160a01b0316331461149d5760405162461bcd60e51b8152602060048201526024808201527f6f6e6c792061646d696e206d617920696e697469616c697a6520746865206d616044820152631c9ad95d60e21b606482015260840161095d565b6009541580156114ad5750600a54155b6115055760405162461bcd60e51b815260206004820152602360248201527f6d61726b6574206d6179206f6e6c7920626520696e697469616c697a6564206f6044820152626e636560e81b606482015260840161095d565b6007849055836115705760405162461bcd60e51b815260206004820152603060248201527f696e697469616c2065786368616e67652072617465206d75737420626520677260448201526f32b0ba32b9103a3430b7103d32b9379760811b606482015260840161095d565b600061157b87610f3e565b905080156115cb5760405162461bcd60e51b815260206004820152601a60248201527f73657474696e6720636f6d7074726f6c6c6572206661696c6564000000000000604482015260640161095d565b43600955670de0b6b3a7640000600a556115e486613302565b9050801561163f5760405162461bcd60e51b815260206004820152602260248201527f73657474696e6720696e7465726573742072617465206d6f64656c206661696c604482015261195960f21b606482015260840161095d565b835161165290600190602087019061519e565b50825161166690600290602086019061519e565b50506003805460ff90921660ff1990921691909117905550506000805462ff0000191662010000179055505050565b60008061092c8361346c565b6009546000904390808214156116bb5760005b9250505090565b60006116c5612b03565b600b54600c54600a546006546040516315f2405360e01b81526004810186905260248101859052604481018490529495509293919290916000916001600160a01b0316906315f240539060640160206040518083038186803b15801561172a57600080fd5b505afa15801561173e573d6000803e3d6000fd5b505050506040513d601f19601f82011682018060405250810190611762919061563d565b905065048c273950008111156117ba5760405162461bcd60e51b815260206004820152601c60248201527f626f72726f772072617465206973206162737572646c79206869676800000000604482015260640161095d565b6000806117c789896134d2565b909250905060008260038111156117e0576117e06157d8565b1461182d5760405162461bcd60e51b815260206004820152601f60248201527f636f756c64206e6f742063616c63756c61746520626c6f636b2064656c746100604482015260640161095d565b60408051602081019091526000815260008060008061185a60405180602001604052808a815250876134fd565b90975094506000876003811115611873576118736157d8565b146118a95761189660096006896003811115611891576118916157d8565b613579565b9e50505050505050505050505050505090565b6118b3858c612ab1565b909750935060008760038111156118cc576118cc6157d8565b146118ea5761189660096001896003811115611891576118916157d8565b6118f4848c6135f1565b9097509250600087600381111561190d5761190d6157d8565b1461192b5761189660096004896003811115611891576118916157d8565b6119466040518060200160405280600854815250858c613621565b9097509150600087600381111561195f5761195f6157d8565b1461197d5761189660096005896003811115611891576118916157d8565b611988858a8b613621565b909750905060008760038111156119a1576119a16157d8565b146119bf5761189660096003896003811115611891576118916157d8565b60098e9055600a819055600b839055600c829055604080518d815260208101869052908101829052606081018490527f4dec04e750ca11537cabcd8a9eab06494de08da3735bc8871cd41250e190bc049060800160405180910390a16000611896565b6000805462010000900460ff16611a4b5760405162461bcd60e51b815260040161095d906156f3565b6000805462ff000019168155611a633333868661215c565b1490506000805462ff000019166201000017905592915050565b60125460009081906001600160a01b03163314611a9957600080fd5b6000611aa36116a1565b90508015611ac757610e5d816010811115611ac057611ac06157d8565b60366124a3565b611ad285868661367c565b90969095509350505050565b6006546000906001600160a01b031663b8168816611afa612b03565b600b54600c546008546040516001600160e01b031960e087901b16815260048101949094526024840192909252604483015260648201526084015b60206040518083038186803b158015611b4d57600080fd5b505afa158015611b61573d6000803e3d6000fd5b505050506040513d601f19601f82011682018060405250810190610e03919061563d565b6000805462010000900460ff16611bae5760405162461bcd60e51b815260040161095d906156f3565b6000805462ff000019169055611bc633858585613aa3565b90506000805462ff00001916620100001790559392505050565b60035460009061010090046001600160a01b03163314611c065761091a600160456124a3565b600480546001600160a01b038481166001600160a01b031983168117909355604080519190921680825260208201939093527fca4f2f25d0898edd99413412fb94012f9e54ec8142f9b093e7720646a95b16a99101611081565b6000805462010000900460ff16611c895760405162461bcd60e51b815260040161095d906156f3565b6000805462ff000019168155611c9d6116a1565b14611ce35760405162461bcd60e51b81526020600482015260166024820152751858d8dc9d59481a5b9d195c995cdd0819985a5b195960521b604482015260640161095d565b611ceb6109e2565b90506000805462ff000019166201000017905590565b6001600160a01b0381166000908152600e6020526040812054819081908190818080611d2c89613249565b935090506000816003811115611d4457611d446157d8565b14611d625760095b6000806000975097509750975050505050611d9b565b611d6a6120a0565b925090506000816003811115611d8257611d826157d8565b14611d8e576009611d4c565b5060009650919450925090505b9193509193565b600061091a82613f12565b600061091a82613f76565b6004546000906001600160a01b031633141580611dd3575033155b15611de457610e03600160006124a3565b60038054600480546001600160a01b03808216610100818102610100600160a81b0319871617968790556001600160a01b031990931690935560408051948390048216808652929095041660208401529290917ff9ffabca9c8276e99321725bcb43fb076a6c66a54b7f21c4e8146d8519b417dc910160405180910390a1600454604080516001600160a01b03808516825290921660208301527fca4f2f25d0898edd99413412fb94012f9e54ec8142f9b093e7720646a95b16a9910160405180910390a160006116b4565b600080611ebb6116a1565b90508015611edf5761108c816010811115611ed857611ed86157d8565b60406124a3565b61108c83613302565b600080611ef6858585613fdc565b5095945050505050565b6006546000906001600160a01b03166315f24053611f1c612b03565b600b54600c546040516001600160e01b031960e086901b168152600481019390935260248301919091526044820152606401611b35565b6000805462010000900460ff16611f7c5760405162461bcd60e51b815260040161095d906156f3565b6000805462ff000019168155611f906116a1565b90508015611fb4576111f5816010811115611fad57611fad6157d8565b60466124a3565b6112068361410f565b6012546000906001600160a01b03163314611fd757600080fd5b6000611fe16116a1565b9050801561200557610d35816010811115611ffe57611ffe6157d8565b60086124a3565b610d4984846141a4565b60008054819062010000900460ff1661203a5760405162461bcd60e51b815260040161095d906156f3565b6000805462ff00001916815561204e6116a1565b905080156120775761206b816010811115611ac057611ac06157d8565b60009250925050612088565b61208233338661367c565b92509250505b6000805462ff00001916620100001790559092909150565b600d546000908190806120ba575050600754600092909150565b60006120c4612b03565b905060006120de6040518060200160405280600081525090565b60006120ef84600b54600c54614495565b935090506000816003811115612107576121076157d8565b14612119579660009650945050505050565b61212383866144d9565b92509050600081600381111561213b5761213b6157d8565b1461214d579660009650945050505050565b50516000969095509350505050565b6005546040516317b9b84b60e31b81523060048201526001600160a01b038581166024830152848116604483015260648201849052600092839291169063bdcdc25890608401602060405180830381600087803b1580156121bc57600080fd5b505af11580156121d0573d6000803e3d6000fd5b505050506040513d601f19601f820116820180604052508101906121f4919061563d565b90508015612211576122096003604a83613579565b915050610d49565b836001600160a01b0316856001600160a01b03161415612237576122096002604b6124a3565b6000856001600160a01b0316876001600160a01b0316141561225c5750600019612284565b506001600160a01b038086166000908152600f60209081526040808320938a16835292905220545b60008060008061229485896134d2565b909450925060008460038111156122ad576122ad6157d8565b146122cb576122be6009604b6124a3565b9650505050505050610d49565b6001600160a01b038a166000908152600e60205260409020546122ee90896134d2565b90945091506000846003811115612307576123076157d8565b14612318576122be6009604c6124a3565b6001600160a01b0389166000908152600e602052604090205461233b90896135f1565b90945090506000846003811115612354576123546157d8565b14612365576122be6009604d6124a3565b6001600160a01b03808b166000908152600e6020526040808220859055918b1681522081905560001985146123bd576001600160a01b03808b166000908152600f60209081526040808320938f168352929052208390555b886001600160a01b03168a6001600160a01b031660008051602061581d8339815191528a6040516123f091815260200190565b60405180910390a35060009a9950505050505050505050565b60008054819062010000900460ff166124345760405162461bcd60e51b815260040161095d906156f3565b6000805462ff0000191681556124486116a1565b905080156124785761246c816010811115612465576124656157d8565b60356124a3565b60009250925050612489565b61248333868661367c565b92509250505b6000805462ff000019166201000017905590939092509050565b60007f45b96fe442630264581b197e84bbada861235052c5a1aadfff9ea4e40a969aa08360108111156124d8576124d86157d8565b8360508111156124ea576124ea6157d8565b60408051928352602083019190915260009082015260600160405180910390a182601081111561108c5761108c6157d8565b6000821580612529575081155b6125925760405162461bcd60e51b815260206004820152603460248201527f6f6e65206f662072656465656d546f6b656e73496e206f722072656465656d416044820152736d6f756e74496e206d757374206265207a65726f60601b606482015260840161095d565b6125d36040805160e0810190915280600081526020016000815260200160008152602001600081526020016000815260200160008152602001600081525090565b6125db6120a0565b60408301819052602083018260038111156125f8576125f86157d8565b6003811115612609576126096157d8565b9052506000905081602001516003811115612626576126266157d8565b14612650576126486009602b83602001516003811115611891576118916157d8565b91505061108c565b83156126e95760608101849052604080516020810182529082015181526126779085612ab1565b6080830181905260208301826003811115612694576126946157d8565b60038111156126a5576126a56157d8565b90525060009050816020015160038111156126c2576126c26157d8565b146126e4576126486009602983602001516003811115611891576118916157d8565b61277a565b61270583604051806020016040528084604001518152506145a4565b6060830181905260208301826003811115612722576127226157d8565b6003811115612733576127336157d8565b9052506000905081602001516003811115612750576127506157d8565b14612772576126486009602a83602001516003811115611891576118916157d8565b608081018390525b600554606082015160405163eabe7d9160e01b81526000926001600160a01b03169163eabe7d91916127b39130918b919060040161567a565b602060405180830381600087803b1580156127cd57600080fd5b505af11580156127e1573d6000803e3d6000fd5b505050506040513d601f19601f82011682018060405250810190612805919061563d565b905080156128235761281a6003602883613579565b9250505061108c565b43600954146128385761281a600a602c6124a3565b612848600d5483606001516134d2565b60a0840181905260208401826003811115612865576128656157d8565b6003811115612876576128766157d8565b9052506000905082602001516003811115612893576128936157d8565b146128b55761281a6009602e84602001516003811115611891576118916157d8565b6001600160a01b0386166000908152600e602052604090205460608301516128dd91906134d2565b60c08401819052602084018260038111156128fa576128fa6157d8565b600381111561290b5761290b6157d8565b9052506000905082602001516003811115612928576129286157d8565b1461294a5761281a6009602d84602001516003811115611891576118916157d8565b8160800151612957612b03565b10156129695761281a600e602f6124a3565b6129778683608001516145b4565b60a0820151600d5560c08201516001600160a01b0387166000818152600e6020526040908190209290925560608401519151309260008051602061581d833981519152916129c791815260200190565b60405180910390a36080820151606080840151604080516001600160a01b038b16815260208101949094528301527fe5b754fb1abb7f01b499791d0b820ae3b6af3424ac1c59768edb53f4ec31a929910160405180910390a1600554608083015160608401516040516351dff98960e01b81523060048201526001600160a01b038a81166024830152604482019390935260648101919091529116906351dff98990608401600060405180830381600087803b158015612a8657600080fd5b505af1158015612a9a573d6000803e3d6000fd5b5060009250612aa7915050565b9695505050505050565b600080600080612ac186866134fd565b90925090506000826003811115612ada57612ada6157d8565b14612aeb5750915060009050610f37565b6000612af68261469e565b9350935050509250929050565b6011546040516370a0823160e01b81523060048201526000916001600160a01b03169081906370a082319060240160206040518083038186803b158015612b4957600080fd5b505afa158015612b5d573d6000803e3d6000fd5b505050506040513d601f19601f82011682018060405250810190612b81919061563d565b91505090565b6000805462010000900460ff16612bb05760405162461bcd60e51b815260040161095d906156f3565b6000805462ff000019168155612bc46116a1565b90508015612be8576111f5816010811115612be157612be16157d8565b604e6124a3565b612bf1836146b6565b509150506000805462ff0000191662010000179055919050565b600554604051634ef4c3e160e01b8152600091829182916001600160a01b031690634ef4c3e190612c449030908990899060040161567a565b602060405180830381600087803b158015612c5e57600080fd5b505af1158015612c72573d6000803e3d6000fd5b505050506040513d601f19601f82011682018060405250810190612c96919061563d565b90508015612cab57610e5d6003601f83613579565b4360095414612cc057610e5d600a60226124a3565b612d016040805160e0810190915280600081526020016000815260200160008152602001600081526020016000815260200160008152602001600081525090565b612d096120a0565b6040830181905260208301826003811115612d2657612d266157d8565b6003811115612d3757612d376157d8565b9052506000905081602001516003811115612d5457612d546157d8565b14612d8357612d766009602183602001516003811115611891576118916157d8565b6000935093505050610f37565b612d8d8686614795565b60c0820181905260408051602081018252908301518152612dae91906145a4565b6060830181905260208301826003811115612dcb57612dcb6157d8565b6003811115612ddc57612ddc6157d8565b9052506000905081602001516003811115612df957612df96157d8565b14612e465760405162461bcd60e51b815260206004820181905260248201527f4d494e545f45584348414e47455f43414c43554c4154494f4e5f4641494c4544604482015260640161095d565b612e56600d5482606001516135f1565b6080830181905260208301826003811115612e7357612e736157d8565b6003811115612e8457612e846157d8565b9052506000905081602001516003811115612ea157612ea16157d8565b14612eff5760405162461bcd60e51b815260206004820152602860248201527f4d494e545f4e45575f544f54414c5f535550504c595f43414c43554c4154494f6044820152671397d1905253115160c21b606482015260840161095d565b6001600160a01b0386166000908152600e60205260409020546060820151612f2791906135f1565b60a0830181905260208301826003811115612f4457612f446157d8565b6003811115612f5557612f556157d8565b9052506000905081602001516003811115612f7257612f726157d8565b14612fd35760405162461bcd60e51b815260206004820152602b60248201527f4d494e545f4e45575f4143434f554e545f42414c414e43455f43414c43554c4160448201526a151253d397d1905253115160aa1b606482015260840161095d565b6080810151600d5560a08101516001600160a01b0387166000818152600e60209081526040918290209390935560c0840151606080860151835194855294840191909152908201929092527f4c209b5fc8ad50758f13e2e1088ba56a560dff690a1c6fef26394f4c03821c4f910160405180910390a1856001600160a01b0316306001600160a01b031660008051602061581d833981519152836060015160405161308091815260200190565b60405180910390a360c001516000969095509350505050565b600354600090819061010090046001600160a01b031633146130c15761108c600160316124a3565b43600954146130d65761108c600a60336124a3565b826130df612b03565b10156130f15761108c600e60326124a3565b600c548311156131075761108c600260346124a3565b82600c546131159190615770565b9050600c548111156131755760405162461bcd60e51b8152602060048201526024808201527f72656475636520726573657276657320756e657870656374656420756e646572604482015263666c6f7760e01b606482015260840161095d565b600c8190556003546131959061010090046001600160a01b0316846145b4565b600354604080516101009092046001600160a01b031682526020820185905281018290527f3bad0c59cf2f06e7314077049f48a93578cd16f5ef92329f1dab1420a99c177e90606001611081565b6000805462010000900460ff1661320c5760405162461bcd60e51b815260040161095d906156f3565b6000805462ff0000191681556132206116a1565b9050801561323d576111f5816010811115610d2e57610d2e6157d8565b6112063360008561251c565b6001600160a01b03811660009081526010602052604081208054829182918291829161327e5750600096879650945050505050565b61328e8160000154600a546149d9565b909450925060008460038111156132a7576132a76157d8565b146132ba57509195600095509350505050565b6132c8838260010154614a23565b909450915060008460038111156132e1576132e16157d8565b146132f457509195600095509350505050565b506000969095509350505050565b600354600090819061010090046001600160a01b0316331461332a5761108c600160426124a3565b436009541461333f5761108c600a60416124a3565b600660009054906101000a90046001600160a01b03169050826001600160a01b0316632191f92a6040518163ffffffff1660e01b815260040160206040518083038186803b15801561339057600080fd5b505afa1580156133a4573d6000803e3d6000fd5b505050506040513d601f19601f820116820180604052508101906133c89190615560565b6134145760405162461bcd60e51b815260206004820152601c60248201527f6d61726b6572206d6574686f642072657475726e65642066616c736500000000604482015260640161095d565b600680546001600160a01b0319166001600160a01b0385811691821790925560408051928416835260208301919091527fedffc32e068c7c95dfd4bdfd5c4d939a084d6b11c4199eac8436ed234d72f9269101611081565b60008054819062010000900460ff166134975760405162461bcd60e51b815260040161095d906156f3565b6000805462ff0000191681556134ab6116a1565b905080156134c85761206b816010811115610e5657610e566157d8565b6120823385612c0b565b6000808383116134f15760006134e88486615770565b91509150610f37565b50600390506000610f37565b60006135156040518060200160405280600081525090565b6000806135268660000151866149d9565b9092509050600082600381111561353f5761353f6157d8565b1461355e57506040805160208101909152600081529092509050610f37565b60408051602081019091529081526000969095509350505050565b60007f45b96fe442630264581b197e84bbada861235052c5a1aadfff9ea4e40a969aa08460108111156135ae576135ae6157d8565b8460508111156135c0576135c06157d8565b604080519283526020830191909152810184905260600160405180910390a1836010811115610d4957610d496157d8565b600080806135ff8486615717565b905084811061361357600092509050610f37565b600260009250925050610f37565b60008060008061363187876134fd565b9092509050600082600381111561364a5761364a6157d8565b1461365b5750915060009050613674565b61366d6136678261469e565b866135f1565b9350935050505b935093915050565b600554604051631200453160e11b81523060048201526001600160a01b03858116602483015284811660448301526064820184905260009283928392909116906324008a6290608401602060405180830381600087803b1580156136df57600080fd5b505af11580156136f3573d6000803e3d6000fd5b505050506040513d601f19601f82011682018060405250810190613717919061563d565b905080156137385761372c6003603883613579565b60009250925050613674565b436009541461374d5761372c600a60396124a3565b6137966040805161010081019091528060008152602001600081526020016000815260200160008152602001600081526020016000815260200160008152602001600081525090565b6001600160a01b03861660009081526010602052604090206001015460608201526137c086613249565b60808301819052602083018260038111156137dd576137dd6157d8565b60038111156137ee576137ee6157d8565b905250600090508160200151600381111561380b5761380b6157d8565b1461383a5761382d6009603783602001516003811115611891576118916157d8565b6000935093505050613674565b846000191415613853576080810151604082015261385b565b604081018590525b613869878260400151614795565b60e08201819052608082015161387e916134d2565b60a083018190526020830182600381111561389b5761389b6157d8565b60038111156138ac576138ac6157d8565b90525060009050816020015160038111156138c9576138c96157d8565b1461393c5760405162461bcd60e51b815260206004820152603a60248201527f52455041595f424f52524f575f4e45575f4143434f554e545f424f52524f575f60448201527f42414c414e43455f43414c43554c4154494f4e5f4641494c4544000000000000606482015260840161095d565b61394c600b548260e001516134d2565b60c0830181905260208301826003811115613969576139696157d8565b600381111561397a5761397a6157d8565b9052506000905081602001516003811115613997576139976157d8565b146139fe5760405162461bcd60e51b815260206004820152603160248201527f52455041595f424f52524f575f4e45575f544f54414c5f42414c414e43455f43604482015270105310d55310551253d397d19052531151607a1b606482015260840161095d565b60a081810180516001600160a01b03898116600081815260106020908152604091829020948555600a5460019095019490945560c0870151600b81905560e088015195518251948f16855294840192909252820193909352606081019190915260808101919091527f1a2a22cb034d26d1854bdc6666a5b91fe25efbbb5dcad3b0355478d6f5c362a1910160405180910390a160e00151600097909650945050505050565b60055460405163d02f735160e01b81523060048201526001600160a01b0386811660248301528581166044830152848116606483015260848201849052600092839291169063d02f73519060a401602060405180830381600087803b158015613b0b57600080fd5b505af1158015613b1f573d6000803e3d6000fd5b505050506040513d601f19601f82011682018060405250810190613b43919061563d565b90508015613b58576122096003601b83613579565b846001600160a01b0316846001600160a01b03161415613b7e576122096006601c6124a3565b613bce604080516101208101909152806000815260200160008152602001600081526020016000815260200160008152602001600081526020016000815260200160008152602001600081525090565b6001600160a01b0385166000908152600e6020526040902054613bf190856134d2565b6020830181905282826003811115613c0b57613c0b6157d8565b6003811115613c1c57613c1c6157d8565b9052506000905081516003811115613c3657613c366157d8565b14613c6157613c586009601a83600001516003811115611891576118916157d8565b92505050610d49565b613c80846040518060200160405280666379da05b60000815250614a4e565b60808201819052613c92908590614a71565b6060820152613c9f6120a0565b60c0830181905282826003811115613cb957613cb96157d8565b6003811115613cca57613cca6157d8565b9052506000905081516003811115613ce457613ce46157d8565b14613d315760405162461bcd60e51b815260206004820152601860248201527f65786368616e67652072617465206d617468206572726f720000000000000000604482015260640161095d565b613d5160405180602001604052808360c001518152508260800151614aab565b60a08201819052600c54613d6491614ac3565b60e0820152600d546080820151613d7b9190614a71565b6101008201526001600160a01b0386166000908152600e60205260409020546060820151613da991906135f1565b6040830181905282826003811115613dc357613dc36157d8565b6003811115613dd457613dd46157d8565b9052506000905081516003811115613dee57613dee6157d8565b14613e1057613c586009601983600001516003811115611891576118916157d8565b60e0810151600c55610100810151600d556020808201516001600160a01b038781166000818152600e855260408082209490945583860151928b168082529084902092909255606085015192519283529092909160008051602061581d833981519152910160405180910390a3306001600160a01b0316856001600160a01b031660008051602061581d8339815191528360800151604051613eb491815260200190565b60405180910390a360a081015160e08201516040805130815260208101939093528201527fa91e67c5ea634cd43a12c5a482724b03de01e85ca68702a53d0c2f45cb7c1dc59060600160405180910390a16000979650505050505050565b6000805462010000900460ff16613f3b5760405162461bcd60e51b815260040161095d906156f3565b6000805462ff000019168155613f4f6116a1565b90508015613f6c576111f5816010811115611ffe57611ffe6157d8565b61120633846141a4565b6000805462010000900460ff16613f9f5760405162461bcd60e51b815260040161095d906156f3565b6000805462ff000019168155613fb36116a1565b90508015613fd0576111f5816010811115610d2e57610d2e6157d8565b6112063384600061251c565b60008054819062010000900460ff166140075760405162461bcd60e51b815260040161095d906156f3565b6000805462ff00001916815561401b6116a1565b9050801561404b5761403f816010811115614038576140386157d8565b600f6124a3565b600092509250506140f4565b836001600160a01b031663a6afed956040518163ffffffff1660e01b8152600401602060405180830381600087803b15801561408657600080fd5b505af115801561409a573d6000803e3d6000fd5b505050506040513d601f19601f820116820180604052508101906140be919061563d565b905080156140e25761403f8160108111156140db576140db6157d8565b60106124a3565b6140ee33878787614af9565b92509250505b6000805462ff00001916620100001790559094909350915050565b60035460009061010090046001600160a01b031633146141355761091a600160476124a3565b436009541461414a5761091a600a60486124a3565b670de0b6b3a76400008211156141665761091a600260496124a3565b600880549083905560408051828152602081018590527faaa68312e2ea9d50e16af5068410ab56e1a1fd06037b1a35664812c30f8214609101611081565b60055460405163368f515360e21b815260009182916001600160a01b039091169063da3d454c906141dd9030908890889060040161567a565b602060405180830381600087803b1580156141f757600080fd5b505af115801561420b573d6000803e3d6000fd5b505050506040513d601f19601f8201168201806040525081019061422f919061563d565b9050801561424457610d356003600e83613579565b436009541461425857610d35600a806124a3565b82614261612b03565b101561427357610d35600e60096124a3565b61429f604080516080810190915280600081526020016000815260200160008152602001600081525090565b6142a885613249565b60208301819052828260038111156142c2576142c26157d8565b60038111156142d3576142d36157d8565b90525060009050815160038111156142ed576142ed6157d8565b146143185761430f6009600783600001516003811115611891576118916157d8565b9250505061091a565b6143268160200151856135f1565b6040830181905282826003811115614340576143406157d8565b6003811115614351576143516157d8565b905250600090508151600381111561436b5761436b6157d8565b1461438d5761430f6009600c83600001516003811115611891576118916157d8565b614399600b54856135f1565b60608301819052828260038111156143b3576143b36157d8565b60038111156143c4576143c46157d8565b90525060009050815160038111156143de576143de6157d8565b146144005761430f6009600b83600001516003811115611891576118916157d8565b61440a85856145b4565b604081810180516001600160a01b03881660008181526010602090815290859020928355600a54600190930192909255606080860151600b8190559351855192835292820189905293810191909152918201527f13ed6866d4e1ee6da46f845c46d7e54120883d75c5ea9a2dacc1c4ca8984ab809060800160405180910390a1600095945050505050565b6000806000806144a587876135f1565b909250905060008260038111156144be576144be6157d8565b146144cf5750915060009050613674565b61366d81866134d2565b60006144f16040518060200160405280600081525090565b60008061450686670de0b6b3a76400006149d9565b9092509050600082600381111561451f5761451f6157d8565b1461453e57506040805160208101909152600081529092509050610f37565b60008061454b8388614a23565b90925090506000826003811115614564576145646157d8565b146145875781604051806020016040528060008152509550955050505050610f37565b604080516020810190915290815260009890975095505050505050565b600080600080612ac18686615005565b60115460405163a9059cbb60e01b81526001600160a01b0384811660048301526024820184905290911690819063a9059cbb90604401600060405180830381600087803b15801561460457600080fd5b505af1158015614618573d6000803e3d6000fd5b5050505060003d60008114614634576020811461463e57600080fd5b600019915061464a565b60206000803e60005191505b50806146985760405162461bcd60e51b815260206004820152601960248201527f544f4b454e5f5452414e534645525f4f55545f4641494c454400000000000000604482015260640161095d565b50505050565b805160009061091a90670de0b6b3a76400009061572f565b600080808043600954146146da576146d0600a604f6124a3565b9590945092505050565b6146e43386614795565b905080600c546146f49190615717565b9150600c548210156147485760405162461bcd60e51b815260206004820181905260248201527f61646420726573657276657320756e6578706563746564206f766572666c6f77604482015260640161095d565b600c82905560408051338152602081018390529081018390527fa91e67c5ea634cd43a12c5a482724b03de01e85ca68702a53d0c2f45cb7c1dc59060600160405180910390a160006146d0565b6011546040516370a0823160e01b81523060048201526000916001600160a01b031690829082906370a082319060240160206040518083038186803b1580156147dd57600080fd5b505afa1580156147f1573d6000803e3d6000fd5b505050506040513d601f19601f82011682018060405250810190614815919061563d565b6040516323b872dd60e01b81529091506001600160a01b038316906323b872dd906148489088903090899060040161567a565b600060405180830381600087803b15801561486257600080fd5b505af1158015614876573d6000803e3d6000fd5b5050505060003d60008114614892576020811461489c57600080fd5b60001991506148a8565b60206000803e60005191505b50806148f65760405162461bcd60e51b815260206004820152601860248201527f544f4b454e5f5452414e534645525f494e5f4641494c45440000000000000000604482015260640161095d565b6011546040516370a0823160e01b81523060048201526000916001600160a01b0316906370a082319060240160206040518083038186803b15801561493a57600080fd5b505afa15801561494e573d6000803e3d6000fd5b505050506040513d601f19601f82011682018060405250810190614972919061563d565b9050828110156149c45760405162461bcd60e51b815260206004820152601a60248201527f544f4b454e5f5452414e534645525f494e5f4f564552464c4f57000000000000604482015260640161095d565b6149ce8382615770565b979650505050505050565b600080836149ec57506000905080610f37565b60006149f88486615751565b905083614a05868361572f565b14614a1857600260009250925050610f37565b600092509050610f37565b60008082614a375750600190506000610f37565b6000614a43848661572f565b915091509250929050565b6000670de0b6b3a7640000614a67848460000151615078565b61108c919061572f565b600061108c8383604051806040016040528060158152602001747375627472616374696f6e20756e646572666c6f7760581b8152506150ba565b600080614ab884846150e9565b9050610d498161469e565b600061108c8383604051806040016040528060118152602001706164646974696f6e206f766572666c6f7760781b81525061511a565b600554604051632fe3f38f60e11b81523060048201526001600160a01b03838116602483015286811660448301528581166064830152608482018590526000928392839290911690635fc7e71e9060a401602060405180830381600087803b158015614b6457600080fd5b505af1158015614b78573d6000803e3d6000fd5b505050506040513d601f19601f82011682018060405250810190614b9c919061563d565b90508015614bbd57614bb16003601283613579565b60009250925050614ffc565b4360095414614bd257614bb1600a60166124a3565b43846001600160a01b0316636c540baf6040518163ffffffff1660e01b815260040160206040518083038186803b158015614c0c57600080fd5b505afa158015614c20573d6000803e3d6000fd5b505050506040513d601f19601f82011682018060405250810190614c44919061563d565b14614c5557614bb1600a60116124a3565b866001600160a01b0316866001600160a01b03161415614c7b57614bb1600660176124a3565b84614c8c57614bb1600760156124a3565b846000191415614ca257614bb1600760146124a3565b600080614cb089898961367c565b90925090508115614ce557614cd7826010811115614cd057614cd06157d8565b60186124a3565b600094509450505050614ffc565b60055460405163c488847b60e01b815260009182916001600160a01b039091169063c488847b90614d1e9030908c90889060040161567a565b604080518083038186803b158015614d3557600080fd5b505afa158015614d49573d6000803e3d6000fd5b505050506040513d601f19601f82011682018060405250810190614d6d9190615656565b90925090508115614ddc5760405162461bcd60e51b815260206004820152603360248201527f4c49515549444154455f434f4d5054524f4c4c45525f43414c43554c4154455f604482015272105353d5539517d4d152569157d19052531151606a1b606482015260840161095d565b6040516370a0823160e01b81526001600160a01b038b811660048301528291908a16906370a082319060240160206040518083038186803b158015614e2057600080fd5b505afa158015614e34573d6000803e3d6000fd5b505050506040513d601f19601f82011682018060405250810190614e58919061563d565b1015614ea65760405162461bcd60e51b815260206004820152601860248201527f4c49515549444154455f5345495a455f544f4f5f4d5543480000000000000000604482015260640161095d565b60006001600160a01b038916301415614ecc57614ec5308d8d85613aa3565b9050614f51565b60405163b2a02ff160e01b81526001600160a01b038a169063b2a02ff190614efc908f908f90879060040161567a565b602060405180830381600087803b158015614f1657600080fd5b505af1158015614f2a573d6000803e3d6000fd5b505050506040513d601f19601f82011682018060405250810190614f4e919061563d565b90505b8015614f965760405162461bcd60e51b81526020600482015260146024820152731d1bdad95b881cd95a5e9d5c994819985a5b195960621b604482015260640161095d565b604080516001600160a01b038e811682528d811660208301528183018790528b1660608201526080810184905290517f298637f684da70674f26509b10f07ec2fbc77a335ab1e7d6215a4b2484d8bb529181900360a00190a16000975092955050505050505b94509492505050565b600061501d6040518060200160405280600081525090565b600080615032670de0b6b3a7640000876149d9565b9092509050600082600381111561504b5761504b6157d8565b1461506a57506040805160208101909152600081529092509050610f37565b612af68186600001516144d9565b600061108c83836040518060400160405280601781526020017f6d756c7469706c69636174696f6e206f766572666c6f7700000000000000000081525061514b565b600081848411156150de5760405162461bcd60e51b815260040161095d919061569e565b50610d498385615770565b6040805160208101909152600081526040518060200160405280615111856000015185615078565b90529392505050565b6000806151278486615717565b90508285821015610ce45760405162461bcd60e51b815260040161095d919061569e565b6000831580615158575082155b156151655750600061108c565b60006151718486615751565b90508361517e868361572f565b148390610ce45760405162461bcd60e51b815260040161095d919061569e565b8280546151aa90615787565b90600052602060002090601f0160209004810192826151cc5760008555615212565b82601f106151e557805160ff1916838001178555615212565b82800160010185558215615212579182015b828111156152125782518255916020019190600101906151f7565b5061521e929150615222565b5090565b5b8082111561521e5760008155600101615223565b600082601f83011261524857600080fd5b813567ffffffffffffffff80821115615263576152636157ee565b604051601f8301601f19908116603f0116810190828211818310171561528b5761528b6157ee565b816040528381528660208588010111156152a457600080fd5b836020870160208301376000602085830101528094505050505092915050565b803560ff811681146152d557600080fd5b919050565b6000602082840312156152ec57600080fd5b813561108c81615804565b6000806040838503121561530a57600080fd5b823561531581615804565b9150602083013561532581615804565b809150509250929050565b60008060006060848603121561534557600080fd5b833561535081615804565b9250602084013561536081615804565b929592945050506040919091013590565b600080600080600080600060e0888a03121561538c57600080fd5b873561539781615804565b965060208801356153a781615804565b955060408801356153b781615804565b945060608801359350608088013567ffffffffffffffff808211156153db57600080fd5b6153e78b838c01615237565b945060a08a01359150808211156153fd57600080fd5b5061540a8a828b01615237565b92505061541960c089016152c4565b905092959891949750929550565b600080600080600080600080610100898b03121561544457600080fd5b883561544f81615804565b9750602089013561545f81615804565b9650604089013561546f81615804565b955060608901359450608089013567ffffffffffffffff8082111561549357600080fd5b61549f8c838d01615237565b955060a08b01359150808211156154b557600080fd5b506154c28b828c01615237565b9350506154d160c08a016152c4565b915060e08901356154e181615804565b809150509295985092959890939650565b6000806040838503121561550557600080fd5b823561551081615804565b946020939093013593505050565b60008060006060848603121561553357600080fd5b833561553e81615804565b925060208401359150604084013561555581615804565b809150509250925092565b60006020828403121561557257600080fd5b8151801515811461108c57600080fd5b60008060008060008060c0878903121561559b57600080fd5b86356155a681615804565b955060208701356155b681615804565b945060408701359350606087013567ffffffffffffffff808211156155da57600080fd5b6155e68a838b01615237565b945060808901359150808211156155fc57600080fd5b5061560989828a01615237565b92505061561860a088016152c4565b90509295509295509295565b60006020828403121561563657600080fd5b5035919050565b60006020828403121561564f57600080fd5b5051919050565b6000806040838503121561566957600080fd5b505080516020909101519092909150565b6001600160a01b039384168152919092166020820152604081019190915260600190565b600060208083528351808285015260005b818110156156cb578581018301518582016040015282016156af565b818111156156dd576000604083870101525b50601f01601f1916929092016040019392505050565b6020808252600a90820152691c994b595b9d195c995960b21b604082015260600190565b6000821982111561572a5761572a6157c2565b500190565b60008261574c57634e487b7160e01b600052601260045260246000fd5b500490565b600081600019048311821515161561576b5761576b6157c2565b500290565b600082821015615782576157826157c2565b500390565b600181811c9082168061579b57607f821691505b602082108114156157bc57634e487b7160e01b600052602260045260246000fd5b50919050565b634e487b7160e01b600052601160045260246000fd5b634e487b7160e01b600052602160045260246000fd5b634e487b7160e01b600052604160045260246000fd5b6001600160a01b038116811461581957600080fd5b5056feddf252ad1be2c89b69c2b068fc378daa952ba7f163c4a11628f55a4df523b3efa26469706673582212203eff701e002bf17d33ac1d5de391a7c642b2a0e4ea6994f26b12882a046421d164736f6c63430008070033",
  "immutableReferences": {},
  "source": "// SPDX-License-Identifier: MIT\npragma solidity >=0.8.0;\n\nimport \"../CErc20.sol\";\nimport \"../../interfaces/IComptroller.sol\";\nimport \"../../../openzeppelin/contracts-upgradeable/proxy/utils/Initializable.sol\";\n\n/**\n * @title Compound's CErc20Delegate Contract\n * @notice CTokens which wrap an EIP-20 underlying and are delegated to\n * @author Compound\n */\ncontract CUSDC is Initializable, CErc20{\n\n    address public primaryIndexToken;\n\n    function init(  address underlying_,\n                    ComptrollerInterface comptroller_,\n                    InterestRateModel interestRateModel_,\n                    uint initialExchangeRateMantissa_,\n                    string memory name_, \n                    string memory symbol_,\n                    uint8 decimals_,\n                    address admin_) public initializer{\n        admin = payable(msg.sender);\n        super.initialize(underlying_, comptroller_, interestRateModel_, initialExchangeRateMantissa_, name_, symbol_, decimals_);\n        admin = payable(admin_);\n    }\n    \n    modifier onlyAdmin(){\n        require(msg.sender == admin,\"msg.sender not admin!\");\n        _;\n    }\n\n    modifier onlyPrimaryIndexToken{\n        require(msg.sender == primaryIndexToken);\n        _;\n    }\n\n\n    function setPrimaryIndexToken(address _primaryIndexToken) public onlyAdmin{\n        primaryIndexToken = _primaryIndexToken;\n    }\n    \n\n    function mintTo(address minter, uint mintAmount) external onlyPrimaryIndexToken returns(uint err, uint mintedAmount){\n       //require(msg.sender == underlying,\"cPrimaryIndexToken: only Primary Index Token can call mintTo!\");\n        uint error = accrueInterest();\n        \n        if (error != uint(Error.NO_ERROR)) {\n            // accrueInterest emits logs on errors, but we still want to log the fact that an attempted borrow failed\n            return (fail(Error(error), FailureInfo.MINT_ACCRUE_INTEREST_FAILED), 0);\n        }\n       \n        (err, mintedAmount) = mintFresh(minter, mintAmount);\n        require(err == 0,\"cPrimaryIndexToken: err is not zero!\");\n        require(mintedAmount > 0, \"cPrimaryIndexToken: minted amount is zero!\");\n        \n    }\n\n     function redeemTo(address redeemer,uint redeemTokens) external onlyPrimaryIndexToken returns(uint redeemErr){\n        //require(msg.sender == getPrimaryIndexTokenAddress(),\"cPrimaryIndexToken: only PrimaryIndexToken can call redeemTo!\");\n        uint error = accrueInterest();\n        if (error != uint(Error.NO_ERROR)) {\n            // accrueInterest emits logs on errors, but we still want to log the fact that an attempted redeem failed\n            return fail(Error(error), FailureInfo.REDEEM_ACCRUE_INTEREST_FAILED);\n        }\n        // redeemFresh emits redeem-specific logs on errors, so we don't need to\n        //return redeemFresh(payable(msg.sender), redeemTokens, 0);\n        redeemErr = redeemFresh(payable(redeemer), redeemTokens, 0);\n    }\n\n    function redeemUnderlyingTo(address redeemer, uint redeemAmount) external onlyPrimaryIndexToken returns(uint redeemUnderlyingError){\n        //require(msg.sender == getPrimaryIndexTokenAddress(),\"cPrimaryIndexToken: only PrimaryIndexToken can call redeemUnderlyingTo!\");\n        uint error = accrueInterest();\n        if (error != uint(Error.NO_ERROR)) {\n            // accrueInterest emits logs on errors, but we still want to log the fact that an attempted redeem failed\n            return fail(Error(error), FailureInfo.REDEEM_ACCRUE_INTEREST_FAILED);\n        }\n        // redeemFresh emits redeem-specific logs on errors, so we don't need to\n        redeemUnderlyingError = redeemFresh(payable(redeemer), 0, redeemAmount);\n    }\n\n    function borrowTo(address borrower, uint borrowAmount) external onlyPrimaryIndexToken returns (uint borrowError) {\n        uint error = accrueInterest();\n        if (error != uint(Error.NO_ERROR)) {\n            // accrueInterest emits logs on errors, but we still want to log the fact that an attempted borrow failed\n            return fail(Error(error), FailureInfo.BORROW_ACCRUE_INTEREST_FAILED);\n        }\n        // borrowFresh emits borrow-specific logs on errors, so we don't need to\n        borrowError = borrowFresh(payable(borrower), borrowAmount);\n    }\n\n    function repayBorrowTo(address payer, uint repayAmount) external onlyPrimaryIndexToken returns (uint repayBorrowError, uint amountRepayed) {\n        //require(msg.sender == getPrimaryIndexTokenAddress(),\"cPrimaryIndexToken: only PrimaryIndexToken can call repayBorrowTo!\");\n        uint error = accrueInterest();\n        if (error != uint(Error.NO_ERROR)) {\n            // accrueInterest emits logs on errors, but we still want to log the fact that an attempted borrow failed\n            return (fail(Error(error), FailureInfo.REPAY_BORROW_ACCRUE_INTEREST_FAILED), 0);\n        }\n        // repayBorrowFresh emits repay-borrow-specific logs on errors, so we don't need to\n        (repayBorrowError,amountRepayed) = repayBorrowFresh(payer, payer, repayAmount);\n    }\n\n\n\n\n}\n",
  "sourcePath": "/Users/vchikhladze/DApps/DeFi/primaryIndexToken/contracts/cToken/cUSDCTest/CUSDC.sol",
  "compiler": {
    "name": "solc",
    "version": "0.8.7+commit.e28d00a7.Emscripten.clang"
  },
  "schemaVersion": "3.4.1",
  "updatedAt": "2021-09-13T09:28:11.389Z",
  "devdoc": {
    "author": "Compound",
    "kind": "dev",
    "methods": {
      "_acceptAdmin()": {
        "details": "Admin function for pending admin to accept role and update admin",
        "returns": {
          "_0": "uint 0=success, otherwise a failure (see ErrorReporter.sol for details)"
        }
      },
      "_addReserves(uint256)": {
        "params": {
          "addAmount": "The amount fo underlying token to add as reserves"
        },
        "returns": {
          "_0": "uint 0=success, otherwise a failure (see ErrorReporter.sol for details)"
        }
      },
      "_reduceReserves(uint256)": {
        "params": {
          "reduceAmount": "Amount of reduction to reserves"
        },
        "returns": {
          "_0": "uint 0=success, otherwise a failure (see ErrorReporter.sol for details)"
        }
      },
      "_setComptroller(address)": {
        "details": "Admin function to set a new comptroller",
        "returns": {
          "_0": "uint 0=success, otherwise a failure (see ErrorReporter.sol for details)"
        }
      },
      "_setInterestRateModel(address)": {
        "details": "Admin function to accrue interest and update the interest rate model",
        "params": {
          "newInterestRateModel": "the new interest rate model to use"
        },
        "returns": {
          "_0": "uint 0=success, otherwise a failure (see ErrorReporter.sol for details)"
        }
      },
      "_setPendingAdmin(address)": {
        "details": "Admin function to begin change of admin. The newPendingAdmin must call `_acceptAdmin` to finalize the transfer.",
        "params": {
          "newPendingAdmin": "New pending admin."
        },
        "returns": {
          "_0": "uint 0=success, otherwise a failure (see ErrorReporter.sol for details)"
        }
      },
      "_setReserveFactor(uint256)": {
        "details": "Admin function to accrue interest and set a new reserve factor",
        "returns": {
          "_0": "uint 0=success, otherwise a failure (see ErrorReporter.sol for details)"
        }
      },
      "accrueInterest()": {
        "details": "This calculates interest accrued from the last checkpointed block   up to the current block and writes new checkpoint to storage."
      },
      "allowance(address,address)": {
        "params": {
          "owner": "The address of the account which owns the tokens to be spent",
          "spender": "The address of the account which may transfer tokens"
        },
        "returns": {
          "_0": "The number of tokens allowed to be spent (-1 means infinite)"
        }
      },
      "approve(address,uint256)": {
        "details": "This will overwrite the approval amount for `spender`  and is subject to issues noted [here](https://eips.ethereum.org/EIPS/eip-20#approve)",
        "params": {
          "amount": "The number of tokens that are approved (-1 means infinite)",
          "spender": "The address of the account which may transfer tokens"
        },
        "returns": {
          "_0": "Whether or not the approval succeeded"
        }
      },
      "balanceOf(address)": {
        "params": {
          "owner": "The address of the account to query"
        },
        "returns": {
          "_0": "The number of tokens owned by `owner`"
        }
      },
      "balanceOfUnderlying(address)": {
        "details": "This also accrues interest in a transaction",
        "params": {
          "owner": "The address of the account to query"
        },
        "returns": {
          "_0": "The amount of underlying owned by `owner`"
        }
      },
      "borrow(uint256)": {
        "params": {
          "borrowAmount": "The amount of the underlying asset to borrow"
        },
        "returns": {
          "_0": "uint 0=success, otherwise a failure (see ErrorReporter.sol for details)"
        }
      },
      "borrowBalanceCurrent(address)": {
        "params": {
          "account": "The address whose balance should be calculated after updating borrowIndex"
        },
        "returns": {
          "_0": "The calculated balance"
        }
      },
      "borrowBalanceStored(address)": {
        "params": {
          "account": "The address whose balance should be calculated"
        },
        "returns": {
          "_0": "The calculated balance"
        }
      },
      "borrowRatePerBlock()": {
        "returns": {
          "_0": "The borrow interest rate per block, scaled by 1e18"
        }
      },
      "exchangeRateCurrent()": {
        "returns": {
          "_0": "Calculated exchange rate scaled by 1e18"
        }
      },
      "exchangeRateStored()": {
        "details": "This function does not accrue interest before calculating the exchange rate",
        "returns": {
          "_0": "Calculated exchange rate scaled by 1e18"
        }
      },
      "getAccountSnapshot(address)": {
        "details": "This is used by comptroller to more efficiently perform liquidity checks.",
        "params": {
          "account": "Address of the account to snapshot"
        },
        "returns": {
          "_0": "(possible error, token balance, borrow balance, exchange rate mantissa)"
        }
      },
      "getCash()": {
        "returns": {
          "_0": "The quantity of underlying asset owned by this contract"
        }
      },
      "initialize(address,address,address,uint256,string,string,uint8)": {
        "params": {
          "comptroller_": "The address of the Comptroller",
          "decimals_": "ERC-20 decimal precision of this token",
          "initialExchangeRateMantissa_": "The initial exchange rate, scaled by 1e18",
          "interestRateModel_": "The address of the interest rate model",
          "name_": "ERC-20 name of this token",
          "symbol_": "ERC-20 symbol of this token",
          "underlying_": "The address of the underlying asset"
        }
      },
      "initialize(address,address,uint256,string,string,uint8)": {
        "params": {
          "comptroller_": "The address of the Comptroller",
          "decimals_": "EIP-20 decimal precision of this token",
          "initialExchangeRateMantissa_": "The initial exchange rate, scaled by 1e18",
          "interestRateModel_": "The address of the interest rate model",
          "name_": "EIP-20 name of this token",
          "symbol_": "EIP-20 symbol of this token"
        }
      },
      "liquidateBorrow(address,uint256,address)": {
        "params": {
          "borrower": "The borrower of this cToken to be liquidated",
          "cTokenCollateral": "The market in which to seize collateral from the borrower",
          "repayAmount": "The amount of the underlying borrowed asset to repay"
        },
        "returns": {
          "_0": "uint 0=success, otherwise a failure (see ErrorReporter.sol for details)"
        }
      },
      "mint(uint256)": {
        "details": "Accrues interest whether or not the operation succeeds, unless reverted",
        "params": {
          "mintAmount": "The amount of the underlying asset to supply"
        },
        "returns": {
          "_0": "uint 0=success, otherwise a failure (see ErrorReporter.sol for details)"
        }
      },
      "redeem(uint256)": {
        "details": "Accrues interest whether or not the operation succeeds, unless reverted",
        "params": {
          "redeemTokens": "The number of cTokens to redeem into underlying"
        },
        "returns": {
          "_0": "uint 0=success, otherwise a failure (see ErrorReporter.sol for details)"
        }
      },
      "redeemUnderlying(uint256)": {
        "details": "Accrues interest whether or not the operation succeeds, unless reverted",
        "params": {
          "redeemAmount": "The amount of underlying to redeem"
        },
        "returns": {
          "_0": "uint 0=success, otherwise a failure (see ErrorReporter.sol for details)"
        }
      },
      "repayBorrow(uint256)": {
        "params": {
          "repayAmount": "The amount to repay"
        },
        "returns": {
          "_0": "uint 0=success, otherwise a failure (see ErrorReporter.sol for details)"
        }
      },
      "repayBorrowBehalf(address,uint256)": {
        "params": {
          "borrower": "the account with the debt being payed off",
          "repayAmount": "The amount to repay"
        },
        "returns": {
          "_0": "uint 0=success, otherwise a failure (see ErrorReporter.sol for details)"
        }
      },
      "seize(address,address,uint256)": {
        "details": "Will fail unless called by another cToken during the process of liquidation.  Its absolutely critical to use msg.sender as the borrowed cToken and not a parameter.",
        "params": {
          "borrower": "The account having collateral seized",
          "liquidator": "The account receiving seized collateral",
          "seizeTokens": "The number of cTokens to seize"
        },
        "returns": {
          "_0": "uint 0=success, otherwise a failure (see ErrorReporter.sol for details)"
        }
      },
      "supplyRatePerBlock()": {
        "returns": {
          "_0": "The supply interest rate per block, scaled by 1e18"
        }
      },
      "sweepToken(address)": {
        "params": {
          "token": "The address of the ERC-20 token to sweep"
        }
      },
      "totalBorrowsCurrent()": {
        "returns": {
          "_0": "The total borrows with interest"
        }
      },
      "transfer(address,uint256)": {
        "params": {
          "amount": "The number of tokens to transfer",
          "dst": "The address of the destination account"
        },
        "returns": {
          "_0": "Whether or not the transfer succeeded"
        }
      },
      "transferFrom(address,address,uint256)": {
        "params": {
          "amount": "The number of tokens to transfer",
          "dst": "The address of the destination account",
          "src": "The address of the source account"
        },
        "returns": {
          "_0": "Whether or not the transfer succeeded"
        }
      }
    },
    "title": "Compound's CErc20Delegate Contract",
    "version": 1
  },
  "userdoc": {
    "events": {
      "AccrueInterest(uint256,uint256,uint256,uint256)": {
        "notice": "Event emitted when interest is accrued"
      },
      "Approval(address,address,uint256)": {
        "notice": "EIP20 Approval event"
      },
      "Borrow(address,uint256,uint256,uint256)": {
        "notice": "Event emitted when underlying is borrowed"
      },
      "LiquidateBorrow(address,address,uint256,address,uint256)": {
        "notice": "Event emitted when a borrow is liquidated"
      },
      "Mint(address,uint256,uint256)": {
        "notice": "Event emitted when tokens are minted"
      },
      "NewAdmin(address,address)": {
        "notice": "Event emitted when pendingAdmin is accepted, which means admin is updated"
      },
      "NewComptroller(address,address)": {
        "notice": "Event emitted when comptroller is changed"
      },
      "NewMarketInterestRateModel(address,address)": {
        "notice": "Event emitted when interestRateModel is changed"
      },
      "NewPendingAdmin(address,address)": {
        "notice": "Event emitted when pendingAdmin is changed"
      },
      "NewReserveFactor(uint256,uint256)": {
        "notice": "Event emitted when the reserve factor is changed"
      },
      "Redeem(address,uint256,uint256)": {
        "notice": "Event emitted when tokens are redeemed"
      },
      "RepayBorrow(address,address,uint256,uint256,uint256)": {
        "notice": "Event emitted when a borrow is repaid"
      },
      "ReservesAdded(address,uint256,uint256)": {
        "notice": "Event emitted when the reserves are added"
      },
      "ReservesReduced(address,uint256,uint256)": {
        "notice": "Event emitted when the reserves are reduced"
      },
      "Transfer(address,address,uint256)": {
        "notice": "EIP20 Transfer event"
      }
    },
    "kind": "user",
    "methods": {
      "_acceptAdmin()": {
        "notice": "Accepts transfer of admin rights. msg.sender must be pendingAdmin"
      },
      "_addReserves(uint256)": {
        "notice": "The sender adds to reserves."
      },
      "_reduceReserves(uint256)": {
        "notice": "Accrues interest and reduces reserves by transferring to admin"
      },
      "_setComptroller(address)": {
        "notice": "Sets a new comptroller for the market"
      },
      "_setInterestRateModel(address)": {
        "notice": "accrues interest and updates the interest rate model using _setInterestRateModelFresh"
      },
      "_setPendingAdmin(address)": {
        "notice": "Begins transfer of admin rights. The newPendingAdmin must call `_acceptAdmin` to finalize the transfer."
      },
      "_setReserveFactor(uint256)": {
        "notice": "accrues interest and sets a new reserve factor for the protocol using _setReserveFactorFresh"
      },
      "accountTokens(address)": {
        "notice": "Official record of token balances for each account"
      },
      "accrualBlockNumber()": {
        "notice": "Block number that interest was last accrued at"
      },
      "accrueInterest()": {
        "notice": "Applies accrued interest to total borrows and reserves"
      },
      "admin()": {
        "notice": "Administrator for this contract"
      },
      "allowance(address,address)": {
        "notice": "Get the current allowance from `owner` for `spender`"
      },
      "approve(address,uint256)": {
        "notice": "Approve `spender` to transfer up to `amount` from `src`"
      },
      "balanceOf(address)": {
        "notice": "Get the token balance of the `owner`"
      },
      "balanceOfUnderlying(address)": {
        "notice": "Get the underlying balance of the `owner`"
      },
      "borrow(uint256)": {
        "notice": "Sender borrows assets from the protocol to their own address"
      },
      "borrowBalanceCurrent(address)": {
        "notice": "Accrue interest to updated borrowIndex and then calculate account's borrow balance using the updated borrowIndex"
      },
      "borrowBalanceStored(address)": {
        "notice": "Return the borrow balance of account based on stored data"
      },
      "borrowIndex()": {
        "notice": "Accumulator of the total earned interest rate since the opening of the market"
      },
      "borrowRatePerBlock()": {
        "notice": "Returns the current per-block borrow interest rate for this cToken"
      },
      "comptroller()": {
        "notice": "Contract which oversees inter-cToken operations"
      },
      "decimals()": {
        "notice": "EIP-20 token decimals for this token"
      },
      "exchangeRateCurrent()": {
        "notice": "Accrue interest then return the up-to-date exchange rate"
      },
      "exchangeRateStored()": {
        "notice": "Calculates the exchange rate from the underlying to the CToken"
      },
      "getAccountSnapshot(address)": {
        "notice": "Get a snapshot of the account's balances, and the cached exchange rate"
      },
      "getCash()": {
        "notice": "Get cash balance of this cToken in the underlying asset"
      },
      "initialize(address,address,address,uint256,string,string,uint8)": {
        "notice": "Initialize the new money market"
      },
      "initialize(address,address,uint256,string,string,uint8)": {
        "notice": "Initialize the money market"
      },
      "interestRateModel()": {
        "notice": "Model which tells what the current interest rate should be"
      },
      "isCToken()": {
        "notice": "Indicator that this is a CToken contract (for inspection)"
      },
      "liquidateBorrow(address,uint256,address)": {
        "notice": "The sender liquidates the borrowers collateral.  The collateral seized is transferred to the liquidator."
      },
      "mint(uint256)": {
        "notice": "Sender supplies assets into the market and receives cTokens in exchange"
      },
      "name()": {
        "notice": "EIP-20 token name for this token"
      },
      "pendingAdmin()": {
        "notice": "Pending administrator for this contract"
      },
      "protocolSeizeShareMantissa()": {
        "notice": "Share of seized collateral that is added to reserves"
      },
      "redeem(uint256)": {
        "notice": "Sender redeems cTokens in exchange for the underlying asset"
      },
      "redeemUnderlying(uint256)": {
        "notice": "Sender redeems cTokens in exchange for a specified amount of underlying asset"
      },
      "repayBorrow(uint256)": {
        "notice": "Sender repays their own borrow"
      },
      "repayBorrowBehalf(address,uint256)": {
        "notice": "Sender repays a borrow belonging to borrower"
      },
      "reserveFactorMantissa()": {
        "notice": "Fraction of interest currently set aside for reserves"
      },
      "seize(address,address,uint256)": {
        "notice": "Transfers collateral tokens (this market) to the liquidator."
      },
      "supplyRatePerBlock()": {
        "notice": "Returns the current per-block supply interest rate for this cToken"
      },
      "sweepToken(address)": {
        "notice": "A public function to sweep accidental ERC-20 transfers to this contract. Tokens are sent to admin (timelock)"
      },
      "symbol()": {
        "notice": "EIP-20 token symbol for this token"
      },
      "totalBorrows()": {
        "notice": "Total amount of outstanding borrows of the underlying in this market"
      },
      "totalBorrowsCurrent()": {
        "notice": "Returns the current total borrows plus accrued interest"
      },
      "totalReserves()": {
        "notice": "Total amount of reserves of the underlying held in this market"
      },
      "totalSupply()": {
        "notice": "Total number of tokens in circulation"
      },
      "transfer(address,uint256)": {
        "notice": "Transfer `amount` tokens from `msg.sender` to `dst`"
      },
      "transferFrom(address,address,uint256)": {
        "notice": "Transfer `amount` tokens from `src` to `dst`"
      },
      "underlying()": {
        "notice": "Underlying asset for this CToken"
      }
    },
    "notice": "CTokens which wrap an EIP-20 underlying and are delegated to",
    "version": 1
  }
}