{
  "contractName": "PrimaryIndexToken",
  "abi": [
    {
      "anonymous": false,
      "inputs": [
        {
          "indexed": true,
          "internalType": "address",
          "name": "who",
          "type": "address"
        },
        {
          "indexed": true,
          "internalType": "address",
          "name": "tokenPrj",
          "type": "address"
        }
      ],
      "name": "AddPrjToken",
      "type": "event"
    },
    {
      "anonymous": false,
      "inputs": [
        {
          "indexed": true,
          "internalType": "address",
          "name": "owner",
          "type": "address"
        },
        {
          "indexed": true,
          "internalType": "address",
          "name": "spender",
          "type": "address"
        },
        {
          "indexed": false,
          "internalType": "uint256",
          "name": "value",
          "type": "uint256"
        }
      ],
      "name": "Approval",
      "type": "event"
    },
    {
      "anonymous": false,
      "inputs": [
        {
          "indexed": true,
          "internalType": "address",
          "name": "who",
          "type": "address"
        },
        {
          "indexed": false,
          "internalType": "uint256",
          "name": "borrowTokenId",
          "type": "uint256"
        },
        {
          "indexed": true,
          "internalType": "address",
          "name": "borrowToken",
          "type": "address"
        },
        {
          "indexed": false,
          "internalType": "uint256",
          "name": "borrowAmount",
          "type": "uint256"
        }
      ],
      "name": "Borrow",
      "type": "event"
    },
    {
      "anonymous": false,
      "inputs": [
        {
          "indexed": true,
          "internalType": "address",
          "name": "who",
          "type": "address"
        },
        {
          "indexed": false,
          "internalType": "uint256",
          "name": "tokenPrjId",
          "type": "uint256"
        },
        {
          "indexed": true,
          "internalType": "address",
          "name": "tokenPrj",
          "type": "address"
        },
        {
          "indexed": false,
          "internalType": "uint256",
          "name": "prjDepositAmount",
          "type": "uint256"
        },
        {
          "indexed": true,
          "internalType": "address",
          "name": "beneficiar",
          "type": "address"
        }
      ],
      "name": "Deposit",
      "type": "event"
    },
    {
      "anonymous": false,
      "inputs": [
        {
          "indexed": true,
          "internalType": "address",
          "name": "who",
          "type": "address"
        },
        {
          "indexed": true,
          "internalType": "address",
          "name": "tokenPrj",
          "type": "address"
        },
        {
          "indexed": false,
          "internalType": "uint8",
          "name": "ltfNumerator",
          "type": "uint8"
        },
        {
          "indexed": false,
          "internalType": "uint8",
          "name": "ltfDenominator",
          "type": "uint8"
        }
      ],
      "name": "LiquidationThresholdFactorSet",
      "type": "event"
    },
    {
      "anonymous": false,
      "inputs": [
        {
          "indexed": true,
          "internalType": "address",
          "name": "who",
          "type": "address"
        },
        {
          "indexed": true,
          "internalType": "address",
          "name": "tokenPrj",
          "type": "address"
        },
        {
          "indexed": false,
          "internalType": "uint8",
          "name": "lvrNumerator",
          "type": "uint8"
        },
        {
          "indexed": false,
          "internalType": "uint8",
          "name": "lvrDenominator",
          "type": "uint8"
        }
      ],
      "name": "LoanToValueRatioSet",
      "type": "event"
    },
    {
      "anonymous": false,
      "inputs": [
        {
          "indexed": false,
          "internalType": "address",
          "name": "account",
          "type": "address"
        }
      ],
      "name": "Paused",
      "type": "event"
    },
    {
      "anonymous": false,
      "inputs": [
        {
          "indexed": true,
          "internalType": "address",
          "name": "who",
          "type": "address"
        },
        {
          "indexed": false,
          "internalType": "uint256",
          "name": "redeemTokenId",
          "type": "uint256"
        },
        {
          "indexed": true,
          "internalType": "address",
          "name": "redeemToken",
          "type": "address"
        },
        {
          "indexed": true,
          "internalType": "address",
          "name": "redeemCToken",
          "type": "address"
        },
        {
          "indexed": false,
          "internalType": "uint256",
          "name": "redeemAmount",
          "type": "uint256"
        }
      ],
      "name": "Redeem",
      "type": "event"
    },
    {
      "anonymous": false,
      "inputs": [
        {
          "indexed": true,
          "internalType": "address",
          "name": "who",
          "type": "address"
        },
        {
          "indexed": false,
          "internalType": "uint256",
          "name": "redeemTokenId",
          "type": "uint256"
        },
        {
          "indexed": true,
          "internalType": "address",
          "name": "redeemToken",
          "type": "address"
        },
        {
          "indexed": true,
          "internalType": "address",
          "name": "redeemCToken",
          "type": "address"
        },
        {
          "indexed": false,
          "internalType": "uint256",
          "name": "redeemAmountUnderlying",
          "type": "uint256"
        }
      ],
      "name": "RedeemUnderlying",
      "type": "event"
    },
    {
      "anonymous": false,
      "inputs": [
        {
          "indexed": true,
          "internalType": "bytes32",
          "name": "role",
          "type": "bytes32"
        },
        {
          "indexed": true,
          "internalType": "bytes32",
          "name": "previousAdminRole",
          "type": "bytes32"
        },
        {
          "indexed": true,
          "internalType": "bytes32",
          "name": "newAdminRole",
          "type": "bytes32"
        }
      ],
      "name": "RoleAdminChanged",
      "type": "event"
    },
    {
      "anonymous": false,
      "inputs": [
        {
          "indexed": true,
          "internalType": "bytes32",
          "name": "role",
          "type": "bytes32"
        },
        {
          "indexed": true,
          "internalType": "address",
          "name": "account",
          "type": "address"
        },
        {
          "indexed": true,
          "internalType": "address",
          "name": "sender",
          "type": "address"
        }
      ],
      "name": "RoleGranted",
      "type": "event"
    },
    {
      "anonymous": false,
      "inputs": [
        {
          "indexed": true,
          "internalType": "bytes32",
          "name": "role",
          "type": "bytes32"
        },
        {
          "indexed": true,
          "internalType": "address",
          "name": "account",
          "type": "address"
        },
        {
          "indexed": true,
          "internalType": "address",
          "name": "sender",
          "type": "address"
        }
      ],
      "name": "RoleRevoked",
      "type": "event"
    },
    {
      "anonymous": false,
      "inputs": [
        {
          "indexed": true,
          "internalType": "address",
          "name": "who",
          "type": "address"
        },
        {
          "indexed": false,
          "internalType": "uint256",
          "name": "supplyTokenId",
          "type": "uint256"
        },
        {
          "indexed": true,
          "internalType": "address",
          "name": "supplyToken",
          "type": "address"
        },
        {
          "indexed": false,
          "internalType": "uint256",
          "name": "supplyAmount",
          "type": "uint256"
        },
        {
          "indexed": true,
          "internalType": "address",
          "name": "supplyCToken",
          "type": "address"
        },
        {
          "indexed": false,
          "internalType": "uint256",
          "name": "amountSupplyCTokenReceived",
          "type": "uint256"
        }
      ],
      "name": "Supply",
      "type": "event"
    },
    {
      "anonymous": false,
      "inputs": [
        {
          "indexed": false,
          "internalType": "uint256",
          "name": "mintedAmount",
          "type": "uint256"
        }
      ],
      "name": "Test1",
      "type": "event"
    },
    {
      "anonymous": false,
      "inputs": [
        {
          "indexed": false,
          "internalType": "uint256",
          "name": "currentBalancePit",
          "type": "uint256"
        },
        {
          "indexed": false,
          "internalType": "uint256",
          "name": "liquidity",
          "type": "uint256"
        },
        {
          "indexed": false,
          "internalType": "uint256",
          "name": "borrowError",
          "type": "uint256"
        },
        {
          "indexed": false,
          "internalType": "uint256",
          "name": "borrowAllowedRes",
          "type": "uint256"
        },
        {
          "indexed": false,
          "internalType": "uint256",
          "name": "enterMarketError",
          "type": "uint256"
        }
      ],
      "name": "Test2",
      "type": "event"
    },
    {
      "anonymous": false,
      "inputs": [
        {
          "indexed": true,
          "internalType": "address",
          "name": "from",
          "type": "address"
        },
        {
          "indexed": true,
          "internalType": "address",
          "name": "to",
          "type": "address"
        },
        {
          "indexed": false,
          "internalType": "uint256",
          "name": "value",
          "type": "uint256"
        }
      ],
      "name": "Transfer",
      "type": "event"
    },
    {
      "anonymous": false,
      "inputs": [
        {
          "indexed": false,
          "internalType": "address",
          "name": "account",
          "type": "address"
        }
      ],
      "name": "Unpaused",
      "type": "event"
    },
    {
      "anonymous": false,
      "inputs": [
        {
          "indexed": true,
          "internalType": "address",
          "name": "who",
          "type": "address"
        },
        {
          "indexed": false,
          "internalType": "uint256",
          "name": "tokenPrjId",
          "type": "uint256"
        },
        {
          "indexed": true,
          "internalType": "address",
          "name": "tokenPrj",
          "type": "address"
        },
        {
          "indexed": false,
          "internalType": "uint256",
          "name": "prjWithdrawAmount",
          "type": "uint256"
        },
        {
          "indexed": true,
          "internalType": "address",
          "name": "beneficiar",
          "type": "address"
        }
      ],
      "name": "Withdraw",
      "type": "event"
    },
    {
      "inputs": [],
      "name": "DEFAULT_ADMIN_ROLE",
      "outputs": [
        {
          "internalType": "bytes32",
          "name": "",
          "type": "bytes32"
        }
      ],
      "stateMutability": "view",
      "type": "function"
    },
    {
      "inputs": [],
      "name": "MODERATOR_ROLE",
      "outputs": [
        {
          "internalType": "bytes32",
          "name": "",
          "type": "bytes32"
        }
      ],
      "stateMutability": "view",
      "type": "function"
    },
    {
      "inputs": [
        {
          "internalType": "address",
          "name": "owner",
          "type": "address"
        },
        {
          "internalType": "address",
          "name": "spender",
          "type": "address"
        }
      ],
      "name": "allowance",
      "outputs": [
        {
          "internalType": "uint256",
          "name": "",
          "type": "uint256"
        }
      ],
      "stateMutability": "view",
      "type": "function"
    },
    {
      "inputs": [
        {
          "internalType": "address",
          "name": "spender",
          "type": "address"
        },
        {
          "internalType": "uint256",
          "name": "amount",
          "type": "uint256"
        }
      ],
      "name": "approve",
      "outputs": [
        {
          "internalType": "bool",
          "name": "",
          "type": "bool"
        }
      ],
      "stateMutability": "nonpayable",
      "type": "function"
    },
    {
      "inputs": [
        {
          "internalType": "address",
          "name": "account",
          "type": "address"
        }
      ],
      "name": "balanceOf",
      "outputs": [
        {
          "internalType": "uint256",
          "name": "",
          "type": "uint256"
        }
      ],
      "stateMutability": "view",
      "type": "function"
    },
    {
      "inputs": [],
      "name": "basicToken",
      "outputs": [
        {
          "internalType": "address",
          "name": "",
          "type": "address"
        }
      ],
      "stateMutability": "view",
      "type": "function"
    },
    {
      "inputs": [],
      "name": "cPrimaryIndexToken",
      "outputs": [
        {
          "internalType": "contract ICPrimaryIndexToken",
          "name": "",
          "type": "address"
        }
      ],
      "stateMutability": "view",
      "type": "function"
    },
    {
      "inputs": [
        {
          "internalType": "address",
          "name": "",
          "type": "address"
        }
      ],
      "name": "cTokensList",
      "outputs": [
        {
          "internalType": "address",
          "name": "",
          "type": "address"
        }
      ],
      "stateMutability": "view",
      "type": "function"
    },
    {
      "inputs": [],
      "name": "comptroller",
      "outputs": [
        {
          "internalType": "contract IComptroller",
          "name": "",
          "type": "address"
        }
      ],
      "stateMutability": "view",
      "type": "function"
    },
    {
      "inputs": [],
      "name": "decimals",
      "outputs": [
        {
          "internalType": "uint8",
          "name": "",
          "type": "uint8"
        }
      ],
      "stateMutability": "view",
      "type": "function"
    },
    {
      "inputs": [
        {
          "internalType": "address",
          "name": "spender",
          "type": "address"
        },
        {
          "internalType": "uint256",
          "name": "subtractedValue",
          "type": "uint256"
        }
      ],
      "name": "decreaseAllowance",
      "outputs": [
        {
          "internalType": "bool",
          "name": "",
          "type": "bool"
        }
      ],
      "stateMutability": "nonpayable",
      "type": "function"
    },
    {
      "inputs": [
        {
          "internalType": "bytes32",
          "name": "role",
          "type": "bytes32"
        }
      ],
      "name": "getRoleAdmin",
      "outputs": [
        {
          "internalType": "bytes32",
          "name": "",
          "type": "bytes32"
        }
      ],
      "stateMutability": "view",
      "type": "function"
    },
    {
      "inputs": [
        {
          "internalType": "bytes32",
          "name": "role",
          "type": "bytes32"
        },
        {
          "internalType": "address",
          "name": "account",
          "type": "address"
        }
      ],
      "name": "grantRole",
      "outputs": [],
      "stateMutability": "nonpayable",
      "type": "function"
    },
    {
      "inputs": [
        {
          "internalType": "bytes32",
          "name": "role",
          "type": "bytes32"
        },
        {
          "internalType": "address",
          "name": "account",
          "type": "address"
        }
      ],
      "name": "hasRole",
      "outputs": [
        {
          "internalType": "bool",
          "name": "",
          "type": "bool"
        }
      ],
      "stateMutability": "view",
      "type": "function"
    },
    {
      "inputs": [
        {
          "internalType": "address",
          "name": "spender",
          "type": "address"
        },
        {
          "internalType": "uint256",
          "name": "addedValue",
          "type": "uint256"
        }
      ],
      "name": "increaseAllowance",
      "outputs": [
        {
          "internalType": "bool",
          "name": "",
          "type": "bool"
        }
      ],
      "stateMutability": "nonpayable",
      "type": "function"
    },
    {
      "inputs": [
        {
          "internalType": "address",
          "name": "forwarder",
          "type": "address"
        }
      ],
      "name": "isTrustedForwarder",
      "outputs": [
        {
          "internalType": "bool",
          "name": "",
          "type": "bool"
        }
      ],
      "stateMutability": "view",
      "type": "function"
    },
    {
      "inputs": [
        {
          "internalType": "uint256",
          "name": "",
          "type": "uint256"
        }
      ],
      "name": "lendingTokens",
      "outputs": [
        {
          "internalType": "address",
          "name": "",
          "type": "address"
        }
      ],
      "stateMutability": "view",
      "type": "function"
    },
    {
      "inputs": [
        {
          "internalType": "address",
          "name": "",
          "type": "address"
        }
      ],
      "name": "ltf",
      "outputs": [
        {
          "internalType": "uint8",
          "name": "numerator",
          "type": "uint8"
        },
        {
          "internalType": "uint8",
          "name": "denominator",
          "type": "uint8"
        }
      ],
      "stateMutability": "view",
      "type": "function"
    },
    {
      "inputs": [
        {
          "internalType": "address",
          "name": "",
          "type": "address"
        }
      ],
      "name": "lvr",
      "outputs": [
        {
          "internalType": "uint8",
          "name": "numerator",
          "type": "uint8"
        },
        {
          "internalType": "uint8",
          "name": "denominator",
          "type": "uint8"
        }
      ],
      "stateMutability": "view",
      "type": "function"
    },
    {
      "inputs": [],
      "name": "name",
      "outputs": [
        {
          "internalType": "string",
          "name": "",
          "type": "string"
        }
      ],
      "stateMutability": "view",
      "type": "function"
    },
    {
      "inputs": [],
      "name": "paused",
      "outputs": [
        {
          "internalType": "bool",
          "name": "",
          "type": "bool"
        }
      ],
      "stateMutability": "view",
      "type": "function"
    },
    {
      "inputs": [],
      "name": "priceOracle",
      "outputs": [
        {
          "internalType": "contract ISimplePriceOracle",
          "name": "",
          "type": "address"
        }
      ],
      "stateMutability": "view",
      "type": "function"
    },
    {
      "inputs": [
        {
          "internalType": "uint256",
          "name": "",
          "type": "uint256"
        }
      ],
      "name": "projectTokens",
      "outputs": [
        {
          "internalType": "address",
          "name": "",
          "type": "address"
        }
      ],
      "stateMutability": "view",
      "type": "function"
    },
    {
      "inputs": [
        {
          "internalType": "bytes32",
          "name": "role",
          "type": "bytes32"
        },
        {
          "internalType": "address",
          "name": "account",
          "type": "address"
        }
      ],
      "name": "renounceRole",
      "outputs": [],
      "stateMutability": "nonpayable",
      "type": "function"
    },
    {
      "inputs": [
        {
          "internalType": "bytes32",
          "name": "role",
          "type": "bytes32"
        },
        {
          "internalType": "address",
          "name": "account",
          "type": "address"
        }
      ],
      "name": "revokeRole",
      "outputs": [],
      "stateMutability": "nonpayable",
      "type": "function"
    },
    {
      "inputs": [
        {
          "internalType": "bytes4",
          "name": "interfaceId",
          "type": "bytes4"
        }
      ],
      "name": "supportsInterface",
      "outputs": [
        {
          "internalType": "bool",
          "name": "",
          "type": "bool"
        }
      ],
      "stateMutability": "view",
      "type": "function"
    },
    {
      "inputs": [],
      "name": "symbol",
      "outputs": [
        {
          "internalType": "string",
          "name": "",
          "type": "string"
        }
      ],
      "stateMutability": "view",
      "type": "function"
    },
    {
      "inputs": [
        {
          "internalType": "address",
          "name": "",
          "type": "address"
        }
      ],
      "name": "totalStakedPrj",
      "outputs": [
        {
          "internalType": "uint256",
          "name": "",
          "type": "uint256"
        }
      ],
      "stateMutability": "view",
      "type": "function"
    },
    {
      "inputs": [],
      "name": "totalSupply",
      "outputs": [
        {
          "internalType": "uint256",
          "name": "",
          "type": "uint256"
        }
      ],
      "stateMutability": "view",
      "type": "function"
    },
    {
      "inputs": [
        {
          "internalType": "address",
          "name": "",
          "type": "address"
        }
      ],
      "name": "totalSupplyCToken",
      "outputs": [
        {
          "internalType": "uint256",
          "name": "",
          "type": "uint256"
        }
      ],
      "stateMutability": "view",
      "type": "function"
    },
    {
      "inputs": [
        {
          "internalType": "address",
          "name": "",
          "type": "address"
        }
      ],
      "name": "totalSupplyToken",
      "outputs": [
        {
          "internalType": "uint256",
          "name": "",
          "type": "uint256"
        }
      ],
      "stateMutability": "view",
      "type": "function"
    },
    {
      "inputs": [
        {
          "internalType": "address",
          "name": "recipient",
          "type": "address"
        },
        {
          "internalType": "uint256",
          "name": "amount",
          "type": "uint256"
        }
      ],
      "name": "transfer",
      "outputs": [
        {
          "internalType": "bool",
          "name": "",
          "type": "bool"
        }
      ],
      "stateMutability": "nonpayable",
      "type": "function"
    },
    {
      "inputs": [
        {
          "internalType": "address",
          "name": "sender",
          "type": "address"
        },
        {
          "internalType": "address",
          "name": "recipient",
          "type": "address"
        },
        {
          "internalType": "uint256",
          "name": "amount",
          "type": "uint256"
        }
      ],
      "name": "transferFrom",
      "outputs": [
        {
          "internalType": "bool",
          "name": "",
          "type": "bool"
        }
      ],
      "stateMutability": "nonpayable",
      "type": "function"
    },
    {
      "inputs": [],
      "name": "uniswapPathFinder",
      "outputs": [
        {
          "internalType": "contract UniswapPathFinder",
          "name": "",
          "type": "address"
        }
      ],
      "stateMutability": "view",
      "type": "function"
    },
    {
      "inputs": [
        {
          "internalType": "address",
          "name": "",
          "type": "address"
        },
        {
          "internalType": "uint256",
          "name": "",
          "type": "uint256"
        }
      ],
      "name": "userBorrowPosition",
      "outputs": [
        {
          "internalType": "uint256",
          "name": "amountBorrowed",
          "type": "uint256"
        }
      ],
      "stateMutability": "view",
      "type": "function"
    },
    {
      "inputs": [
        {
          "internalType": "address",
          "name": "",
          "type": "address"
        },
        {
          "internalType": "uint256",
          "name": "",
          "type": "uint256"
        }
      ],
      "name": "userPrjPosition",
      "outputs": [
        {
          "internalType": "uint256",
          "name": "amountPrjDeposited",
          "type": "uint256"
        }
      ],
      "stateMutability": "view",
      "type": "function"
    },
    {
      "inputs": [
        {
          "internalType": "address",
          "name": "_basicToken",
          "type": "address"
        },
        {
          "internalType": "address",
          "name": "_uniswapPathFinder",
          "type": "address"
        },
        {
          "internalType": "address",
          "name": "_moderator",
          "type": "address"
        },
        {
          "internalType": "address",
          "name": "_trustedForwarder",
          "type": "address"
        }
      ],
      "name": "init",
      "outputs": [],
      "stateMutability": "nonpayable",
      "type": "function"
    },
    {
      "inputs": [
        {
          "internalType": "address",
          "name": "_tokenPRJ",
          "type": "address"
        },
        {
          "internalType": "uint8",
          "name": "_lvrNumerator",
          "type": "uint8"
        },
        {
          "internalType": "uint8",
          "name": "_lvrDenominator",
          "type": "uint8"
        },
        {
          "internalType": "uint8",
          "name": "_ltfNumerator",
          "type": "uint8"
        },
        {
          "internalType": "uint8",
          "name": "_ltfDenominator",
          "type": "uint8"
        }
      ],
      "name": "addPrjToken",
      "outputs": [],
      "stateMutability": "nonpayable",
      "type": "function"
    },
    {
      "inputs": [
        {
          "internalType": "address",
          "name": "_lendingToken",
          "type": "address"
        }
      ],
      "name": "addLendingToken",
      "outputs": [],
      "stateMutability": "nonpayable",
      "type": "function"
    },
    {
      "inputs": [
        {
          "internalType": "address",
          "name": "_underlyingToken",
          "type": "address"
        },
        {
          "internalType": "address",
          "name": "_cToken",
          "type": "address"
        }
      ],
      "name": "addCLendingToken",
      "outputs": [],
      "stateMutability": "nonpayable",
      "type": "function"
    },
    {
      "inputs": [
        {
          "internalType": "address",
          "name": "_comptroller",
          "type": "address"
        }
      ],
      "name": "setComptroller",
      "outputs": [],
      "stateMutability": "nonpayable",
      "type": "function"
    },
    {
      "inputs": [
        {
          "internalType": "address",
          "name": "_cPrimaryIndexToken",
          "type": "address"
        }
      ],
      "name": "setCPrimaryIndexToken",
      "outputs": [],
      "stateMutability": "nonpayable",
      "type": "function"
    },
    {
      "inputs": [
        {
          "internalType": "address",
          "name": "_priceOracle",
          "type": "address"
        }
      ],
      "name": "setPriceOracle",
      "outputs": [],
      "stateMutability": "nonpayable",
      "type": "function"
    },
    {
      "inputs": [
        {
          "internalType": "address",
          "name": "_tokenPRJ",
          "type": "address"
        },
        {
          "internalType": "uint8",
          "name": "_lvrNumerator",
          "type": "uint8"
        },
        {
          "internalType": "uint8",
          "name": "_lvrDenominator",
          "type": "uint8"
        }
      ],
      "name": "setLvr",
      "outputs": [],
      "stateMutability": "nonpayable",
      "type": "function"
    },
    {
      "inputs": [
        {
          "internalType": "address",
          "name": "_tokenPRJ",
          "type": "address"
        },
        {
          "internalType": "uint8",
          "name": "_ltfNumerator",
          "type": "uint8"
        },
        {
          "internalType": "uint8",
          "name": "_ltfDenominator",
          "type": "uint8"
        }
      ],
      "name": "setLtf",
      "outputs": [],
      "stateMutability": "nonpayable",
      "type": "function"
    },
    {
      "inputs": [],
      "name": "pause",
      "outputs": [],
      "stateMutability": "nonpayable",
      "type": "function"
    },
    {
      "inputs": [],
      "name": "unpause",
      "outputs": [],
      "stateMutability": "nonpayable",
      "type": "function"
    },
    {
      "inputs": [
        {
          "internalType": "uint256",
          "name": "prjId",
          "type": "uint256"
        },
        {
          "internalType": "uint256",
          "name": "amountPrj",
          "type": "uint256"
        }
      ],
      "name": "deposit",
      "outputs": [],
      "stateMutability": "nonpayable",
      "type": "function"
    },
    {
      "inputs": [
        {
          "internalType": "uint256",
          "name": "prjId",
          "type": "uint256"
        },
        {
          "internalType": "uint256",
          "name": "amountPrj",
          "type": "uint256"
        },
        {
          "internalType": "address",
          "name": "beneficiar",
          "type": "address"
        }
      ],
      "name": "depositTo",
      "outputs": [],
      "stateMutability": "nonpayable",
      "type": "function"
    },
    {
      "inputs": [
        {
          "internalType": "uint256",
          "name": "prjId",
          "type": "uint256"
        },
        {
          "internalType": "uint256",
          "name": "amountPrj",
          "type": "uint256"
        }
      ],
      "name": "withdraw",
      "outputs": [],
      "stateMutability": "nonpayable",
      "type": "function"
    },
    {
      "inputs": [
        {
          "internalType": "uint256",
          "name": "prjId",
          "type": "uint256"
        },
        {
          "internalType": "uint256",
          "name": "amountPrj",
          "type": "uint256"
        },
        {
          "internalType": "address",
          "name": "beneficiar",
          "type": "address"
        }
      ],
      "name": "withdrawTo",
      "outputs": [],
      "stateMutability": "nonpayable",
      "type": "function"
    },
    {
      "inputs": [
        {
          "internalType": "uint256",
          "name": "lendingTokenId",
          "type": "uint256"
        },
        {
          "internalType": "uint256",
          "name": "amountLendingToken",
          "type": "uint256"
        }
      ],
      "name": "supply",
      "outputs": [],
      "stateMutability": "nonpayable",
      "type": "function"
    },
    {
      "inputs": [
        {
          "internalType": "uint256",
          "name": "lendingTokenId",
          "type": "uint256"
        },
        {
          "internalType": "uint256",
          "name": "amountCLendingToken",
          "type": "uint256"
        }
      ],
      "name": "redeem",
      "outputs": [],
      "stateMutability": "nonpayable",
      "type": "function"
    },
    {
      "inputs": [
        {
          "internalType": "uint256",
          "name": "lendingTokenId",
          "type": "uint256"
        },
        {
          "internalType": "uint256",
          "name": "amountLendingToken",
          "type": "uint256"
        }
      ],
      "name": "redeemUnderlying",
      "outputs": [],
      "stateMutability": "nonpayable",
      "type": "function"
    },
    {
      "inputs": [
        {
          "internalType": "uint256",
          "name": "lendingTokenId",
          "type": "uint256"
        },
        {
          "internalType": "uint256",
          "name": "amountLendingToken",
          "type": "uint256"
        }
      ],
      "name": "borrow",
      "outputs": [],
      "stateMutability": "nonpayable",
      "type": "function"
    },
    {
      "inputs": [
        {
          "internalType": "address",
          "name": "tokenPrj",
          "type": "address"
        },
        {
          "internalType": "uint256",
          "name": "amount",
          "type": "uint256"
        }
      ],
      "name": "getPrjEvaluationInBasicToken",
      "outputs": [
        {
          "internalType": "uint256",
          "name": "",
          "type": "uint256"
        }
      ],
      "stateMutability": "view",
      "type": "function"
    },
    {
      "inputs": [
        {
          "internalType": "address",
          "name": "underlying",
          "type": "address"
        }
      ],
      "name": "getCToken",
      "outputs": [
        {
          "internalType": "address",
          "name": "",
          "type": "address"
        }
      ],
      "stateMutability": "view",
      "type": "function"
    },
    {
      "inputs": [
        {
          "internalType": "address",
          "name": "account",
          "type": "address"
        },
        {
          "internalType": "uint256",
          "name": "prjId",
          "type": "uint256"
        }
      ],
      "name": "getDepositedPrjAmount",
      "outputs": [
        {
          "internalType": "uint256",
          "name": "",
          "type": "uint256"
        }
      ],
      "stateMutability": "view",
      "type": "function"
    },
    {
      "inputs": [
        {
          "internalType": "address",
          "name": "account",
          "type": "address"
        }
      ],
      "name": "liquidationThreshold",
      "outputs": [
        {
          "internalType": "uint256",
          "name": "",
          "type": "uint256"
        }
      ],
      "stateMutability": "view",
      "type": "function"
    },
    {
      "inputs": [
        {
          "internalType": "address",
          "name": "account",
          "type": "address"
        },
        {
          "internalType": "uint256",
          "name": "prjId",
          "type": "uint256"
        }
      ],
      "name": "liquidationThresholdForPosition",
      "outputs": [
        {
          "internalType": "uint256",
          "name": "",
          "type": "uint256"
        }
      ],
      "stateMutability": "view",
      "type": "function"
    },
    {
      "inputs": [
        {
          "internalType": "address",
          "name": "account",
          "type": "address"
        }
      ],
      "name": "balanceOfPit",
      "outputs": [
        {
          "internalType": "uint256",
          "name": "",
          "type": "uint256"
        }
      ],
      "stateMutability": "view",
      "type": "function"
    },
    {
      "inputs": [
        {
          "internalType": "address",
          "name": "account",
          "type": "address"
        },
        {
          "internalType": "uint256",
          "name": "prjId",
          "type": "uint256"
        }
      ],
      "name": "balanceOfPitPosition",
      "outputs": [
        {
          "internalType": "uint256",
          "name": "",
          "type": "uint256"
        }
      ],
      "stateMutability": "view",
      "type": "function"
    },
    {
      "inputs": [],
      "name": "totalSupplyPit",
      "outputs": [
        {
          "internalType": "uint256",
          "name": "",
          "type": "uint256"
        }
      ],
      "stateMutability": "view",
      "type": "function"
    },
    {
      "inputs": [
        {
          "internalType": "address",
          "name": "account",
          "type": "address"
        }
      ],
      "name": "healthFactor",
      "outputs": [
        {
          "internalType": "uint256",
          "name": "",
          "type": "uint256"
        },
        {
          "internalType": "uint256",
          "name": "",
          "type": "uint256"
        }
      ],
      "stateMutability": "view",
      "type": "function"
    }
  ],
  "bytecode": "0x608060405234801561001057600080fd5b50613d7d806100206000396000f3fe608060405234801561001057600080fd5b50600436106103d05760003560e01c8063833b3cde116101ff578063bae6dfbb1161011a578063dd62ed3e116100ad578063eaab0f501161007c578063eaab0f5014610984578063f6f521da14610997578063fa2716ff146109c4578063fde6863e146109e557600080fd5b8063dd62ed3e146108f9578063df37b86e14610932578063e2bbb15814610945578063e9f3e62e1461095857600080fd5b8063d76ac91f116100e9578063d76ac91f146108ad578063d7c39f0e146108c0578063daecfa6c146108d3578063dc4d880e146108e657600080fd5b8063bae6dfbb1461081f578063bc06258214610866578063cf4f6b2a14610879578063d547741f1461089a57600080fd5b8063a457c2d711610192578063b1732b2511610161578063b1732b25146107b9578063b269449f146107cc578063b32f7d47146107df578063ba8a3107146107f357600080fd5b8063a457c2d714610749578063a9059cbb1461075c578063ae47afdd1461076f578063afb239a5146107a657600080fd5b806391d14854116101ce57806391d148541461071357806395d89b41146107265780639a269e0c1461072e578063a217fddf1461074157600080fd5b8063833b3cde146106c45780638456cb59146106d757806385932f05146106df5780638bad38dd1461070057600080fd5b806336568abe116102ef5780635c975abb1161028257806370a082311161025157806370a0823114610646578063797669c91461066f5780637cbc2373146106845780637e5a4eb91461069757600080fd5b80635c975abb146105ec5780635fe3b567146105f75780636ad9f9df1461060b5780636f5f74f21461063357600080fd5b80634a7a2856116102be5780634a7a28561461059c5780634c9ec19c146105af578063530e784f146105b7578063572b6c05146105ca57600080fd5b806336568abe1461055b578063395093511461056e5780633f4ba83a14610581578063441a3e701461058957600080fd5b806322f715ef116103675780632a0e4fc4116103365780632a0e4fc4146104fc5780632f2ff15d14610526578063313ce5671461053957806332d560bf1461054857600080fd5b806322f715ef1461049e57806323b872dd146104b2578063248a9ca3146104c55780632630c12f146104e857600080fd5b80630ecbcdab116103a35780630ecbcdab1461043a57806314cd70e41461044d57806318160ddd14610460578063190b8dc51461047257600080fd5b806301ffc9a7146103d557806306552ff3146103fd57806306fdde0314610412578063095ea7b314610427575b600080fd5b6103e86103e33660046137dd565b6109f8565b60405190151581526020015b60405180910390f35b61041061040b36600461360d565b610a2f565b005b61041a610d42565b6040516103f49190613977565b6103e861043536600461369d565b610dd4565b610410610448366004613820565b610df1565b61041061045b366004613866565b6110e6565b6035545b6040519081526020016103f4565b61012e54610486906001600160a01b031681565b6040516001600160a01b0390911681526020016103f4565b61012d54610486906001600160a01b031681565b6103e86104c0366004613661565b611318565b6104646104d33660046137a1565b600090815260c9602052604090206001015490565b61013154610486906001600160a01b031681565b61048661050a3660046135bf565b610138602052600090815260409020546001600160a01b031681565b6104106105343660046137ba565b6113eb565b604051601281526020016103f4565b6104106105563660046136c7565b61141d565b6104106105693660046137ba565b611484565b6103e861057c36600461369d565b611512565b610410611566565b610410610597366004613820565b6115a6565b6104646105aa36600461369d565b6115b3565b610464611648565b6104106105c53660046135bf565b61178a565b6103e86105d83660046135bf565b60fb546001600160a01b0391821691161490565b60655460ff166103e8565b61012f54610486906001600160a01b031681565b61061e6106193660046135bf565b6117d6565b604080519283526020830191909152016103f4565b6104866106413660046137a1565b6117ef565b6104646106543660046135bf565b6001600160a01b031660009081526033602052604090205490565b610464600080516020613d2883398151915281565b610410610692366004613820565b61181a565b6104866106a53660046135bf565b6001600160a01b03908116600090815261013860205260409020541690565b6104106106d23660046135da565b61198d565b610410611abf565b6104646106ed3660046135bf565b6101366020526000908152604090205481565b61041061070e3660046135bf565b611afd565b6103e86107213660046137ba565b611b49565b61041a611b74565b61041061073c366004613866565b611b83565b610464600081565b6103e861075736600461369d565b611d21565b6103e861076a36600461369d565b611dd8565b61046461077d36600461369d565b6001600160a01b0391909116600090815261013760209081526040808320938352929052205490565b6104106107b43660046136c7565b611dec565b6104646107c73660046135bf565b611eb9565b6104866107da3660046137a1565b611ef9565b61013054610486906001600160a01b031681565b61046461080136600461369d565b61013760209081526000928352604080842090915290825290205481565b61084c61082d3660046135bf565b6101346020526000908152604090205460ff8082169161010090041682565b6040805160ff9384168152929091166020830152016103f4565b6104106108743660046135bf565b611f0a565b6104646108873660046135bf565b61013a6020526000908152604090205481565b6104106108a83660046137ba565b611f56565b6104106108bb3660046135bf565b611f7e565b6104646108ce3660046135bf565b61206c565b6104106108e1366004613820565b6120a5565b6104106108f4366004613820565b612220565b6104646109073660046135da565b6001600160a01b03918216600090815260346020908152604080832093909416825291909152205490565b610410610940366004613710565b6123a0565b610410610953366004613820565b612491565b61046461096636600461369d565b61013b60209081526000928352604080842090915290825290205481565b61046461099236600461369d565b61249e565b61084c6109a53660046135bf565b6101356020526000908152604090205460ff8082169161010090041682565b6104646109d23660046135bf565b6101396020526000908152604090205481565b6104646109f336600461369d565b6125c6565b60006001600160e01b03198216637965db0b60e01b1480610a2957506301ffc9a760e01b6001600160e01b03198316145b92915050565b600054610100900460ff1680610a48575060005460ff16155b610a6d5760405162461bcd60e51b8152600401610a6490613ade565b60405180910390fd5b600054610100900460ff16158015610a8f576000805461ffff19166101011790555b73dac17f958d2ee523a2206206994597c13d831ec76001600160a01b0386161415610afc5760405162461bcd60e51b815260206004820152601d60248201527f5f6261736963546f6b656e2073686f756c646e742062652055534454210000006044820152606401610a64565b610b4c60405180604001604052806013815260200172283934b6b0b93c9024b73232bc102a37b5b2b760691b8152506040518060400160405280600381526020016214125560ea1b815250612647565b846001600160a01b031663313ce5676040518163ffffffff1660e01b815260040160206040518083038186803b158015610b8557600080fd5b505afa158015610b99573d6000803e3d6000fd5b505050506040513d601f19601f82011682018060405250810190610bbd91906138c9565b60ff16306001600160a01b031663313ce5676040518163ffffffff1660e01b815260040160206040518083038186803b158015610bf957600080fd5b505afa158015610c0d573d6000803e3d6000fd5b505050506040513d601f19601f82011682018060405250810190610c3191906138c9565b60ff161015610cb45760405162461bcd60e51b815260206004820152604360248201527f5072696d61727920496e64657820546f6b656e3a20626173696320746f6b656e60448201527f2073686f756c64206861766520646563696d616c73206c657373207468616e2060648201526214125560ea1b608482015260a401610a64565b610cbc6126c6565b610cc461273c565b610cd66000610cd16127a7565b6127b6565b610cee600080516020613d28833981519152846127b6565b610cf7826127c0565b61012e80546001600160a01b038088166001600160a01b03199283161790925561012d8054928716929091169190911790558015610d3b576000805461ff00191690555b5050505050565b606060368054610d5190613c80565b80601f0160208091040260200160405190810160405280929190818152602001828054610d7d90613c80565b8015610dca5780601f10610d9f57610100808354040283529160200191610dca565b820191906000526020600020905b815481529060010190602001808311610dad57829003601f168201915b5050505050905090565b6000610de8610de16127a7565b8484612847565b50600192915050565b610133548210610e135760405162461bcd60e51b8152600401610a64906139aa565b60008111610e335760405162461bcd60e51b8152600401610a6490613b2c565b60006101338381548110610e4957610e49613cec565b60009182526020808320909101546001600160a01b03908116808452610138909252604083205461012f54610130549395509082169392908216916324991d669116610e936127a7565b6040516001600160e01b031960e085901b1681526001600160a01b03928316600482015291166024820152604401602060405180830381600087803b158015610edb57600080fd5b505af1158015610eef573d6000803e3d6000fd5b505050506040513d601f19601f82011682018060405250810190610f139190613807565b90506000610f226108ce6127a7565b9050610f35610f2f6127a7565b8261296c565b610f53610f406127a7565b610130546001600160a01b031683612847565b610130546001600160a01b031663449a52f8610f6d6127a7565b6040516001600160e01b031960e084901b1681526001600160a01b039091166004820152602481018490526044016040805180830381600087803b158015610fb457600080fd5b505af1158015610fc8573d6000803e3d6000fd5b505050506040513d601f19601f82011682018060405250810190610fec9190613842565b505061012f546000906001600160a01b0316635ec88c7961100b6127a7565b6040516001600160e01b031960e084901b1681526001600160a01b03909116600482015260240160606040518083038186803b15801561104a57600080fd5b505afa15801561105e573d6000803e3d6000fd5b505050506040513d601f19601f82011682018060405250810190611082919061389b565b50604080518581526020810183905260009181018290526060810182905260808101879052919350915081907fc4db5b685b7d45dfdc916015de59f7f631ab272bb18c5337b0d7eb08a923c5f09060a00160405180910390a1505050505050505050565b6101325483106111085760405162461bcd60e51b8152600401610a64906139f6565b60008211801561114b575061013760006111206127a7565b6001600160a01b03168152602080820192909252604090810160009081208682529092529020548211155b6111e35760405162461bcd60e51b815260206004820152605f60248201527f5072696d61727920496e64657820546f6b656e3a20616d6f756e7450726a207360448201527f686f756c642062652067726561746564207468616e207a65726f20616e64206c60648201527f65737320657175616c207468616e20706f736974696f6e207374616b65642100608482015260a401610a64565b600061013284815481106111f9576111f9613cec565b60009182526020822001546001600160a01b031691506101378161121b6127a7565b6001600160a01b03166001600160a01b0316815260200190815260200160002060008681526020019081526020016000209050838160000160008282546112629190613c26565b90915550506001600160a01b0382166000908152610136602052604081208054869290611290908490613c26565b909155506112aa90506001600160a01b0383168486612a4b565b826001600160a01b0316826001600160a01b03166112c66127a7565b6001600160a01b03167fc5de321f20136e2f86609c5eab638083a3300f55766433c1243a6ea1610f77928888604051611309929190918252602082015260400190565b60405180910390a45050505050565b6000611325848484612aae565b6001600160a01b0384166000908152603460205260408120816113466127a7565b6001600160a01b03166001600160a01b03168152602001908152602001600020549050828110156113ca5760405162461bcd60e51b815260206004820152602860248201527f45524332303a207472616e7366657220616d6f756e74206578636565647320616044820152676c6c6f77616e636560c01b6064820152608401610a64565b6113de856113d66127a7565b858403612847565b60019150505b9392505050565b600082815260c9602052604090206001015461140e816114096127a7565b612c7e565b6114188383612ce2565b505050565b611437600080516020613d288339815191526107216127a7565b6114535760405162461bcd60e51b8152600401610a6490613b96565b8060ff168260ff1611156114795760405162461bcd60e51b8152600401610a6490613a3a565b611418838383612d69565b61148c6127a7565b6001600160a01b0316816001600160a01b0316146115045760405162461bcd60e51b815260206004820152602f60248201527f416363657373436f6e74726f6c3a2063616e206f6e6c792072656e6f756e636560448201526e103937b632b9903337b91039b2b63360891b6064820152608401610a64565b61150e8282612e07565b5050565b6000610de861151f6127a7565b84846034600061152d6127a7565b6001600160a01b03908116825260208083019390935260409182016000908120918b16815292529020546115619190613bcd565b612847565b611580600080516020613d288339815191526107216127a7565b61159c5760405162461bcd60e51b8152600401610a6490613b96565b6115a4612e8c565b565b61150e828261045b6127a7565b61012d5461012e5460405163df22dbeb60e01b81526001600160a01b039182166004820152848216602482015260448101849052600092919091169063df22dbeb9060640160206040518083038186803b15801561161057600080fd5b505afa158015611624573d6000803e3d6000fd5b505050506040513d601f19601f820116820180604052508101906113e49190613807565b6000808080808080805b6101325481101561177e57610132818154811061167157611671613cec565b6000918252602080832091909101546001600160a01b039081168084526101348352604080852054610136909452938490205461012d5461012e54955163df22dbeb60e01b815295841660048701526024860183905260448601829052919a5060ff8085169a506101009094049093169750919450169063df22dbeb9060640160206040518083038186803b15801561170957600080fd5b505afa15801561171d573d6000803e3d6000fd5b505050506040513d601f19601f820116820180604052508101906117419190613807565b92508360ff168560ff16846117569190613c07565b6117609190613be5565b61176a9088613bcd565b96508061177681613cbb565b915050611652565b50949695505050505050565b61179760006107216127a7565b6117b35760405162461bcd60e51b8152600401610a6490613aa7565b61013180546001600160a01b0319166001600160a01b0392909216919091179055565b60008060006117e484611eb9565b946000945092505050565b610133818154811061180057600080fd5b6000918252602090912001546001600160a01b0316905081565b61013354821061183c5760405162461bcd60e51b8152600401610a64906139aa565b6000811161185c5760405162461bcd60e51b8152600401610a6490613b2c565b6000610133838154811061187257611872613cec565b60009182526020808320909101546001600160a01b039081168084526101389092526040832054919350169081632f7605fb6118ac6127a7565b6040516001600160e01b031960e084901b1681526001600160a01b03909116600482015260248101879052604401602060405180830381600087803b1580156118f457600080fd5b505af1158015611908573d6000803e3d6000fd5b505050506040513d601f19601f8201168201806040525081019061192c9190613807565b9050816001600160a01b0316836001600160a01b031661194a6127a7565b6001600160a01b03167f30510cb653295e1834731144c6ef963cb3b5c37583acaa104ba559419e3596318888604051611309929190918252602082015260400190565b61199a60006107216127a7565b6119b65760405162461bcd60e51b8152600401610a6490613aa7565b6001600160a01b038216611a255760405162461bcd60e51b815260206004820152603060248201527f5072696d61727920496e64657820546f6b656e3a20696e76616c696420756e6460448201526f65726c79696e6720616464726573732160801b6064820152608401610a64565b6001600160a01b038116611a905760405162461bcd60e51b815260206004820152602c60248201527f5072696d61727920496e64657820546f6b656e3a20696e76616c69642063546f60448201526b6b656e20616464726573732160a01b6064820152608401610a64565b6001600160a01b0391821660009081526101386020526040902080546001600160a01b03191691909216179055565b611ad9600080516020613d288339815191526107216127a7565b611af55760405162461bcd60e51b8152600401610a6490613b96565b6115a4612f25565b611b0a60006107216127a7565b611b265760405162461bcd60e51b8152600401610a6490613aa7565b61012f80546001600160a01b0319166001600160a01b0392909216919091179055565b600091825260c9602090815260408084206001600160a01b0393909316845291905290205460ff1690565b606060378054610d5190613c80565b610132548310611ba55760405162461bcd60e51b8152600401610a64906139f6565b60008211611c1b5760405162461bcd60e51b815260206004820152603b60248201527f5072696d61727920496e64657820546f6b656e3a20616d6f756e7450726a207360448201527f686f756c642062652067726561746564207468616e207a65726f2100000000006064820152608401610a64565b60006101328481548110611c3157611c31613cec565b60009182526020808320909101546001600160a01b038581168452610137835260408085208986529093529190922091169150611c81611c6f6127a7565b6001600160a01b038416903087612fa1565b83816000016000828254611c959190613bcd565b90915550506001600160a01b0382166000908152610136602052604081208054869290611cc3908490613bcd565b90915550506001600160a01b03808416908316611cde6127a7565b6001600160a01b03167f0b6c6cb502d2da9ef6887b17afbeb0034852ce0a2394ac48028d6b0f7810b63c8888604051611309929190918252602082015260400190565b60008060346000611d306127a7565b6001600160a01b0390811682526020808301939093526040918201600090812091881681529252902054905082811015611dba5760405162461bcd60e51b815260206004820152602560248201527f45524332303a2064656372656173656420616c6c6f77616e63652062656c6f77604482015264207a65726f60d81b6064820152608401610a64565b611dce611dc56127a7565b85858403612847565b5060019392505050565b6000610de8611de56127a7565b8484612aae565b611e06600080516020613d288339815191526107216127a7565b611e225760405162461bcd60e51b8152600401610a6490613b96565b8060ff168260ff161115611eae5760405162461bcd60e51b815260206004820152604760248201527f5072696d61727920496e64657820546f6b656e3a205f6c74664e756d6572617460448201527f6f722073686f756c64206265206c657373207468616e205f6c746644656e6f6d606482015266696e61746f722160c81b608482015260a401610a64565b611418838383612fd9565b60008060005b61013254811015611ef257611ed484826125c6565b611ede9083613bcd565b915080611eea81613cbb565b915050611ebf565b5092915050565b610132818154811061180057600080fd5b611f1760006107216127a7565b611f335760405162461bcd60e51b8152600401610a6490613aa7565b61013080546001600160a01b0319166001600160a01b0392909216919091179055565b600082815260c96020526040902060010154611f74816114096127a7565b6114188383612e07565b611f8b60006107216127a7565b611fa75760405162461bcd60e51b8152600401610a6490613aa7565b6001600160a01b0381166120195760405162461bcd60e51b815260206004820152603360248201527f5072696d61727920496e64657820546f6b656e3a20696e76616c6964205f6c656044820152726e64696e67546f6b656e20616464726573732160681b6064820152608401610a64565b61013380546001810182556000919091527f92e985329fb94cc1b424ebb0f7f2929b6d27383ca94c0ec71c44fb48bdf96d2c0180546001600160a01b0319166001600160a01b0392909216919091179055565b60008060005b61013254811015611ef257612087848261249e565b6120919083613bcd565b91508061209d81613cbb565b915050612072565b6101335482106120c75760405162461bcd60e51b8152600401610a64906139aa565b600081116120e75760405162461bcd60e51b8152600401610a6490613b2c565b600061013383815481106120fd576120fd613cec565b60009182526020808320909101546001600160a01b03908116808452610138909252604083205491935016908163449a52f86121376127a7565b6040516001600160e01b031960e084901b1681526001600160a01b039091166004820152602481018790526044016040805180830381600087803b15801561217e57600080fd5b505af1158015612192573d6000803e3d6000fd5b505050506040513d601f19601f820116820180604052508101906121b69190613842565b915050816001600160a01b0316836001600160a01b03166121d56127a7565b60408051898152602081018990529081018590526001600160a01b0391909116907fb0785278015c5bc22fefba87433b9dbb1a62f7171970ce041c92438cc47d509d90606001611309565b6101335482106122425760405162461bcd60e51b8152600401610a64906139aa565b600081116122625760405162461bcd60e51b8152600401610a6490613b2c565b6000610133838154811061227857612278613cec565b60009182526020808320909101546001600160a01b039081168084526101389092526040909220549092501680632f7605fb6122b26127a7565b6040516001600160e01b031960e084901b1681526001600160a01b03909116600482015260248101869052604401602060405180830381600087803b1580156122fa57600080fd5b505af115801561230e573d6000803e3d6000fd5b505050506040513d601f19601f820116820180604052508101906123329190613807565b50806001600160a01b0316826001600160a01b031661234f6127a7565b6001600160a01b03167f4f83d516cb6b5966725c9f26a68e354fbd4e64ad263d34e53a6e798879b128e28787604051612392929190918252602082015260400190565b60405180910390a450505050565b6123ad60006107216127a7565b6123c95760405162461bcd60e51b8152600401610a6490613aa7565b8260ff168460ff1611156123ef5760405162461bcd60e51b8152600401610a6490613a3a565b61013280546001810182556000919091527fc53bdfd4aa1ab65dfdaf681ca6bda958ae4a123d4ed68c4277796592280e78350180546001600160a01b0319166001600160a01b0387169081179091556124466127a7565b6001600160a01b03167f5c44326fdcde4c13baab6c81436cc5a5b08a1455def4e2977642777df0dcd08c60405160405180910390a3612486858585612d69565b610d3b858383612fd9565b61150e828261073c6127a7565b60008061013283815481106124b5576124b5613cec565b6000918252602080832091909101546001600160a01b039081168084526101348352604080852054928916855261013784528085208886529093529183205491935060ff80821693610100909204169161012d5461012e5460405163df22dbeb60e01b81526001600160a01b03918216600482015287821660248201526044810184905292935060009291169063df22dbeb9060640160206040518083038186803b15801561256357600080fd5b505afa158015612577573d6000803e3d6000fd5b505050506040513d601f19601f8201168201806040525081019061259b9190613807565b90508260ff168460ff16826125b09190613c07565b6125ba9190613be5565b98975050505050505050565b60008061013283815481106125dd576125dd613cec565b60009182526020808320909101546001600160a01b0316808352610135909152604082205490925060ff80821692610100909204169061261d878761249e565b90508160ff168360ff16826126329190613c07565b61263c9190613be5565b979650505050505050565b600054610100900460ff1680612660575060005460ff16155b61267c5760405162461bcd60e51b8152600401610a6490613ade565b600054610100900460ff1615801561269e576000805461ffff19166101011790555b6126a661273c565b6126b08383613077565b8015611418576000805461ff0019169055505050565b600054610100900460ff16806126df575060005460ff16155b6126fb5760405162461bcd60e51b8152600401610a6490613ade565b600054610100900460ff1615801561271d576000805461ffff19166101011790555b6065805460ff191690558015612739576000805461ff00191690555b50565b600054610100900460ff1680612755575060005460ff16155b6127715760405162461bcd60e51b8152600401610a6490613ade565b600054610100900460ff16158015612793576000805461ffff19166101011790555b8015612739576000805461ff001916905550565b60006127b161310c565b905090565b61150e8282612ce2565b600054610100900460ff16806127d9575060005460ff16155b6127f55760405162461bcd60e51b8152600401610a6490613ade565b600054610100900460ff16158015612817576000805461ffff19166101011790555b60fb80546001600160a01b0319166001600160a01b038416179055801561150e576000805461ff00191690555050565b6001600160a01b0383166128a95760405162461bcd60e51b8152602060048201526024808201527f45524332303a20617070726f76652066726f6d20746865207a65726f206164646044820152637265737360e01b6064820152608401610a64565b6001600160a01b03821661290a5760405162461bcd60e51b815260206004820152602260248201527f45524332303a20617070726f766520746f20746865207a65726f206164647265604482015261737360f01b6064820152608401610a64565b6001600160a01b0383811660008181526034602090815260408083209487168084529482529182902085905590518481527f8c5be1e5ebec7d5bd14f71427d1e84f3dd0314c0f7b2291e5b200ac8c7c3b92591015b60405180910390a3505050565b6001600160a01b0382166129c25760405162461bcd60e51b815260206004820152601f60248201527f45524332303a206d696e7420746f20746865207a65726f2061646472657373006044820152606401610a64565b80603560008282546129d49190613bcd565b90915550506001600160a01b03821660009081526033602052604081208054839290612a01908490613bcd565b90915550506040518181526001600160a01b038316906000907fddf252ad1be2c89b69c2b068fc378daa952ba7f163c4a11628f55a4df523b3ef9060200160405180910390a35050565b6040516001600160a01b03831660248201526044810182905261141890849063a9059cbb60e01b906064015b60408051601f198184030181529190526020810180516001600160e01b03166001600160e01b031990931692909217909152613134565b6001600160a01b038316612b125760405162461bcd60e51b815260206004820152602560248201527f45524332303a207472616e736665722066726f6d20746865207a65726f206164604482015264647265737360d81b6064820152608401610a64565b6001600160a01b038216612b745760405162461bcd60e51b815260206004820152602360248201527f45524332303a207472616e7366657220746f20746865207a65726f206164647260448201526265737360e81b6064820152608401610a64565b6001600160a01b03831660009081526033602052604090205481811015612bec5760405162461bcd60e51b815260206004820152602660248201527f45524332303a207472616e7366657220616d6f756e7420657863656564732062604482015265616c616e636560d01b6064820152608401610a64565b6001600160a01b03808516600090815260336020526040808220858503905591851681529081208054849290612c23908490613bcd565b92505081905550826001600160a01b0316846001600160a01b03167fddf252ad1be2c89b69c2b068fc378daa952ba7f163c4a11628f55a4df523b3ef84604051612c6f91815260200190565b60405180910390a35b50505050565b612c888282611b49565b61150e57612ca0816001600160a01b03166014613206565b612cab836020613206565b604051602001612cbc929190613902565b60408051601f198184030181529082905262461bcd60e51b8252610a6491600401613977565b612cec8282611b49565b61150e57600082815260c9602090815260408083206001600160a01b03851684529091529020805460ff19166001179055612d256127a7565b6001600160a01b0316816001600160a01b0316837f2f8788117e7eff1d82e926ec794901d17c78024a50270940304540a733656f0d60405160405180910390a45050565b60408051808201825260ff808516825283811660208084019182526001600160a01b038816600081815261013490925294902092518354915183166101000261ffff19909216921691909117179055612dc06127a7565b6040805160ff8087168252851660208201526001600160a01b0392909216917fe4a802f28c64e3c6626babd1a68b2413ea43a4de043b96bfc7249b9f93dc0208910161295f565b612e118282611b49565b1561150e57600082815260c9602090815260408083206001600160a01b03851684529091529020805460ff19169055612e486127a7565b6001600160a01b0316816001600160a01b0316837ff6391f5c32d9c69d2a47ea670b442974b53935d1edc7fd64eb21e047a839171b60405160405180910390a45050565b60655460ff16612ed55760405162461bcd60e51b815260206004820152601460248201527314185d5cd8589b194e881b9bdd081c185d5cd95960621b6044820152606401610a64565b6065805460ff191690557f5db9ee0a495bf2e6ff9c91a7834c1ba4fdd244a5e8aa4e537bd38aeae4b073aa612f086127a7565b6040516001600160a01b03909116815260200160405180910390a1565b60655460ff1615612f6b5760405162461bcd60e51b815260206004820152601060248201526f14185d5cd8589b194e881c185d5cd95960821b6044820152606401610a64565b6065805460ff191660011790557f62e78cea01bee320cd4e420270b5ea74000d11b0c9f74754ebdbfc544b05a258612f086127a7565b6040516001600160a01b0380851660248301528316604482015260648101829052612c789085906323b872dd60e01b90608401612a77565b60408051808201825260ff808516825283811660208084019182526001600160a01b038816600081815261013590925294902092518354915183166101000261ffff199092169216919091171790556130306127a7565b6040805160ff8087168252851660208201526001600160a01b0392909216917fd9c06c9ff85461911153041c4ca47fbf52d19abe7c39a75c8b316e68f749e5a4910161295f565b600054610100900460ff1680613090575060005460ff16155b6130ac5760405162461bcd60e51b8152600401610a6490613ade565b600054610100900460ff161580156130ce576000805461ffff19166101011790555b82516130e190603690602086019061350a565b5081516130f590603790602085019061350a565b508015611418576000805461ff0019169055505050565b60fb546000906001600160a01b031633141561312f575060131936013560601c90565b503390565b6000613189826040518060400160405280602081526020017f5361666545524332303a206c6f772d6c6576656c2063616c6c206661696c6564815250856001600160a01b03166133a29092919063ffffffff16565b80519091501561141857808060200190518101906131a7919061377f565b6114185760405162461bcd60e51b815260206004820152602a60248201527f5361666545524332303a204552433230206f7065726174696f6e20646964206e6044820152691bdd081cdd58d8d9595960b21b6064820152608401610a64565b60606000613215836002613c07565b613220906002613bcd565b67ffffffffffffffff81111561323857613238613d02565b6040519080825280601f01601f191660200182016040528015613262576020820181803683370190505b509050600360fc1b8160008151811061327d5761327d613cec565b60200101906001600160f81b031916908160001a905350600f60fb1b816001815181106132ac576132ac613cec565b60200101906001600160f81b031916908160001a90535060006132d0846002613c07565b6132db906001613bcd565b90505b6001811115613353576f181899199a1a9b1b9c1cb0b131b232b360811b85600f166010811061330f5761330f613cec565b1a60f81b82828151811061332557613325613cec565b60200101906001600160f81b031916908160001a90535060049490941c9361334c81613c69565b90506132de565b5083156113e45760405162461bcd60e51b815260206004820181905260248201527f537472696e67733a20686578206c656e67746820696e73756666696369656e746044820152606401610a64565b60606133b184846000856133b9565b949350505050565b60608247101561341a5760405162461bcd60e51b815260206004820152602660248201527f416464726573733a20696e73756666696369656e742062616c616e636520666f6044820152651c8818d85b1b60d21b6064820152608401610a64565b843b6134685760405162461bcd60e51b815260206004820152601d60248201527f416464726573733a2063616c6c20746f206e6f6e2d636f6e74726163740000006044820152606401610a64565b600080866001600160a01b0316858760405161348491906138e6565b60006040518083038185875af1925050503d80600081146134c1576040519150601f19603f3d011682016040523d82523d6000602084013e6134c6565b606091505b509150915061263c828286606083156134e05750816113e4565b8251156134f05782518084602001fd5b8160405162461bcd60e51b8152600401610a649190613977565b82805461351690613c80565b90600052602060002090601f016020900481019282613538576000855561357e565b82601f1061355157805160ff191683800117855561357e565b8280016001018555821561357e579182015b8281111561357e578251825591602001919060010190613563565b5061358a92915061358e565b5090565b5b8082111561358a576000815560010161358f565b80356001600160a01b03811681146135ba57600080fd5b919050565b6000602082840312156135d157600080fd5b6113e4826135a3565b600080604083850312156135ed57600080fd5b6135f6836135a3565b9150613604602084016135a3565b90509250929050565b6000806000806080858703121561362357600080fd5b61362c856135a3565b935061363a602086016135a3565b9250613648604086016135a3565b9150613656606086016135a3565b905092959194509250565b60008060006060848603121561367657600080fd5b61367f846135a3565b925061368d602085016135a3565b9150604084013590509250925092565b600080604083850312156136b057600080fd5b6136b9836135a3565b946020939093013593505050565b6000806000606084860312156136dc57600080fd5b6136e5846135a3565b925060208401356136f581613d18565b9150604084013561370581613d18565b809150509250925092565b600080600080600060a0868803121561372857600080fd5b613731866135a3565b9450602086013561374181613d18565b9350604086013561375181613d18565b9250606086013561376181613d18565b9150608086013561377181613d18565b809150509295509295909350565b60006020828403121561379157600080fd5b815180151581146113e457600080fd5b6000602082840312156137b357600080fd5b5035919050565b600080604083850312156137cd57600080fd5b82359150613604602084016135a3565b6000602082840312156137ef57600080fd5b81356001600160e01b0319811681146113e457600080fd5b60006020828403121561381957600080fd5b5051919050565b6000806040838503121561383357600080fd5b50508035926020909101359150565b6000806040838503121561385557600080fd5b505080516020909101519092909150565b60008060006060848603121561387b57600080fd5b8335925060208401359150613892604085016135a3565b90509250925092565b6000806000606084860312156138b057600080fd5b8351925060208401519150604084015190509250925092565b6000602082840312156138db57600080fd5b81516113e481613d18565b600082516138f8818460208701613c3d565b9190910192915050565b7f416363657373436f6e74726f6c3a206163636f756e742000000000000000000081526000835161393a816017850160208801613c3d565b7001034b99036b4b9b9b4b733903937b6329607d1b601791840191820152835161396b816028840160208801613c3d565b01602801949350505050565b6020815260008251806020840152613996816040850160208701613c3d565b601f01601f19169190910160400192915050565b6020808252602c908201527f5072696d61727920496e64657820546f6b656e3a20696e76616c6964206c656e60408201526b64696e67546f6b656e49642160a01b606082015260800190565b60208082526024908201527f5072696d61727920496e64657820546f6b656e3a20696e76616c69642070726a604082015263024b217160e51b606082015260800190565b60208082526047908201527f5072696d61727920496e64657820546f6b656e3a205f6c76724e756d6572617460408201527f6f722073686f756c64206265206c657373207468616e205f6c767244656e6f6d606082015266696e61746f722160c81b608082015260a00190565b60208082526017908201527f43616c6c6572206973206e6f74207468652041646d696e000000000000000000604082015260600190565b6020808252602e908201527f496e697469616c697a61626c653a20636f6e747261637420697320616c72656160408201526d191e481a5b9a5d1a585b1a5e995960921b606082015260800190565b60208082526044908201527f5072696d61727920496e64657820546f6b656e3a20616d6f756e744c656e646960408201527f6e67546f6b656e2073686f756c642062652067726561746564207468616e207a60608201526365726f2160e01b608082015260a00190565b6020808252601b908201527f43616c6c6572206973206e6f7420746865204d6f64657261746f720000000000604082015260600190565b60008219821115613be057613be0613cd6565b500190565b600082613c0257634e487b7160e01b600052601260045260246000fd5b500490565b6000816000190483118215151615613c2157613c21613cd6565b500290565b600082821015613c3857613c38613cd6565b500390565b60005b83811015613c58578181015183820152602001613c40565b83811115612c785750506000910152565b600081613c7857613c78613cd6565b506000190190565b600181811c90821680613c9457607f821691505b60208210811415613cb557634e487b7160e01b600052602260045260246000fd5b50919050565b6000600019821415613ccf57613ccf613cd6565b5060010190565b634e487b7160e01b600052601160045260246000fd5b634e487b7160e01b600052603260045260246000fd5b634e487b7160e01b600052604160045260246000fd5b60ff8116811461273957600080fdfe71f3d55856e4058ed06ee057d79ada615f65cdf5f9ee88181b914225088f834fa264697066735822122020f207c6284164596c5a4b623741cbd885385a9773c37c87790eb5264782fb8a64736f6c63430008070033",
  "immutableReferences": {},
  "source": "// SPDX-License-Identifier: MIT\npragma solidity >=0.8.0;\n\nimport \"../openzeppelin/contracts/proxy/transparent/ProxyAdmin.sol\";\nimport \"../openzeppelin/contracts/proxy/transparent/TransparentUpgradeableProxy.sol\";\n\nimport \"../openzeppelin/contracts-upgradeable/proxy/utils/Initializable.sol\";\nimport \"../openzeppelin/contracts-upgradeable/security/PausableUpgradeable.sol\";\nimport \"../openzeppelin/contracts-upgradeable/token/ERC20/ERC20Upgradeable.sol\";\nimport \"../openzeppelin/contracts-upgradeable/token/ERC20/IERC20Upgradeable.sol\";\nimport \"../openzeppelin/contracts-upgradeable/token/ERC20/utils/SafeERC20Upgradeable.sol\";\nimport \"../openzeppelin/contracts-upgradeable/utils/math/SafeMathUpgradeable.sol\";\nimport \"../openzeppelin/contracts-upgradeable/access/AccessControlUpgradeable.sol\";\nimport \"../openzeppelin/contracts-upgradeable/metatx/ERC2771ContextUpgradeable.sol\";\nimport \"./uniswap/UniswapPathFinder.sol\";\nimport \"./interfaces/ICPrimaryIndexToken.sol\";\nimport \"./interfaces/ICLendingToken.sol\";\nimport \"./interfaces/IComptroller.sol\";\nimport \"./interfaces/ISimplePriceOracle.sol\";\n\ncontract PrimaryIndexToken is Initializable,\n                              ERC20Upgradeable,\n                              PausableUpgradeable,\n                              AccessControlUpgradeable,\n                              ERC2771ContextUpgradeable\n{\n    using SafeMathUpgradeable for uint256;\n    using SafeERC20Upgradeable for IERC20Upgradeable;\n\n    bytes32 public constant MODERATOR_ROLE = keccak256(\"MODERATOR_ROLE\");\n\n    UniswapPathFinder public uniswapPathFinder; //contract address of uniswap path finder \n\n    address public basicToken;  //contract address of USDC by default\n\n    IComptroller public comptroller;\n\n    ICPrimaryIndexToken public cPrimaryIndexToken;\n\n    ISimplePriceOracle public priceOracle;\n\n    address[] public projectTokens;\n\n    address[] public lendingTokens;\n\n    mapping(address => LvrInfo) public lvr; //tokenAddress => Lvr (Loan to Value Ratio)\n    mapping(address => LtfInfo) public ltf; //tokenAddress => Ltf (Liquidation Threshold Factor)\n    mapping(address => uint256) public totalStakedPrj; //tokenAddress => PRJ token staked\n    mapping(address => mapping(uint256 => UserPrjPosition)) public userPrjPosition; // user address => PRJ token index => UserPrjPosition\n\n    mapping(address => address) public cTokensList; //underlying token address => cToken address\n    mapping(address => uint256) public totalSupplyToken; // Token address => total supply of Token\n    mapping(address => uint256) public totalSupplyCToken; //cToken address => total supply of cToken\n    //mapping(address => mapping(uint256 => UserSupplyPosition)) public userSupplyPosition; //user address => lending tokens index => UserSupplyPosition\n    mapping(address => mapping(uint256 => UserBorrowPosition)) public userBorrowPosition; //user address => lending tokens index => UserBorrowPosition\n\n    //Lvr = Loan to Value Ratio  \n    struct LvrInfo{\n        uint8 numerator;\n        uint8 denominator;\n    }\n\n    //Ltf = Liquidation Threshold Factor\n    struct LtfInfo{\n        uint8 numerator;\n        uint8 denominator;\n    }\n\n    struct UserPrjPosition{\n        uint256 amountPrjDeposited;\n        //uint256 amountPrjCollateral;\n        //amountPrjDeposited + amountPrjCollateral = const\n    }\n\n    // struct UserSupplyPosition{\n    //     uint256 amountToken;\n    //     uint256 amountCToken;\n    // }\n\n    struct UserBorrowPosition{\n        uint256 amountBorrowed;\n    }\n\n\n    event AddPrjToken(address indexed who, address indexed tokenPrj);\n\n    event LoanToValueRatioSet(address indexed who, address indexed tokenPrj, uint8 lvrNumerator, uint8 lvrDenominator);\n\n    event LiquidationThresholdFactorSet(address indexed who, address indexed tokenPrj, uint8 ltfNumerator, uint8 ltfDenominator);\n\n    event Deposit(address indexed who, uint256 tokenPrjId, address indexed tokenPrj, uint256 prjDepositAmount, address indexed beneficiar);\n\n    event Withdraw(address indexed who, uint256 tokenPrjId, address indexed tokenPrj, uint256 prjWithdrawAmount, address indexed beneficiar);\n\n    event Supply(address indexed who, uint256 supplyTokenId, address indexed supplyToken, uint256 supplyAmount, address indexed supplyCToken, uint amountSupplyCTokenReceived);\n\n    event Redeem(address indexed who, uint256 redeemTokenId, address indexed redeemToken, address indexed redeemCToken, uint256 redeemAmount);\n    \n    event RedeemUnderlying(address indexed who, uint256 redeemTokenId, address indexed redeemToken, address indexed redeemCToken, uint256 redeemAmountUnderlying);\n\n    event Borrow(address indexed who, uint256 borrowTokenId, address indexed borrowToken, uint256 borrowAmount);\n\n    // event Liquidate(address indexed who, address indexed borrower, address indexed prjToken, uint256 amountPrjLiquidated);\n\n\n    function init(address _basicToken, address _uniswapPathFinder, address _moderator, address _trustedForwarder) public initializer{\n        require(_basicToken != 0xdAC17F958D2ee523a2206206994597C13D831ec7, \"_basicToken shouldnt be USDT!\");\n        __ERC20_init(\"Primary Index Token\", \"PIT\");\n        require(this.decimals() >= ERC20Upgradeable(_basicToken).decimals(), \"Primary Index Token: basic token should have decimals less than PIT\");\n        __Pausable_init_unchained();\n        __AccessControl_init_unchained();\n        _setupRole(DEFAULT_ADMIN_ROLE, _msgSender());\n        _setupRole(MODERATOR_ROLE, _moderator);\n        __ERC2771Context_init_unchained(_trustedForwarder);\n        basicToken = _basicToken;\n        uniswapPathFinder = UniswapPathFinder(_uniswapPathFinder);\n    }\n\n    modifier onlyAdmin() {\n        require(hasRole(DEFAULT_ADMIN_ROLE, _msgSender()), \"Caller is not the Admin\");\n        _;\n    }\n\n    modifier onlyModerator() {\n        require(hasRole(MODERATOR_ROLE, _msgSender()), \"Caller is not the Moderator\");\n        _;\n    }\n\n    //************* ADMIN FUNCTIONS ********************************\n\n    function addPrjToken(address _tokenPRJ, uint8 _lvrNumerator, uint8 _lvrDenominator, uint8 _ltfNumerator, uint8 _ltfDenominator) public onlyAdmin {\n        require(_lvrNumerator <= _lvrDenominator, \"Primary Index Token: _lvrNumerator should be less than _lvrDenominator!\");\n        projectTokens.push(_tokenPRJ);\n        emit AddPrjToken(_msgSender(), _tokenPRJ);\n        _setLvr(_tokenPRJ, _lvrNumerator, _lvrDenominator);\n        _setLtf(_tokenPRJ, _ltfNumerator, _ltfDenominator);\n        \n    }\n\n    function addLendingToken(address _lendingToken) public onlyAdmin{\n        require(_lendingToken != address(0),\"Primary Index Token: invalid _lendingToken address!\");\n        lendingTokens.push(_lendingToken);\n    }\n\n    function addCLendingToken(address _underlyingToken, address _cToken) public onlyAdmin{\n        require(_underlyingToken != address(0),\"Primary Index Token: invalid underlying address!\");\n        require(_cToken != address(0),\"Primary Index Token: invalid cToken address!\");\n        cTokensList[_underlyingToken] = _cToken;\n    }\n\n    function setComptroller(address _comptroller) public onlyAdmin{\n        comptroller = IComptroller(_comptroller);\n    }\n\n     function setCPrimaryIndexToken(address _cPrimaryIndexToken) public onlyAdmin{\n        cPrimaryIndexToken = ICPrimaryIndexToken(_cPrimaryIndexToken);\n        \n    }\n\n    function setPriceOracle(address _priceOracle) public onlyAdmin{\n        priceOracle = ISimplePriceOracle(_priceOracle);\n    }\n    \n    //************* MODERATOR FUNCTIONS ********************************\n\n    function setLvr(address _tokenPRJ, uint8 _lvrNumerator, uint8 _lvrDenominator) public onlyModerator{\n        require(_lvrNumerator <= _lvrDenominator, \"Primary Index Token: _lvrNumerator should be less than _lvrDenominator!\");\n        _setLvr(_tokenPRJ, _lvrNumerator, _lvrDenominator);\n    }\n\n    function setLtf(address _tokenPRJ, uint8 _ltfNumerator, uint8 _ltfDenominator) public onlyModerator{\n        require(_ltfNumerator <= _ltfDenominator, \"Primary Index Token: _ltfNumerator should be less than _ltfDenominator!\");\n        _setLtf(_tokenPRJ, _ltfNumerator, _ltfDenominator);\n    }\n\n    function _setLvr(address _tokenPRJ, uint8 _lvrNumerator, uint8 _lvrDenominator) private {\n        lvr[_tokenPRJ] = LvrInfo({numerator:_lvrNumerator,denominator:_lvrDenominator});\n        emit LoanToValueRatioSet(_msgSender(), _tokenPRJ, _lvrNumerator, _lvrDenominator);\n    }\n\n    function _setLtf(address _tokenPRJ, uint8 _ltfNumerator, uint8 _ltfDenominator) private {\n        ltf[_tokenPRJ] = LtfInfo({numerator:_ltfNumerator,denominator:_ltfDenominator});\n        emit LiquidationThresholdFactorSet(_msgSender(), _tokenPRJ, _ltfNumerator, _ltfDenominator);\n    }\n\n    function pause() public onlyModerator {\n        _pause();\n    }\n\n    function unpause() public onlyModerator{\n        _unpause();\n    }\n  \n    //************* PUBLIC FUNCTIONS ********************************\n\n    function deposit(uint256 prjId, uint256 amountPrj) public {\n        depositTo(prjId, amountPrj, _msgSender());\n    }\n\n    function depositTo(uint256 prjId, uint256 amountPrj, address beneficiar) public {\n        require(prjId < projectTokens.length,\"Primary Index Token: invalid prjId. \");\n        require(amountPrj > 0, \"Primary Index Token: amountPrj should be greated than zero!\");\n        address tokenPrj = projectTokens[prjId];\n        UserPrjPosition storage beneficiarDepositPosition = userPrjPosition[beneficiar][prjId];\n        IERC20Upgradeable(tokenPrj).safeTransferFrom(_msgSender(), address(this), amountPrj);\n        beneficiarDepositPosition.amountPrjDeposited += amountPrj;\n        totalStakedPrj[tokenPrj] += amountPrj;\n        emit Deposit(_msgSender(), prjId, tokenPrj, amountPrj, beneficiar);\n    }\n\n    function withdraw(uint256 prjId, uint256 amountPrj) public {\n        withdrawTo(prjId, amountPrj, _msgSender());\n    }\n    \n    function withdrawTo(uint256 prjId, uint256 amountPrj, address beneficiar) public {\n        require(prjId < projectTokens.length,\"Primary Index Token: invalid prjId. \");\n        require(amountPrj > 0 && amountPrj <= userPrjPosition[_msgSender()][prjId].amountPrjDeposited, \"Primary Index Token: amountPrj should be greated than zero and less equal than position staked!\");\n        address tokenPrj = projectTokens[prjId];\n        UserPrjPosition storage msgSenderPosition = userPrjPosition[_msgSender()][prjId];\n        msgSenderPosition.amountPrjDeposited -= amountPrj;\n        totalStakedPrj[tokenPrj] -= amountPrj;\n        IERC20Upgradeable(tokenPrj).safeTransfer(beneficiar, amountPrj);\n        emit Withdraw(_msgSender(), prjId, tokenPrj, amountPrj, beneficiar);\n    }\n\n    event Test1(uint256 mintedAmount);\n\n    function supply(uint256 lendingTokenId, uint256 amountLendingToken) public {\n        require(lendingTokenId < lendingTokens.length, \"Primary Index Token: invalid lendingTokenId!\");\n        require(amountLendingToken > 0, \"Primary Index Token: amountLendingToken should be greated than zero!\");\n        address lendingToken = lendingTokens[lendingTokenId];\n        address cLendingToken = cTokensList[lendingToken];\n           \n        (, uint256 mintedAmount) = ICLendingToken(cLendingToken).mintTo(_msgSender(),amountLendingToken);\n\n        emit Supply(_msgSender(), lendingTokenId, lendingToken, amountLendingToken,cLendingToken,mintedAmount);\n    }\n\n\n    function redeem(uint256 lendingTokenId, uint256 amountCLendingToken) public {\n        require(lendingTokenId < lendingTokens.length, \"Primary Index Token: invalid lendingTokenId!\");\n        require(amountCLendingToken > 0, \"Primary Index Token: amountLendingToken should be greated than zero!\");\n        address lendingToken = lendingTokens[lendingTokenId];\n        address cLendingToken = cTokensList[lendingToken];\n\n        (uint redeemError) = ICLendingToken(cLendingToken).redeemTo(_msgSender(), amountCLendingToken);\n\n        emit Redeem(_msgSender(), lendingTokenId, lendingToken, cLendingToken, amountCLendingToken);\n    }\n\n    \n\n    function redeemUnderlying(uint256 lendingTokenId, uint256 amountLendingToken) public {\n        require(lendingTokenId < lendingTokens.length, \"Primary Index Token: invalid lendingTokenId!\");\n        require(amountLendingToken > 0, \"Primary Index Token: amountLendingToken should be greated than zero!\");\n        address lendingToken = lendingTokens[lendingTokenId];\n        address cLendingToken = cTokensList[lendingToken];\n\n        ICLendingToken(cLendingToken).redeemTo(_msgSender(), amountLendingToken);\n\n        emit RedeemUnderlying(_msgSender(), lendingTokenId, lendingToken, cLendingToken, amountLendingToken);\n    }\n\n    event Test2(uint currentBalancePit,uint liquidity, uint borrowError, uint borrowAllowedRes, uint enterMarketError);\n\n    function borrow(uint256 lendingTokenId, uint256 amountLendingToken) public {\n        require(lendingTokenId < lendingTokens.length, \"Primary Index Token: invalid lendingTokenId!\");\n        require(amountLendingToken > 0, \"Primary Index Token: amountLendingToken should be greated than zero!\");\n        address lendingToken = lendingTokens[lendingTokenId];\n        address cLendingToken = cTokensList[lendingToken];\n        uint enterMarketError = comptroller.enterMarket(address(cPrimaryIndexToken), _msgSender());\n\n        uint currentBalancePitOfMsgSender = balanceOfPit(_msgSender());\n        _mint(_msgSender(), currentBalancePitOfMsgSender);\n        _approve(_msgSender(),address(cPrimaryIndexToken), currentBalancePitOfMsgSender);   \n        cPrimaryIndexToken.mintTo(_msgSender(),currentBalancePitOfMsgSender);\n\n        (,uint liquidity,) = comptroller.getAccountLiquidity(_msgSender());\n        uint borrowAllowedRes = 0;\n        //comptroller.borrowAllowed(cLendingToken, _msgSender(), amountLendingToken);\n        \n        uint borrowError = 0;\n        //ICLendingToken(cLendingToken).borrowTo(_msgSender(), amountLendingToken);\n\n        emit Test2(currentBalancePitOfMsgSender, liquidity, borrowError,borrowAllowedRes,enterMarketError);\n    }\n\n    // function borrowTo(uint256 lendingTokenId, uint256 amountLendingToken, address beneficiar) public {\n    //     require(lendingTokenId < lendingTokens.length, \"Primary Index Token: invalid lendingTokenId!\");\n    //     require(amountLendingToken > 0, \"Primary Index Token: amountLendingToken should be greated than zero!\");\n    //     address lendingToken = lendingTokens[lendingTokenId];\n    //     address cLendingToken = cTokensList[lendingToken];\n    //     UserBorrowPosition storage beneficiarPosition = userBorrowPosition[beneficiar][lendingTokenId];\n    //     uint256 currentBalanceOfMsgSender = balanceOfPit(_msgSender());\n    //     require(currentBalanceOfMsgSender > 0,\"Primary Index Token: prj tokens are not supplied!\");\n    //     _mint(_msgSender(), currentBalanceOfMsgSender);\n    //     _approve(_msgSender(),cPrimaryIndexToken, currentBalanceOfMsgSender);\n        \n    //     uint256 mintError;\n    //     mintError = ICErc20Token(cPrimaryIndexToken).mint(currentBalanceOfMsgSender);\n    //     if(mintError != 0){\n    //         revert(\"Mint failed\");\n    //     }\n        \n    //     (,uint liquidity,) = comptroller.getAccountLiquidity(address(this));\n    //     uint maxBorrow = liquidity;//*(10**decimals) / price = 1\n    //     require(amountLendingToken <= maxBorrow,\"amountLendingToken exeeded liquidity balance\");\n\n    //     uint256 amountLendingTokenBefore = ERC20Upgradeable(lendingToken).balanceOf(address(this));\n    //     uint256 borrowError = ICErc20Token(cLendingToken).borrow(amountLendingToken);\n    //     if(borrowError != 0){\n    //         revert(\"borrow failed\");\n    //     }\n    //      emit Borrow(_msgSender(), lendingTokenId, lendingToken, amountLendingToken, beneficiar);\n    //     uint256 amountLendingTokenAfter = ERC20Upgradeable(lendingToken).balanceOf(address(this));\n    //     assert(amountLendingTokenAfter - amountLendingTokenBefore == amountLendingToken);\n\n    //     beneficiarPosition.amountBorrowed += amountLendingToken;\n\n    //     IERC20Upgradeable(lendingToken).safeTransfer(beneficiar,amountLendingToken);\n\n       \n    //     //emit Test(mintError, balanceOfCPit, price, liquidity, maxBorrow,amountLendingTokenBefore,amountLendingTokenAfter);\n\n        \n    // }\n\n    // function repayBorrow(uint256 lendingTokenId, uint256 amountLendingToken) public {\n    //     repayBorrowTo(lendingTokenId,amountLendingToken,_msgSender());\n    // }\n    // event Test2();\n\n    // function repayBorrowTo(uint256 lendingTokenId, uint256 amountLendingToken, address beneficiar) public {\n    //     require(lendingTokenId < lendingTokens.length, \"Primary Index Token: invalid lendingTokenId!\");\n    //     require(amountLendingToken > 0, \"Primary Index Token: amountLendingToken should be greated than zero!\");\n    //     address lendingToken = lendingTokens[lendingTokenId];\n    //     address cLendingToken = cTokensList[lendingToken];\n    //     UserBorrowPosition storage beneficiarPosition = userBorrowPosition[beneficiar][lendingTokenId];\n        \n    //     IERC20Upgradeable(lendingToken).safeTransferFrom(_msgSender(),address(this), amountLendingToken);\n\n    //     IERC20Upgradeable(lendingToken).approve(cLendingToken, amountLendingToken);\n    //     ICErc20Token(cLendingToken).repayBorrow(amountLendingToken);\n\n\n    // }\n\n    // function liquidate(address borrower, uint256 prjId, uint256 amountPrjToLiquidate) public {\n\n    //     address prjToken = projectTokens[prjId];\n    //     emit Liquidate(_msgSender(), borrower, prjToken, amountPrjToLiquidate);\n    // }\n\n    //************* VIEW FUNCTIONS ********************************\n\n    function getPrjEvaluationInBasicToken(address tokenPrj, uint256 amount) public view returns(uint256){\n        return uniswapPathFinder.getAssetValuation(basicToken, tokenPrj, amount);\n    }\n\n    function getCToken(address underlying) public view returns(address) {\n        return cTokensList[underlying];\n    }\n\n    function getDepositedPrjAmount(address account, uint256 prjId) public view returns(uint256){\n        return userPrjPosition[account][prjId].amountPrjDeposited;\n    }\n\n\n    function liquidationThreshold(address account) public view returns(uint256){\n        uint256 lt;\n        for(uint256 prjId=0; prjId < projectTokens.length; prjId++){\n            lt += liquidationThresholdForPosition(account,prjId);\n        }\n        return lt;\n    }\n\n    function liquidationThresholdForPosition(address account, uint256 prjId) public view returns(uint256){\n        address tokenPrj = projectTokens[prjId];\n        uint8 lvrNumerator = ltf[tokenPrj].numerator;\n        uint8 lvrDenominator = ltf[tokenPrj].denominator;\n        uint256 pitCurrentBalance = balanceOfPitPosition(account,prjId);\n        return pitCurrentBalance * lvrNumerator / lvrDenominator;\n    }\n\n    /**\n     * @notice returns the amount of PIT of account\n     */\n    function balanceOfPit(address account) public view returns (uint256){\n        uint256 pitBalance;\n        for(uint256 prjId=0; prjId < projectTokens.length; prjId++){\n            pitBalance += balanceOfPitPosition(account,prjId);\n        }\n        return pitBalance;\n    }\n\n    /**\n     * @notice returns the amount of PIT of account in position `prjId`\n     */\n    function balanceOfPitPosition(address account, uint256 prjId) public view returns (uint256){\n        address tokenPrj = projectTokens[prjId];\n        uint8 lvrNumerator = lvr[tokenPrj].numerator;\n        uint8 lvrDenominator = lvr[tokenPrj].denominator;\n        uint256 prjInPosition = getDepositedPrjAmount(account, prjId);\n        uint256 positionEvaluation = uniswapPathFinder.getAssetValuation(basicToken, tokenPrj, prjInPosition);\n        return positionEvaluation * lvrNumerator / lvrDenominator;\n    }\n\n    function totalSupplyPit() public view virtual returns (uint256) {\n        uint256 pitTotalSupply;\n        address tokenPrj;\n        uint8 lvrNumerator;\n        uint8 lvrDenominator;\n        uint256 basicTokenEvaluation;\n        uint256 totalStaked;\n        for(uint256 prjId=0; prjId < projectTokens.length; prjId++){\n            tokenPrj = projectTokens[prjId];\n            lvrNumerator = lvr[tokenPrj].numerator;\n            lvrDenominator = lvr[tokenPrj].denominator;\n            totalStaked = totalStakedPrj[tokenPrj];\n            basicTokenEvaluation = uniswapPathFinder.getAssetValuation(basicToken, tokenPrj, totalStaked);\n            pitTotalSupply += basicTokenEvaluation * lvrNumerator / lvrDenominator;\n        }\n        return pitTotalSupply;\n    }\n\n\n    function healthFactor(address account) public view returns(uint256, uint256){\n        \n        uint256 lt = liquidationThreshold(account);\n        //TODO write\n        return (lt,0);\n    }\n\n    //************* HELP FUNCTIONS ********************************\n\n    function _msgSender() internal override(ContextUpgradeable, ERC2771ContextUpgradeable) view returns (address) {\n        return ERC2771ContextUpgradeable._msgSender();\n    }\n\n    function _msgData() internal override(ContextUpgradeable, ERC2771ContextUpgradeable) view returns (bytes calldata) {\n        return ERC2771ContextUpgradeable._msgData();\n    }\n\n    //************* ERC UNUSED FUNCTIONS ********************************\n\n    // function approve(address spender, uint256 amount) public virtual override returns (bool) {\n    //     spender; amount;\n    //     return false;\n    // }\n\n    // function transfer(address recipient, uint256 amount) public virtual override returns (bool) {\n    //     recipient; amount;\n    //     return false;\n    // }\n\n    // function transferFrom(address sender, address recipient, uint256 amount) public virtual override returns (bool) {\n    //     sender; recipient; amount;\n    //     return false;\n    // }\n\n    // function increaseAllowance(address spender, uint256 addedValue) public virtual override returns (bool) {\n    //     spender; addedValue;\n    //     return false;\n    // }\n\n    // function decreaseAllowance(address spender, uint256 subtractedValue) public virtual override returns (bool) {\n    //     spender; subtractedValue;\n    //     return false;\n    // }\n}",
  "sourcePath": "/Users/vchikhladze/DApps/DeFi/primaryIndexToken/contracts/PrimaryIndexToken.sol",
  "compiler": {
    "name": "solc",
    "version": "0.8.7+commit.e28d00a7.Emscripten.clang"
  },
  "schemaVersion": "3.4.1",
  "updatedAt": "2021-09-13T09:28:11.334Z",
  "devdoc": {
    "kind": "dev",
    "methods": {
      "allowance(address,address)": {
        "details": "See {IERC20-allowance}."
      },
      "approve(address,uint256)": {
        "details": "See {IERC20-approve}. Requirements: - `spender` cannot be the zero address."
      },
      "balanceOf(address)": {
        "details": "See {IERC20-balanceOf}."
      },
      "decimals()": {
        "details": "Returns the number of decimals used to get its user representation. For example, if `decimals` equals `2`, a balance of `505` tokens should be displayed to a user as `5.05` (`505 / 10 ** 2`). Tokens usually opt for a value of 18, imitating the relationship between Ether and Wei. This is the value {ERC20} uses, unless this function is overridden; NOTE: This information is only used for _display_ purposes: it in no way affects any of the arithmetic of the contract, including {IERC20-balanceOf} and {IERC20-transfer}."
      },
      "decreaseAllowance(address,uint256)": {
        "details": "Atomically decreases the allowance granted to `spender` by the caller. This is an alternative to {approve} that can be used as a mitigation for problems described in {IERC20-approve}. Emits an {Approval} event indicating the updated allowance. Requirements: - `spender` cannot be the zero address. - `spender` must have allowance for the caller of at least `subtractedValue`."
      },
      "getRoleAdmin(bytes32)": {
        "details": "Returns the admin role that controls `role`. See {grantRole} and {revokeRole}. To change a role's admin, use {_setRoleAdmin}."
      },
      "grantRole(bytes32,address)": {
        "details": "Grants `role` to `account`. If `account` had not been already granted `role`, emits a {RoleGranted} event. Requirements: - the caller must have ``role``'s admin role."
      },
      "hasRole(bytes32,address)": {
        "details": "Returns `true` if `account` has been granted `role`."
      },
      "increaseAllowance(address,uint256)": {
        "details": "Atomically increases the allowance granted to `spender` by the caller. This is an alternative to {approve} that can be used as a mitigation for problems described in {IERC20-approve}. Emits an {Approval} event indicating the updated allowance. Requirements: - `spender` cannot be the zero address."
      },
      "name()": {
        "details": "Returns the name of the token."
      },
      "paused()": {
        "details": "Returns true if the contract is paused, and false otherwise."
      },
      "renounceRole(bytes32,address)": {
        "details": "Revokes `role` from the calling account. Roles are often managed via {grantRole} and {revokeRole}: this function's purpose is to provide a mechanism for accounts to lose their privileges if they are compromised (such as when a trusted device is misplaced). If the calling account had been granted `role`, emits a {RoleRevoked} event. Requirements: - the caller must be `account`."
      },
      "revokeRole(bytes32,address)": {
        "details": "Revokes `role` from `account`. If `account` had been granted `role`, emits a {RoleRevoked} event. Requirements: - the caller must have ``role``'s admin role."
      },
      "supportsInterface(bytes4)": {
        "details": "See {IERC165-supportsInterface}."
      },
      "symbol()": {
        "details": "Returns the symbol of the token, usually a shorter version of the name."
      },
      "totalSupply()": {
        "details": "See {IERC20-totalSupply}."
      },
      "transfer(address,uint256)": {
        "details": "See {IERC20-transfer}. Requirements: - `recipient` cannot be the zero address. - the caller must have a balance of at least `amount`."
      },
      "transferFrom(address,address,uint256)": {
        "details": "See {IERC20-transferFrom}. Emits an {Approval} event indicating the updated allowance. This is not required by the EIP. See the note at the beginning of {ERC20}. Requirements: - `sender` and `recipient` cannot be the zero address. - `sender` must have a balance of at least `amount`. - the caller must have allowance for ``sender``'s tokens of at least `amount`."
      }
    },
    "version": 1
  },
  "userdoc": {
    "kind": "user",
    "methods": {
      "balanceOfPit(address)": {
        "notice": "returns the amount of PIT of account"
      },
      "balanceOfPitPosition(address,uint256)": {
        "notice": "returns the amount of PIT of account in position `prjId`"
      }
    },
    "version": 1
  }
}