{
  "contractName": "PrimaryIndexToken",
  "abi": [
    {
      "anonymous": false,
      "inputs": [
        {
          "indexed": true,
          "internalType": "address",
          "name": "who",
          "type": "address"
        },
        {
          "indexed": true,
          "internalType": "address",
          "name": "tokenPrj",
          "type": "address"
        }
      ],
      "name": "AddPrjToken",
      "type": "event"
    },
    {
      "anonymous": false,
      "inputs": [
        {
          "indexed": true,
          "internalType": "address",
          "name": "owner",
          "type": "address"
        },
        {
          "indexed": true,
          "internalType": "address",
          "name": "spender",
          "type": "address"
        },
        {
          "indexed": false,
          "internalType": "uint256",
          "name": "value",
          "type": "uint256"
        }
      ],
      "name": "Approval",
      "type": "event"
    },
    {
      "anonymous": false,
      "inputs": [
        {
          "indexed": true,
          "internalType": "address",
          "name": "who",
          "type": "address"
        },
        {
          "indexed": false,
          "internalType": "uint256",
          "name": "borrowTokenId",
          "type": "uint256"
        },
        {
          "indexed": true,
          "internalType": "address",
          "name": "borrowToken",
          "type": "address"
        },
        {
          "indexed": false,
          "internalType": "uint256",
          "name": "borrowAmount",
          "type": "uint256"
        },
        {
          "indexed": true,
          "internalType": "address",
          "name": "prjAddress",
          "type": "address"
        },
        {
          "indexed": false,
          "internalType": "uint256",
          "name": "prjAmount",
          "type": "uint256"
        }
      ],
      "name": "Borrow",
      "type": "event"
    },
    {
      "anonymous": false,
      "inputs": [
        {
          "indexed": true,
          "internalType": "address",
          "name": "who",
          "type": "address"
        },
        {
          "indexed": false,
          "internalType": "uint256",
          "name": "tokenPrjId",
          "type": "uint256"
        },
        {
          "indexed": true,
          "internalType": "address",
          "name": "tokenPrj",
          "type": "address"
        },
        {
          "indexed": false,
          "internalType": "uint256",
          "name": "prjDepositAmount",
          "type": "uint256"
        },
        {
          "indexed": true,
          "internalType": "address",
          "name": "beneficiar",
          "type": "address"
        }
      ],
      "name": "Deposit",
      "type": "event"
    },
    {
      "anonymous": false,
      "inputs": [
        {
          "indexed": true,
          "internalType": "address",
          "name": "liquidator",
          "type": "address"
        },
        {
          "indexed": true,
          "internalType": "address",
          "name": "borrower",
          "type": "address"
        },
        {
          "indexed": false,
          "internalType": "uint256",
          "name": "lendingTokenId",
          "type": "uint256"
        },
        {
          "indexed": false,
          "internalType": "uint256",
          "name": "prjId",
          "type": "uint256"
        },
        {
          "indexed": false,
          "internalType": "uint256",
          "name": "amountPrjLiquidated",
          "type": "uint256"
        }
      ],
      "name": "Liquidate",
      "type": "event"
    },
    {
      "anonymous": false,
      "inputs": [
        {
          "indexed": true,
          "internalType": "address",
          "name": "who",
          "type": "address"
        },
        {
          "indexed": true,
          "internalType": "address",
          "name": "tokenPrj",
          "type": "address"
        },
        {
          "indexed": false,
          "internalType": "uint8",
          "name": "ltfNumerator",
          "type": "uint8"
        },
        {
          "indexed": false,
          "internalType": "uint8",
          "name": "ltfDenominator",
          "type": "uint8"
        }
      ],
      "name": "LiquidationThresholdFactorSet",
      "type": "event"
    },
    {
      "anonymous": false,
      "inputs": [
        {
          "indexed": true,
          "internalType": "address",
          "name": "who",
          "type": "address"
        },
        {
          "indexed": true,
          "internalType": "address",
          "name": "tokenPrj",
          "type": "address"
        },
        {
          "indexed": false,
          "internalType": "uint8",
          "name": "lvrNumerator",
          "type": "uint8"
        },
        {
          "indexed": false,
          "internalType": "uint8",
          "name": "lvrDenominator",
          "type": "uint8"
        }
      ],
      "name": "LoanToValueRatioSet",
      "type": "event"
    },
    {
      "anonymous": false,
      "inputs": [
        {
          "indexed": false,
          "internalType": "address",
          "name": "account",
          "type": "address"
        }
      ],
      "name": "Paused",
      "type": "event"
    },
    {
      "anonymous": false,
      "inputs": [
        {
          "indexed": true,
          "internalType": "address",
          "name": "who",
          "type": "address"
        },
        {
          "indexed": true,
          "internalType": "address",
          "name": "tokenPrj",
          "type": "address"
        },
        {
          "indexed": false,
          "internalType": "uint8",
          "name": "saleNumerator",
          "type": "uint8"
        },
        {
          "indexed": false,
          "internalType": "uint8",
          "name": "saleDenominator",
          "type": "uint8"
        }
      ],
      "name": "PrjSaleSet",
      "type": "event"
    },
    {
      "anonymous": false,
      "inputs": [
        {
          "indexed": true,
          "internalType": "address",
          "name": "who",
          "type": "address"
        },
        {
          "indexed": false,
          "internalType": "uint256",
          "name": "redeemTokenId",
          "type": "uint256"
        },
        {
          "indexed": true,
          "internalType": "address",
          "name": "redeemToken",
          "type": "address"
        },
        {
          "indexed": true,
          "internalType": "address",
          "name": "redeemCToken",
          "type": "address"
        },
        {
          "indexed": false,
          "internalType": "uint256",
          "name": "redeemAmount",
          "type": "uint256"
        }
      ],
      "name": "Redeem",
      "type": "event"
    },
    {
      "anonymous": false,
      "inputs": [
        {
          "indexed": true,
          "internalType": "address",
          "name": "who",
          "type": "address"
        },
        {
          "indexed": false,
          "internalType": "uint256",
          "name": "redeemTokenId",
          "type": "uint256"
        },
        {
          "indexed": true,
          "internalType": "address",
          "name": "redeemToken",
          "type": "address"
        },
        {
          "indexed": true,
          "internalType": "address",
          "name": "redeemCToken",
          "type": "address"
        },
        {
          "indexed": false,
          "internalType": "uint256",
          "name": "redeemAmountUnderlying",
          "type": "uint256"
        }
      ],
      "name": "RedeemUnderlying",
      "type": "event"
    },
    {
      "anonymous": false,
      "inputs": [
        {
          "indexed": true,
          "internalType": "address",
          "name": "who",
          "type": "address"
        },
        {
          "indexed": false,
          "internalType": "uint256",
          "name": "borrowTokenId",
          "type": "uint256"
        },
        {
          "indexed": true,
          "internalType": "address",
          "name": "borrowToken",
          "type": "address"
        },
        {
          "indexed": false,
          "internalType": "uint256",
          "name": "borrowAmount",
          "type": "uint256"
        },
        {
          "indexed": true,
          "internalType": "address",
          "name": "prjAddress",
          "type": "address"
        },
        {
          "indexed": false,
          "internalType": "uint256",
          "name": "prjAmount",
          "type": "uint256"
        }
      ],
      "name": "RepayBorrow",
      "type": "event"
    },
    {
      "anonymous": false,
      "inputs": [
        {
          "indexed": true,
          "internalType": "bytes32",
          "name": "role",
          "type": "bytes32"
        },
        {
          "indexed": true,
          "internalType": "bytes32",
          "name": "previousAdminRole",
          "type": "bytes32"
        },
        {
          "indexed": true,
          "internalType": "bytes32",
          "name": "newAdminRole",
          "type": "bytes32"
        }
      ],
      "name": "RoleAdminChanged",
      "type": "event"
    },
    {
      "anonymous": false,
      "inputs": [
        {
          "indexed": true,
          "internalType": "bytes32",
          "name": "role",
          "type": "bytes32"
        },
        {
          "indexed": true,
          "internalType": "address",
          "name": "account",
          "type": "address"
        },
        {
          "indexed": true,
          "internalType": "address",
          "name": "sender",
          "type": "address"
        }
      ],
      "name": "RoleGranted",
      "type": "event"
    },
    {
      "anonymous": false,
      "inputs": [
        {
          "indexed": true,
          "internalType": "bytes32",
          "name": "role",
          "type": "bytes32"
        },
        {
          "indexed": true,
          "internalType": "address",
          "name": "account",
          "type": "address"
        },
        {
          "indexed": true,
          "internalType": "address",
          "name": "sender",
          "type": "address"
        }
      ],
      "name": "RoleRevoked",
      "type": "event"
    },
    {
      "anonymous": false,
      "inputs": [
        {
          "indexed": true,
          "internalType": "address",
          "name": "who",
          "type": "address"
        },
        {
          "indexed": false,
          "internalType": "uint256",
          "name": "supplyTokenId",
          "type": "uint256"
        },
        {
          "indexed": true,
          "internalType": "address",
          "name": "supplyToken",
          "type": "address"
        },
        {
          "indexed": false,
          "internalType": "uint256",
          "name": "supplyAmount",
          "type": "uint256"
        },
        {
          "indexed": true,
          "internalType": "address",
          "name": "supplyCToken",
          "type": "address"
        },
        {
          "indexed": false,
          "internalType": "uint256",
          "name": "amountSupplyCTokenReceived",
          "type": "uint256"
        }
      ],
      "name": "Supply",
      "type": "event"
    },
    {
      "anonymous": false,
      "inputs": [
        {
          "indexed": true,
          "internalType": "address",
          "name": "from",
          "type": "address"
        },
        {
          "indexed": true,
          "internalType": "address",
          "name": "to",
          "type": "address"
        },
        {
          "indexed": false,
          "internalType": "uint256",
          "name": "value",
          "type": "uint256"
        }
      ],
      "name": "Transfer",
      "type": "event"
    },
    {
      "anonymous": false,
      "inputs": [
        {
          "indexed": false,
          "internalType": "address",
          "name": "account",
          "type": "address"
        }
      ],
      "name": "Unpaused",
      "type": "event"
    },
    {
      "anonymous": false,
      "inputs": [
        {
          "indexed": true,
          "internalType": "address",
          "name": "who",
          "type": "address"
        },
        {
          "indexed": false,
          "internalType": "uint256",
          "name": "tokenPrjId",
          "type": "uint256"
        },
        {
          "indexed": true,
          "internalType": "address",
          "name": "tokenPrj",
          "type": "address"
        },
        {
          "indexed": false,
          "internalType": "uint256",
          "name": "prjWithdrawAmount",
          "type": "uint256"
        },
        {
          "indexed": true,
          "internalType": "address",
          "name": "beneficiar",
          "type": "address"
        }
      ],
      "name": "Withdraw",
      "type": "event"
    },
    {
      "inputs": [],
      "name": "DEFAULT_ADMIN_ROLE",
      "outputs": [
        {
          "internalType": "bytes32",
          "name": "",
          "type": "bytes32"
        }
      ],
      "stateMutability": "view",
      "type": "function",
      "constant": true
    },
    {
      "inputs": [],
      "name": "MODERATOR_ROLE",
      "outputs": [
        {
          "internalType": "bytes32",
          "name": "",
          "type": "bytes32"
        }
      ],
      "stateMutability": "view",
      "type": "function",
      "constant": true
    },
    {
      "inputs": [
        {
          "internalType": "address",
          "name": "owner",
          "type": "address"
        },
        {
          "internalType": "address",
          "name": "spender",
          "type": "address"
        }
      ],
      "name": "allowance",
      "outputs": [
        {
          "internalType": "uint256",
          "name": "",
          "type": "uint256"
        }
      ],
      "stateMutability": "view",
      "type": "function",
      "constant": true
    },
    {
      "inputs": [
        {
          "internalType": "address",
          "name": "spender",
          "type": "address"
        },
        {
          "internalType": "uint256",
          "name": "amount",
          "type": "uint256"
        }
      ],
      "name": "approve",
      "outputs": [
        {
          "internalType": "bool",
          "name": "",
          "type": "bool"
        }
      ],
      "stateMutability": "nonpayable",
      "type": "function"
    },
    {
      "inputs": [],
      "name": "bPrimaryIndexToken",
      "outputs": [
        {
          "internalType": "contract IBPrimaryIndexToken",
          "name": "",
          "type": "address"
        }
      ],
      "stateMutability": "view",
      "type": "function",
      "constant": true
    },
    {
      "inputs": [
        {
          "internalType": "address",
          "name": "",
          "type": "address"
        }
      ],
      "name": "bTokensList",
      "outputs": [
        {
          "internalType": "address",
          "name": "",
          "type": "address"
        }
      ],
      "stateMutability": "view",
      "type": "function",
      "constant": true
    },
    {
      "inputs": [
        {
          "internalType": "address",
          "name": "account",
          "type": "address"
        }
      ],
      "name": "balanceOf",
      "outputs": [
        {
          "internalType": "uint256",
          "name": "",
          "type": "uint256"
        }
      ],
      "stateMutability": "view",
      "type": "function",
      "constant": true
    },
    {
      "inputs": [],
      "name": "basicToken",
      "outputs": [
        {
          "internalType": "address",
          "name": "",
          "type": "address"
        }
      ],
      "stateMutability": "view",
      "type": "function",
      "constant": true
    },
    {
      "inputs": [],
      "name": "comptroller",
      "outputs": [
        {
          "internalType": "contract IComptroller",
          "name": "",
          "type": "address"
        }
      ],
      "stateMutability": "view",
      "type": "function",
      "constant": true
    },
    {
      "inputs": [
        {
          "internalType": "address",
          "name": "spender",
          "type": "address"
        },
        {
          "internalType": "uint256",
          "name": "subtractedValue",
          "type": "uint256"
        }
      ],
      "name": "decreaseAllowance",
      "outputs": [
        {
          "internalType": "bool",
          "name": "",
          "type": "bool"
        }
      ],
      "stateMutability": "nonpayable",
      "type": "function"
    },
    {
      "inputs": [
        {
          "internalType": "bytes32",
          "name": "role",
          "type": "bytes32"
        }
      ],
      "name": "getRoleAdmin",
      "outputs": [
        {
          "internalType": "bytes32",
          "name": "",
          "type": "bytes32"
        }
      ],
      "stateMutability": "view",
      "type": "function",
      "constant": true
    },
    {
      "inputs": [
        {
          "internalType": "bytes32",
          "name": "role",
          "type": "bytes32"
        },
        {
          "internalType": "address",
          "name": "account",
          "type": "address"
        }
      ],
      "name": "grantRole",
      "outputs": [],
      "stateMutability": "nonpayable",
      "type": "function"
    },
    {
      "inputs": [
        {
          "internalType": "bytes32",
          "name": "role",
          "type": "bytes32"
        },
        {
          "internalType": "address",
          "name": "account",
          "type": "address"
        }
      ],
      "name": "hasRole",
      "outputs": [
        {
          "internalType": "bool",
          "name": "",
          "type": "bool"
        }
      ],
      "stateMutability": "view",
      "type": "function",
      "constant": true
    },
    {
      "inputs": [
        {
          "internalType": "address",
          "name": "spender",
          "type": "address"
        },
        {
          "internalType": "uint256",
          "name": "addedValue",
          "type": "uint256"
        }
      ],
      "name": "increaseAllowance",
      "outputs": [
        {
          "internalType": "bool",
          "name": "",
          "type": "bool"
        }
      ],
      "stateMutability": "nonpayable",
      "type": "function"
    },
    {
      "inputs": [
        {
          "internalType": "address",
          "name": "",
          "type": "address"
        }
      ],
      "name": "indexLendingToken",
      "outputs": [
        {
          "internalType": "uint256",
          "name": "",
          "type": "uint256"
        }
      ],
      "stateMutability": "view",
      "type": "function",
      "constant": true
    },
    {
      "inputs": [
        {
          "internalType": "address",
          "name": "",
          "type": "address"
        }
      ],
      "name": "indexPrjToken",
      "outputs": [
        {
          "internalType": "uint256",
          "name": "",
          "type": "uint256"
        }
      ],
      "stateMutability": "view",
      "type": "function",
      "constant": true
    },
    {
      "inputs": [
        {
          "internalType": "address",
          "name": "forwarder",
          "type": "address"
        }
      ],
      "name": "isTrustedForwarder",
      "outputs": [
        {
          "internalType": "bool",
          "name": "",
          "type": "bool"
        }
      ],
      "stateMutability": "view",
      "type": "function",
      "constant": true
    },
    {
      "inputs": [
        {
          "internalType": "uint256",
          "name": "",
          "type": "uint256"
        }
      ],
      "name": "lendingTokens",
      "outputs": [
        {
          "internalType": "address",
          "name": "",
          "type": "address"
        }
      ],
      "stateMutability": "view",
      "type": "function",
      "constant": true
    },
    {
      "inputs": [
        {
          "internalType": "address",
          "name": "",
          "type": "address"
        }
      ],
      "name": "ltf",
      "outputs": [
        {
          "internalType": "uint8",
          "name": "numerator",
          "type": "uint8"
        },
        {
          "internalType": "uint8",
          "name": "denominator",
          "type": "uint8"
        }
      ],
      "stateMutability": "view",
      "type": "function",
      "constant": true
    },
    {
      "inputs": [
        {
          "internalType": "address",
          "name": "",
          "type": "address"
        }
      ],
      "name": "lvr",
      "outputs": [
        {
          "internalType": "uint8",
          "name": "numerator",
          "type": "uint8"
        },
        {
          "internalType": "uint8",
          "name": "denominator",
          "type": "uint8"
        }
      ],
      "stateMutability": "view",
      "type": "function",
      "constant": true
    },
    {
      "inputs": [],
      "name": "name",
      "outputs": [
        {
          "internalType": "string",
          "name": "",
          "type": "string"
        }
      ],
      "stateMutability": "view",
      "type": "function",
      "constant": true
    },
    {
      "inputs": [],
      "name": "paused",
      "outputs": [
        {
          "internalType": "bool",
          "name": "",
          "type": "bool"
        }
      ],
      "stateMutability": "view",
      "type": "function",
      "constant": true
    },
    {
      "inputs": [],
      "name": "priceOracle",
      "outputs": [
        {
          "internalType": "contract ISimplePriceOracle",
          "name": "",
          "type": "address"
        }
      ],
      "stateMutability": "view",
      "type": "function",
      "constant": true
    },
    {
      "inputs": [
        {
          "internalType": "address",
          "name": "",
          "type": "address"
        }
      ],
      "name": "prjSales",
      "outputs": [
        {
          "internalType": "uint8",
          "name": "numerator",
          "type": "uint8"
        },
        {
          "internalType": "uint8",
          "name": "denominator",
          "type": "uint8"
        }
      ],
      "stateMutability": "view",
      "type": "function",
      "constant": true
    },
    {
      "inputs": [
        {
          "internalType": "uint256",
          "name": "",
          "type": "uint256"
        }
      ],
      "name": "projectTokens",
      "outputs": [
        {
          "internalType": "address",
          "name": "",
          "type": "address"
        }
      ],
      "stateMutability": "view",
      "type": "function",
      "constant": true
    },
    {
      "inputs": [
        {
          "internalType": "bytes32",
          "name": "role",
          "type": "bytes32"
        },
        {
          "internalType": "address",
          "name": "account",
          "type": "address"
        }
      ],
      "name": "renounceRole",
      "outputs": [],
      "stateMutability": "nonpayable",
      "type": "function"
    },
    {
      "inputs": [
        {
          "internalType": "bytes32",
          "name": "role",
          "type": "bytes32"
        },
        {
          "internalType": "address",
          "name": "account",
          "type": "address"
        }
      ],
      "name": "revokeRole",
      "outputs": [],
      "stateMutability": "nonpayable",
      "type": "function"
    },
    {
      "inputs": [
        {
          "internalType": "address",
          "name": "",
          "type": "address"
        },
        {
          "internalType": "uint256",
          "name": "",
          "type": "uint256"
        }
      ],
      "name": "suppliedLendingToken",
      "outputs": [
        {
          "internalType": "uint256",
          "name": "",
          "type": "uint256"
        }
      ],
      "stateMutability": "view",
      "type": "function",
      "constant": true
    },
    {
      "inputs": [
        {
          "internalType": "bytes4",
          "name": "interfaceId",
          "type": "bytes4"
        }
      ],
      "name": "supportsInterface",
      "outputs": [
        {
          "internalType": "bool",
          "name": "",
          "type": "bool"
        }
      ],
      "stateMutability": "view",
      "type": "function",
      "constant": true
    },
    {
      "inputs": [],
      "name": "symbol",
      "outputs": [
        {
          "internalType": "string",
          "name": "",
          "type": "string"
        }
      ],
      "stateMutability": "view",
      "type": "function",
      "constant": true
    },
    {
      "inputs": [
        {
          "internalType": "address",
          "name": "",
          "type": "address"
        }
      ],
      "name": "totalStakedPrj",
      "outputs": [
        {
          "internalType": "uint256",
          "name": "",
          "type": "uint256"
        }
      ],
      "stateMutability": "view",
      "type": "function",
      "constant": true
    },
    {
      "inputs": [],
      "name": "totalSupply",
      "outputs": [
        {
          "internalType": "uint256",
          "name": "",
          "type": "uint256"
        }
      ],
      "stateMutability": "view",
      "type": "function",
      "constant": true
    },
    {
      "inputs": [
        {
          "internalType": "address",
          "name": "recipient",
          "type": "address"
        },
        {
          "internalType": "uint256",
          "name": "amount",
          "type": "uint256"
        }
      ],
      "name": "transfer",
      "outputs": [
        {
          "internalType": "bool",
          "name": "",
          "type": "bool"
        }
      ],
      "stateMutability": "nonpayable",
      "type": "function"
    },
    {
      "inputs": [
        {
          "internalType": "address",
          "name": "sender",
          "type": "address"
        },
        {
          "internalType": "address",
          "name": "recipient",
          "type": "address"
        },
        {
          "internalType": "uint256",
          "name": "amount",
          "type": "uint256"
        }
      ],
      "name": "transferFrom",
      "outputs": [
        {
          "internalType": "bool",
          "name": "",
          "type": "bool"
        }
      ],
      "stateMutability": "nonpayable",
      "type": "function"
    },
    {
      "inputs": [],
      "name": "uniswapPathFinder",
      "outputs": [
        {
          "internalType": "contract UniswapPathFinder",
          "name": "",
          "type": "address"
        }
      ],
      "stateMutability": "view",
      "type": "function",
      "constant": true
    },
    {
      "inputs": [
        {
          "internalType": "address",
          "name": "",
          "type": "address"
        },
        {
          "internalType": "uint256",
          "name": "",
          "type": "uint256"
        },
        {
          "internalType": "uint256",
          "name": "",
          "type": "uint256"
        }
      ],
      "name": "userBorrowPosition",
      "outputs": [
        {
          "internalType": "uint256",
          "name": "amountBorrowed",
          "type": "uint256"
        },
        {
          "internalType": "uint256",
          "name": "amountPit",
          "type": "uint256"
        }
      ],
      "stateMutability": "view",
      "type": "function",
      "constant": true
    },
    {
      "inputs": [
        {
          "internalType": "address",
          "name": "",
          "type": "address"
        },
        {
          "internalType": "uint256",
          "name": "",
          "type": "uint256"
        }
      ],
      "name": "userPrjPosition",
      "outputs": [
        {
          "internalType": "uint256",
          "name": "amountPrjDeposited",
          "type": "uint256"
        }
      ],
      "stateMutability": "view",
      "type": "function",
      "constant": true
    },
    {
      "inputs": [
        {
          "internalType": "address",
          "name": "_basicToken",
          "type": "address"
        },
        {
          "internalType": "address",
          "name": "_uniswapPathFinder",
          "type": "address"
        },
        {
          "internalType": "address",
          "name": "_moderator",
          "type": "address"
        },
        {
          "internalType": "address",
          "name": "_trustedForwarder",
          "type": "address"
        }
      ],
      "name": "init",
      "outputs": [],
      "stateMutability": "nonpayable",
      "type": "function"
    },
    {
      "inputs": [
        {
          "internalType": "address",
          "name": "_tokenPRJ",
          "type": "address"
        },
        {
          "internalType": "uint8",
          "name": "_lvrNumerator",
          "type": "uint8"
        },
        {
          "internalType": "uint8",
          "name": "_lvrDenominator",
          "type": "uint8"
        },
        {
          "internalType": "uint8",
          "name": "_ltfNumerator",
          "type": "uint8"
        },
        {
          "internalType": "uint8",
          "name": "_ltfDenominator",
          "type": "uint8"
        },
        {
          "internalType": "uint8",
          "name": "_saleNumerator",
          "type": "uint8"
        },
        {
          "internalType": "uint8",
          "name": "_saleDenominator",
          "type": "uint8"
        }
      ],
      "name": "addPrjToken",
      "outputs": [],
      "stateMutability": "nonpayable",
      "type": "function"
    },
    {
      "inputs": [
        {
          "internalType": "address",
          "name": "_lendingToken",
          "type": "address"
        }
      ],
      "name": "addLendingToken",
      "outputs": [],
      "stateMutability": "nonpayable",
      "type": "function"
    },
    {
      "inputs": [
        {
          "internalType": "address",
          "name": "_underlyingToken",
          "type": "address"
        },
        {
          "internalType": "address",
          "name": "_cToken",
          "type": "address"
        }
      ],
      "name": "addCLendingToken",
      "outputs": [],
      "stateMutability": "nonpayable",
      "type": "function"
    },
    {
      "inputs": [
        {
          "internalType": "address",
          "name": "_comptroller",
          "type": "address"
        }
      ],
      "name": "setComptroller",
      "outputs": [],
      "stateMutability": "nonpayable",
      "type": "function"
    },
    {
      "inputs": [
        {
          "internalType": "address",
          "name": "_cPrimaryIndexToken",
          "type": "address"
        }
      ],
      "name": "setCPrimaryIndexToken",
      "outputs": [],
      "stateMutability": "nonpayable",
      "type": "function"
    },
    {
      "inputs": [
        {
          "internalType": "address",
          "name": "_priceOracle",
          "type": "address"
        }
      ],
      "name": "setPriceOracle",
      "outputs": [],
      "stateMutability": "nonpayable",
      "type": "function"
    },
    {
      "inputs": [
        {
          "internalType": "address",
          "name": "_tokenPRJ",
          "type": "address"
        },
        {
          "internalType": "uint8",
          "name": "_lvrNumerator",
          "type": "uint8"
        },
        {
          "internalType": "uint8",
          "name": "_lvrDenominator",
          "type": "uint8"
        }
      ],
      "name": "setLvr",
      "outputs": [],
      "stateMutability": "nonpayable",
      "type": "function"
    },
    {
      "inputs": [
        {
          "internalType": "address",
          "name": "_tokenPRJ",
          "type": "address"
        },
        {
          "internalType": "uint8",
          "name": "_ltfNumerator",
          "type": "uint8"
        },
        {
          "internalType": "uint8",
          "name": "_ltfDenominator",
          "type": "uint8"
        }
      ],
      "name": "setLtf",
      "outputs": [],
      "stateMutability": "nonpayable",
      "type": "function"
    },
    {
      "inputs": [
        {
          "internalType": "address",
          "name": "_tokenPRJ",
          "type": "address"
        },
        {
          "internalType": "uint8",
          "name": "_saleNumerator",
          "type": "uint8"
        },
        {
          "internalType": "uint8",
          "name": "_saleDenominator",
          "type": "uint8"
        }
      ],
      "name": "setPrjSale",
      "outputs": [],
      "stateMutability": "nonpayable",
      "type": "function"
    },
    {
      "inputs": [],
      "name": "pause",
      "outputs": [],
      "stateMutability": "nonpayable",
      "type": "function"
    },
    {
      "inputs": [],
      "name": "unpause",
      "outputs": [],
      "stateMutability": "nonpayable",
      "type": "function"
    },
    {
      "inputs": [
        {
          "internalType": "uint256",
          "name": "prjId",
          "type": "uint256"
        },
        {
          "internalType": "uint256",
          "name": "amountPrj",
          "type": "uint256"
        }
      ],
      "name": "deposit",
      "outputs": [],
      "stateMutability": "nonpayable",
      "type": "function"
    },
    {
      "inputs": [
        {
          "internalType": "uint256",
          "name": "prjId",
          "type": "uint256"
        },
        {
          "internalType": "uint256",
          "name": "amountPrj",
          "type": "uint256"
        },
        {
          "internalType": "address",
          "name": "beneficiar",
          "type": "address"
        }
      ],
      "name": "depositTo",
      "outputs": [],
      "stateMutability": "nonpayable",
      "type": "function"
    },
    {
      "inputs": [
        {
          "internalType": "uint256",
          "name": "prjId",
          "type": "uint256"
        },
        {
          "internalType": "uint256",
          "name": "amountPrj",
          "type": "uint256"
        }
      ],
      "name": "withdraw",
      "outputs": [],
      "stateMutability": "nonpayable",
      "type": "function"
    },
    {
      "inputs": [
        {
          "internalType": "uint256",
          "name": "prjId",
          "type": "uint256"
        },
        {
          "internalType": "uint256",
          "name": "amountPrj",
          "type": "uint256"
        },
        {
          "internalType": "address",
          "name": "beneficiar",
          "type": "address"
        }
      ],
      "name": "withdrawTo",
      "outputs": [],
      "stateMutability": "nonpayable",
      "type": "function"
    },
    {
      "inputs": [
        {
          "internalType": "uint256",
          "name": "lendingTokenId",
          "type": "uint256"
        },
        {
          "internalType": "uint256",
          "name": "amountLendingToken",
          "type": "uint256"
        }
      ],
      "name": "supply",
      "outputs": [],
      "stateMutability": "nonpayable",
      "type": "function"
    },
    {
      "inputs": [
        {
          "internalType": "uint256",
          "name": "lendingTokenId",
          "type": "uint256"
        },
        {
          "internalType": "uint256",
          "name": "amountBLendingToken",
          "type": "uint256"
        }
      ],
      "name": "redeem",
      "outputs": [],
      "stateMutability": "nonpayable",
      "type": "function"
    },
    {
      "inputs": [
        {
          "internalType": "uint256",
          "name": "lendingTokenId",
          "type": "uint256"
        },
        {
          "internalType": "uint256",
          "name": "amountLendingToken",
          "type": "uint256"
        }
      ],
      "name": "redeemUnderlying",
      "outputs": [],
      "stateMutability": "nonpayable",
      "type": "function"
    },
    {
      "inputs": [
        {
          "internalType": "uint256",
          "name": "lendingTokenId",
          "type": "uint256"
        },
        {
          "internalType": "uint256",
          "name": "amountLendingToken",
          "type": "uint256"
        },
        {
          "internalType": "address",
          "name": "prj",
          "type": "address"
        },
        {
          "internalType": "uint256",
          "name": "prjAmount",
          "type": "uint256"
        }
      ],
      "name": "borrow",
      "outputs": [],
      "stateMutability": "nonpayable",
      "type": "function"
    },
    {
      "inputs": [
        {
          "internalType": "uint256",
          "name": "lendingTokenId",
          "type": "uint256"
        },
        {
          "internalType": "uint256",
          "name": "amountLendingToken",
          "type": "uint256"
        },
        {
          "internalType": "address",
          "name": "prj",
          "type": "address"
        },
        {
          "internalType": "uint256",
          "name": "prjAmount",
          "type": "uint256"
        }
      ],
      "name": "repayBorrow",
      "outputs": [],
      "stateMutability": "nonpayable",
      "type": "function"
    },
    {
      "inputs": [
        {
          "internalType": "address",
          "name": "user",
          "type": "address"
        },
        {
          "internalType": "uint256",
          "name": "lendingTokenId",
          "type": "uint256"
        },
        {
          "internalType": "uint256",
          "name": "prjId",
          "type": "uint256"
        }
      ],
      "name": "liquidate",
      "outputs": [],
      "stateMutability": "nonpayable",
      "type": "function"
    },
    {
      "inputs": [
        {
          "internalType": "address",
          "name": "account",
          "type": "address"
        },
        {
          "internalType": "uint256",
          "name": "lendingTokenId",
          "type": "uint256"
        }
      ],
      "name": "healthFactor",
      "outputs": [
        {
          "internalType": "uint256",
          "name": "numerator",
          "type": "uint256"
        },
        {
          "internalType": "uint256",
          "name": "denominator",
          "type": "uint256"
        }
      ],
      "stateMutability": "view",
      "type": "function",
      "constant": true
    },
    {
      "inputs": [
        {
          "internalType": "address",
          "name": "account",
          "type": "address"
        },
        {
          "internalType": "uint256",
          "name": "lendingTokenId",
          "type": "uint256"
        },
        {
          "internalType": "uint256",
          "name": "prjId",
          "type": "uint256"
        }
      ],
      "name": "healthFactorForPosition",
      "outputs": [
        {
          "internalType": "uint256",
          "name": "numerator",
          "type": "uint256"
        },
        {
          "internalType": "uint256",
          "name": "denominator",
          "type": "uint256"
        }
      ],
      "stateMutability": "view",
      "type": "function",
      "constant": true
    },
    {
      "inputs": [
        {
          "internalType": "address",
          "name": "account",
          "type": "address"
        }
      ],
      "name": "getLiquidity",
      "outputs": [
        {
          "internalType": "uint256",
          "name": "",
          "type": "uint256"
        }
      ],
      "stateMutability": "view",
      "type": "function",
      "constant": true
    },
    {
      "inputs": [
        {
          "internalType": "address",
          "name": "projectToken",
          "type": "address"
        },
        {
          "internalType": "uint256",
          "name": "amount",
          "type": "uint256"
        }
      ],
      "name": "getPrjEvaluationInBasicToken",
      "outputs": [
        {
          "internalType": "uint256",
          "name": "",
          "type": "uint256"
        }
      ],
      "stateMutability": "view",
      "type": "function",
      "constant": true
    },
    {
      "inputs": [
        {
          "internalType": "address",
          "name": "lendingToken",
          "type": "address"
        },
        {
          "internalType": "address",
          "name": "projectToken",
          "type": "address"
        },
        {
          "internalType": "uint256",
          "name": "amountPrj",
          "type": "uint256"
        }
      ],
      "name": "getPrjEvaluationInLendingTokenWithoutSale",
      "outputs": [
        {
          "internalType": "uint256",
          "name": "",
          "type": "uint256"
        }
      ],
      "stateMutability": "view",
      "type": "function",
      "constant": true
    },
    {
      "inputs": [
        {
          "internalType": "address",
          "name": "lendingToken",
          "type": "address"
        },
        {
          "internalType": "address",
          "name": "projectToken",
          "type": "address"
        },
        {
          "internalType": "uint256",
          "name": "amountPrj",
          "type": "uint256"
        }
      ],
      "name": "getPrjEvaluationInLendingTokenWithSale",
      "outputs": [
        {
          "internalType": "uint256",
          "name": "",
          "type": "uint256"
        }
      ],
      "stateMutability": "view",
      "type": "function",
      "constant": true
    },
    {
      "inputs": [
        {
          "internalType": "address",
          "name": "underlying",
          "type": "address"
        }
      ],
      "name": "getCToken",
      "outputs": [
        {
          "internalType": "address",
          "name": "",
          "type": "address"
        }
      ],
      "stateMutability": "view",
      "type": "function",
      "constant": true
    },
    {
      "inputs": [
        {
          "internalType": "address",
          "name": "account",
          "type": "address"
        },
        {
          "internalType": "uint256",
          "name": "prjId",
          "type": "uint256"
        }
      ],
      "name": "getDepositedPrjAmount",
      "outputs": [
        {
          "internalType": "uint256",
          "name": "",
          "type": "uint256"
        }
      ],
      "stateMutability": "view",
      "type": "function",
      "constant": true
    },
    {
      "inputs": [
        {
          "internalType": "address",
          "name": "account",
          "type": "address"
        },
        {
          "internalType": "uint256",
          "name": "lendingTokenId",
          "type": "uint256"
        },
        {
          "internalType": "uint256",
          "name": "prjId",
          "type": "uint256"
        }
      ],
      "name": "getBorrowPosition",
      "outputs": [
        {
          "internalType": "uint256",
          "name": "",
          "type": "uint256"
        },
        {
          "internalType": "uint256",
          "name": "",
          "type": "uint256"
        }
      ],
      "stateMutability": "view",
      "type": "function",
      "constant": true
    },
    {
      "inputs": [
        {
          "internalType": "address",
          "name": "account",
          "type": "address"
        }
      ],
      "name": "liquidationThreshold",
      "outputs": [
        {
          "internalType": "uint256",
          "name": "",
          "type": "uint256"
        }
      ],
      "stateMutability": "view",
      "type": "function",
      "constant": true
    },
    {
      "inputs": [
        {
          "internalType": "address",
          "name": "account",
          "type": "address"
        },
        {
          "internalType": "uint256",
          "name": "prjId",
          "type": "uint256"
        }
      ],
      "name": "liquidationThresholdForPosition",
      "outputs": [
        {
          "internalType": "uint256",
          "name": "",
          "type": "uint256"
        }
      ],
      "stateMutability": "view",
      "type": "function",
      "constant": true
    },
    {
      "inputs": [
        {
          "internalType": "address",
          "name": "account",
          "type": "address"
        },
        {
          "internalType": "uint256",
          "name": "prjId",
          "type": "uint256"
        }
      ],
      "name": "balanceOfPitPosition",
      "outputs": [
        {
          "internalType": "uint256",
          "name": "",
          "type": "uint256"
        }
      ],
      "stateMutability": "view",
      "type": "function",
      "constant": true
    },
    {
      "inputs": [
        {
          "internalType": "address",
          "name": "account",
          "type": "address"
        }
      ],
      "name": "balanceOfPit",
      "outputs": [
        {
          "internalType": "uint256",
          "name": "",
          "type": "uint256"
        }
      ],
      "stateMutability": "view",
      "type": "function",
      "constant": true
    },
    {
      "inputs": [
        {
          "internalType": "address",
          "name": "account",
          "type": "address"
        },
        {
          "internalType": "uint256[]",
          "name": "prjIndexes",
          "type": "uint256[]"
        }
      ],
      "name": "balanceOfPitDependingOnPrj",
      "outputs": [
        {
          "internalType": "uint256",
          "name": "",
          "type": "uint256"
        }
      ],
      "stateMutability": "view",
      "type": "function",
      "constant": true
    },
    {
      "inputs": [
        {
          "internalType": "address",
          "name": "prj",
          "type": "address"
        }
      ],
      "name": "getUniswapReserves",
      "outputs": [
        {
          "internalType": "uint256",
          "name": "reserve1",
          "type": "uint256"
        },
        {
          "internalType": "uint256",
          "name": "reserve2",
          "type": "uint256"
        }
      ],
      "stateMutability": "view",
      "type": "function",
      "constant": true
    },
    {
      "inputs": [],
      "name": "totalSupplyPit",
      "outputs": [
        {
          "internalType": "uint256",
          "name": "",
          "type": "uint256"
        }
      ],
      "stateMutability": "view",
      "type": "function",
      "constant": true
    },
    {
      "inputs": [],
      "name": "projectTokensLength",
      "outputs": [
        {
          "internalType": "uint256",
          "name": "",
          "type": "uint256"
        }
      ],
      "stateMutability": "view",
      "type": "function",
      "constant": true
    },
    {
      "inputs": [],
      "name": "lendingTokensLength",
      "outputs": [
        {
          "internalType": "uint256",
          "name": "",
          "type": "uint256"
        }
      ],
      "stateMutability": "view",
      "type": "function",
      "constant": true
    },
    {
      "inputs": [],
      "name": "decimals",
      "outputs": [
        {
          "internalType": "uint8",
          "name": "",
          "type": "uint8"
        }
      ],
      "stateMutability": "view",
      "type": "function",
      "constant": true
    }
  ],
  "bytecode": "0x608060405234801561001057600080fd5b50615d2480620000216000396000f3fe608060405234801561001057600080fd5b506004361061046a5760003560e01c8063821a62a51161024c578063b1732b2511610146578063d7c39f0e116100c3578063e2eb67f011610087578063e2eb67f014610b87578063eaab0f5014610b9a578063ed7bbce714610bad578063f6f521da14610bce578063fde6863e14610bfb57600080fd5b8063d7c39f0e14610b02578063daecfa6c14610b15578063dc4d880e14610b28578063dd62ed3e14610b3b578063e2bbb15814610b7457600080fd5b8063be5bd6be1161010a578063be5bd6be14610aa3578063c7618f5114610ab6578063c9e0c02714610ac9578063d547741f14610adc578063d76ac91f14610aef57600080fd5b8063b1732b2514610a11578063b269449f14610a24578063ba8a310714610a37578063bae6dfbb14610a63578063bc06258214610a9057600080fd5b806397dae1fc116101d4578063a747b93b11610198578063a747b93b1461098e578063a9059cbb146109a1578063ace256b2146109b4578063ae47afdd146109c7578063afb239a5146109fe57600080fd5b806397dae1fc1461093a5780639a269e0c1461094d578063a217fddf14610960578063a2f8423414610968578063a457c2d71461097b57600080fd5b80638bad38dd1161021b5780638bad38dd146108e65780638de544f2146108f957806391d148541461090c57806394f829601461091f57806395d89b411461093257600080fd5b8063821a62a514610871578063833b3cde146108aa5780638456cb59146108bd57806385932f05146108c557600080fd5b806332d560bf11610368578063572b6c05116102e557806371524a28116102a957806371524a28146107de578063797669c9146107f25780637aa6d300146108075780637cbc2373146108315780637e5a4eb91461084457600080fd5b8063572b6c05146107615780635c975abb146107835780635fe3b5671461078e5780636f5f74f2146107a257806370a08231146107b557600080fd5b8063441a3e701161032c578063441a3e70146107175780634a41d29e1461072a5780634a7a2856146107335780634c9ec19c14610746578063530e784f1461074e57600080fd5b806332d560bf146106b557806333752685146106c857806336568abe146106e957806339509351146106fc5780633f4ba83a1461070f57600080fd5b8063190b8dc5116103f6578063248a9ca3116103ba578063248a9ca31461060a57806325a9a6e51461062d5780632630c12f146106745780632f2ff15d14610688578063313ce5671461069b57600080fd5b8063190b8dc51461054f57806322f715ef1461057b578063239af5151461058f57806323b872dd146105ee5780632412b5751461060157600080fd5b8063077d2b801161043d578063077d2b80146104d4578063095ea7b31461050e578063135e3b161461052157806314cd70e41461053457806318160ddd1461054757600080fd5b806301ffc9a71461046f57806306552ff31461049757806306fdde03146104ac5780630710285c146104c1575b600080fd5b61048261047d366004615298565b610c0e565b60405190151581526020015b60405180910390f35b6104aa6104a53660046152d7565b610c45565b005b6104b4610f5e565b60405161048e919061535f565b6104aa6104cf366004615392565b610ff0565b6105006104e23660046153c7565b61013b60209081526000928352604080842090915290825290205481565b60405190815260200161048e565b61048261051c3660046153c7565b6114b6565b61050061052f366004615409565b6114d3565b6104aa6105423660046154dc565b611582565b603554610500565b61012e54610563906001600160a01b031681565b6040516001600160a01b03909116815260200161048e565b61012d54610563906001600160a01b031681565b6105d961059d366004615392565b6001600160a01b038316600090815261013a60209081526040808320858452825280832084845290915290208054600190910154935093915050565b6040805192835260208301919091520161048e565b6104826105fc366004615515565b611a95565b61013354610500565b610500610618366004615556565b600090815260c9602052604090206001015490565b61065a61063b36600461556f565b6101366020526000908152604090205460ff8082169161010090041682565b6040805160ff93841681529290911660208301520161048e565b61013154610563906001600160a01b031681565b6104aa61069636600461558c565b611b68565b6106a3611b9a565b60405160ff909116815260200161048e565b6104aa6106c33660046155cb565b611c1d565b6105006106d636600461556f565b61013c6020526000908152604090205481565b6104aa6106f736600461558c565b611c84565b61048261070a3660046153c7565b611d12565b6104aa611d66565b6104aa61072536600461560b565b611da6565b61013254610500565b6105006107413660046153c7565b611db3565b610500611e48565b6104aa61075c36600461556f565b611f51565b61048261076f36600461556f565b60fb546001600160a01b0391821691161490565b60655460ff16610482565b61012f54610563906001600160a01b031681565b6105636107b0366004615556565b611f9d565b6105006107c336600461556f565b6001600160a01b031660009081526033602052604090205490565b61013054610563906001600160a01b031681565b610500600080516020615ccf83398151915281565b61056361081536600461556f565b610139602052600090815260409020546001600160a01b031681565b6104aa61083f36600461560b565b611fc8565b61056361085236600461556f565b6001600160a01b03908116600090815261013960205260409020541690565b6105d961087f366004615392565b61013a6020908152600093845260408085208252928452828420905282529020805460019091015482565b6104aa6108b836600461562d565b61235e565b6104aa612490565b6105006108d336600461556f565b6101376020526000908152604090205481565b6104aa6108f436600461556f565b6124ce565b610500610907366004615515565b61251a565b61048261091a36600461558c565b6125f2565b6105d961092d36600461556f565b61261d565b6104b4612746565b6104aa61094836600461565b565b612755565b6104aa61095b3660046154dc565b612d7e565b610500600081565b6105d9610976366004615392565b612f2b565b6104826109893660046153c7565b612f71565b61050061099c36600461556f565b613028565b6104826109af3660046153c7565b6130aa565b6104aa6109c236600461569a565b6130be565b6105006109d53660046153c7565b6001600160a01b0391909116600090815261013860209081526040808320938352929052205490565b6104aa610a0c3660046155cb565b6131c8565b610500610a1f36600461556f565b61322f565b610563610a32366004615556565b61326f565b610500610a453660046153c7565b61013860209081526000928352604080842090915290825290205481565b61065a610a7136600461556f565b6101346020526000908152604090205460ff8082169161010090041682565b6104aa610a9e36600461556f565b613280565b6104aa610ab136600461565b565b6132cc565b6104aa610ac43660046155cb565b6139cd565b610500610ad7366004615515565b613a34565b6104aa610aea36600461558c565b613ace565b6104aa610afd36600461556f565b613af6565b610500610b1036600461556f565b613bf4565b6104aa610b2336600461560b565b613c2d565b6104aa610b3636600461560b565b613e78565b610500610b4936600461562d565b6001600160a01b03918216600090815260346020908152604080832093909416825291909152205490565b6104aa610b8236600461560b565b6140ea565b6105d9610b953660046153c7565b6140f7565b610500610ba83660046153c7565b61416d565b610500610bbb36600461556f565b61013d6020526000908152604090205481565b61065a610bdc36600461556f565b6101356020526000908152604090205460ff8082169161010090041682565b610500610c093660046153c7565b614239565b60006001600160e01b03198216637965db0b60e01b1480610c3f57506301ffc9a760e01b6001600160e01b03198316145b92915050565b600054610100900460ff1680610c5e575060005460ff16155b610c835760405162461bcd60e51b8152600401610c7a90615730565b60405180910390fd5b600054610100900460ff16158015610ca5576000805461ffff19166101011790555b73dac17f958d2ee523a2206206994597c13d831ec76001600160a01b0386161415610d125760405162461bcd60e51b815260206004820152601d60248201527f5f6261736963546f6b656e2073686f756c646e742062652055534454210000006044820152606401610c7a565b61012e80546001600160a01b0319166001600160a01b0387169081179091556040805163313ce56760e01b8152905163313ce56791600480820192602092909190829003018186803b158015610d6757600080fd5b505afa158015610d7b573d6000803e3d6000fd5b505050506040513d601f19601f82011682018060405250810190610d9f919061577e565b60ff16306001600160a01b031663313ce5676040518163ffffffff1660e01b815260040160206040518083038186803b158015610ddb57600080fd5b505afa158015610def573d6000803e3d6000fd5b505050506040513d601f19601f82011682018060405250810190610e13919061577e565b60ff161015610e965760405162461bcd60e51b815260206004820152604360248201527f5072696d61727920496e64657820546f6b656e3a20626173696320746f6b656e60448201527f2073686f756c64206861766520646563696d616c73206c657373207468616e2060648201526214125560ea1b608482015260a401610c7a565b610ee660405180604001604052806013815260200172283934b6b0b93c9024b73232bc102a37b5b2b760691b8152506040518060400160405280600381526020016214125560ea1b8152506142a5565b610eee614324565b610ef661439a565b610f086000610f03614405565b61440f565b610f20600080516020615ccf8339815191528461440f565b610f2982614419565b61012d80546001600160a01b0319166001600160a01b0386161790558015610f57576000805461ff00191690555b5050505050565b606060368054610f6d9061579b565b80601f0160208091040260200160405190810160405280929190818152602001828054610f999061579b565b8015610fe65780601f10610fbb57610100808354040283529160200191610fe6565b820191906000526020600020905b815481529060010190602001808311610fc957829003601f168201915b5050505050905090565b6101325481106110125760405162461bcd60e51b8152600401610c7a906157d6565b6000610133838154811061102857611028615822565b60009182526020808320909101546001600160a01b0390811680845261013990925260408320546101328054939550911692918590811061106b5761106b615822565b60009182526020808320909101546001600160a01b03898116845261013a835260408085208a8652845280852089865290935291909220805491909216925061110e5760405162461bcd60e51b815260206004820152602f60248201527f5072696d61727920496e64657820546f6b656e3a20206e6f20706f736974696f60448201526e37103a37903634b8bab4b230ba329760891b6064820152608401610c7a565b6040516305eff7ef60e21b81526001600160a01b0388811660048301528416906317bfdfbc90602401602060405180830381600087803b15801561115157600080fd5b505af1158015611165573d6000803e3d6000fd5b505050506040513d601f19601f820116820180604052508101906111899190615838565b8155600080611199898989612f2b565b915091508082106112385760405162461bcd60e51b815260206004820152605d60248201527f5072696d61727920496e64657820546f6b656e3a206865616c7468206661637460448201527f6f7220626967676572207468616e20312e204c69717569646174696f6e20697360648201527f20666f7262696464656e206279207468697320636f6e646974696f6e2e000000608482015260a401610c7a565b6001600160a01b0389166000908152610138602090815260408083208a845290915281208054909161126b89888461251a565b905061128a611278614405565b6001600160a01b038b169030846144a0565b60405163095ea7b360e01b81526001600160a01b038981166004830152602482018390528a169063095ea7b390604401602060405180830381600087803b1580156112d457600080fd5b505af11580156112e8573d6000803e3d6000fd5b505050506040513d601f19601f8201168201806040525081019061130c9190615851565b506040516308934a5f60e31b8152306004820152602481018290526000906001600160a01b038a169063449a52f8906044016040805180830381600087803b15801561135757600080fd5b505af115801561136b573d6000803e3d6000fd5b505050506040513d601f19601f8201168201806040525081019061138f9190615873565b915050600081116114085760405162461bcd60e51b815260206004820152603660248201527f5072696d61727920496e64657820546f6b656e3a206d696e74656420616d6f7560448201527f6e742073686f756c64206265206e6f6e207a65726f21000000000000000000006064820152608401610c7a565b611424611413614405565b6001600160a01b038a16908561450b565b8284600001600082825461143891906158ad565b9091555050600080885560018801556001600160a01b038d16611459614405565b604080518f8152602081018f90529081018690526001600160a01b0391909116907f642dd4d37ddd32036b9797cec464c0045dd2118c549066ae6b0f88e32240c2d09060600160405180910390a350505050505050505050505050565b60006114ca6114c3614405565b848461453b565b50600192915050565b8051610132546000919081111561152c5760405162461bcd60e51b815260206004820152601d60248201527f496e76616c6964206c656e677468206f662070726a20496e64657865730000006044820152606401610c7a565b6000805b828110156115795761155b8686838151811061154e5761154e615822565b602002602001015161416d565b61156590836158c4565b915080611571816158dc565b915050611530565b50949350505050565b6101325483106115a45760405162461bcd60e51b8152600401610c7a906158f7565b6000821180156115e7575061013860006115bc614405565b6001600160a01b03168152602080820192909252604090810160009081208682529092529020548211155b61167f5760405162461bcd60e51b815260206004820152605f60248201527f5072696d61727920496e64657820546f6b656e3a20616d6f756e7450726a207360448201527f686f756c642062652067726561746564207468616e207a65726f20616e64206c60648201527f65737320657175616c207468616e20706f736974696f6e207374616b65642100608482015260a401610c7a565b6000610132848154811061169557611695615822565b60009182526020822001546001600160a01b031691508080610138816116b9614405565b6001600160a01b03168152602080820192909252604090810160009081208a8252909252812091505b6101335481101561187157600061013a60006116fc614405565b6001600160a01b031681526020808201929092526040908101600090812085825283528181208c8252909252902080549091501561185e57600194506101396000610133848154811061175157611751615822565b60009182526020808320909101546001600160a01b039081168452908301939093526040909101902054166317bfdfbc611789614405565b6040516001600160e01b031960e084901b1681526001600160a01b039091166004820152602401602060405180830381600087803b1580156117ca57600080fd5b505af11580156117de573d6000803e3d6000fd5b505050506040513d601f19601f820116820180604052508101906118029190615838565b815561180f610b10614405565b60018201558254889084906000906118289084906158ad565b90915550600090508061184261183c614405565b856140f7565b9150915080821061185b5785611857816158dc565b9650505b50505b5080611869816158dc565b9150506116e2565b5082611943578581600001600082825461188b91906158ad565b90915550506001600160a01b03841660009081526101376020526040812080548892906118b99084906158ad565b909155506118d390506001600160a01b038516868861450b565b846001600160a01b0316846001600160a01b03166118ef614405565b6001600160a01b03167fc5de321f20136e2f86609c5eab638083a3300f55766433c1243a6ea1610f77928a8a604051611932929190918252602082015260400190565b60405180910390a450505050505050565b81156119f8576001600160a01b03841660009081526101376020526040812080548892906119729084906158ad565b9091555061198c90506001600160a01b038516868861450b565b846001600160a01b0316846001600160a01b03166119a8614405565b6001600160a01b03167fc5de321f20136e2f86609c5eab638083a3300f55766433c1243a6ea1610f77928a8a6040516119eb929190918252602082015260400190565b60405180910390a4611a8c565b60405162461bcd60e51b815260206004820152605e60248201527f5072696d61727920496e64657820546f6b656e3a20746865206e65772061636360448201527f6f756e74206865616c7468206973206c657373207468616e2031207768656e2060648201527f7769746864726177696e67207468697320616d6f756e74206f662050524a0000608482015260a401610c7a565b50505050505050565b6000611aa2848484614660565b6001600160a01b038416600090815260346020526040812081611ac3614405565b6001600160a01b03166001600160a01b0316815260200190815260200160002054905082811015611b475760405162461bcd60e51b815260206004820152602860248201527f45524332303a207472616e7366657220616d6f756e74206578636565647320616044820152676c6c6f77616e636560c01b6064820152608401610c7a565b611b5b85611b53614405565b85840361453b565b60019150505b9392505050565b600082815260c96020526040902060010154611b8b81611b86614405565b61482e565b611b958383614892565b505050565b61012e546040805163313ce56760e01b815290516000926001600160a01b03169163313ce567916004808301926020929190829003018186803b158015611be057600080fd5b505afa158015611bf4573d6000803e3d6000fd5b505050506040513d601f19601f82011682018060405250810190611c18919061577e565b905090565b611c37600080516020615ccf83398151915261091a614405565b611c535760405162461bcd60e51b8152600401610c7a9061593b565b8060ff168260ff161115611c795760405162461bcd60e51b8152600401610c7a90615972565b611b95838383614919565b611c8c614405565b6001600160a01b0316816001600160a01b031614611d045760405162461bcd60e51b815260206004820152602f60248201527f416363657373436f6e74726f6c3a2063616e206f6e6c792072656e6f756e636560448201526e103937b632b9903337b91039b2b63360891b6064820152608401610c7a565b611d0e82826149b7565b5050565b60006114ca611d1f614405565b848460346000611d2d614405565b6001600160a01b03908116825260208083019390935260409182016000908120918b1681529252902054611d6191906158c4565b61453b565b611d80600080516020615ccf83398151915261091a614405565b611d9c5760405162461bcd60e51b8152600401610c7a9061593b565b611da4614a3c565b565b611d0e8282610542614405565b61012d5461012e5460405163df22dbeb60e01b81526001600160a01b039182166004820152848216602482015260448101849052600092919091169063df22dbeb9060640160206040518083038186803b158015611e1057600080fd5b505afa158015611e24573d6000803e3d6000fd5b505050506040513d601f19601f82011682018060405250810190611b619190615838565b60008080808080808080805b61013254811015611f43576101328181548110611e7357611e73615822565b60009182526020808320909101546001600160a01b03168083526101348252604080842054610137909352909220546101328054939b5060ff8084169b5061010090930490921698509550611eec9183908110611ed257611ed2615822565b6000918252602090912001546001600160a01b031661261d565b909350915081611efc84866159df565b611f0691906159fe565b94508560ff168760ff1686611f1b91906159df565b611f2591906159fe565b611f2f908a6158c4565b985080611f3b816158dc565b915050611e54565b509698975050505050505050565b611f5e600061091a614405565b611f7a5760405162461bcd60e51b8152600401610c7a90615a20565b61013180546001600160a01b0319166001600160a01b0392909216919091179055565b6101338181548110611fae57600080fd5b6000918252602090912001546001600160a01b0316905081565b610133548210611fea5760405162461bcd60e51b8152600401610c7a906157d6565b6000811161200a5760405162461bcd60e51b8152600401610c7a90615a57565b6000610133838154811061202057612020615822565b60009182526020808320909101546001600160a01b0390811680845261013990925260408320549193501690826370a0823161205a614405565b6040516001600160e01b031960e084901b1681526001600160a01b03909116600482015260240160206040518083038186803b15801561209957600080fd5b505afa1580156120ad573d6000803e3d6000fd5b505050506040513d601f19601f820116820180604052508101906120d19190615838565b90506000826001600160a01b0316632f7605fb6120ec614405565b6040516001600160e01b031960e084901b1681526001600160a01b03909116600482015260248101889052604401602060405180830381600087803b15801561213457600080fd5b505af1158015612148573d6000803e3d6000fd5b505050506040513d601f19601f8201168201806040525081019061216c9190615838565b905080156122175760405162461bcd60e51b815260206004820152606660248201527f5072696d61727920496e64657820546f6b656e3a2072656465656d4572726f7260448201527f206973206e6f74207a65726f212e4974206d617920626520636175736564207460648201527f7279696e6720746f2072656465656d206d6f7265207468616e207573657220736084820152653ab838363c9760d11b60a482015260c401610c7a565b6000846001600160a01b03166370a08231612230614405565b6040516001600160e01b031960e084901b1681526001600160a01b03909116600482015260240160206040518083038186803b15801561226f57600080fd5b505afa158015612283573d6000803e3d6000fd5b505050506040513d601f19601f820116820180604052508101906122a79190615838565b90506122b383826158ad565b61013b60006122c0614405565b6001600160a01b03166001600160a01b031681526020019081526020016000206000898152602001908152602001600020600082825461230091906158ad565b90915550506001600160a01b0380851690861661231b614405565b6001600160a01b03167f30510cb653295e1834731144c6ef963cb3b5c37583acaa104ba559419e3596318a8a604051611932929190918252602082015260400190565b61236b600061091a614405565b6123875760405162461bcd60e51b8152600401610c7a90615a20565b6001600160a01b0382166123f65760405162461bcd60e51b815260206004820152603060248201527f5072696d61727920496e64657820546f6b656e3a20696e76616c696420756e6460448201526f65726c79696e6720616464726573732160801b6064820152608401610c7a565b6001600160a01b0381166124615760405162461bcd60e51b815260206004820152602c60248201527f5072696d61727920496e64657820546f6b656e3a20696e76616c69642063546f60448201526b6b656e20616464726573732160a01b6064820152608401610c7a565b6001600160a01b0391821660009081526101396020526040902080546001600160a01b03191691909216179055565b6124aa600080516020615ccf83398151915261091a614405565b6124c65760405162461bcd60e51b8152600401610c7a9061593b565b611da4614ad5565b6124db600061091a614405565b6124f75760405162461bcd60e51b8152600401610c7a90615a20565b61012f80546001600160a01b0319166001600160a01b0392909216919091179055565b6001600160a01b038281166000818152610136602052604080822061012d54915163df22dbeb60e01b81528886166004820152602481019490945260448401869052919391928492919091169063df22dbeb9060640160206040518083038186803b15801561258857600080fd5b505afa15801561259c573d6000803e3d6000fd5b505050506040513d601f19601f820116820180604052508101906125c09190615838565b825490915060009060ff61010082048116916125dd9116846159df565b6125e791906159fe565b979650505050505050565b600091825260c9602090815260408084206001600160a01b0393909316845291905290205460ff1690565b600080600061012d60009054906101000a90046001600160a01b03166001600160a01b0316638bdb2afa6040518163ffffffff1660e01b815260040160206040518083038186803b15801561267157600080fd5b505afa158015612685573d6000803e3d6000fd5b505050506040513d601f19601f820116820180604052508101906126a99190615ac1565b61012d5461012e54604051633274946160e01b81526001600160a01b038085166004830152918216602482015287821660448201529293501690633274946190606401604080518083038186803b15801561270357600080fd5b505afa158015612717573d6000803e3d6000fd5b505050506040513d601f19601f8201168201806040525081019061273b9190615873565b909590945092505050565b606060378054610f6d9061579b565b6101335484106127775760405162461bcd60e51b8152600401610c7a906157d6565b600083116127975760405162461bcd60e51b8152600401610c7a90615a57565b600061013385815481106127ad576127ad615822565b60009182526020808320909101546001600160a01b039081168084526101398352604080852054888416865261013c90945284205490945091169161013a816127f4614405565b6001600160a01b03168152602080820192909252604090810160009081208b8252835281812085825290925290208054909150612b6d5761012f54610130546000916001600160a01b03908116916324991d669116612851614405565b6040516001600160e01b031960e085901b1681526001600160a01b03928316600482015291166024820152604401602060405180830381600087803b15801561289957600080fd5b505af11580156128ad573d6000803e3d6000fd5b505050506040513d601f19601f820116820180604052508101906128d19190615838565b905080156129315760405162461bcd60e51b815260206004820152602760248201527f5072696d61727920496e64657820546f6b656e3a20656e7465724d61726b6574604482015266206572726f722160c81b6064820152608401610c7a565b600061294461293e614405565b8561416d565b9050612957612951614405565b82614b51565b612975612962614405565b610130546001600160a01b03168361453b565b610130546001600160a01b031663449a52f861298f614405565b6040516001600160e01b031960e084901b1681526001600160a01b039091166004820152602481018490526044016040805180830381600087803b1580156129d657600080fd5b505af11580156129ea573d6000803e3d6000fd5b505050506040513d601f19601f82011682018060405250810190612a0e9190615873565b50506000856001600160a01b031663fda0241d612a29614405565b6040516001600160e01b031960e084901b1681526001600160a01b039091166004820152602481018d9052604401602060405180830381600087803b158015612a7157600080fd5b505af1158015612a85573d6000803e3d6000fd5b505050506040513d601f19601f82011682018060405250810190612aa99190615838565b90508015612b5e5760405162461bcd60e51b815260206004820152607060248201527f5072696d61727920496e64657820546f6b656e3a20626f72726f77206572726f60448201527f722e204974206d61792062652063617573657320627920747279696e6720746f60648201527f20626f72726f77206d6f7265207468616e205049542062616c616e636520696e60848201526f103137b93937bba837b9b4ba34b7b71760811b60a482015260c401610c7a565b50888355600183015550612d0a565b6000836001600160a01b031663fda0241d612b86614405565b6040516001600160e01b031960e084901b1681526001600160a01b039091166004820152602481018b9052604401602060405180830381600087803b158015612bce57600080fd5b505af1158015612be2573d6000803e3d6000fd5b505050506040513d601f19601f82011682018060405250810190612c069190615838565b90508015612c605760405162461bcd60e51b815260206004820152602160248201527f5072696d61727920496e64657820546f6b656e3a20626f72726f77206572726f6044820152603960f91b6064820152608401610c7a565b836001600160a01b03166317bfdfbc612c77614405565b6040516001600160e01b031960e084901b1681526001600160a01b039091166004820152602401602060405180830381600087803b158015612cb857600080fd5b505af1158015612ccc573d6000803e3d6000fd5b505050506040513d601f19601f82011682018060405250810190612cf09190615838565b8255612d03612cfd614405565b8461416d565b6001830155505b856001600160a01b0316846001600160a01b0316612d26614405565b604080518c8152602081018c90529081018990526001600160a01b0391909116907f3b0c8614fdd4fc00bbbb478e8263105e5758369866c8e07e9bcd2508648cb77f9060600160405180910390a45050505050505050565b610132548310612da05760405162461bcd60e51b8152600401610c7a906158f7565b60008211612e165760405162461bcd60e51b815260206004820152603b60248201527f5072696d61727920496e64657820546f6b656e3a20616d6f756e7450726a207360448201527f686f756c642062652067726561746564207468616e207a65726f2100000000006064820152608401610c7a565b60006101328481548110612e2c57612e2c615822565b60009182526020808320909101546001600160a01b038581168452610138835260408085208986529093529190922091169150612e7c612e6a614405565b6001600160a01b0384169030876144a0565b83816000016000828254612e9091906158c4565b90915550506001600160a01b0382166000908152610137602052604081208054869290612ebe9084906158c4565b90915550506001600160a01b03808416908316612ed9614405565b6001600160a01b03167f0b6c6cb502d2da9ef6887b17afbeb0034852ce0a2394ac48028d6b0f7810b63c8888604051612f1c929190918252602082015260400190565b60405180910390a45050505050565b6000806000612f3a8685614239565b6001600160a01b0396909616600090815261013a602090815260408083209783529681528682209582529490945250505020549091565b60008060346000612f80614405565b6001600160a01b039081168252602080830193909352604091820160009081209188168152925290205490508281101561300a5760405162461bcd60e51b815260206004820152602560248201527f45524332303a2064656372656173656420616c6c6f77616e63652062656c6f77604482015264207a65726f60d81b6064820152608401610c7a565b61301e613015614405565b8585840361453b565b5060019392505050565b61012f54604051635ec88c7960e01b81526001600160a01b0383811660048301526000928392911690635ec88c799060240160606040518083038186803b15801561307257600080fd5b505afa158015613086573d6000803e3d6000fd5b505050506040513d601f19601f820116820180604052508101906115799190615ade565b60006114ca6130b7614405565b8484614660565b6130cb600061091a614405565b6130e75760405162461bcd60e51b8152600401610c7a90615a20565b8460ff168660ff16111561310d5760405162461bcd60e51b8152600401610c7a90615972565b61013280546001600160a01b038916600081815261013c60205260408120839055600183018455929092527fc53bdfd4aa1ab65dfdaf681ca6bda958ae4a123d4ed68c4277796592280e78350180546001600160a01b03191682179055613172614405565b6001600160a01b03167f5c44326fdcde4c13baab6c81436cc5a5b08a1455def4e2977642777df0dcd08c60405160405180910390a36131b2878787614919565b6131bd878585614c30565b611a8c878383614cce565b6131e2600080516020615ccf83398151915261091a614405565b6131fe5760405162461bcd60e51b8152600401610c7a9061593b565b8060ff168260ff1611156132245760405162461bcd60e51b8152600401610c7a90615b0c565b611b95838383614c30565b60008060005b610132548110156132685761324a8482614239565b61325490836158c4565b915080613260816158dc565b915050613235565b5092915050565b6101328181548110611fae57600080fd5b61328d600061091a614405565b6132a95760405162461bcd60e51b8152600401610c7a90615a20565b61013080546001600160a01b0319166001600160a01b0392909216919091179055565b6101335484106132ee5760405162461bcd60e51b8152600401610c7a906157d6565b6000831161330e5760405162461bcd60e51b8152600401610c7a90615a57565b6000610133858154811061332457613324615822565b60009182526020808320909101546001600160a01b039081168084526101398352604080852054888416865261013c9094529093205492935016906000198614156134b657600080836001600160a01b031663ab792e73613383614405565b6040516001600160e01b031960e084901b1681526001600160a01b039091166004820152602481018b90526044016040805180830381600087803b1580156133ca57600080fd5b505af11580156133de573d6000803e3d6000fd5b505050506040513d601f19601f820116820180604052508101906134029190615873565b91509150816000146134265760405162461bcd60e51b8152600401610c7a90615b79565b600081116134465760405162461bcd60e51b8152600401610c7a90615bc8565b60005b610132548110156134ab57600061013a6000613463614405565b6001600160a01b03168152602080820192909252604090810160009081208e8252835281812085825290925281208181556001015550806134a3816158dc565b915050613449565b5050505050506139c7565b600061013a60006134c5614405565b6001600160a01b03168152602080820192909252604090810160009081208b825283528181208582529092528120915080805b6101325481101561357957600061013a6000613512614405565b6001600160a01b03168152602080820192909252604090810160009081208f82528352818120858252909252902080549091501561356657805461355690846158c4565b925083613562816158dc565b9450505b5080613571816158dc565b9150506134f8565b506000856001600160a01b03166317bfdfbc613593614405565b6040516001600160e01b031960e084901b1681526001600160a01b039091166004820152602401602060405180830381600087803b1580156135d457600080fd5b505af11580156135e8573d6000803e3d6000fd5b505050506040513d601f19601f8201168201806040525081019061360c9190615838565b905060008361361b84846158ad565b61362591906159fe565b90508a600119141561382a57836001141561372957600080886001600160a01b031663ab792e73613654614405565b6040516001600160e01b031960e084901b1681526001600160a01b03909116600482015260001960248201526044016040805180830381600087803b15801561369c57600080fd5b505af11580156136b0573d6000803e3d6000fd5b505050506040513d601f19601f820116820180604052508101906136d49190615873565b91509150816000146136f85760405162461bcd60e51b8152600401610c7a90615b79565b600081116137185760405162461bcd60e51b8152600401610c7a90615bc8565b50506000808655600186015561394d565b84546000906137399083906158c4565b9050600080896001600160a01b031663ab792e73613755614405565b6040516001600160e01b031960e084901b1681526001600160a01b039091166004820152602481018690526044016040805180830381600087803b15801561379c57600080fd5b505af11580156137b0573d6000803e3d6000fd5b505050506040513d601f19601f820116820180604052508101906137d49190615873565b91509150816000146137f85760405162461bcd60e51b8152600401610c7a90615b79565b600081116138185760405162461bcd60e51b8152600401610c7a90615bc8565b5050600080875560018701555061394d565b84548b111561383857600080fd5b600080886001600160a01b031663ab792e73613852614405565b8f6040518363ffffffff1660e01b81526004016138849291906001600160a01b03929092168252602082015260400190565b6040805180830381600087803b15801561389d57600080fd5b505af11580156138b1573d6000803e3d6000fd5b505050506040513d601f19601f820116820180604052508101906138d59190615873565b91509150816000146138f95760405162461bcd60e51b8152600401610c7a90615b79565b600081116139195760405162461bcd60e51b8152600401610c7a90615bc8565b86548390613928908f906158ad565b61393291906158c4565b875561394561393f614405565b8961416d565b600188015550505b896001600160a01b0316886001600160a01b0316613969614405565b6001600160a01b03167fb417830e29cf1947ba22b96930a774970d46274f7781aec4a3697f1c437817018f8f8e6040516139b6939291909283526020830191909152604082015260600190565b60405180910390a450505050505050505b50505050565b6139e7600080516020615ccf83398151915261091a614405565b613a035760405162461bcd60e51b8152600401610c7a9061593b565b8060ff168260ff161115613a295760405162461bcd60e51b8152600401610c7a90615b0c565b611b95838383614cce565b61012d5460405163df22dbeb60e01b81526001600160a01b038581166004830152848116602483015260448201849052600092839291169063df22dbeb9060640160206040518083038186803b158015613a8d57600080fd5b505afa158015613aa1573d6000803e3d6000fd5b505050506040513d601f19601f82011682018060405250810190613ac59190615838565b95945050505050565b600082815260c96020526040902060010154613aec81611b86614405565b611b9583836149b7565b613b03600061091a614405565b613b1f5760405162461bcd60e51b8152600401610c7a90615a20565b6001600160a01b038116613b915760405162461bcd60e51b815260206004820152603360248201527f5072696d61727920496e64657820546f6b656e3a20696e76616c6964205f6c656044820152726e64696e67546f6b656e20616464726573732160681b6064820152608401610c7a565b61013380546001600160a01b03909216600081815261013d60205260408120849055600184018355919091527f92e985329fb94cc1b424ebb0f7f2929b6d27383ca94c0ec71c44fb48bdf96d2c90910180546001600160a01b0319169091179055565b60008060005b6101325481101561326857613c0f848261416d565b613c1990836158c4565b915080613c25816158dc565b915050613bfa565b610133548210613c4f5760405162461bcd60e51b8152600401610c7a906157d6565b60008111613c6f5760405162461bcd60e51b8152600401610c7a90615a57565b60006101338381548110613c8557613c85615822565b60009182526020808320909101546001600160a01b0390811680845261013990925260408320549193501690808263449a52f8613cc0614405565b6040516001600160e01b031960e084901b1681526001600160a01b039091166004820152602481018890526044016040805180830381600087803b158015613d0757600080fd5b505af1158015613d1b573d6000803e3d6000fd5b505050506040513d601f19601f82011682018060405250810190613d3f9190615873565b9150915081600014613db95760405162461bcd60e51b815260206004820152603c60248201527f5072696d61727920496e64657820546f6b656e3a20737570706c79206572726f60448201527f723a206d696e74696e672062746f6b656e206973206661696c656421000000006064820152608401610c7a565b8461013b6000613dc7614405565b6001600160a01b03166001600160a01b0316815260200190815260200160002060008881526020019081526020016000206000828254613e0791906158c4565b90915550506001600160a01b03808416908516613e22614405565b604080518a8152602081018a90529081018590526001600160a01b0391909116907fb0785278015c5bc22fefba87433b9dbb1a62f7171970ce041c92438cc47d509d9060600160405180910390a4505050505050565b610133548210613e9a5760405162461bcd60e51b8152600401610c7a906157d6565b60008111613eba5760405162461bcd60e51b8152600401610c7a90615a57565b60006101338381548110613ed057613ed0615822565b60009182526020808320909101546001600160a01b039081168084526101399092526040832054919350169081636664aa78613f0a614405565b6040516001600160e01b031960e084901b1681526001600160a01b03909116600482015260248101879052604401602060405180830381600087803b158015613f5257600080fd5b505af1158015613f66573d6000803e3d6000fd5b505050506040513d601f19601f82011682018060405250810190613f8a9190615838565b9050801561403e5760405162461bcd60e51b815260206004820152606f60248201527f5072696d61727920496e64657820546f6b656e3a2072656465656d556e64657260448201527f6c79696e674572726f72206e6f74207a65726f21204974206d6179206265206360648201527f617573656420627920747279696e6720746f2072656465656d206d6f7265207460848201526e68616e207573657220737570706c7960881b60a482015260c401610c7a565b8361013b600061404c614405565b6001600160a01b03166001600160a01b031681526020019081526020016000206000878152602001908152602001600020600082825461408c91906158ad565b90915550506001600160a01b038083169084166140a7614405565b6001600160a01b03167f4f83d516cb6b5966725c9f26a68e354fbd4e64ad263d34e53a6e798879b128e28888604051612f1c929190918252602082015260400190565b611d0e828261095b614405565b60008060006141058561322f565b90506000805b61013254811015614161576001600160a01b038716600090815261013a60209081526040808320898452825280832084845290915290205461414d90836158c4565b915080614159816158dc565b91505061410b565b50909590945092505050565b600080610132838154811061418457614184615822565b6000918252602080832091909101546001600160a01b039081168084526101348352604080852054928916855261013884528085208886529093529183205491935060ff80821693610100909204169190506000806141f06101328981548110611ed257611ed2615822565b909250905060008161420284866159df565b61420c91906159fe565b90508460ff168660ff168261422191906159df565b61422b91906159fe565b9a9950505050505050505050565b600080610132838154811061425057614250615822565b60009182526020808320909101546001600160a01b0316808352610135909152604082205490925060ff808216926101009092041690614290878761416d565b90508160ff168360ff16826125dd91906159df565b600054610100900460ff16806142be575060005460ff16155b6142da5760405162461bcd60e51b8152600401610c7a90615730565b600054610100900460ff161580156142fc576000805461ffff19166101011790555b61430461439a565b61430e8383614d6c565b8015611b95576000805461ff0019169055505050565b600054610100900460ff168061433d575060005460ff16155b6143595760405162461bcd60e51b8152600401610c7a90615730565b600054610100900460ff1615801561437b576000805461ffff19166101011790555b6065805460ff191690558015614397576000805461ff00191690555b50565b600054610100900460ff16806143b3575060005460ff16155b6143cf5760405162461bcd60e51b8152600401610c7a90615730565b600054610100900460ff161580156143f1576000805461ffff19166101011790555b8015614397576000805461ff001916905550565b6000611c18614e01565b611d0e8282614892565b600054610100900460ff1680614432575060005460ff16155b61444e5760405162461bcd60e51b8152600401610c7a90615730565b600054610100900460ff16158015614470576000805461ffff19166101011790555b60fb80546001600160a01b0319166001600160a01b0384161790558015611d0e576000805461ff00191690555050565b6040516001600160a01b03808516602483015283166044820152606481018290526139c79085906323b872dd60e01b906084015b60408051601f198184030181529190526020810180516001600160e01b03166001600160e01b031990931692909217909152614e29565b6040516001600160a01b038316602482015260448101829052611b9590849063a9059cbb60e01b906064016144d4565b6001600160a01b03831661459d5760405162461bcd60e51b8152602060048201526024808201527f45524332303a20617070726f76652066726f6d20746865207a65726f206164646044820152637265737360e01b6064820152608401610c7a565b6001600160a01b0382166145fe5760405162461bcd60e51b815260206004820152602260248201527f45524332303a20617070726f766520746f20746865207a65726f206164647265604482015261737360f01b6064820152608401610c7a565b6001600160a01b0383811660008181526034602090815260408083209487168084529482529182902085905590518481527f8c5be1e5ebec7d5bd14f71427d1e84f3dd0314c0f7b2291e5b200ac8c7c3b92591015b60405180910390a3505050565b6001600160a01b0383166146c45760405162461bcd60e51b815260206004820152602560248201527f45524332303a207472616e736665722066726f6d20746865207a65726f206164604482015264647265737360d81b6064820152608401610c7a565b6001600160a01b0382166147265760405162461bcd60e51b815260206004820152602360248201527f45524332303a207472616e7366657220746f20746865207a65726f206164647260448201526265737360e81b6064820152608401610c7a565b6001600160a01b0383166000908152603360205260409020548181101561479e5760405162461bcd60e51b815260206004820152602660248201527f45524332303a207472616e7366657220616d6f756e7420657863656564732062604482015265616c616e636560d01b6064820152608401610c7a565b6001600160a01b038085166000908152603360205260408082208585039055918516815290812080548492906147d59084906158c4565b92505081905550826001600160a01b0316846001600160a01b03167fddf252ad1be2c89b69c2b068fc378daa952ba7f163c4a11628f55a4df523b3ef8460405161482191815260200190565b60405180910390a36139c7565b61483882826125f2565b611d0e57614850816001600160a01b03166014614efb565b61485b836020614efb565b60405160200161486c929190615c26565b60408051601f198184030181529082905262461bcd60e51b8252610c7a9160040161535f565b61489c82826125f2565b611d0e57600082815260c9602090815260408083206001600160a01b03851684529091529020805460ff191660011790556148d5614405565b6001600160a01b0316816001600160a01b0316837f2f8788117e7eff1d82e926ec794901d17c78024a50270940304540a733656f0d60405160405180910390a45050565b60408051808201825260ff808516825283811660208084019182526001600160a01b038816600081815261013490925294902092518354915183166101000261ffff19909216921691909117179055614970614405565b6040805160ff8087168252851660208201526001600160a01b0392909216917fe4a802f28c64e3c6626babd1a68b2413ea43a4de043b96bfc7249b9f93dc02089101614653565b6149c182826125f2565b15611d0e57600082815260c9602090815260408083206001600160a01b03851684529091529020805460ff191690556149f8614405565b6001600160a01b0316816001600160a01b0316837ff6391f5c32d9c69d2a47ea670b442974b53935d1edc7fd64eb21e047a839171b60405160405180910390a45050565b60655460ff16614a855760405162461bcd60e51b815260206004820152601460248201527314185d5cd8589b194e881b9bdd081c185d5cd95960621b6044820152606401610c7a565b6065805460ff191690557f5db9ee0a495bf2e6ff9c91a7834c1ba4fdd244a5e8aa4e537bd38aeae4b073aa614ab8614405565b6040516001600160a01b03909116815260200160405180910390a1565b60655460ff1615614b1b5760405162461bcd60e51b815260206004820152601060248201526f14185d5cd8589b194e881c185d5cd95960821b6044820152606401610c7a565b6065805460ff191660011790557f62e78cea01bee320cd4e420270b5ea74000d11b0c9f74754ebdbfc544b05a258614ab8614405565b6001600160a01b038216614ba75760405162461bcd60e51b815260206004820152601f60248201527f45524332303a206d696e7420746f20746865207a65726f2061646472657373006044820152606401610c7a565b8060356000828254614bb991906158c4565b90915550506001600160a01b03821660009081526033602052604081208054839290614be69084906158c4565b90915550506040518181526001600160a01b038316906000907fddf252ad1be2c89b69c2b068fc378daa952ba7f163c4a11628f55a4df523b3ef9060200160405180910390a35050565b60408051808201825260ff808516825283811660208084019182526001600160a01b038816600081815261013590925294902092518354915183166101000261ffff19909216921691909117179055614c87614405565b6040805160ff8087168252851660208201526001600160a01b0392909216917fd9c06c9ff85461911153041c4ca47fbf52d19abe7c39a75c8b316e68f749e5a49101614653565b60408051808201825260ff808516825283811660208084019182526001600160a01b038816600081815261013690925294902092518354915183166101000261ffff19909216921691909117179055614d25614405565b6040805160ff8087168252851660208201526001600160a01b0392909216917f4e7059533011fcdf4ca5ba769bf4004dd9e8d37a9a2866d28af0ed3aeed91a459101614653565b600054610100900460ff1680614d85575060005460ff16155b614da15760405162461bcd60e51b8152600401610c7a90615730565b600054610100900460ff16158015614dc3576000805461ffff19166101011790555b8251614dd69060369060208601906151ff565b508151614dea9060379060208501906151ff565b508015611b95576000805461ff0019169055505050565b60fb546000906001600160a01b0316331415614e24575060131936013560601c90565b503390565b6000614e7e826040518060400160405280602081526020017f5361666545524332303a206c6f772d6c6576656c2063616c6c206661696c6564815250856001600160a01b03166150979092919063ffffffff16565b805190915015611b955780806020019051810190614e9c9190615851565b611b955760405162461bcd60e51b815260206004820152602a60248201527f5361666545524332303a204552433230206f7065726174696f6e20646964206e6044820152691bdd081cdd58d8d9595960b21b6064820152608401610c7a565b60606000614f0a8360026159df565b614f159060026158c4565b67ffffffffffffffff811115614f2d57614f2d6153f3565b6040519080825280601f01601f191660200182016040528015614f57576020820181803683370190505b509050600360fc1b81600081518110614f7257614f72615822565b60200101906001600160f81b031916908160001a905350600f60fb1b81600181518110614fa157614fa1615822565b60200101906001600160f81b031916908160001a9053506000614fc58460026159df565b614fd09060016158c4565b90505b6001811115615048576f181899199a1a9b1b9c1cb0b131b232b360811b85600f166010811061500457615004615822565b1a60f81b82828151811061501a5761501a615822565b60200101906001600160f81b031916908160001a90535060049490941c9361504181615c9b565b9050614fd3565b508315611b615760405162461bcd60e51b815260206004820181905260248201527f537472696e67733a20686578206c656e67746820696e73756666696369656e746044820152606401610c7a565b60606150a684846000856150ae565b949350505050565b60608247101561510f5760405162461bcd60e51b815260206004820152602660248201527f416464726573733a20696e73756666696369656e742062616c616e636520666f6044820152651c8818d85b1b60d21b6064820152608401610c7a565b843b61515d5760405162461bcd60e51b815260206004820152601d60248201527f416464726573733a2063616c6c20746f206e6f6e2d636f6e74726163740000006044820152606401610c7a565b600080866001600160a01b031685876040516151799190615cb2565b60006040518083038185875af1925050503d80600081146151b6576040519150601f19603f3d011682016040523d82523d6000602084013e6151bb565b606091505b50915091506125e7828286606083156151d5575081611b61565b8251156151e55782518084602001fd5b8160405162461bcd60e51b8152600401610c7a919061535f565b82805461520b9061579b565b90600052602060002090601f01602090048101928261522d5760008555615273565b82601f1061524657805160ff1916838001178555615273565b82800160010185558215615273579182015b82811115615273578251825591602001919060010190615258565b5061527f929150615283565b5090565b5b8082111561527f5760008155600101615284565b6000602082840312156152aa57600080fd5b81356001600160e01b031981168114611b6157600080fd5b6001600160a01b038116811461439757600080fd5b600080600080608085870312156152ed57600080fd5b84356152f8816152c2565b93506020850135615308816152c2565b92506040850135615318816152c2565b91506060850135615328816152c2565b939692955090935050565b60005b8381101561534e578181015183820152602001615336565b838111156139c75750506000910152565b602081526000825180602084015261537e816040850160208701615333565b601f01601f19169190910160400192915050565b6000806000606084860312156153a757600080fd5b83356153b2816152c2565b95602085013595506040909401359392505050565b600080604083850312156153da57600080fd5b82356153e5816152c2565b946020939093013593505050565b634e487b7160e01b600052604160045260246000fd5b6000806040838503121561541c57600080fd5b8235615427816152c2565b915060208381013567ffffffffffffffff8082111561544557600080fd5b818601915086601f83011261545957600080fd5b81358181111561546b5761546b6153f3565b8060051b604051601f19603f83011681018181108582111715615490576154906153f3565b6040529182528482019250838101850191898311156154ae57600080fd5b938501935b828510156154cc578435845293850193928501926154b3565b8096505050505050509250929050565b6000806000606084860312156154f157600080fd5b8335925060208401359150604084013561550a816152c2565b809150509250925092565b60008060006060848603121561552a57600080fd5b8335615535816152c2565b92506020840135615545816152c2565b929592945050506040919091013590565b60006020828403121561556857600080fd5b5035919050565b60006020828403121561558157600080fd5b8135611b61816152c2565b6000806040838503121561559f57600080fd5b8235915060208301356155b1816152c2565b809150509250929050565b60ff8116811461439757600080fd5b6000806000606084860312156155e057600080fd5b83356155eb816152c2565b925060208401356155fb816155bc565b9150604084013561550a816155bc565b6000806040838503121561561e57600080fd5b50508035926020909101359150565b6000806040838503121561564057600080fd5b823561564b816152c2565b915060208301356155b1816152c2565b6000806000806080858703121561567157600080fd5b8435935060208501359250604085013561568a816152c2565b9396929550929360600135925050565b600080600080600080600060e0888a0312156156b557600080fd5b87356156c0816152c2565b965060208801356156d0816155bc565b955060408801356156e0816155bc565b945060608801356156f0816155bc565b93506080880135615700816155bc565b925060a0880135615710816155bc565b915060c0880135615720816155bc565b8091505092959891949750929550565b6020808252602e908201527f496e697469616c697a61626c653a20636f6e747261637420697320616c72656160408201526d191e481a5b9a5d1a585b1a5e995960921b606082015260800190565b60006020828403121561579057600080fd5b8151611b61816155bc565b600181811c908216806157af57607f821691505b602082108114156157d057634e487b7160e01b600052602260045260246000fd5b50919050565b6020808252602c908201527f5072696d61727920496e64657820546f6b656e3a20696e76616c6964206c656e60408201526b64696e67546f6b656e49642160a01b606082015260800190565b634e487b7160e01b600052603260045260246000fd5b60006020828403121561584a57600080fd5b5051919050565b60006020828403121561586357600080fd5b81518015158114611b6157600080fd5b6000806040838503121561588657600080fd5b505080516020909101519092909150565b634e487b7160e01b600052601160045260246000fd5b6000828210156158bf576158bf615897565b500390565b600082198211156158d7576158d7615897565b500190565b60006000198214156158f0576158f0615897565b5060010190565b60208082526024908201527f5072696d61727920496e64657820546f6b656e3a20696e76616c69642070726a604082015263024b217160e51b606082015260800190565b6020808252601b908201527f43616c6c6572206973206e6f7420746865204d6f64657261746f720000000000604082015260600190565b60208082526047908201527f5072696d61727920496e64657820546f6b656e3a205f6c76724e756d6572617460408201527f6f722073686f756c64206265206c657373207468616e205f6c767244656e6f6d606082015266696e61746f722160c81b608082015260a00190565b60008160001904831182151516156159f9576159f9615897565b500290565b600082615a1b57634e487b7160e01b600052601260045260246000fd5b500490565b60208082526017908201527f43616c6c6572206973206e6f74207468652041646d696e000000000000000000604082015260600190565b60208082526044908201527f5072696d61727920496e64657820546f6b656e3a20616d6f756e744c656e646960408201527f6e67546f6b656e2073686f756c642062652067726561746564207468616e207a60608201526365726f2160e01b608082015260a00190565b600060208284031215615ad357600080fd5b8151611b61816152c2565b600080600060608486031215615af357600080fd5b8351925060208401519150604084015190509250925092565b60208082526047908201527f5072696d61727920496e64657820546f6b656e3a205f6c74664e756d6572617460408201527f6f722073686f756c64206265206c657373207468616e205f6c746644656e6f6d606082015266696e61746f722160c81b608082015260a00190565b6020808252602f908201527f5072696d61727920496e64657820546f6b656e3a207265706179426f72726f7760408201526e4572726f72206e6f74207a65726f2160881b606082015260800190565b602080825260409082018190527f5072696d61727920496e64657820546f6b656e3a20616d6f756e742072657061908201527f7965642073686f756c642062652067726561746572207468616e207a65726f21606082015260800190565b7f416363657373436f6e74726f6c3a206163636f756e7420000000000000000000815260008351615c5e816017850160208801615333565b7001034b99036b4b9b9b4b733903937b6329607d1b6017918401918201528351615c8f816028840160208801615333565b01602801949350505050565b600081615caa57615caa615897565b506000190190565b60008251615cc4818460208701615333565b919091019291505056fe71f3d55856e4058ed06ee057d79ada615f65cdf5f9ee88181b914225088f834fa2646970667358221220be7a9870c38a78f7b560641b861c4a3a1bec209eee20579927163a5fcb1947c364736f6c63430008090033",
  "immutableReferences": {},
  "source": "// SPDX-License-Identifier: MIT\npragma solidity >=0.8.0;\n\nimport \"../openzeppelin/contracts/proxy/transparent/ProxyAdmin.sol\";\nimport \"../openzeppelin/contracts/proxy/transparent/TransparentUpgradeableProxy.sol\";\n\nimport \"../openzeppelin/contracts-upgradeable/proxy/utils/Initializable.sol\";\nimport \"../openzeppelin/contracts-upgradeable/security/PausableUpgradeable.sol\";\nimport \"../openzeppelin/contracts-upgradeable/token/ERC20/ERC20Upgradeable.sol\";\nimport \"../openzeppelin/contracts-upgradeable/token/ERC20/IERC20Upgradeable.sol\";\nimport \"../openzeppelin/contracts-upgradeable/token/ERC20/utils/SafeERC20Upgradeable.sol\";\nimport \"../openzeppelin/contracts-upgradeable/utils/math/SafeMathUpgradeable.sol\";\nimport \"../openzeppelin/contracts-upgradeable/access/AccessControlUpgradeable.sol\";\nimport \"../openzeppelin/contracts-upgradeable/metatx/ERC2771ContextUpgradeable.sol\";\nimport \"./uniswap/UniswapPathFinder.sol\";\nimport \"./interfaces/IBPrimaryIndexToken.sol\";\nimport \"./interfaces/ISimplePriceOracle.sol\";\nimport \"./interfaces/EIP20Interface.sol\";\nimport \"./interfaces/IBLendingToken.sol\";\nimport \"./interfaces/IComptroller.sol\";\n\n\n\ncontract PrimaryIndexToken is Initializable,\n                              ERC20Upgradeable,\n                              PausableUpgradeable,\n                              AccessControlUpgradeable,\n                              ERC2771ContextUpgradeable\n{\n    using SafeMathUpgradeable for uint256;\n    using SafeERC20Upgradeable for IERC20Upgradeable;\n\n    bytes32 public constant MODERATOR_ROLE = keccak256(\"MODERATOR_ROLE\");\n\n    UniswapPathFinder public uniswapPathFinder; //contract address of uniswap path finder \n\n    address public basicToken;  //contract address of USDC by default or any stablecoin\n\n    IComptroller public comptroller;\n\n    IBPrimaryIndexToken public bPrimaryIndexToken;\n\n    ISimplePriceOracle public priceOracle;\n\n    address[] public projectTokens;\n\n    address[] public lendingTokens;\n\n    mapping(address => LvrInfo) public lvr; //prj token address => Lvr (Loan to Value Ratio)\n    mapping(address => LtfInfo) public ltf; //prj token address => Ltf (Liquidation Threshold Factor)\n    mapping(address => PrjSaleInfo) public prjSales; //prj token address => PRJ sale info\n    mapping(address => uint256) public totalStakedPrj; //tokenAddress => PRJ token staked\n    mapping(address => mapping(uint256 => UserPrjPosition)) public userPrjPosition; // user address => PRJ token index => UserPrjPosition\n\n    mapping(address => address) public bTokensList; //underlying token address => cToken address\n    \n    mapping(address => mapping(uint256 => mapping(uint256 => UserBorrowPosition))) public userBorrowPosition; //user address => lending tokens index => project token collateral => UserBorrowPosition\n    mapping(address => mapping(uint256 => uint256)) public suppliedLendingToken; // user address => lendingTokenId => amount supplied\n    mapping(address => uint256) public indexPrjToken;   //prj address => index of prj in list `projectTokens`\n    mapping(address => uint256) public indexLendingToken;//lending token address => index lending token in list `lendingTokens`\n\n    struct PrjSaleInfo{\n        uint8 numerator;\n        uint8 denominator;\n    }\n    \n    //Lvr = Loan to Value Ratio  \n    struct LvrInfo{\n        uint8 numerator;\n        uint8 denominator;\n    }\n\n    //Ltf = Liquidation Threshold Factor\n    struct LtfInfo{\n        uint8 numerator;\n        uint8 denominator;\n    }\n\n    struct UserPrjPosition{\n        uint256 amountPrjDeposited;\n    }\n\n    struct UserBorrowPosition{\n        uint256 amountBorrowed;\n        uint256 amountPit;\n    }\n\n\n    event AddPrjToken(address indexed who, address indexed tokenPrj);\n\n    event LoanToValueRatioSet(address indexed who, address indexed tokenPrj, uint8 lvrNumerator, uint8 lvrDenominator);\n\n    event LiquidationThresholdFactorSet(address indexed who, address indexed tokenPrj, uint8 ltfNumerator, uint8 ltfDenominator);\n\n    event PrjSaleSet(address indexed who, address indexed tokenPrj, uint8 saleNumerator, uint8 saleDenominator);\n\n    event Deposit(address indexed who, uint256 tokenPrjId, address indexed tokenPrj, uint256 prjDepositAmount, address indexed beneficiar);\n\n    event Withdraw(address indexed who, uint256 tokenPrjId, address indexed tokenPrj, uint256 prjWithdrawAmount, address indexed beneficiar);\n\n    event Supply(address indexed who, uint256 supplyTokenId, address indexed supplyToken, uint256 supplyAmount, address indexed supplyCToken, uint amountSupplyCTokenReceived);\n\n    event Redeem(address indexed who, uint256 redeemTokenId, address indexed redeemToken, address indexed redeemCToken, uint256 redeemAmount);\n    \n    event RedeemUnderlying(address indexed who, uint256 redeemTokenId, address indexed redeemToken, address indexed redeemCToken, uint256 redeemAmountUnderlying);\n\n    event Borrow(address indexed who, uint256 borrowTokenId, address indexed borrowToken, uint256 borrowAmount, address indexed prjAddress, uint256 prjAmount);\n\n    event RepayBorrow(address indexed who, uint256 borrowTokenId, address indexed borrowToken, uint256 borrowAmount, address indexed prjAddress, uint256 prjAmount);\n\n    event Liquidate(address indexed liquidator, address indexed borrower, uint lendingTokenId, uint prjId, uint amountPrjLiquidated);\n\n    function init(address _basicToken, address _uniswapPathFinder, address _moderator, address _trustedForwarder) public initializer{\n        require(_basicToken != 0xdAC17F958D2ee523a2206206994597C13D831ec7, \"_basicToken shouldnt be USDT!\");\n        basicToken = _basicToken;\n        require(this.decimals() >= ERC20Upgradeable(_basicToken).decimals(), \"Primary Index Token: basic token should have decimals less than PIT\");\n        __ERC20_init(\"Primary Index Token\", \"PIT\");\n        __Pausable_init_unchained();\n        __AccessControl_init_unchained();\n        _setupRole(DEFAULT_ADMIN_ROLE, _msgSender());\n        _setupRole(MODERATOR_ROLE, _moderator);\n        __ERC2771Context_init_unchained(_trustedForwarder);\n        uniswapPathFinder = UniswapPathFinder(_uniswapPathFinder);\n    }\n\n    modifier onlyAdmin() {\n        require(hasRole(DEFAULT_ADMIN_ROLE, _msgSender()), \"Caller is not the Admin\");\n        _;\n    }\n\n    modifier onlyModerator() {\n        require(hasRole(MODERATOR_ROLE, _msgSender()), \"Caller is not the Moderator\");\n        _;\n    }\n\n    //************* ADMIN FUNCTIONS ********************************\n\n    function addPrjToken(address _tokenPRJ, uint8 _lvrNumerator, uint8 _lvrDenominator, uint8 _ltfNumerator, uint8 _ltfDenominator,uint8 _saleNumerator, uint8 _saleDenominator) public onlyAdmin {\n        require(_lvrNumerator <= _lvrDenominator, \"Primary Index Token: _lvrNumerator should be less than _lvrDenominator!\");\n        indexPrjToken[_tokenPRJ] = projectTokens.length;\n        projectTokens.push(_tokenPRJ);\n        emit AddPrjToken(_msgSender(), _tokenPRJ);\n        _setLvr(_tokenPRJ, _lvrNumerator, _lvrDenominator);\n        _setLtf(_tokenPRJ, _ltfNumerator, _ltfDenominator);\n        _setPrjSale(_tokenPRJ, _saleNumerator, _saleDenominator);\n    }\n\n    function addLendingToken(address _lendingToken) public onlyAdmin{\n        require(_lendingToken != address(0),\"Primary Index Token: invalid _lendingToken address!\");\n        indexLendingToken[_lendingToken] = lendingTokens.length;\n        lendingTokens.push(_lendingToken);\n    }\n\n    function addCLendingToken(address _underlyingToken, address _cToken) public onlyAdmin{\n        require(_underlyingToken != address(0),\"Primary Index Token: invalid underlying address!\");\n        require(_cToken != address(0),\"Primary Index Token: invalid cToken address!\");\n        bTokensList[_underlyingToken] = _cToken;\n    }\n\n    function setComptroller(address _comptroller) public onlyAdmin{\n        comptroller = IComptroller(_comptroller);\n    }\n\n     function setCPrimaryIndexToken(address _cPrimaryIndexToken) public onlyAdmin{\n        bPrimaryIndexToken = IBPrimaryIndexToken(_cPrimaryIndexToken);\n        \n    }\n\n    function setPriceOracle(address _priceOracle) public onlyAdmin{\n        priceOracle = ISimplePriceOracle(_priceOracle);\n    }\n    \n    //************* MODERATOR FUNCTIONS ********************************\n\n    function setLvr(address _tokenPRJ, uint8 _lvrNumerator, uint8 _lvrDenominator) public onlyModerator{\n        require(_lvrNumerator <= _lvrDenominator, \"Primary Index Token: _lvrNumerator should be less than _lvrDenominator!\");\n        _setLvr(_tokenPRJ, _lvrNumerator, _lvrDenominator);\n    }\n\n    function setLtf(address _tokenPRJ, uint8 _ltfNumerator, uint8 _ltfDenominator) public onlyModerator{\n        require(_ltfNumerator <= _ltfDenominator, \"Primary Index Token: _ltfNumerator should be less than _ltfDenominator!\");\n        _setLtf(_tokenPRJ, _ltfNumerator, _ltfDenominator);\n    }\n\n    function setPrjSale(address _tokenPRJ, uint8 _saleNumerator, uint8 _saleDenominator) public onlyModerator{\n        require(_saleNumerator <= _saleDenominator, \"Primary Index Token: _ltfNumerator should be less than _ltfDenominator!\");\n        _setPrjSale(_tokenPRJ,_saleNumerator, _saleDenominator);\n    }\n\n    function _setLvr(address _tokenPRJ, uint8 _lvrNumerator, uint8 _lvrDenominator) private {\n        lvr[_tokenPRJ] = LvrInfo({numerator:_lvrNumerator,denominator:_lvrDenominator});\n        emit LoanToValueRatioSet(_msgSender(), _tokenPRJ, _lvrNumerator, _lvrDenominator);\n    }\n\n    function _setLtf(address _tokenPRJ, uint8 _ltfNumerator, uint8 _ltfDenominator) private {\n        ltf[_tokenPRJ] = LtfInfo({numerator:_ltfNumerator,denominator:_ltfDenominator});\n        emit LiquidationThresholdFactorSet(_msgSender(), _tokenPRJ, _ltfNumerator, _ltfDenominator);\n    }\n\n    function _setPrjSale(address _tokenPRJ, uint8 _saleNumerator, uint8 _saleDenominator) private {\n        prjSales[_tokenPRJ] = PrjSaleInfo({numerator:_saleNumerator,denominator:_saleDenominator});\n        emit PrjSaleSet(_msgSender(), _tokenPRJ, _saleNumerator, _saleDenominator);\n    }\n\n    function pause() public onlyModerator {\n        _pause();\n    }\n\n    function unpause() public onlyModerator{\n        _unpause();\n    }\n  \n    //************* PUBLIC FUNCTIONS ********************************\n\n    function deposit(uint256 prjId, uint256 amountPrj) public {\n        depositTo(prjId, amountPrj, _msgSender());\n    }\n\n    function depositTo(uint256 prjId, uint256 amountPrj, address beneficiar) public {\n        require(prjId < projectTokens.length,\"Primary Index Token: invalid prjId. \");\n        require(amountPrj > 0, \"Primary Index Token: amountPrj should be greated than zero!\");\n        address tokenPrj = projectTokens[prjId];\n        UserPrjPosition storage beneficiarDepositPosition = userPrjPosition[beneficiar][prjId];\n        IERC20Upgradeable(tokenPrj).safeTransferFrom(_msgSender(), address(this), amountPrj);\n        beneficiarDepositPosition.amountPrjDeposited += amountPrj;\n        totalStakedPrj[tokenPrj] += amountPrj;\n        emit Deposit(_msgSender(), prjId, tokenPrj, amountPrj, beneficiar);\n    }\n\n    function withdraw(uint256 prjId, uint256 amountPrj) public {\n        withdrawTo(prjId, amountPrj, _msgSender());\n    }\n    \n    function withdrawTo(uint256 prjId, uint256 amountPrj, address beneficiar) public {\n        require(prjId < projectTokens.length,\"Primary Index Token: invalid prjId. \");\n        require(amountPrj > 0 && amountPrj <= userPrjPosition[_msgSender()][prjId].amountPrjDeposited, \"Primary Index Token: amountPrj should be greated than zero and less equal than position staked!\");\n        address tokenPrj = projectTokens[prjId];\n        bool withdrawerIsBorrower = false;\n        uint256 possibleLendingTokenIndexes = 0;\n\n        UserPrjPosition storage msgSenderPrjPosition = userPrjPosition[_msgSender()][prjId];\n        for(uint i=0; i < lendingTokens.length; i++){\n            UserBorrowPosition storage msgSenderBorrowPosition = userBorrowPosition[_msgSender()][i][prjId];\n            if(msgSenderBorrowPosition.amountBorrowed > 0){\n                withdrawerIsBorrower = true;\n                msgSenderBorrowPosition.amountBorrowed = IBLendingToken(bTokensList[lendingTokens[i]]).borrowBalanceCurrent(_msgSender());\n                msgSenderBorrowPosition.amountPit = balanceOfPit(_msgSender());\n                //(uint prevNum, uint prevDenom) = healthFactor(_msgSender(), i);\n                msgSenderPrjPosition.amountPrjDeposited -= amountPrj;\n                (uint newNum, uint newDenom) = healthFactor(_msgSender(), i);\n                if(newNum >= newDenom){\n                    possibleLendingTokenIndexes++;\n                }\n            }\n        }\n        if(!withdrawerIsBorrower){\n            msgSenderPrjPosition.amountPrjDeposited -= amountPrj;\n            totalStakedPrj[tokenPrj] -= amountPrj;\n            IERC20Upgradeable(tokenPrj).safeTransfer(beneficiar, amountPrj);\n            emit Withdraw(_msgSender(), prjId, tokenPrj, amountPrj, beneficiar);\n            return;\n        }\n        if(possibleLendingTokenIndexes > 0){\n            totalStakedPrj[tokenPrj] -= amountPrj;\n            IERC20Upgradeable(tokenPrj).safeTransfer(beneficiar, amountPrj);\n            emit Withdraw(_msgSender(), prjId, tokenPrj, amountPrj, beneficiar);\n\n        }else{\n            revert(\"Primary Index Token: the new account health is less than 1 when withdrawing this amount of PRJ\");\n        }\n         \n    }\n\n    function supply(uint256 lendingTokenId, uint256 amountLendingToken) public {\n        require(lendingTokenId < lendingTokens.length, \"Primary Index Token: invalid lendingTokenId!\");\n        require(amountLendingToken > 0, \"Primary Index Token: amountLendingToken should be greated than zero!\");\n        address lendingToken = lendingTokens[lendingTokenId];\n        address bLendingToken = bTokensList[lendingToken];\n        \n        (uint256 mintError, uint256 mintedAmount) = IBLendingToken(bLendingToken).mintTo(_msgSender(),amountLendingToken);\n        require(mintError == 0,\"Primary Index Token: supply error: minting btoken is failed!\");\n        suppliedLendingToken[_msgSender()][lendingTokenId] += amountLendingToken;\n\n        emit Supply(_msgSender(), lendingTokenId, lendingToken, amountLendingToken,bLendingToken,mintedAmount);\n    }\n\n    function redeem(uint256 lendingTokenId, uint256 amountBLendingToken) public {\n        require(lendingTokenId < lendingTokens.length, \"Primary Index Token: invalid lendingTokenId!\");\n        require(amountBLendingToken > 0, \"Primary Index Token: amountLendingToken should be greated than zero!\");\n        address lendingToken = lendingTokens[lendingTokenId];\n        address bLendingToken = bTokensList[lendingToken];\n        \n        uint256 balanceOfMsgSenderBefore = IERC20Upgradeable(lendingToken).balanceOf(_msgSender());\n        (uint redeemError) = IBLendingToken(bLendingToken).redeemTo(_msgSender(), amountBLendingToken);\n        require(redeemError == 0,\"Primary Index Token: redeemError is not zero!.It may be caused trying to redeem more than user supply.\");\n        uint256 balanceOfMsgSenderAfter = IERC20Upgradeable(lendingToken).balanceOf(_msgSender());\n        suppliedLendingToken[_msgSender()][lendingTokenId] -= (balanceOfMsgSenderAfter - balanceOfMsgSenderBefore);\n        emit Redeem(_msgSender(), lendingTokenId, lendingToken, bLendingToken, amountBLendingToken);\n    }\n\n    function redeemUnderlying(uint256 lendingTokenId, uint256 amountLendingToken) public {\n        require(lendingTokenId < lendingTokens.length, \"Primary Index Token: invalid lendingTokenId!\");\n        require(amountLendingToken > 0, \"Primary Index Token: amountLendingToken should be greated than zero!\");\n        address lendingToken = lendingTokens[lendingTokenId];\n        address bLendingToken = bTokensList[lendingToken];\n\n        uint redeemUnderlyingError = IBLendingToken(bLendingToken).redeemUnderlyingTo(_msgSender(), amountLendingToken);\n        require(redeemUnderlyingError == 0,\"Primary Index Token: redeemUnderlyingError not zero! It may be caused by trying to redeem more than user supply\");\n        suppliedLendingToken[_msgSender()][lendingTokenId] -= amountLendingToken;\n\n\n        emit RedeemUnderlying(_msgSender(), lendingTokenId, lendingToken, bLendingToken, amountLendingToken);\n    }\n\n    //event Test2(uint currentBalancePitOfMsgSender,uint liquidity,uint shortfall, uint borrowError);\n\n    function borrow(uint256 lendingTokenId, uint256 amountLendingToken, address prj, uint256 prjAmount) public {\n        require(lendingTokenId < lendingTokens.length, \"Primary Index Token: invalid lendingTokenId!\");\n        require(amountLendingToken > 0, \"Primary Index Token: amountLendingToken should be greated than zero!\");\n        address lendingToken = lendingTokens[lendingTokenId];\n        address bLendingToken = bTokensList[lendingToken];\n        uint256 prjId = indexPrjToken[prj];\n        UserBorrowPosition storage borrowPosition = userBorrowPosition[_msgSender()][lendingTokenId][prjId];\n        if(borrowPosition.amountBorrowed == 0){\n            uint enterMarketError = comptroller.enterMarket(address(bPrimaryIndexToken), _msgSender());\n            require(enterMarketError == 0,\"Primary Index Token: enterMarket error!\");\n            uint currentBalancePitOfMsgSender = balanceOfPitPosition(_msgSender(), prjId);\n          \n            _mint(_msgSender(), currentBalancePitOfMsgSender);\n            _approve(_msgSender(),address(bPrimaryIndexToken), currentBalancePitOfMsgSender);\n            bPrimaryIndexToken.mintTo(_msgSender(),currentBalancePitOfMsgSender);\n            //(,uint liquidity,uint shortfall) = comptroller.getAccountLiquidity(_msgSender());\n            \n            uint borrowError = IBLendingToken(bLendingToken).borrowTo(_msgSender(), amountLendingToken);\n            //emit Test2(currentBalancePitOfMsgSender,liquidity,shortfall,borrowError);\n            require(borrowError == 0,\"Primary Index Token: borrow error. It may be causes by trying to borrow more than PIT balance in borrowPosition.\");\n\n            borrowPosition.amountBorrowed = amountLendingToken;\n            borrowPosition.amountPit = currentBalancePitOfMsgSender;\n        }\n        else{\n            uint borrowError = IBLendingToken(bLendingToken).borrowTo(_msgSender(), amountLendingToken);\n            require(borrowError == 0,\"Primary Index Token: borrow error\");\n          \n            borrowPosition.amountBorrowed = IBLendingToken(bLendingToken).borrowBalanceCurrent(_msgSender());\n            borrowPosition.amountPit = balanceOfPitPosition(_msgSender(), prjId);\n        }\n\n        emit Borrow(_msgSender(),lendingTokenId, lendingToken, amountLendingToken,prj,prjAmount);\n    }\n\n    function repayBorrow(uint256 lendingTokenId, uint256 amountLendingToken, address prj,uint256 prjAmount) public {\n        require(lendingTokenId < lendingTokens.length, \"Primary Index Token: invalid lendingTokenId!\");\n        require(amountLendingToken > 0, \"Primary Index Token: amountLendingToken should be greated than zero!\");\n        address lendingToken = lendingTokens[lendingTokenId];\n        address bLendingToken = bTokensList[lendingToken];\n        uint256 projectTokenId = indexPrjToken[prj];\n\n        if(amountLendingToken == ((2 ** 256) - 1)){\n            //repay for all positions\n            (uint repayBorrowError, uint amountRepayed)  = IBLendingToken(bLendingToken).repayBorrowTo(_msgSender(), amountLendingToken);\n            require(repayBorrowError == 0,\"Primary Index Token: repayBorrowError not zero!\");\n            require(amountRepayed > 0,\"Primary Index Token: amount repayed should be greater than zero!\");\n            \n            for(uint256 prjId = 0; prjId < projectTokens.length;prjId++){\n                UserBorrowPosition storage borrowPosition = userBorrowPosition[_msgSender()][lendingTokenId][prjId];\n                borrowPosition.amountBorrowed = 0;\n                borrowPosition.amountPit = 0;\n            }\n            return;\n        }\n\n        UserBorrowPosition storage msgSenderBorrowPosition = userBorrowPosition[_msgSender()][lendingTokenId][projectTokenId];\n        uint256 borrowedPositions = 0;\n        uint256 cumulativeBorrowBalance = 0;\n        for(uint256 prjId = 0; prjId < projectTokens.length;prjId++){\n            UserBorrowPosition storage borrowPosition = userBorrowPosition[_msgSender()][lendingTokenId][prjId];\n            if(borrowPosition.amountBorrowed > 0){\n                cumulativeBorrowBalance += borrowPosition.amountBorrowed;\n                borrowedPositions++;\n            }\n        }\n        uint256 currentBorrowBalance = IBLendingToken(bLendingToken).borrowBalanceCurrent(_msgSender());\n        uint256 estimateInterest = (currentBorrowBalance - cumulativeBorrowBalance) / borrowedPositions;\n        if(amountLendingToken == ((2 ** 256) - 2)){\n            if(borrowedPositions == 1){\n                //if user has 1 position, than repay all.\n                (uint repayBorrowError, uint amountRepayed)  = IBLendingToken(bLendingToken).repayBorrowTo(_msgSender(), (2 ** 256) - 1);\n                require(repayBorrowError == 0,\"Primary Index Token: repayBorrowError not zero!\");\n                require(amountRepayed > 0,\"Primary Index Token: amount repayed should be greater than zero!\");\n                msgSenderBorrowPosition.amountBorrowed = 0;\n                msgSenderBorrowPosition.amountPit = 0;\n            }else{\n                //else repay only for one prj position\n                uint amountLendingTokenToRepay = msgSenderBorrowPosition.amountBorrowed + estimateInterest;\n                (uint repayBorrowError, uint amountRepayed)  = IBLendingToken(bLendingToken).repayBorrowTo(_msgSender(), amountLendingTokenToRepay);\n                require(repayBorrowError == 0,\"Primary Index Token: repayBorrowError not zero!\");\n                require(amountRepayed > 0,\"Primary Index Token: amount repayed should be greater than zero!\");\n                msgSenderBorrowPosition.amountBorrowed = 0;\n                msgSenderBorrowPosition.amountPit = 0;\n            }\n        }else{\n            require(amountLendingToken <= msgSenderBorrowPosition.amountBorrowed);\n            (uint repayBorrowError, uint amountRepayed)  = IBLendingToken(bLendingToken).repayBorrowTo(_msgSender(), amountLendingToken);\n            require(repayBorrowError == 0,\"Primary Index Token: repayBorrowError not zero!\");\n            require(amountRepayed > 0,\"Primary Index Token: amount repayed should be greater than zero!\");\n            \n            msgSenderBorrowPosition.amountBorrowed = msgSenderBorrowPosition.amountBorrowed - amountLendingToken + estimateInterest;\n            msgSenderBorrowPosition.amountPit = balanceOfPitPosition(_msgSender(),projectTokenId);\n            \n        }\n        \n        emit RepayBorrow(_msgSender(), lendingTokenId, lendingToken, amountLendingToken, prj, prjAmount);\n    }\n\n    \n    function liquidate(address user, uint lendingTokenId, uint prjId) public {\n        require(prjId < projectTokens.length, \"Primary Index Token: invalid lendingTokenId!\");\n        address lendingToken = lendingTokens[lendingTokenId];\n        address bLendingToken = bTokensList[lendingToken];\n        address projectToken = projectTokens[prjId];\n\n        UserBorrowPosition storage borrowPosition = userBorrowPosition[user][lendingTokenId][prjId];\n        if(borrowPosition.amountBorrowed == 0){\n            revert(\"Primary Index Token:  no position to liquidate.\");\n        }\n\n        borrowPosition.amountBorrowed = IBLendingToken(bLendingToken).borrowBalanceCurrent(user);\n        \n        (uint hf_numerator, uint hf_denominator) = healthFactorForPosition(user, lendingTokenId, prjId);\n\n        if (hf_numerator >= hf_denominator){\n            revert(\"Primary Index Token: health factor bigger than 1. Liquidation is forbidden by this condition.\");\n        }else{\n            UserPrjPosition storage prjPosition = userPrjPosition[user][prjId];\n            \n            //require(amountPrj <= prjPosition.amountPrjDeposited,\"Primary Index Token: amountPrj exeeded deposited balance\");\n            uint prjDeposited = prjPosition.amountPrjDeposited;\n            uint amoutLendingTokenToReceive = getPrjEvaluationInLendingTokenWithSale(lendingToken, projectToken, prjDeposited);\n            IERC20Upgradeable(lendingToken).safeTransferFrom(_msgSender(),address(this), amoutLendingTokenToReceive);\n            \n            IERC20Upgradeable(lendingToken).approve(bLendingToken,amoutLendingTokenToReceive);\n            (, uint256 mintedAmount) = IBLendingToken(bLendingToken).mintTo(address(this),amoutLendingTokenToReceive);\n            require(mintedAmount > 0,\"Primary Index Token: minted amount should be non zero!\");\n\n            IERC20Upgradeable(projectToken).safeTransfer(_msgSender(),prjDeposited);\n            prjPosition.amountPrjDeposited -= prjDeposited;\n            borrowPosition.amountBorrowed = 0;\n            borrowPosition.amountPit = 0;\n\n            emit Liquidate(_msgSender(),user,lendingTokenId,prjId,prjDeposited);\n        }\n\n    }\n\n    //************* VIEW FUNCTIONS ********************************\n\n    function healthFactor(address account,uint256 lendingTokenId) public view returns(uint256 numerator, uint256 denominator){\n        uint256 lt = liquidationThreshold(account);\n        uint256 borrowedLendingToken;\n        for(uint256 prjId = 0; prjId < projectTokens.length; prjId++){\n            borrowedLendingToken += userBorrowPosition[account][lendingTokenId][prjId].amountBorrowed;\n        }\n        return (lt, borrowedLendingToken);\n    }\n\n    function healthFactorForPosition(address account,uint256 lendingTokenId,uint prjId) public view returns(uint256 numerator, uint256 denominator){\n        uint256 lt = liquidationThresholdForPosition(account, prjId);\n        uint256 borrowedLendingToken = userBorrowPosition[account][lendingTokenId][prjId].amountBorrowed;\n        return (lt,borrowedLendingToken);\n    }\n\n    function getLiquidity(address account) public view returns(uint){\n        (,uint liquidity,) = comptroller.getAccountLiquidity(account);\n        return liquidity;\n    }\n\n    function getPrjEvaluationInBasicToken(address projectToken, uint256 amount) public view returns(uint256){\n        return uniswapPathFinder.getAssetValuation(basicToken, projectToken, amount);\n    }\n\n     function getPrjEvaluationInLendingTokenWithoutSale(address lendingToken, address projectToken, uint256 amountPrj) public view returns(uint256){ \n        uint amoutLendingTokenRaw = uniswapPathFinder.getAssetValuation(lendingToken, projectToken, amountPrj);\n        return amoutLendingTokenRaw;\n    }\n\n    function getPrjEvaluationInLendingTokenWithSale(address lendingToken, address projectToken, uint256 amountPrj) public view returns(uint256){ \n        PrjSaleInfo storage sale = prjSales[projectToken];\n        uint amoutLendingTokenRaw = uniswapPathFinder.getAssetValuation(lendingToken, projectToken, amountPrj);\n        uint amoutLendingTokenWithSale = amoutLendingTokenRaw * sale.numerator / sale.denominator;\n\n        return amoutLendingTokenWithSale;\n    }\n\n    function getCToken(address underlying) public view returns(address) {\n        return bTokensList[underlying];\n    }\n\n    function getDepositedPrjAmount(address account, uint256 prjId) public view returns(uint256){\n        return userPrjPosition[account][prjId].amountPrjDeposited;\n    }\n\n    function getBorrowPosition(address account, uint256 lendingTokenId, uint256 prjId) public view returns(uint256,uint256){\n        UserBorrowPosition storage borrowPosition = userBorrowPosition[account][lendingTokenId][prjId];\n        return (borrowPosition.amountBorrowed, borrowPosition.amountPit);\n    }\n\n    function liquidationThreshold(address account) public view returns(uint256){\n        uint256 lt;\n        for(uint256 prjId=0; prjId < projectTokens.length; prjId++){\n            lt += liquidationThresholdForPosition(account,prjId);\n        }\n        return lt;\n    }\n\n    function liquidationThresholdForPosition(address account, uint256 prjId) public view returns(uint256){\n        address tokenPrj = projectTokens[prjId];\n        uint8 ltfNumerator = ltf[tokenPrj].numerator;\n        uint8 ltfDenominator = ltf[tokenPrj].denominator;\n        uint256 pitCurrentBalance = balanceOfPitPosition(account,prjId);\n        return pitCurrentBalance * ltfNumerator / ltfDenominator;\n    }\n\n    /**\n     * @notice returns the amount of PIT of account in position `prjId`\n     */\n    function balanceOfPitPosition(address account, uint256 prjId) public view returns (uint256){\n        address tokenPrj = projectTokens[prjId];\n        uint8 lvrNumerator = lvr[tokenPrj].numerator;\n        uint8 lvrDenominator = lvr[tokenPrj].denominator;\n        uint256 prjInPosition = getDepositedPrjAmount(account, prjId);\n        (uint reserve1, uint256 reserve2) = getUniswapReserves(projectTokens[prjId]);\n        uint256 positionEvaluation = prjInPosition * reserve1 / reserve2;//uniswapPathFinder.getAssetValuation(basicToken, tokenPrj, prjInPosition);\n        return positionEvaluation * lvrNumerator / lvrDenominator;\n    }\n\n    /**\n     * @notice returns the amount of PIT of account\n     */\n    function balanceOfPit(address account) public view returns (uint256){\n        uint256 pitBalance;\n        for(uint256 prjId = 0; prjId < projectTokens.length; prjId++){\n            pitBalance += balanceOfPitPosition(account,prjId);\n        }\n        return pitBalance;\n    }\n\n    /**\n     * @notice return the pitBalance depending on input prj indexes\n     */\n    function balanceOfPitDependingOnPrj(address account, uint256[] memory prjIndexes) public view returns(uint256){\n        uint256 prjIndexesLength = prjIndexes.length;\n        require(prjIndexesLength <= projectTokens.length,\"Invalid length of prj Indexes\");\n        uint256 pitBalance;\n        for(uint256 i = 0; i < prjIndexesLength; i++){\n            pitBalance += balanceOfPitPosition(account,prjIndexes[i]);\n        }\n        return pitBalance;\n    }\n\n    function getUniswapReserves(address prj) public view returns(uint reserve1,uint reserve2){\n        address factory = uniswapPathFinder.uniswapFactory();\n        (reserve1, reserve2) = uniswapPathFinder.getReserves(factory, basicToken, prj);\n        return (reserve1, reserve2);\n    }\n\n    function totalSupplyPit() public view virtual returns (uint256) {\n        uint256 pitTotalSupply;\n        address tokenPrj;\n        uint8 lvrNumerator;\n        uint8 lvrDenominator;\n        uint256 basicTokenEvaluation;\n        uint256 totalStaked;\n        uint256 reserve1;\n        uint256 reserve2;\n        for(uint256 prjId=0; prjId < projectTokens.length; prjId++){\n            tokenPrj = projectTokens[prjId];\n            lvrNumerator = lvr[tokenPrj].numerator;\n            lvrDenominator = lvr[tokenPrj].denominator;\n            totalStaked = totalStakedPrj[tokenPrj];\n            (reserve1,reserve2) = getUniswapReserves(projectTokens[prjId]);\n            basicTokenEvaluation = totalStaked * reserve1 / reserve2;//uniswapPathFinder.getAssetValuation(basicToken, tokenPrj, totalStaked);\n            pitTotalSupply += basicTokenEvaluation * lvrNumerator / lvrDenominator;\n        }\n        return pitTotalSupply;\n    }\n\n    function projectTokensLength() public view returns(uint256){\n        return projectTokens.length;\n    }\n\n    function lendingTokensLength() public view returns(uint256){\n        return lendingTokens.length;\n    }\n\n    function decimals() public override view returns(uint8){\n        return EIP20Interface(basicToken).decimals();\n    }\n\n    //************* HELP FUNCTIONS ********************************\n\n    function _msgSender() internal override(ContextUpgradeable, ERC2771ContextUpgradeable) view returns (address) {\n        return ERC2771ContextUpgradeable._msgSender();\n    }\n\n    function _msgData() internal override(ContextUpgradeable, ERC2771ContextUpgradeable) view returns (bytes calldata) {\n        return ERC2771ContextUpgradeable._msgData();\n    }\n\n    //************* ERC20 FUNCTIONS ********************************\n\n   \n}",
  "sourcePath": "/Users/vchikhladze/DApps/DeFi/primaryIndexToken/contracts/PrimaryIndexToken.sol",
  "compiler": {
    "name": "solc",
    "version": "0.8.9+commit.e5eed63a.Emscripten.clang"
  },
  "schemaVersion": "3.4.3",
  "updatedAt": "2021-10-11T13:42:37.765Z",
  "networkType": "ethereum",
  "devdoc": {
    "kind": "dev",
    "methods": {
      "allowance(address,address)": {
        "details": "See {IERC20-allowance}."
      },
      "approve(address,uint256)": {
        "details": "See {IERC20-approve}. Requirements: - `spender` cannot be the zero address."
      },
      "balanceOf(address)": {
        "details": "See {IERC20-balanceOf}."
      },
      "decimals()": {
        "details": "Returns the number of decimals used to get its user representation. For example, if `decimals` equals `2`, a balance of `505` tokens should be displayed to a user as `5.05` (`505 / 10 ** 2`). Tokens usually opt for a value of 18, imitating the relationship between Ether and Wei. This is the value {ERC20} uses, unless this function is overridden; NOTE: This information is only used for _display_ purposes: it in no way affects any of the arithmetic of the contract, including {IERC20-balanceOf} and {IERC20-transfer}."
      },
      "decreaseAllowance(address,uint256)": {
        "details": "Atomically decreases the allowance granted to `spender` by the caller. This is an alternative to {approve} that can be used as a mitigation for problems described in {IERC20-approve}. Emits an {Approval} event indicating the updated allowance. Requirements: - `spender` cannot be the zero address. - `spender` must have allowance for the caller of at least `subtractedValue`."
      },
      "getRoleAdmin(bytes32)": {
        "details": "Returns the admin role that controls `role`. See {grantRole} and {revokeRole}. To change a role's admin, use {_setRoleAdmin}."
      },
      "grantRole(bytes32,address)": {
        "details": "Grants `role` to `account`. If `account` had not been already granted `role`, emits a {RoleGranted} event. Requirements: - the caller must have ``role``'s admin role."
      },
      "hasRole(bytes32,address)": {
        "details": "Returns `true` if `account` has been granted `role`."
      },
      "increaseAllowance(address,uint256)": {
        "details": "Atomically increases the allowance granted to `spender` by the caller. This is an alternative to {approve} that can be used as a mitigation for problems described in {IERC20-approve}. Emits an {Approval} event indicating the updated allowance. Requirements: - `spender` cannot be the zero address."
      },
      "name()": {
        "details": "Returns the name of the token."
      },
      "paused()": {
        "details": "Returns true if the contract is paused, and false otherwise."
      },
      "renounceRole(bytes32,address)": {
        "details": "Revokes `role` from the calling account. Roles are often managed via {grantRole} and {revokeRole}: this function's purpose is to provide a mechanism for accounts to lose their privileges if they are compromised (such as when a trusted device is misplaced). If the calling account had been granted `role`, emits a {RoleRevoked} event. Requirements: - the caller must be `account`."
      },
      "revokeRole(bytes32,address)": {
        "details": "Revokes `role` from `account`. If `account` had been granted `role`, emits a {RoleRevoked} event. Requirements: - the caller must have ``role``'s admin role."
      },
      "supportsInterface(bytes4)": {
        "details": "See {IERC165-supportsInterface}."
      },
      "symbol()": {
        "details": "Returns the symbol of the token, usually a shorter version of the name."
      },
      "totalSupply()": {
        "details": "See {IERC20-totalSupply}."
      },
      "transfer(address,uint256)": {
        "details": "See {IERC20-transfer}. Requirements: - `recipient` cannot be the zero address. - the caller must have a balance of at least `amount`."
      },
      "transferFrom(address,address,uint256)": {
        "details": "See {IERC20-transferFrom}. Emits an {Approval} event indicating the updated allowance. This is not required by the EIP. See the note at the beginning of {ERC20}. Requirements: - `sender` and `recipient` cannot be the zero address. - `sender` must have a balance of at least `amount`. - the caller must have allowance for ``sender``'s tokens of at least `amount`."
      }
    },
    "version": 1
  },
  "userdoc": {
    "kind": "user",
    "methods": {
      "balanceOfPit(address)": {
        "notice": "returns the amount of PIT of account"
      },
      "balanceOfPitDependingOnPrj(address,uint256[])": {
        "notice": "return the pitBalance depending on input prj indexes"
      },
      "balanceOfPitPosition(address,uint256)": {
        "notice": "returns the amount of PIT of account in position `prjId`"
      }
    },
    "version": 1
  }
}