{
  "contractName": "SimplePriceOracle",
  "abi": [
    {
      "anonymous": false,
      "inputs": [
        {
          "indexed": false,
          "internalType": "address",
          "name": "asset",
          "type": "address"
        },
        {
          "indexed": false,
          "internalType": "uint256",
          "name": "previousPriceMantissa",
          "type": "uint256"
        },
        {
          "indexed": false,
          "internalType": "uint256",
          "name": "requestedPriceMantissa",
          "type": "uint256"
        },
        {
          "indexed": false,
          "internalType": "uint256",
          "name": "newPriceMantissa",
          "type": "uint256"
        }
      ],
      "name": "PricePosted",
      "type": "event"
    },
    {
      "inputs": [],
      "name": "isPriceOracle",
      "outputs": [
        {
          "internalType": "bool",
          "name": "",
          "type": "bool"
        }
      ],
      "stateMutability": "view",
      "type": "function"
    },
    {
      "inputs": [
        {
          "internalType": "contract CToken",
          "name": "cToken",
          "type": "address"
        }
      ],
      "name": "getUnderlyingPrice",
      "outputs": [
        {
          "internalType": "uint256",
          "name": "",
          "type": "uint256"
        }
      ],
      "stateMutability": "view",
      "type": "function"
    },
    {
      "inputs": [
        {
          "internalType": "contract CToken",
          "name": "cToken",
          "type": "address"
        },
        {
          "internalType": "uint256",
          "name": "underlyingPriceMantissa",
          "type": "uint256"
        }
      ],
      "name": "setUnderlyingPrice",
      "outputs": [],
      "stateMutability": "nonpayable",
      "type": "function"
    },
    {
      "inputs": [
        {
          "internalType": "address",
          "name": "asset",
          "type": "address"
        },
        {
          "internalType": "uint256",
          "name": "price",
          "type": "uint256"
        }
      ],
      "name": "setDirectPrice",
      "outputs": [],
      "stateMutability": "nonpayable",
      "type": "function"
    },
    {
      "inputs": [
        {
          "internalType": "address",
          "name": "asset",
          "type": "address"
        }
      ],
      "name": "assetPrices",
      "outputs": [
        {
          "internalType": "uint256",
          "name": "",
          "type": "uint256"
        }
      ],
      "stateMutability": "view",
      "type": "function"
    }
  ],
  "bytecode": "0x608060405234801561001057600080fd5b506105b9806100206000396000f3fe608060405234801561001057600080fd5b50600436106100575760003560e01c806309a8acb01461005c578063127ffda0146100715780635e9a523c1461008457806366331bba146100c0578063fc57d4df146100d8575b600080fd5b61006f61006a366004610430565b6100eb565b005b61006f61007f366004610430565b610164565b6100ad6100923660046103ef565b6001600160a01b031660009081526020819052604090205490565b6040519081526020015b60405180910390f35b6100c8600181565b60405190151581526020016100b7565b6100ad6100e63660046103ef565b610252565b6001600160a01b03821660008181526020818152604091829020548251938452908301528101829052606081018290527fdd71a1d19fcba687442a1d5c58578f1e409af71a79d10fd95a4d66efd8fa9ae79060800160405180910390a16001600160a01b03909116600090815260208190526040902055565b6000826001600160a01b0316636f307dc36040518163ffffffff1660e01b815260040160206040518083038186803b15801561019f57600080fd5b505afa1580156101b3573d6000803e3d6000fd5b505050506040513d601f19601f820116820180604052508101906101d79190610413565b6001600160a01b03811660008181526020818152604091829020548251938452908301528101849052606081018490529091507fdd71a1d19fcba687442a1d5c58578f1e409af71a79d10fd95a4d66efd8fa9ae79060800160405180910390a16001600160a01b031660009081526020819052604090205550565b60006102ee826001600160a01b03166395d89b416040518163ffffffff1660e01b815260040160006040518083038186803b15801561029057600080fd5b505afa1580156102a4573d6000803e3d6000fd5b505050506040513d6000823e601f3d908101601f191682016040526102cc919081019061045c565b604051806040016040528060048152602001630c68aa8960e31b815250610396565b156103025750670de0b6b3a7640000919050565b600080836001600160a01b0316636f307dc36040518163ffffffff1660e01b815260040160206040518083038186803b15801561033e57600080fd5b505afa158015610352573d6000803e3d6000fd5b505050506040513d601f19601f820116820180604052508101906103769190610413565b6001600160a01b0316815260208101919091526040016000205492915050565b6000816040516020016103a99190610509565b60405160208183030381529060405280519060200120836040516020016103d09190610509565b6040516020818303038152906040528051906020012014905092915050565b60006020828403121561040157600080fd5b813561040c8161056b565b9392505050565b60006020828403121561042557600080fd5b815161040c8161056b565b6000806040838503121561044357600080fd5b823561044e8161056b565b946020939093013593505050565b60006020828403121561046e57600080fd5b815167ffffffffffffffff8082111561048657600080fd5b818401915084601f83011261049a57600080fd5b8151818111156104ac576104ac610555565b604051601f8201601f19908116603f011681019083821181831017156104d4576104d4610555565b816040528281528760208487010111156104ed57600080fd5b6104fe836020830160208801610525565b979650505050505050565b6000825161051b818460208701610525565b9190910192915050565b60005b83811015610540578181015183820152602001610528565b8381111561054f576000848401525b50505050565b634e487b7160e01b600052604160045260246000fd5b6001600160a01b038116811461058057600080fd5b5056fea2646970667358221220c06e18bb81a9d1418d8efd8879db1501f6452a320dc903b141eb42cbbe240d9664736f6c63430008070033",
  "immutableReferences": {},
  "source": "// SPDX-License-Identifier: MIT\npragma solidity >=0.8.0;\n\n\nimport \"./PriceOracle.sol\";\nimport \"../cToken/CErc20.sol\";\n\ncontract SimplePriceOracle is PriceOracle {\n    mapping(address => uint) prices;\n    event PricePosted(address asset, uint previousPriceMantissa, uint requestedPriceMantissa, uint newPriceMantissa);\n\n    function getUnderlyingPrice(CToken cToken) public override view returns (uint) {\n        if (compareStrings(cToken.symbol(), \"cETH\")) {\n            return 1e18;\n        } else {\n            return prices[address(CErc20(address(cToken)).underlying())];\n        }\n    }\n\n    function setUnderlyingPrice(CToken cToken, uint underlyingPriceMantissa) public {\n        address asset = address(CErc20(address(cToken)).underlying());\n        emit PricePosted(asset, prices[asset], underlyingPriceMantissa, underlyingPriceMantissa);\n        prices[asset] = underlyingPriceMantissa;\n    }\n\n    function setDirectPrice(address asset, uint price) public {\n        emit PricePosted(asset, prices[asset], price, price);\n        prices[asset] = price;\n    }\n\n    // v1 price oracle interface for use as backing of proxy\n    function assetPrices(address asset) external view returns (uint) {\n        return prices[asset];\n    }\n\n    function compareStrings(string memory a, string memory b) internal pure returns (bool) {\n        return (keccak256(abi.encodePacked((a))) == keccak256(abi.encodePacked((b))));\n    }\n}\n",
  "sourcePath": "/Users/vchikhladze/DApps/DeFi/primaryIndexToken/contracts/priceOracle/SimplePriceOracle.sol",
  "compiler": {
    "name": "solc",
    "version": "0.8.7+commit.e28d00a7.Emscripten.clang"
  },
  "schemaVersion": "3.4.1",
  "updatedAt": "2021-09-13T06:45:31.562Z",
  "devdoc": {
    "kind": "dev",
    "methods": {
      "getUnderlyingPrice(address)": {
        "params": {
          "cToken": "The cToken to get the underlying price of"
        },
        "returns": {
          "_0": "The underlying asset price mantissa (scaled by 1e18).  Zero means the price is unavailable."
        }
      }
    },
    "version": 1
  },
  "userdoc": {
    "kind": "user",
    "methods": {
      "getUnderlyingPrice(address)": {
        "notice": "Get the underlying price of a cToken asset"
      },
      "isPriceOracle()": {
        "notice": "Indicator that this is a PriceOracle contract (for inspection)"
      }
    },
    "version": 1
  }
}