{
  "contractName": "SimplePriceOracle",
  "abi": [
    {
      "anonymous": false,
      "inputs": [
        {
          "indexed": true,
          "internalType": "address",
          "name": "previousOwner",
          "type": "address"
        },
        {
          "indexed": true,
          "internalType": "address",
          "name": "newOwner",
          "type": "address"
        }
      ],
      "name": "OwnershipTransferred",
      "type": "event"
    },
    {
      "anonymous": false,
      "inputs": [
        {
          "indexed": false,
          "internalType": "address",
          "name": "asset",
          "type": "address"
        },
        {
          "indexed": false,
          "internalType": "uint256",
          "name": "previousPriceMantissa",
          "type": "uint256"
        },
        {
          "indexed": false,
          "internalType": "uint256",
          "name": "requestedPriceMantissa",
          "type": "uint256"
        },
        {
          "indexed": false,
          "internalType": "uint256",
          "name": "newPriceMantissa",
          "type": "uint256"
        }
      ],
      "name": "PricePosted",
      "type": "event"
    },
    {
      "inputs": [],
      "name": "isPriceOracle",
      "outputs": [
        {
          "internalType": "bool",
          "name": "",
          "type": "bool"
        }
      ],
      "stateMutability": "view",
      "type": "function"
    },
    {
      "inputs": [],
      "name": "owner",
      "outputs": [
        {
          "internalType": "address",
          "name": "",
          "type": "address"
        }
      ],
      "stateMutability": "view",
      "type": "function"
    },
    {
      "inputs": [],
      "name": "renounceOwnership",
      "outputs": [],
      "stateMutability": "nonpayable",
      "type": "function"
    },
    {
      "inputs": [
        {
          "internalType": "address",
          "name": "newOwner",
          "type": "address"
        }
      ],
      "name": "transferOwnership",
      "outputs": [],
      "stateMutability": "nonpayable",
      "type": "function"
    },
    {
      "inputs": [],
      "name": "init",
      "outputs": [],
      "stateMutability": "nonpayable",
      "type": "function"
    },
    {
      "inputs": [
        {
          "internalType": "contract BToken",
          "name": "bToken",
          "type": "address"
        }
      ],
      "name": "getUnderlyingPrice",
      "outputs": [
        {
          "internalType": "uint256",
          "name": "",
          "type": "uint256"
        }
      ],
      "stateMutability": "view",
      "type": "function"
    },
    {
      "inputs": [
        {
          "internalType": "contract BToken",
          "name": "bToken",
          "type": "address"
        },
        {
          "internalType": "uint256",
          "name": "underlyingPriceMantissa",
          "type": "uint256"
        }
      ],
      "name": "setUnderlyingPrice",
      "outputs": [],
      "stateMutability": "nonpayable",
      "type": "function"
    },
    {
      "inputs": [
        {
          "internalType": "address",
          "name": "asset",
          "type": "address"
        },
        {
          "internalType": "uint256",
          "name": "price",
          "type": "uint256"
        }
      ],
      "name": "setDirectPrice",
      "outputs": [],
      "stateMutability": "nonpayable",
      "type": "function"
    },
    {
      "inputs": [
        {
          "internalType": "address",
          "name": "asset",
          "type": "address"
        }
      ],
      "name": "assetPrices",
      "outputs": [
        {
          "internalType": "uint256",
          "name": "",
          "type": "uint256"
        }
      ],
      "stateMutability": "view",
      "type": "function"
    }
  ],
  "bytecode": "0x608060405234801561001057600080fd5b50610a6e806100206000396000f3fe608060405234801561001057600080fd5b50600436106100935760003560e01c8063715018a611610066578063715018a6146101145780638da5cb5b1461011c578063e1c7392a14610137578063f2fde38b1461013f578063fc57d4df1461015257600080fd5b806309a8acb014610098578063127ffda0146100ad5780635e9a523c146100c057806366331bba146100fc575b600080fd5b6100ab6100a636600461086e565b610165565b005b6100ab6100bb36600461086e565b61023f565b6100e96100ce36600461089a565b6001600160a01b031660009081526065602052604090205490565b6040519081526020015b60405180910390f35b610104600181565b60405190151581526020016100f3565b6100ab610389565b6033546040516001600160a01b0390911681526020016100f3565b6100ab6103ef565b6100ab61014d36600461089a565b610463565b6100e961016036600461089a565b61052b565b6033546001600160a01b031633146101c45760405162461bcd60e51b815260206004820181905260248201527f4f776e61626c653a2063616c6c6572206973206e6f7420746865206f776e657260448201526064015b60405180910390fd5b6001600160a01b038216600081815260656020908152604091829020548251938452908301528101829052606081018290527fdd71a1d19fcba687442a1d5c58578f1e409af71a79d10fd95a4d66efd8fa9ae79060800160405180910390a16001600160a01b03909116600090815260656020526040902055565b6033546001600160a01b031633146102995760405162461bcd60e51b815260206004820181905260248201527f4f776e61626c653a2063616c6c6572206973206e6f7420746865206f776e657260448201526064016101bb565b6000826001600160a01b0316636f307dc36040518163ffffffff1660e01b815260040160206040518083038186803b1580156102d457600080fd5b505afa1580156102e8573d6000803e3d6000fd5b505050506040513d601f19601f8201168201806040525081019061030c91906108be565b6001600160a01b038116600081815260656020908152604091829020548251938452908301528101849052606081018490529091507fdd71a1d19fcba687442a1d5c58578f1e409af71a79d10fd95a4d66efd8fa9ae79060800160405180910390a16001600160a01b031660009081526065602052604090205550565b6033546001600160a01b031633146103e35760405162461bcd60e51b815260206004820181905260248201527f4f776e61626c653a2063616c6c6572206973206e6f7420746865206f776e657260448201526064016101bb565b6103ed6000610670565b565b600054610100900460ff1680610408575060005460ff16155b6104245760405162461bcd60e51b81526004016101bb906108db565b600054610100900460ff16158015610446576000805461ffff19166101011790555b61044e6106cf565b8015610460576000805461ff00191690555b50565b6033546001600160a01b031633146104bd5760405162461bcd60e51b815260206004820181905260248201527f4f776e61626c653a2063616c6c6572206973206e6f7420746865206f776e657260448201526064016101bb565b6001600160a01b0381166105225760405162461bcd60e51b815260206004820152602660248201527f4f776e61626c653a206e6577206f776e657220697320746865207a65726f206160448201526564647265737360d01b60648201526084016101bb565b61046081610670565b60006105c7826001600160a01b03166395d89b416040518163ffffffff1660e01b815260040160006040518083038186803b15801561056957600080fd5b505afa15801561057d573d6000803e3d6000fd5b505050506040513d6000823e601f3d908101601f191682016040526105a5919081019061096f565b604051806040016040528060048152602001630c48aa8960e31b815250610736565b156105db5750670de0b6b3a7640000919050565b60656000836001600160a01b0316636f307dc36040518163ffffffff1660e01b815260040160206040518083038186803b15801561061857600080fd5b505afa15801561062c573d6000803e3d6000fd5b505050506040513d601f19601f8201168201806040525081019061065091906108be565b6001600160a01b0316815260208101919091526040016000205492915050565b603380546001600160a01b0383811673ffffffffffffffffffffffffffffffffffffffff19831681179093556040519116919082907f8be0079c531659141344cd1fd0a4f28419497f9722a3daafe3b4186f6b6457e090600090a35050565b600054610100900460ff16806106e8575060005460ff16155b6107045760405162461bcd60e51b81526004016101bb906108db565b600054610100900460ff16158015610726576000805461ffff19166101011790555b61072e61078f565b61044e6107f9565b6000816040516020016107499190610a1c565b60405160208183030381529060405280519060200120836040516020016107709190610a1c565b6040516020818303038152906040528051906020012014905092915050565b600054610100900460ff16806107a8575060005460ff16155b6107c45760405162461bcd60e51b81526004016101bb906108db565b600054610100900460ff1615801561044e576000805461ffff19166101011790558015610460576000805461ff001916905550565b600054610100900460ff1680610812575060005460ff16155b61082e5760405162461bcd60e51b81526004016101bb906108db565b600054610100900460ff16158015610850576000805461ffff19166101011790555b61044e33610670565b6001600160a01b038116811461046057600080fd5b6000806040838503121561088157600080fd5b823561088c81610859565b946020939093013593505050565b6000602082840312156108ac57600080fd5b81356108b781610859565b9392505050565b6000602082840312156108d057600080fd5b81516108b781610859565b6020808252602e908201527f496e697469616c697a61626c653a20636f6e747261637420697320616c72656160408201526d191e481a5b9a5d1a585b1a5e995960921b606082015260800190565b634e487b7160e01b600052604160045260246000fd5b60005b8381101561095a578181015183820152602001610942565b83811115610969576000848401525b50505050565b60006020828403121561098157600080fd5b815167ffffffffffffffff8082111561099957600080fd5b818401915084601f8301126109ad57600080fd5b8151818111156109bf576109bf610929565b604051601f8201601f19908116603f011681019083821181831017156109e7576109e7610929565b81604052828152876020848701011115610a0057600080fd5b610a1183602083016020880161093f565b979650505050505050565b60008251610a2e81846020870161093f565b919091019291505056fea264697066735822122033549b38d20d2f00d420be5b4ebc0faa8edf84c8a117137ed9841818e42f5a8864736f6c63430008090033",
  "immutableReferences": {},
  "source": "// SPDX-License-Identifier: MIT\npragma solidity >=0.8.0;\n\n\nimport \"./PriceOracle.sol\";\nimport \"../bToken/BErc20.sol\";\nimport \"../../openzeppelin/contracts-upgradeable/proxy/utils/Initializable.sol\";\nimport \"../../openzeppelin/contracts-upgradeable/access/OwnableUpgradeable.sol\";\n\n\ncontract SimplePriceOracle is Initializable, OwnableUpgradeable, PriceOracle {\n    mapping(address => uint) prices;\n    event PricePosted(address asset, uint previousPriceMantissa, uint requestedPriceMantissa, uint newPriceMantissa);\n\n    function init() public initializer{\n        __Ownable_init();\n    }\n\n    function getUnderlyingPrice(BToken bToken) public override view returns (uint) {\n        if (compareStrings(bToken.symbol(), \"bETH\")) {\n            return 1e18;\n        } else {\n            return prices[address(BErc20(address(bToken)).underlying())];\n        }\n    }\n\n    function setUnderlyingPrice(BToken bToken, uint underlyingPriceMantissa) public onlyOwner {\n        address asset = address(BErc20(address(bToken)).underlying());\n        emit PricePosted(asset, prices[asset], underlyingPriceMantissa, underlyingPriceMantissa);\n        prices[asset] = underlyingPriceMantissa;\n    }\n\n    function setDirectPrice(address asset, uint price) public onlyOwner {\n        emit PricePosted(asset, prices[asset], price, price);\n        prices[asset] = price;\n    }\n\n    // v1 price oracle interface for use as backing of proxy\n    function assetPrices(address asset) external view returns (uint) {\n        return prices[asset];\n    }\n\n    function compareStrings(string memory a, string memory b) internal pure returns (bool) {\n        return (keccak256(abi.encodePacked((a))) == keccak256(abi.encodePacked((b))));\n    }\n}\n",
  "sourcePath": "/Users/sergeymurzin/PROJECTS/VAREGER/primary-smart-contracts/contracts/priceOracle/SimplePriceOracle.sol",
  "compiler": {
    "name": "solc",
    "version": "0.8.9+commit.e5eed63a.Emscripten.clang"
  },
  "schemaVersion": "3.4.1",
  "updatedAt": "2021-10-21T12:04:19.529Z",
  "devdoc": {
    "kind": "dev",
    "methods": {
      "getUnderlyingPrice(address)": {
        "params": {
          "bToken": "The cToken to get the underlying price of"
        },
        "returns": {
          "_0": "The underlying asset price mantissa (scaled by 1e18).  Zero means the price is unavailable."
        }
      },
      "owner()": {
        "details": "Returns the address of the current owner."
      },
      "renounceOwnership()": {
        "details": "Leaves the contract without owner. It will not be possible to call `onlyOwner` functions anymore. Can only be called by the current owner. NOTE: Renouncing ownership will leave the contract without an owner, thereby removing any functionality that is only available to the owner."
      },
      "transferOwnership(address)": {
        "details": "Transfers ownership of the contract to a new account (`newOwner`). Can only be called by the current owner."
      }
    },
    "version": 1
  },
  "userdoc": {
    "kind": "user",
    "methods": {
      "getUnderlyingPrice(address)": {
        "notice": "Get the underlying price of a cToken asset"
      },
      "isPriceOracle()": {
        "notice": "Indicator that this is a PriceOracle contract (for inspection)"
      }
    },
    "version": 1
  }
}