{
  "contractName": "UniswapPathFinder",
  "abi": [
    {
      "inputs": [
        {
          "internalType": "address",
          "name": "_router",
          "type": "address"
        }
      ],
      "name": "initialize",
      "outputs": [],
      "stateMutability": "nonpayable",
      "type": "function"
    },
    {
      "inputs": [
        {
          "internalType": "address",
          "name": "fromToken",
          "type": "address"
        },
        {
          "internalType": "address",
          "name": "toToken",
          "type": "address"
        }
      ],
      "name": "findPath",
      "outputs": [
        {
          "internalType": "address[]",
          "name": "path",
          "type": "address[]"
        }
      ],
      "stateMutability": "view",
      "type": "function"
    },
    {
      "inputs": [
        {
          "internalType": "address",
          "name": "fromToken",
          "type": "address"
        },
        {
          "internalType": "address",
          "name": "toToken",
          "type": "address"
        },
        {
          "internalType": "uint256",
          "name": "fromTokenAmt",
          "type": "uint256"
        }
      ],
      "name": "evaluate",
      "outputs": [
        {
          "internalType": "uint256",
          "name": "",
          "type": "uint256"
        },
        {
          "internalType": "address[]",
          "name": "",
          "type": "address[]"
        }
      ],
      "stateMutability": "view",
      "type": "function"
    },
    {
      "inputs": [
        {
          "internalType": "address",
          "name": "basicToken",
          "type": "address"
        },
        {
          "internalType": "address",
          "name": "assetToken",
          "type": "address"
        },
        {
          "internalType": "uint256",
          "name": "assetAmount",
          "type": "uint256"
        }
      ],
      "name": "getAssetValuation",
      "outputs": [
        {
          "internalType": "uint256",
          "name": "valuation",
          "type": "uint256"
        }
      ],
      "stateMutability": "view",
      "type": "function"
    },
    {
      "inputs": [
        {
          "internalType": "address",
          "name": "assetToken",
          "type": "address"
        },
        {
          "internalType": "uint256",
          "name": "assetTokenAmt",
          "type": "uint256"
        }
      ],
      "name": "getAssetUSDValuation",
      "outputs": [
        {
          "internalType": "uint256",
          "name": "assetTokenOut",
          "type": "uint256"
        }
      ],
      "stateMutability": "view",
      "type": "function"
    },
    {
      "inputs": [],
      "name": "uniswapRouter",
      "outputs": [
        {
          "internalType": "address",
          "name": "",
          "type": "address"
        }
      ],
      "stateMutability": "view",
      "type": "function"
    },
    {
      "inputs": [],
      "name": "uniswapFactory",
      "outputs": [
        {
          "internalType": "address",
          "name": "",
          "type": "address"
        }
      ],
      "stateMutability": "view",
      "type": "function"
    },
    {
      "inputs": [
        {
          "internalType": "address",
          "name": "factory",
          "type": "address"
        },
        {
          "internalType": "address",
          "name": "tokenA",
          "type": "address"
        },
        {
          "internalType": "address",
          "name": "tokenB",
          "type": "address"
        }
      ],
      "name": "getReserves",
      "outputs": [
        {
          "internalType": "uint256",
          "name": "reserveA",
          "type": "uint256"
        },
        {
          "internalType": "uint256",
          "name": "reserveB",
          "type": "uint256"
        }
      ],
      "stateMutability": "view",
      "type": "function"
    },
    {
      "inputs": [
        {
          "internalType": "address",
          "name": "tokenA",
          "type": "address"
        },
        {
          "internalType": "address",
          "name": "tokenB",
          "type": "address"
        }
      ],
      "name": "getUniswapPoolReserves",
      "outputs": [
        {
          "internalType": "uint256",
          "name": "reserveA",
          "type": "uint256"
        },
        {
          "internalType": "uint256",
          "name": "reserveB",
          "type": "uint256"
        }
      ],
      "stateMutability": "view",
      "type": "function"
    },
    {
      "inputs": [
        {
          "internalType": "address",
          "name": "basicToken",
          "type": "address"
        },
        {
          "internalType": "address",
          "name": "prj",
          "type": "address"
        }
      ],
      "name": "getPrice",
      "outputs": [
        {
          "internalType": "uint256",
          "name": "priceOfPrjScaledBy10pow18",
          "type": "uint256"
        }
      ],
      "stateMutability": "view",
      "type": "function"
    }
  ],
  "bytecode": "0x608060405234801561001057600080fd5b5061165e806100206000396000f3fe608060405234801561001057600080fd5b506004361061009e5760003560e01c8063a1c421cd11610066578063a1c421cd14610131578063ac41865a14610151578063c4d66de814610164578063dac9318f14610179578063df22dbeb1461019a57600080fd5b806332749461146100a35780636c3cac38146100d05780636e4e35f1146100f1578063735de9f7146101045780638bdb2afa14610129575b600080fd5b6100b66100b1366004611249565b6101ad565b604080519283526020830191909152015b60405180910390f35b6100e36100de366004611294565b6102a0565b6040519081526020016100c7565b6100b66100ff3660046112c0565b6102e6565b6002546001600160a01b03165b6040516001600160a01b0390911681526020016100c7565b610111610306565b61014461013f3660046112c0565b61038f565b6040516100c7919061133d565b6100e361015f3660046112c0565b6103a6565b610177610172366004611350565b6104fe565b005b61018c61018736600461136d565b61067e565b6040516100c79291906113ae565b6100e36101a836600461136d565b61069a565b60008060006101bc85856106b0565b50905060006101cc8787876107a8565b9050803b6101e05760009350839250610296565b600080826001600160a01b0316630902f1ac6040518163ffffffff1660e01b815260040160606040518083038186803b15801561021c57600080fd5b505afa158015610230573d6000803e3d6000fd5b505050506040513d601f19601f8201168201806040525081019061025491906113e3565b506001600160701b031691506001600160701b03169150836001600160a01b0316886001600160a01b03161461028b57808261028e565b81815b909650945050505b5050935093915050565b600073a0b86991c6218b36c1d19d4a2e9eb0ce3606eb486001600160a01b0384168114156102d0578291506102df565b6102db848285610881565b5091505b5092915050565b6000806102fb6102f4610306565b85856101ad565b909590945092505050565b600061031a6002546001600160a01b031690565b6001600160a01b031663c45a01556040518163ffffffff1660e01b815260040160206040518083038186803b15801561035257600080fd5b505afa158015610366573d6000803e3d6000fd5b505050506040513d601f19601f8201168201806040525081019061038a9190611428565b905090565b606061039e83836103e8610881565b949350505050565b60008060006103bd6103b6610306565b86866101ad565b915091506000856001600160a01b031663313ce5676040518163ffffffff1660e01b815260040160206040518083038186803b1580156103fc57600080fd5b505afa158015610410573d6000803e3d6000fd5b505050506040513d601f19601f820116820180604052508101906104349190611445565b90506000856001600160a01b031663313ce5676040518163ffffffff1660e01b815260040160206040518083038186803b15801561047157600080fd5b505afa158015610485573d6000803e3d6000fd5b505050506040513d601f19601f820116820180604052508101906104a99190611445565b90506104b681600a611562565b6104c09084611571565b6104cb83600a611562565b6104d59086611571565b6104e790670de0b6b3a7640000611571565b6104f19190611590565b9450505050505b92915050565b600054610100900460ff1680610517575060005460ff16155b61057f5760405162461bcd60e51b815260206004820152602e60248201527f496e697469616c697a61626c653a20636f6e747261637420697320616c72656160448201526d191e481a5b9a5d1a585b1a5e995960921b60648201526084015b60405180910390fd5b600054610100900460ff161580156105a1576000805461ffff19166101011790555b60018054808201825560008290527fb10e2d527612073b26eecdfd717e6a320cf44b4afac2b0732d9fcbe2b7fa0cf6908101805473ffffffffffffffffffffffffffffffffffffffff1990811673c02aaa39b223fe8d0a0e5c4f27ead9083c756cc2179091558254808401845582018054821673dac17f958d2ee523a2206206994597c13d831ec7179055825480840190935591018054821673a0b86991c6218b36c1d19d4a2e9eb0ce3606eb48179055600280546001600160a01b0385169216919091179055801561067a576000805461ff00191690555b5050565b6000606061068d858585610881565b915091505b935093915050565b60006106a7838584610881565b50949350505050565b600080826001600160a01b0316846001600160a01b031614156107235760405162461bcd60e51b815260206004820152602560248201527f556e697377617056324c6962726172793a204944454e544943414c5f41444452604482015264455353455360d81b6064820152608401610576565b826001600160a01b0316846001600160a01b031610610743578284610746565b83835b90925090506001600160a01b0382166107a15760405162461bcd60e51b815260206004820152601e60248201527f556e697377617056324c6962726172793a205a45524f5f4144445245535300006044820152606401610576565b9250929050565b60008060006107b785856106b0565b6040516bffffffffffffffffffffffff19606084811b8216602084015283901b166034820152919350915086906048016040516020818303038152906040528051906020012060405160200161085f9291906001600160f81b0319815260609290921b6bffffffffffffffffffffffff1916600183015260158201527f96e8ac4277198ff8b6f785478aa9a39f403cb768dd02cbee326c3e7da348845f603582015260550190565b60408051601f1981840301815291905280516020909101209695505050505050565b60006060836001600160a01b0316856001600160a01b031614156108b75750506040805160008152602081019091528190610692565b60408051600280825260608201835260009260208301908036833701905050905085816000815181106108ec576108ec6115c8565b60200260200101906001600160a01b031690816001600160a01b0316815250508481600181518110610920576109206115c8565b60200260200101906001600160a01b031690816001600160a01b031681525050600061095461094d610306565b8684611015565b600181518110610966576109666115c8565b602002602001015190506000600367ffffffffffffffff81111561098c5761098c6115b2565b6040519080825280602002602001820160405280156109b5578160200160208202803683370190505b50905087816000815181106109cc576109cc6115c8565b60200260200101906001600160a01b031690816001600160a01b0316815250508681600281518110610a0057610a006115c8565b60200260200101906001600160a01b031690816001600160a01b03168152505060005b600154811015610bdd5760018181548110610a4057610a406115c8565b6000918252602090912001546001600160a01b038a8116911614801590610a91575060018181548110610a7557610a756115c8565b6000918252602090912001546001600160a01b03898116911614155b15610bcb5760018181548110610aa957610aa96115c8565b9060005260206000200160009054906101000a90046001600160a01b031682600181518110610ada57610ada6115c8565b60200260200101906001600160a01b031690816001600160a01b0316815250506000610b0e610b07610306565b8985611015565b60018451610b1c91906115de565b81518110610b2c57610b2c6115c8565b6020026020010151905083811115610bc957604080516003808252608082019092529194508491906020820160608036833701905050945060018281548110610b7757610b776115c8565b9060005260206000200160009054906101000a90046001600160a01b031685600181518110610ba857610ba86115c8565b60200260200101906001600160a01b031690816001600160a01b0316815250505b505b80610bd5816115f5565b915050610a23565b5082516003148015610bef5750600082115b15610f9c5760408051600480825260a0820190925290602082016080803683370190505090508781600081518110610c2957610c296115c8565b60200260200101906001600160a01b031690816001600160a01b0316815250508681600381518110610c5d57610c5d6115c8565b60200260200101906001600160a01b031690816001600160a01b03168152505060005b600154811015610f9a5760005b600154811015610f8757808214158015610cd1575060018281548110610cb557610cb56115c8565b6000918252602090912001546001600160a01b038b8116911614155b8015610d07575060018281548110610ceb57610ceb6115c8565b6000918252602090912001546001600160a01b038a8116911614155b8015610d3d575060018181548110610d2157610d216115c8565b6000918252602090912001546001600160a01b038b8116911614155b8015610d73575060018181548110610d5757610d576115c8565b6000918252602090912001546001600160a01b038a8116911614155b15610f755760018281548110610d8b57610d8b6115c8565b9060005260206000200160009054906101000a90046001600160a01b031683600181518110610dbc57610dbc6115c8565b60200260200101906001600160a01b031690816001600160a01b03168152505060018181548110610def57610def6115c8565b9060005260206000200160009054906101000a90046001600160a01b031683600281518110610e2057610e206115c8565b60200260200101906001600160a01b031690816001600160a01b0316815250506000610e54610e4d610306565b8a86611015565b60018551610e6291906115de565b81518110610e7257610e726115c8565b6020026020010151905084811115610f735760408051600480825260a082019092529195508591906020820160808036833701905050955060018381548110610ebd57610ebd6115c8565b9060005260206000200160009054906101000a90046001600160a01b031686600181518110610eee57610eee6115c8565b60200260200101906001600160a01b031690816001600160a01b03168152505060018281548110610f2157610f216115c8565b9060005260206000200160009054906101000a90046001600160a01b031686600281518110610f5257610f526115c8565b60200260200101906001600160a01b031690816001600160a01b0316815250505b505b80610f7f816115f5565b915050610c8d565b5080610f92816115f5565b915050610c80565b505b8783600081518110610fb057610fb06115c8565b60200260200101906001600160a01b031690816001600160a01b031681525050868360018551610fe091906115de565b81518110610ff057610ff06115c8565b6001600160a01b03909216602092830291909101909101525092509050935093915050565b60606002825110156110695760405162461bcd60e51b815260206004820152601e60248201527f556e697377617056324c6962726172793a20494e56414c49445f5041544800006044820152606401610576565b815167ffffffffffffffff811115611083576110836115b2565b6040519080825280602002602001820160405280156110ac578160200160208202803683370190505b50905082816000815181106110c3576110c36115c8565b60200260200101818152505060005b600183516110e091906115de565b8110156111985760008061113387868581518110611100576111006115c8565b6020026020010151878660016111169190611610565b81518110611126576111266115c8565b60200260200101516101ad565b9150915061115b84848151811061114c5761114c6115c8565b602002602001015183836111a0565b84611167856001611610565b81518110611177576111776115c8565b60200260200101818152505050508080611190906115f5565b9150506110d2565b509392505050565b600080841180156111b15750600083115b80156111bd5750600082115b1561120e5760006111d0856103e5611219565b905060006111de8285611219565b905060006111f8836111f2886103e8611219565b90611225565b90506112048183611590565b9350505050611212565b5060005b9392505050565b60006112128284611571565b60006112128284611610565b6001600160a01b038116811461124657600080fd5b50565b60008060006060848603121561125e57600080fd5b833561126981611231565b9250602084013561127981611231565b9150604084013561128981611231565b809150509250925092565b600080604083850312156112a757600080fd5b82356112b281611231565b946020939093013593505050565b600080604083850312156112d357600080fd5b82356112de81611231565b915060208301356112ee81611231565b809150509250929050565b600081518084526020808501945080840160005b838110156113325781516001600160a01b03168752958201959082019060010161130d565b509495945050505050565b60208152600061121260208301846112f9565b60006020828403121561136257600080fd5b813561121281611231565b60008060006060848603121561138257600080fd5b833561138d81611231565b9250602084013561139d81611231565b929592945050506040919091013590565b82815260406020820152600061039e60408301846112f9565b80516001600160701b03811681146113de57600080fd5b919050565b6000806000606084860312156113f857600080fd5b611401846113c7565b925061140f602085016113c7565b9150604084015163ffffffff8116811461128957600080fd5b60006020828403121561143a57600080fd5b815161121281611231565b60006020828403121561145757600080fd5b815160ff8116811461121257600080fd5b634e487b7160e01b600052601160045260246000fd5b600181815b808511156114b957816000190482111561149f5761149f611468565b808516156114ac57918102915b93841c9390800290611483565b509250929050565b6000826114d0575060016104f8565b816114dd575060006104f8565b81600181146114f357600281146114fd57611519565b60019150506104f8565b60ff84111561150e5761150e611468565b50506001821b6104f8565b5060208310610133831016604e8410600b841016171561153c575081810a6104f8565b611546838361147e565b806000190482111561155a5761155a611468565b029392505050565b600061121260ff8416836114c1565b600081600019048311821515161561158b5761158b611468565b500290565b6000826115ad57634e487b7160e01b600052601260045260246000fd5b500490565b634e487b7160e01b600052604160045260246000fd5b634e487b7160e01b600052603260045260246000fd5b6000828210156115f0576115f0611468565b500390565b600060001982141561160957611609611468565b5060010190565b6000821982111561162357611623611468565b50019056fea2646970667358221220ebf725b006c3aa915cdfea051305ea5656d30c5439600ff77b0dcd173dbd244e64736f6c63430008090033",
  "immutableReferences": {},
  "source": "// SPDX-License-Identifier: MIT\npragma solidity >=0.8.0;\n\n\nimport \"../../openzeppelin/contracts-upgradeable/utils/AddressUpgradeable.sol\";\nimport \"../../openzeppelin/contracts-upgradeable/proxy/utils/Initializable.sol\";\nimport \"../../openzeppelin/contracts-upgradeable/token/ERC20/ERC20Upgradeable.sol\";\nimport \"../../openzeppelin/contracts-upgradeable/utils/math/SafeMathUpgradeable.sol\";\nimport \"./RouterInterface.sol\";\nimport \"./IUniswapV2Pair.sol\";\n\ncontract UniswapPathFinder is Initializable{\n    using SafeMathUpgradeable for uint256;\n\n    address[] internal intermediateTokens;\n\n    address router;\n\n    function initialize(address _router) public initializer {\n      intermediateTokens.push(0xC02aaA39b223FE8D0A0e5C4F27eAD9083C756Cc2); //weth\n      intermediateTokens.push(0xdAC17F958D2ee523a2206206994597C13D831ec7); //usdt\n      intermediateTokens.push(0xA0b86991c6218b36c1d19D4a2e9Eb0cE3606eB48); //usdc\n      router = _router;\n    }\n\n    function findPath(address fromToken, address toToken) public view returns (address[] memory path) {\n      (, path) = evaluatePath(fromToken, toToken, 1000);\n    }\n\n    function evaluate(address fromToken, address toToken, uint256 fromTokenAmt) public view returns (uint256, address[] memory) {\n      return evaluatePath(fromToken, toToken, fromTokenAmt);\n    }\n\n    function getAssetValuation(address basicToken, address assetToken, uint256 assetAmount) public view returns (uint256 valuation) {\n        (valuation, ) = evaluatePath(assetToken, basicToken, assetAmount);\n    }\n\n    function getAssetUSDValuation(address assetToken, uint256 assetTokenAmt) public view returns (uint256 assetTokenOut) {\n      address usdPeggedCoinAddress = 0xA0b86991c6218b36c1d19D4a2e9Eb0cE3606eB48; //usdc\n      if(assetToken == usdPeggedCoinAddress){\n        assetTokenOut = assetTokenAmt;\n      }\n      else {\n      (assetTokenOut,) = evaluatePath(assetToken, usdPeggedCoinAddress, assetTokenAmt);\n      }\n    }\n\n    function uniswapPositionCap(address basicToken, address toToken, uint256 liquidity) internal view returns (uint256){\n        (uint reserveB, uint reserveA) = getReserves(IUniswapV2Router01(uniswapRouter()).factory(), basicToken, toToken);\n        return getAmountOut(liquidity, reserveA, reserveB);\n    }\n\n    function uniswapRouter() public view returns (address){\n        return router;\n    }\n\n    function uniswapFactory() public view returns (address){\n        return IUniswapV2Router01(uniswapRouter()).factory();\n    } \n\n    function evaluatePath(address fromToken, address toToken, uint256 fromTokenAmt) internal view returns (uint256, address[] memory) {\n        if(fromToken == toToken)\n            return (fromTokenAmt, new address[](0));\n          address[] memory path = new address[](2);\n          path[0] = fromToken;\n          path[1] = toToken;\n          uint256 resultingAmt = getAmountsOut(uniswapFactory(),fromTokenAmt,path)[1];\n\n          address[] memory internalPath = new address[](3);\n          internalPath[0] = fromToken;\n          internalPath[2] = toToken;\n          for(uint i =0;i < intermediateTokens.length; i++){\n            if(fromToken != intermediateTokens[i] && toToken!= intermediateTokens[i]){\n              internalPath[1] = intermediateTokens[i];\n              uint256 internalResultAmt = getAmountsOut(uniswapFactory(),fromTokenAmt,internalPath)[internalPath.length-1];\n              if(internalResultAmt > resultingAmt){\n                resultingAmt = internalResultAmt;\n                path = new address[](3);\n                path[1] = intermediateTokens[i];\n              }\n            }\n      }\n\n      if(path.length == 3 && resultingAmt>0) { //avoid trying path[4] if intermediate was not successful && direct path gives non zero result\n        internalPath = new address[](4);\n        internalPath[0] = fromToken;\n        internalPath[3] = toToken;\n        for(uint i = 0;i < intermediateTokens.length; i++){\n          for (uint j = 0; j < intermediateTokens.length; j++){\n            if( i != j && fromToken != intermediateTokens[i] && toToken!= intermediateTokens[i] && fromToken != intermediateTokens[j] && toToken != intermediateTokens[j]) {\n              internalPath[1] = intermediateTokens[i];\n              internalPath[2] = intermediateTokens[j];\n              uint256 internalResultAmt = getAmountsOut(uniswapFactory(),fromTokenAmt,internalPath)[internalPath.length-1];\n              if(internalResultAmt > resultingAmt){\n                resultingAmt = internalResultAmt;\n                path = new address[](4);\n                path[1] = intermediateTokens[i];\n                path[2] = intermediateTokens[j];\n              }\n            }\n          }\n        }\n      }\n\n      path[0] = fromToken;\n      path[path.length-1] = toToken;\n\n      return (resultingAmt,path);\n    }\n\n  // returns sorted token addresses, used to handle return values from pairs sorted in this order\n    function sortTokens(address tokenA, address tokenB) internal pure returns (address token0, address token1) {\n        require(tokenA != tokenB, 'UniswapV2Library: IDENTICAL_ADDRESSES');\n        (token0, token1) = tokenA < tokenB ? (tokenA, tokenB) : (tokenB, tokenA);\n        require(token0 != address(0), 'UniswapV2Library: ZERO_ADDRESS');\n    }\n\n    // calculates the CREATE2 address for a pair without making any external calls\n    function pairFor(address factory, address tokenA, address tokenB) internal pure returns (address pair) {\n        (address token0, address token1) = sortTokens(tokenA, tokenB);\n        pair = address(uint160(uint(keccak256(abi.encodePacked(\n                hex'ff',\n                factory,\n                keccak256(abi.encodePacked(token0, token1)),\n                hex'96e8ac4277198ff8b6f785478aa9a39f403cb768dd02cbee326c3e7da348845f' // init code hash\n            )))));\n    }\n\n    // fetches and sorts the reserves for a pair\n    function getReserves(address factory, address tokenA, address tokenB) public view returns (uint reserveA, uint reserveB) {\n        (address token0,) = sortTokens(tokenA, tokenB);\n        address pairAddress = pairFor(factory, tokenA, tokenB);\n        if(!AddressUpgradeable.isContract(pairAddress)){\n          (reserveA, reserveB) = (0,0);\n        } else{ \n          (uint reserve0, uint reserve1,) = IUniswapV2Pair(pairAddress).getReserves();\n          (reserveA, reserveB) = tokenA == token0 ? (reserve0, reserve1) : (reserve1, reserve0);\n        }\n        \n    }\n\n    // given an input amount of an asset and pair reserves, returns the maximum output amount of the other asset\n    function getAmountOut(uint amountIn, uint reserveIn, uint reserveOut) internal pure returns (uint amountOut) {\n        // require(amountIn > 0, 'UniswapV2Library: INSUFFICIENT_INPUT_AMOUNT');\n        // require(reserveIn > 0 && reserveOut > 0, 'UniswapV2Library: INSUFFICIENT_LIQUIDITY');\n        if(amountIn>0 && reserveIn > 0 && reserveOut > 0 ){\n          uint amountInWithFee = amountIn.mul(997);\n          uint numerator = amountInWithFee.mul(reserveOut);\n          uint denominator = reserveIn.mul(1000).add(amountInWithFee);\n          amountOut = numerator / denominator;\n        }else {\n          amountOut = 0;\n        }\n    }\n\n    // performs chained getAmountOut calculations on any number of pairs\n    function getAmountsOut(address factory, uint amountIn, address[] memory path) internal view returns (uint[] memory amounts) {\n        require(path.length >= 2, 'UniswapV2Library: INVALID_PATH');\n        amounts = new uint[](path.length);\n        amounts[0] = amountIn;\n        for (uint i; i < path.length - 1; i++) {\n            (uint reserveIn, uint reserveOut) = getReserves(factory, path[i], path[i + 1]);\n            amounts[i + 1] = getAmountOut(amounts[i], reserveIn, reserveOut);\n        }\n    }\n\n    function getUniswapPoolReserves(address tokenA,address tokenB) public view returns(uint256 reserveA, uint256 reserveB){\n        (reserveA,reserveB) = getReserves(uniswapFactory(), tokenA, tokenB);\n    }\n\n    function getPrice(address basicToken, address prj) public view returns(uint256 priceOfPrjScaledBy10pow18){\n        (uint reserveBasicToken,uint reservePrj) = getReserves(uniswapFactory(), basicToken, prj);\n        uint8 basicTokenDecimals = ERC20Upgradeable(basicToken).decimals();\n        uint8 prjDecimals = ERC20Upgradeable(prj).decimals();\n        priceOfPrjScaledBy10pow18 = (10 ** 18) * (reserveBasicToken * (10 ** basicTokenDecimals)) / (reservePrj * (10 ** prjDecimals));\n        return priceOfPrjScaledBy10pow18;\n    }\n  \n\n    \n\n}\n",
  "sourcePath": "/Users/sergeymurzin/PROJECTS/VAREGER/primary-smart-contracts/contracts/uniswap/UniswapPathFinder.sol",
  "compiler": {
    "name": "solc",
    "version": "0.8.9+commit.e5eed63a.Emscripten.clang"
  },
  "schemaVersion": "3.4.1",
  "updatedAt": "2021-10-26T08:00:21.893Z",
  "networkType": "ethereum",
  "devdoc": {
    "kind": "dev",
    "methods": {},
    "version": 1
  },
  "userdoc": {
    "kind": "user",
    "methods": {},
    "version": 1
  }
}